:020000040810E2
:100000000080041061071008050710080707100892
:10001000090710080B0710080D0710080000000062
:100020000000000000000000000000000F071008A2
:10003000110710080000000013071008150710082A
:10004000B1071008B1071008B1071008B107100870
:10005000B1071008B1071008B1071008B107100860
:10006000B1071008B1071008B1071008B107100850
:10007000B1071008B1071008B1071008B107100840
:10008000B1071008B1071008B1071008B107100830
:10009000B1071008B1071008B1071008B107100820
:1000A000B1071008B1071008B1071008B107100810
:1000B000B1071008B1071008B1071008B107100800
:1000C000B1071008B1071008B1071008B1071008F0
:1000D000B1071008B1071008B1071008B1071008E0
:1000E000B1071008B107100800000000B1071008A0
:1000F000B1071008B1071008B1071008B1071008C0
:10010000B1071008B1071008B1071008B1071008AF
:10011000B1071008B1071008B1071008B10710089F
:10012000B1071008B1071008B1071008B10710088F
:10013000B1071008B1071008B1071008B10710087F
:10014000B1071008B107100800000000000000000F
:10015000B1071008B1071008B1071008B10710085F
:10016000B1071008B1071008B1071008B10710084F
:10017000B1071008B1071008B1071008000000000F
:10018000B1071008B1071008B1071008B10710082F
:10019000B1071008B1071008B1071008B10710081F
:1001A000B1071008B1071008B1071008B10710080F
:1001B000B1071008B1071008B1071008B1071008FF
:1001C000B1071008B1071008B1071008B1071008EF
:1001D000B1071008B1071008B1071008B1071008DF
:1001E000B1071008B1071008B1071008B1071008CF
:1001F000B1071008B1071008B1071008B1071008BF
:10020000B1071008B1071008B1071008B1071008AE
:10021000B1071008B1071008B1071008B10710089E
:10022000B1071008B1071008B1071008B10710088E
:10023000B1071008B1071008B1071008B10710087E
:10024000B1071008B1071008B1071008B10710086E
:10025000B1071008B1071008B1071008B10710085E
:10026000B1071008B1071008B1071008B10710084E
:10027000B1071008B1071008B1071008B10710083E
:10028000B1071008B1071008B107100800000000FE
:08029000B1071008B1071008C6
:1002980010B5054C237833B9044B13B10448AFF3B8
:1002A80000800123237010BD3C04001000000000F2
:1002B8001809100808B5034B1BB103490348AFF3ED
:1002C800008008BD00000000400400101809100854
:1002D80038B50F4B0546187808B9012038BD0D4AC6
:1002E8004FF47A73B3FBF0F31068B0FBF3F000F04F
:1002F800B1F804460028F0D10F2DEED80246294661
:100308004FF0FF3000F072F8034B20461D60E5E720
:1003180000000010080000100400001013B51F4C66
:100328001F4AD4F8D83043F48043C4F8D830D4F8FE
:10033800D83003F480430193019B136823F47F238F
:1003480023F4706343F401431360136843F001031B
:100358001360032000F038F800F0F2F8A36911499F
:10036800A269C3F3032302F00F02CB5C03F01F035F
:10037800D8408B5C03F01F03D8400B4B18600B4B25
:1003880018600020FFF7A4FF044620B900F0C0F968
:10039800204602B010BD0124FAE700BF004402580D
:1003A80000440240300910080C000010080000103A
:1003B800034A044B11681B780B441360704700BF55
:1003C8005804001000000010074AD36823F4E063C3
:1003D8001B041B0C43F0BF63000243F4003300F41A
:1003E800E0600343D360704700ED00E0174B70B541
:1003F800DC68C4F30224C4F10705042D04F10403E6
:1004080028BF04254FF0FF36062B06FA05F38CBFEC
:10041800033C002421EA0303A34006FA04F422EA79
:100428000404002843EA0403A8BF00F160404FEA2F
:100438000313BCBF00F00F00054ADBB2AABF00F5EA
:100448006140135480F8003370BD00BF00ED00E038
:1004580014ED00E00138B0F1807F0AD2064B074A5C
:100468005860F02182F823100020072298601A6053
:1004780070470120704700BF10E000E000ED00E089
:10048800044B1B68C3F30313072B0CBF0320012085
:10049800704700BF00ED00E0024A1368184310607F
:1004A800704700BF1065025838B51E4C236823F00A
:1004B800010318430D462060C2B9FFF7E1FF032886
:1004C80013D1236923F001032361174B1A6942F002
:1004D80004021A61BFF34F8FBFF36F8F012D10D144
:1004E80030BF1A6922F004021A6138BD012A0AD104
:1004F800FFF7C6FF0128F8D1636923F0020363619F
:10050800E3E720BFEDE7FFF7BBFF03280BBF236935
:10051800636923F0040323F004030CBF23616361C0
:10052800E3E700BF0048025800ED00E008B5FFF718
:10053800A7FF032801D120BF08BD40BFFBE700008B
:10054800464B1A6902F03802102A10B500F0848070
:10055800182A0CD00AB1424810BD1A68414812F056
:10056800200FF9D01B68C3F3C103D840F4E7996A98
:10057800986ADA6A5C6BC0F305100028ECD007EEC5
:10058800900A02F00102C4F3CC004243F8EEE76A95
:1005980007EE902A01F00302012AFAEEE97AB7EE93
:1005A800006A02D00FD3022A48D01B6BC3F308039A
:1005B80007EE103AB8EEC77A77EE277A77EE867AA2
:1005C8009FED296A37E01A68920627D51968254AE7
:1005D8001B6BC1F3C101CA4007EE102AF8EEC75AD7
:1005E800C3F3080385EEA67A06EE903AF8EEE66ABB
:1005F80076EEA77A77EE867A184B1B6BC3F3462301
:10060800013367EE877A07EE103AF8EEC76A87EE8D
:10061800A67AFCEEC77A17EE900A9DE71B6BC3F328
:10062800080307EE103AB8EEC77A77EE277A77EE26
:10063800867A9FED0E6A86EE267ADDE71B6BC3F39A
:10064800080307EE103AB8EEC77A77EE277A77EE06
:10065800867A9FED076AEEE706487DE70044025870
:1006680000093D000090D0030024744A0024744C13
:1006780020BCBE4B40787D011D4CD4F8E03007B556
:1006880043F00073C4F8E030D4F8E03003F00073AE
:1006980001200093009BFFF7FFFEFFF747FF0122B1
:1006A80002210020FFF700FF124B1B68C3F303135E
:1006B800072B114B0BBFD3F80421D3F8142142F0B8
:1006C800010242F001020CBFC3F80421C3F814214F
:1006D800FFF724FED4F8D43043F00103C4F8D43033
:1006E800D4F8D43003F001030193019BFEE700BF67
:1006F8000044025800ED00E000640258FEE7FEE7FF
:10070800FEE7FEE7FEE7704770477047FFF750BE09
:10071800074BD3F8F42042F00202C3F8F420D3F8D0
:10072800F43082B003F002030193019B02B07047DA
:1007380000440258074BD3F8882042F47002C3F8EB
:1007480088201A6942F010021A614FF001629A601B
:10075800704700BF00ED00E0DFF834D0FFF7EAFF94
:100768000C480D490D4A002302E0D458C450043304
:10077800C4188C42F9D30A4A0A4C002301E01360DA
:100788000432A242FBD300F011F8FFF775FF70475F
:1007980000800410000000103C04001050091008EC
:1007A8003C04001080040010FEE7000070B50D4EF8
:1007B8000D4D761BB61006D00024013455F8043BC5
:1007C8009847A642F9D1094E094D761B00F0A0F8CA
:1007D800B61006D00024013455F8043B9847A642C9
:1007E800F9D170BD44091008440910084C091008D3
:1007F80044091008024B13B1024800F005B87047CD
:10080800000000001D081008002301461A4618467B
:1008180000F01EB838B50A4C0A4D641BA4100AD063
:1008280004F18043013B05EB8305013C55F804398D
:100838009847002CF9D1BDE8384000F06FB800BFE8
:10084800500910084C091008704700BF704700BFD6
:100858002DE9F8432B4D0646286898460F469146E1
:10086800FFF7F2FF284B1C68D4F84831002B3DD025
:100878005A681F2A0DDC02F1010C16BB0232C3F8BC
:1008880004C0286843F82270FFF7E0FF0020BDE8A5
:10089800F8831E4B7BB34FF4C870AFF30080034658
:1008A80048B3D4F848210021C0E900214FF0010CD9
:1008B800C4F848010A46C0F88811C0F88C11002E07
:1008C800DCD003EB82010124C1F88890D3F88801B9
:1008D80094402043022EC3F88801C1F80881CDD185
:1008E800D3F88C110C43C3F88C41C7E704F5A67301
:1008F800C4F84831BCE72868FFF7A8FF4FF0FF307D
:10090800C5E700BF380400104009100800000000C7
:10091800F8B500BFF8BC08BC9E467047F8B500BFE4
:08092800F8BC08BC9E467047B4
:100930000000000001020304010203040607080985
:040940001000001093
:08094400FD071008BD021008B8
:04094C0099021008F4
:1009500001000000100000000090D0030090D003C0
:1009600000000000FC02001064030010CC03001023
:100970000000000000000000000000000000000077
:100980000000000000000000000000000000000067
:100990000000000000000000000000000000000057
:1009A0000000000000000000000000000000000047
:1009B0000000000000000000000000000000000037
:1009C0000000000000000000000000000000000027
:1009D0000000000000000000000000000000000017
:1009E0000000000000000000000000000000000007
:1009F00000000000000000000000000000000000F7
:100A000000000000000000000100000000000000E5
:100A10000E33CDAB34126DE6ECDE05000B000000AA
:100A200000000000000000000000000000000000C6
:100A300000000000000000000000000000000000B6
:100A400000000000000000000000000000000000A6
:100A50000000000000000000000000000000000096
:0C0D800000000000000000005C040010F7
:040000050810076177
:00000001FF
