:020000040810E2
:1000000000800410A1491008710B1008790B10082A
:10001000810B1008890B1008910B100800000000DC
:1000200000000000000000000000000001D11008E6
:10003000990B10080000000051D3100879C1100876
:10004000F1491008F1491008F1491008F149100868
:10005000F1491008F1491008F1491008F149100858
:10006000F1491008F1491008F1491008F149100848
:10007000F1491008F1491008F1491008F149100838
:10008000F1491008F1491008F1491008F149100828
:10009000F1491008F1491008F1491008F149100818
:1000A000F1491008F1491008F1491008F149100808
:1000B000F1491008F1491008F1491008F1491008F8
:1000C000F1491008F1491008F1491008F1491008E8
:1000D000F1491008F1491008F1491008F1491008D8
:1000E000F1491008F149100800000000F14910081A
:1000F000F1491008F1491008F1491008F1491008B8
:10010000F1491008F1491008F1491008F1491008A7
:10011000F1491008F1491008A90B1008F14910081D
:10012000F1491008F1491008F1491008F149100887
:10013000F1491008BD0B1008D10B1008F149100847
:10014000F1491008F149100800000000000000000B
:10015000F1491008F1491008F1491008F149100857
:10016000F1491008F1491008F1491008F149100847
:10017000F1491008F1491008F14910080000000089
:10018000F1491008F1491008F1491008F149100827
:10019000F1491008F1491008F1491008F149100817
:1001A000F1491008F1491008F1491008F149100807
:1001B000F1491008F1491008F1491008F1491008F7
:1001C000F1491008F1491008F1491008F1491008E7
:1001D000F1491008F1491008F1491008F1491008D7
:1001E000F1491008F1491008F1491008F1491008C7
:1001F000F1491008F1491008F1491008F1491008B7
:10020000F1491008F1491008F1491008F1491008A6
:10021000F1491008F1491008F1491008F149100896
:10022000F1491008F1491008F1491008F149100886
:10023000F1491008F1491008E50B1008F1491008C0
:10024000F1491008F1491008F1491008F149100866
:10025000F1491008F1491008F1491008F149100856
:10026000F1491008F1491008F1491008F149100846
:10027000F1491008F1491008F1491008F149100836
:10028000F1491008F1491008F14910080000000078
:08029000F1491008F1491008C2
:1002A00010B5054C237833B9044B13B10448AFF3B0
:1002B00000800123237010BD90000010000000009A
:1002C000B8CB110808B5034B1BB103490348AFF382
:1002D000008008BD0000000094000010B8CB110899
:1002E000034613F8012B002AFBD1181A0138704776
:1002F00001F0FF01102A2BDB10F0070F08D010F8D7
:10030000013B013A8B422DD010F0070F42B3F6D1DA
:10031000F0B441EA012141EA014122F007047FF0F3
:1003200000070023F0E80256083C85EA010586EA4A
:10033000010685FA47F5A3FA87F586FA47F6A5FA86
:1003400087F68EB9EED1F0BC01F0FF0102F0070292
:1003500032B110F8013B013A83EA010313B1F8D13D
:100360000020704701387047002D06BF354603381E
:10037000073815F0010F07D1013015F4807F02BF57
:10038000013015F4C03F0130F0BC0138704700BFA8
:1003900080B582B000AF78607B6803F08053002B9B
:1003A00005D04FF0805009F093F800F045F87B68D5
:1003B000002B05DA4FF0004009F08AF800F060F8F1
:1003C00000BF0837BD4680BD80B582B002AF0E4B7E
:1003D00000930E4B012200214FF42F600EF062F9C2
:1003E00003460B4A13600B4B00930B4B0122002179
:1003F0004FF42F600EF056F90346054A5360002370
:100400001846BD4680BD00BF0800003850000038C7
:10041000000000382C000038400B003880B500AFD9
:100420004FF0805009F054F84FF0004009F050F8B8
:100430000023184680BD000080B582B000AF0023C5
:100440007B600D4B1B68002B12D00B4B1B683A1DB9
:10045000114618460EF082FB7B68002B09D0074B33
:100460004FF080521A60BFF34F8FBFF36F8F00E0E1
:1004700000BF0837BD4680BD0000003804ED00E035
:1004800080B582B000AF00237B600D4B5B68002B12
:1004900012D00B4B5B683A1D114618460EF0A2FBBA
:1004A0007B68002B09D0074B4FF080521A60BFF3D6
:1004B0004F8FBFF36F8F00E000BF0837BD4680BD90
:1004C0000000003804ED00E080B584B000AF786033
:1004D0007B68FB60BFF34F8F00BF124B5B68FA680D
:1004E0009A420BD11B211D2008F0BAFF0346002BB6
:1004F00014D11B211D2008F0D7FF0FE0094B1B680A
:10050000FA689A420AD11B211E2008F0A9FF03466F
:10051000002B03D11B211E2008F0C6FF00BF10379F
:10052000BD4680BD0000003880B586B000AFF860E1
:10053000B9607A600F4B5B68002B01D1002315E096
:100540007B68002B09DA0B4B58684FF0FF33BA6811
:10055000F9680EF061F9786107E0064B58687B682E
:10056000BA68F9680EF058F978617B69184618374F
:10057000BD4680BD0000003880B586B000AFF86091
:10058000B9607A607B68002B09DA0B4B18684FF072
:10059000FF33BA68F9680EF026FA786107E0064B77
:1005A00018687B68BA68F9680EF01DFA78617B6993
:1005B00018461837BD4680BD0000003880B582B0AF
:1005C00000AF304BD3F8E0302E4A43F00073C2F84E
:1005D000E0302C4BD3F8E03003F000737B607B6895
:1005E000012008F075FF09F00FFD01220221002013
:1005F00009F090FC244B1B681B0903F00F03072B29
:1006000008D1224BD3F80431204A43F00103C2F849
:10061000043107E01D4BD3F814311C4A43F00103A9
:10062000C2F8143106F05EFD00F098F800F0B0F862
:1006300000F046F8FFF7C8FE0BF0B8FD144A0021A1
:1006400014480BF012FE0346134A1360134A0021AC
:1006500013480BF00AFE0346124A1360124A0021A7
:1006600012480BF002FE0346114A1360114A0021A2
:1006700011480BF0FAFD0346104A13600BF0BAFD67
:1006800000BFFDE70044025800ED00E0006402589E
:1006900060FB1108DD3710080001001084FB110811
:1006A0006912100804010010A8FB1108CD0E1008F3
:1006B00008010010CCFB1108854A10080C0100103D
:1006C00080B500AF224B234A1A60214B224A5A6060
:1006D0001F4B00229A601E4B0122DA601C4B002245
:1006E0001A611B4B00225A61194B00229A61184B68
:1006F0000022DA61164B00221A62154808F014FF36
:100700000346002B14BF01230023DBB2002B01D0D2
:1007100000F0C4F800210E4809F064FB0346002BEA
:1007200014BF01230023DBB2002B01D000F0B6F888
:100730000221074809F0A1FB0346002B14BF012347
:100740000023DBB2002B01D000F0A8F800BF80BD71
:10075000AC000010001C0058FFECC01080B483B047
:1007600000AF0A4BD3F8D430084A43F00103C2F873
:10077000D430064BD3F8D43003F001037B607B68A0
:1007800000BF0C37BD465DF8047B7047004402583B
:1007900080B489B000AF374BD3F8E030354A43F02E
:1007A0004003C2F8E030334BD3F8E03003F04003AD
:1007B000FB61FB692F4BD3F8E0302E4A43F0100366
:1007C000C2F8E0302B4BD3F8E03003F01003BB61EC
:1007D000BB69284BD3F8E030264A43F00403C2F843
:1007E000E030244BD3F8E03003F004037B617B69F5
:1007F000204BD3F8E0301F4A43F00103C2F8E03049
:100800001C4BD3F8E03003F001033B613B69194B0B
:10081000D3F8E030174A43F00203C2F8E030154B3A
:10082000D3F8E03003F00203FB60FB68114BD3F810
:10083000E030104A43F08003C2F8E0300D4BD3F8AB
:10084000E03003F08003BB60BB680A4BD3F8E030B4
:10085000084A43F00803C2F8E030064BD3F8E03012
:1008600003F008037B607B6800BF2437BD465DF85A
:10087000047B70470044025880B582B000AF7860B6
:100880007B681B68044A934201D106F089FC00BFD3
:100890000837BD4680BD00BF0010004080B400AFE7
:1008A00072B600BF00BFFDE780B582B000AF7860D0
:1008B00039607B68012B24D13B684FF6FF7293426D
:1008C0001FD10022182140200CF0EFFE03460F4AF2
:1008D00013600022182110200CF0E7FE03460C4A9A
:1008E00013600022182110200CF0DFFE0346094A95
:1008F00013600022182104200CF0D7FE0346064A9C
:10090000136000BF0837BD4680BD00BF1001001056
:1009100014010010180100101C01001080B500AF78
:100920004FF6FF710120FFF7BFFF80BD80B582B099
:1009300000AF104BD3F8F4300E4A43F00203C2F874
:10094000F4300C4BD3F8F43003F002037B607B6887
:1009500000220F216FF0010006F00EFD002207219A
:100960007E2006F009FD7E2006F020FD00BF08373E
:10097000BD4680BD0044025880B5BCB000AF786071
:1009800007F1DC0300221A605A609A60DA601A618B
:1009900007F11003C822002118461BF0BEFA7B683D
:1009A0001B68274A934246D14FF010024FF00003D4
:1009B000C7E904230023C7F8AC3007F11003184639
:1009C00009F034FD0346002B01D0FFF767FF1D4BF4
:1009D000D3F8E0301B4A43F00803C2F8E030194B6B
:1009E000D3F8E03003F00803FB60FB684FF440539A
:1009F000C7F8DC301223C7F8E0300023C7F8E43032
:100A00000023C7F8E8300423C7F8EC3007F1DC0313
:100A100019460D4808F06AFA0A4BD3F8F430094A2F
:100A200043F08003C2F8F430064BD3F8F43003F0FF
:100A30008003BB60BB6800BFF037BD4680BD00BF10
:100A4000001C005800440258000C025880B582B0C7
:100A500000AF78607B681B680C4A934211D10C4B45
:100A6000D3F8F4300A4A23F08003C2F8F4304FF48C
:100A70008051084808F0EAFB4FF40051054808F09F
:100A8000E5FB00BF0837BD4680BD00BF001C005815
:100A900000440258000C025880B590B000AF786056
:100AA0007B680F2B27D800227968362006F064FC7B
:100AB000362006F07BFC294A7B681360284BD3F86C
:100AC000E830274A43F01003C2F8E830244BD3F84B
:100AD000E83003F01003FB60FB6807F1100207F138
:100AE00014031146184609F05FFCBB6ABB63BB6B7D
:100AF000002B06D101E001232BE009F03FFCF86355
:100B000004E009F03BFC03465B00FB63FB6B154A0A
:100B1000A2FB03239B0C013B7B63134B134A1A601C
:100B2000114B40F2E732DA600F4A7B6B53600E4B99
:100B300000221A610C4B00229A600B480BF024F83B
:100B40000346002B04D108480BF080F8034600E070
:100B5000012318464037BD4680BD00BF1C00001071
:100B60000044025883DE1B432001001000100040A7
:100B700080B400AF00BFFDE780B400AF00BFFDE769
:100B800080B400AF00BFFDE780B400AF00BFFDE759
:100B900080B400AF00BFFDE780B400AF00BFBD462A
:100BA0005DF8047B7047000080B500AF02480BF091
:100BB000C5F800BF80BD00BF2001001080B500AFA8
:100BC000024806F0EBFF00BF80BD00BF5C020010D2
:100BD00080B500AF024806F0E1FF00BF80BD00BF56
:100BE0005C02001080B500AF08F084FC00BF80BD3F
:100BF00080B400AF01231846BD465DF8047B704702
:100C000080B483B000AF78603960054B16221A605B
:100C10004FF0FF3318460C37BD465DF8047B704734
:100C2000CC1E011080B582B000AF78604FF0FF316C
:100C30007868FFF7E5FF00BFFDE780B586B000AF3D
:100C4000F860B9607A6000237B610AE0AFF300804E
:100C50000146BB685A1CBA60CAB21A707B6901337C
:100C60007B617A697B689A42F0DB7B6818461837AB
:100C7000BD4680BD80B586B000AFF860B9607A60CF
:100C800000237B6109E0BB685A1CBA601B781846D8
:100C9000AFF300807B6901337B617A697B689A429C
:100CA000F1DB7B6818461837BD4680BD80B483B041
:100CB00000AF78604FF0FF3318460C37BD465DF843
:100CC000047B704780B483B000AF786039603B68C4
:100CD0004FF400525A60002318460C37BD465DF8A9
:100CE000047B704780B483B000AF7860012318465E
:100CF0000C37BD465DF8047B704780B485B000AF0B
:100D0000F860B9607A60002318461437BD465DF874
:100D1000047B704780B487B000AF7860144A154BED
:100D2000D31A7B617B693B61134B1B68002B02D19B
:100D3000114B124A1A60104B1A687B6813443A69C7
:100D40009A4205D20E4B0C221A604FF0FF3309E095
:100D5000094B1B68FB60084B1A687B681344064A02
:100D60001360FB6818461C37BD465DF8047B70476E
:100D700000800410001000006C010010D81E01104B
:100D8000CC1E011080B483B000AF786039603B683E
:100D900018460C37BD465DF8047B704780B483B0BD
:100DA00000AF78607B6818460C37BD465DF8047B61
:100DB000704780B483B000AF78607B6818460C370A
:100DC000BD465DF8047B704780B582B000AF7860A7
:100DD0007B689B68002B05D07B689B687868796886
:100DE000032298477B6818460837BD4680BD00003F
:100DF00080B584B000AFF860B9607A60FB707B6842
:100E0000002B07D1B86814F0E3FA124B00221A70D5
:100E100000231BE07B685B89632B0DD87B685968D6
:100E20007B685B891A460C481BF07FF87B685B89FE
:100E30001A46094B002199547B685B891946B868AA
:100E400014F016FC786813F027FD002318461037BD
:100E5000BD4680BDD80100107401001080B485B07B
:100E600000AFF860B9601346FB80002318461437C2
:100E7000BD465DF8047B704780B584B000AFF86074
:100E8000B9601346FB7197F90730002B08D0B8689A
:100E900014F09EFA0A4B00221A7097F907300BE003
:100EA000074B01221A700749B86815F0BFFB0649C5
:100EB000B86815F0DDFB002318461037BD4680BD2D
:100EC000D8010010F10D10085D0E100890B587B024
:100ED00000AF786002F044FF284BFB60284B1B7882
:100EE000002B2DD115F09AFB0346264A1360254BA3
:100EF0001B68002B04D141F288300BF048FA3BE02C
:100F0000204B1B6804220021184615F0D3FB1D4B13
:100F1000186807F10C011C4B41F2883214F040FCB8
:100F20000346FB7497F91330002B22D0154B1B6836
:100F3000184614F04DFA41F288300BF028FA1BE005
:100F4000124B7B610F4B1C687869FFF7C9F90346A8
:100F50009AB201237969204618F05AFA0346FB74C5
:100F600097F91330002B04D1064B1B68184619F073
:100F700039F864200BF00BFAB0E700BFC0A8010AF3
:100F8000D801001070010010790E10080CCC110867
:100F900080B582B000AF78607B681846FFF714FF19
:100FA0007B6818460837BD4680BD80B483B000AF6B
:100FB00078607B681A460023136053607B680022C8
:100FC0009A607B6818460C37BD465DF8047B704715
:100FD00080B483B000AF78607B6818460C37BD469C
:100FE0005DF8047B704780B483B000AF78607B68A5
:100FF00018460C37BD465DF8047B704780B483B05B
:1010000000AF78607B6818460C37BD465DF8047BFE
:10101000704780B582B000AF78607868FFF7BEFE99
:10102000034618460837BD4680BD80B483B000AF84
:1010300078607B689B68002B0CBF01230023DBB228
:1010400018460C37BD465DF8047B704780B485B008
:1010500000AFF860B9601346FB71FB68BA681A60AC
:10106000FB68FA791A71054B1A68FB689A60FB688D
:1010700018461437BD465DF8047B70471001001018
:1010800082B090B58BB000AF786007F1380080E88F
:101090000C000B467B807B689B68002B20D07B88F4
:1010A000BB8107F1100407F138030FCB84E80F0070
:1010B0007B681B7987F8203097F8483087F8213013
:1010C0007B68986807F10C0100230A220CF072FC7F
:1010D00078627B6A012B01D0002302E0012300E04B
:1010E000002318462C37BD46BDE8904002B070473B
:1010F00090B58FB004AF786039607B681B68002BB7
:1011000027D001237B6214E0BC8997F8203097F840
:101110002120039202936A4607F1180393E8030023
:1011200082E8030007F110030CCB2146386800F079
:1011300014F87B681B6807F10C01002218460CF0BC
:1011400069FE0346012B0CBF01230023DBB2002BF9
:10115000DAD100BF2C37BD4690BD82B02DE9F043F7
:1011600085B002AF786007F1280080E80C000B46DC
:101170007B807B681846FFF758FF0346002B01D0A1
:101180001AF055FC7B68DC687D68BB1C1846FFF7CD
:101190001FFF064607F12800FFF725FF804607F1ED
:1011A00038031846FFF72AFF814607F13C0318462B
:1011B000FFF724FF034600934B464246314628463C
:1011C000A04700BF0C37BD46BDE8F04302B07047F2
:1011D00080B582B000AF78607B6800221A707868B2
:1011E00000F005F87B6818460837BD4680BD80B41E
:1011F00083B000AF78607B6800225A607A687B68B1
:101200009A607A687B68DA607B6800221A6100BFA6
:101210000C37BD465DF8047B704780B582B000AFE7
:1012200078607B68184600F02BF97B681846083711
:10123000BD4680BD80B582B000AF78607B6818463F
:10124000FFF7EBFF7B6818460837BD4680BD80B5C9
:1012500082B000AF78607B681846FFF7EBFF7B68D1
:1012600018460837BD4680BD80B588B000AF7860AD
:1012700007F108031846FFF7EAFF094B1A6807F160
:1012800008030521184600F00DF807F10803184679
:1012900000F01BF801200BF07AF800BFF5E700BF63
:1012A0001401001080B586B000AFF8600B467A607C
:1012B000FB72F96807F110003B1D07F10B0200F00B
:1012C000F4F800BF1837BD4680BD80B586B000AFCA
:1012D000786007F10C037968184600F035F807F1DB
:1012E0000C031946786800F055F807F10C0318460E
:1012F00000F0F5F800BF1837BD4680BD80B582B05C
:1013000000AF7860786800F015F97B6818460837F8
:10131000BD4680BD80B582B000AF78607B6818465E
:1013200000F0F8F87B6818460837BD4680BD80B5E8
:1013300082B000AF78607B681846FFF7EBFF7B68F0
:1013400018460837BD4680BD80B58AB000AF7860CA
:1013500039607868FFF7EBFF01237B620C4B1B6859
:1013600007F10C01002218460CF054FD78627B6AEC
:10137000012B05D107F10C031946786800F004F938
:101380007B6A012BEAD000BF78682837BD4680BD54
:1013900010010010B0B590B000AF786039603B68C4
:1013A000BB63B86B00F016F903467B61B86B00F0C5
:1013B00021F903463B6153E007F11403184600F09E
:1013C00053F9034607F118041D460FCD0FC495E8E5
:1013D000030084E8030097F82D30FB737B6807F166
:1013E0000F021146184600F04BF90346BB607B68BC
:1013F000184600F054F903463B6307F1300207F149
:1014000008031146184600F057F90346002B0AD08E
:101410007B6807F10F021146184600F061F9034698
:101420001B68FB630CE07B68052287F8372007F117
:1014300037021146184600F0AFF903461B68FB63FC
:10144000FB6B002B07D007F1180100234FF0FF3290
:10145000F86B0CF0AFFA07F11403184600F0F3F83C
:1014600007F1100207F114031146184600F0D3F8F3
:101470000346002BA0D100BF00BF4037BD46B0BD22
:1014800080B582B000AF7860786800F0E5F97B68DD
:10149000184600F0EDF97B6804331846FFF798FE14
:1014A0007B6818460837BD4680BDB0B584B000AF34
:1014B000F860B9607A603B60BC68786800F0EFF96A
:1014C0000546386800F0F6F90346F8682A462146D2
:1014D00000F0FBF900BFF8681037BD46B0BDB0B5ED
:1014E00082B000AF78607B681C687B685D687B6851
:1014F000184600F03FFA03461A462946204600F0F7
:1015000044FA7B68184600F021F87B6818460837D3
:10151000BD46B0BD80B582B000AF7860786800F09D
:1015200042FA7B68184600F04AFA7B68184608378A
:10153000BD4680BD80B582B000AF7860786800F0AD
:1015400052FA7B6818460837BD4680BD80B582B028
:1015500000AF78607B6819687B689A687B681B6855
:10156000D31ADB10074A02FB03F31A46786800F02F
:1015700045FA7B681846FFF7C1FE7B6818460837B6
:10158000BD4680BDABAAAAAA80B582B000AF786084
:1015900039607B685A687B689B689A420DD078688E
:1015A0007B685B683A68194600F03BFA7B685B68C9
:1015B00003F118027B685A6008E0786800F044FA8A
:1015C00003463A681946786800F066FA00BF0837A3
:1015D000BD4680BD80B584B000AF78607A6807F101
:1015E0000C031146184600F01FFBFB681846103725
:1015F000BD4680BD80B584B000AF78607B681A1DA1
:1016000007F10C031146184600F00EFBFB68184664
:101610001037BD4680BD90B583B000AF78603960AB
:10162000786800F011FB03461C68386800F00CFB7A
:1016300003461B689C4214BF01230023DBB21846FB
:101640000C37BD4690BD80B483B000AF78607B6836
:101650001B6803F118027B681A607B6818460C3718
:10166000BD465DF8047B704780B483B000AF7860FE
:101670007B681B6818460C37BD465DF8047B7047D5
:1016800080B582B000AF786039607B6839681846F1
:1016900000F0E5FA034618460837BD4680BD80B520
:1016A00082B000AF78607B68184600F014FB0346F8
:1016B00018460837BD4680BD80B483B000AF78605F
:1016C00039607B681A683B681B689A4214BF012323
:1016D0000023DBB218460C37BD465DF8047B70472B
:1016E00090B58BB002AF786039603968786800F0E7
:1016F00003FB0346BB607868FFF7D1FF0346FB603E
:1017000007F10C0207F108031146184600F003FB2D
:101710000346002B12D1786800F011FB07F1080393
:10172000184600F019FB03461A4607F11003396802
:10173000184600F01FFB0346002B01D0012300E0F8
:101740000023002B1BD07C6807F1080207F114036B
:101750001146184600F032FB07F1180339681846A5
:1017600000F01DFB07F1180207F11C03009313465C
:10177000084A7969204600F031FB0346BB6007F157
:101780000803184600F0E8FA0346043318462437E5
:10179000BD4690BDF0FB110890B58BB002AF7860EC
:1017A00039603968786800F0A7FA0346BB6078684A
:1017B000FFF775FF0346FB6007F10C0207F1080312
:1017C0001146184600F0A7FA0346002B12D178689C
:1017D00000F0B5FA07F10803184600F0BDFA034619
:1017E0001A4607F110033968184600F0C3FA034699
:1017F000002B01D0012300E00023002B1FD07C68C8
:1018000007F1080207F114031146184600F0D6FA52
:10181000386800F029FB024607F118031146184604
:1018200000F03DFB07F1180207F11C03009313467B
:10183000084A7969204600F043FB0346BB6007F184
:101840000803184600F088FA034604331846243784
:10185000BD4690BDF0FB110880B582B000AF786046
:10186000786800F073FB7B6818460837BD4680BD7A
:1018700080B483B000AF78607B6818460C37BD46F3
:101880005DF8047B704780B582B000AF78607868FF
:1018900000F090FB034618460837BD4680BD80B473
:1018A00083B000AF78607B6818460C37BD465DF8A2
:1018B000047B704780B483B000AF78607B681846C3
:1018C0000C37BD465DF8047B704790B58DB000AF16
:1018D000F860B9607A603B607868FFF7E0FF044623
:1018E0003868FFF7E7FF034607F118002246B9689A
:1018F00000F06CFB07F11803184600F020FC0246CC
:1019000007F11003B968184600F094FB7B69002BBF
:1019100015D007F1180007F1100393E8060000F056
:101920001CFC03463B62012387F8273007F127029E
:1019300007F120031946F86800F028FC11E03A6925
:1019400007F128031146184600F039FC002387F8F8
:101950002F3007F12F0207F128031946F86800F02D
:1019600015FC07F11803184600F04FFBF8683437F0
:10197000BD4690BD80B483B000AF78607B681846E8
:101980000C37BD465DF8047B704780B584B000AF6E
:10199000F860B9607A60B968F86800F02BFC00BFA5
:1019A0001037BD4680BD80B582B000AF78607868E2
:1019B00000F02DFC7B6818460837BD4680BD80B41A
:1019C00083B000AF78607B6800221A607B680022D9
:1019D0005A607B6800229A607B6818460C37BD46C7
:1019E0005DF8047B704780B483B000AF78607B689B
:1019F00018460C37BD465DF8047B704780B584B04F
:101A000000AFF860B9607A60BB68002B05D0FB6856
:101A10007A68B968184600F005FC00BF1037BD466B
:101A200080BD80B584B000AFF860B9607A60786836
:101A300000F007FC03461A46B968F86800F00CFC91
:101A400000BF1037BD4680BD80B584B000AF786060
:101A50007B681A1D07F10C031146184600F017FCAD
:101A6000FB6818461037BD4680BD80B582B000AF18
:101A7000184600F005F8034618460837BD4680BDF5
:101A800080B483B000AF3871012318460C37BD46CF
:101A90005DF8047B70470000B0B58CB000AFF86013
:101AA000B9607A605E4A0121F86800F000FCB86213
:101AB000FB681B687B62FB685B683B62F86800F050
:101AC0003DFC03467B6107F1140207F10803114650
:101AD000184600F043FC0346FB61FB68B96A1846F0
:101AE00000F056FCB861BB69FB62FC68FA691346FA
:101AF0005B001344DB001A46BB699D18786800F050
:101B0000A0FB03461A4629462046FFF78AFF00231A
:101B1000FB62FFF7AAFF0346002B27D007F108035B
:101B2000184600F05DFC03461C68FB681846FFF78A
:101B300021FF0346BA692146786A00F03DFCF8624D
:101B4000FB6A1833FB6207F10803184600F048FCF3
:101B500003461C68FB681846FFF70CFF0346FA6A49
:101B6000396A204600F028FCF86226E007F10803F5
:101B7000184600F035FC03461C68FB681846FFF762
:101B8000F9FE0346BA692146786A00F034FCF8622F
:101B9000FB6A1833FB6207F10803184600F020FCCB
:101BA00003461C68FB681846FFF7E4FE0346FA6A22
:101BB000396A204600F01FFCF862FFF756FF034623
:101BC00083F00103DBB2002B09D0FB681846FFF756
:101BD000D1FE03461A46396A786AFFF7D6FEF868DE
:101BE000FB689A687B6AD31ADB100E4A02FB03F388
:101BF0001A46796AFFF702FFFB68BA691A60FB6848
:101C0000FA6A5A60BA6A13465B001344DB001A464C
:101C1000BB691A44FB689A6000BF3037BD46B0BD4F
:101C200020CC1108ABAAAAAA80B483B000AF786018
:101C300039603B681A687B681A607B6818460C3705
:101C4000BD465DF8047B704780B483B000AF786018
:101C50007B6818460C37BD465DF8047B704790B52D
:101C600085B000AF786039607868FFF70CFE0446F5
:101C7000786800F0D9FB02463B682146786800F09E
:101C8000DFFB0346BB60786800F025F80346FB6085
:101C900007F10C0207F108031146184600F03BF863
:101CA0000346002B0DD17C68BB68184600F0F9FB99
:101CB00003461A463968204600F05CF80346002BBC
:101CC00004D0786800F007F8034600E0BB681846C7
:101CD0001437BD4690BD80B584B000AF78607B6896
:101CE0001A1D07F10C031146184600F068FAFB684C
:101CF00018461037BD4680BD80B582B000AF786011
:101D000039607B683968184600F0D7FB03461846EF
:101D10000837BD4680BD80B483B000AF78603960BD
:101D20007B681A683B681B689A420CBF012300233A
:101D3000DBB218460C37BD465DF8047B704790B5A2
:101D400083B000AF78607B68184600F0CDFB00BF21
:101D500020460C37BD4690BD80B582B000AF78609C
:101D60007B681B68184600F0CAFB03461846083714
:101D7000BD4680BD80B485B000AFF860B9607A60C0
:101D8000BB681A787B681B789A4234BF0123002312
:101D9000DBB218461437BD465DF8047B704780B54A
:101DA00082B000AF786039607B683968184600F00F
:101DB000B4FB7B6818460837BD4680BD80B483B04D
:101DC00000AF786039603B681A687B681A607B688E
:101DD00018460C37BD465DF8047B7047B0B58CB033
:101DE00002AFF860B9607A603B60786800F0A4FBED
:101DF0000446386800F0ABFB0546B86B00F0B2FB58
:101E0000034607F11C0000932B462246F96800F0B8
:101E1000B4FB07F11C03184600F091F9034607F1E3
:101E20001400BA68F96800F0CBFBBB69002B09D03D
:101E300007F11C0007F1140393E8060000F08DF988
:101E4000044607E07A6907F124031146184600F0BA
:101E5000B6F97C6A07F11C03184600F0D6F8234651
:101E600018462837BD46B0BD80B483B000AF786057
:101E70007B6818460C37BD465DF8047B704780B51B
:101E800082B000AF786039607B683A6811461846C6
:101E900000F0D7FC7B6818460837BD4680BD80B58A
:101EA00082B000AF78603960386800F0ACFC03465F
:101EB0001946786800F0B2FC78680837BD4680BDE6
:101EC000B0B58CB002AFF860B9607A603B607868FA
:101ED00000F032FB0446386800F0C3FC0546B86BDE
:101EE00000F040FB034607F11C0000932B462246FE
:101EF000F96800F0C1FC07F11C03184600F01FF957
:101F0000034607F11400BA68F96800F059FBBB6991
:101F1000002B09D007F11C0007F1140393E8060019
:101F200000F01BF9044607E07A6907F12403114623
:101F3000184600F044F97C6A07F11C03184600F0CB
:101F400064F8234618462837BD46B0BD80B483B038
:101F500000AF78607B6818460C37BD465DF8047B9F
:101F6000704780B483B000AF78607B68DB68184648
:101F70000C37BD465DF8047B704780B483B000AF7A
:101F800078607B689B6818460C37BD465DF8047B1B
:101F9000704780B582B000AF786039603968786882
:101FA00000F08DFC3968786800F09EFC00BF0837AF
:101FB000BD4680BD80B483B000AF78607B689B680D
:101FC00018460C37BD465DF8047B704790B585B068
:101FD00000AFF860B9607A603B60FB68BA681A606D
:101FE0007868FFF75CFC04463868FFF763FC03463B
:101FF0001A462146B86800F089FC0246FB685A6020
:10200000FB6818461437BD4690BD80B582B000AF5E
:1020100078607B685B68002B07D07B681A687B68F8
:102020005B6819461046FFF7B4FF7B68184608370F
:10203000BD4680BD90B58BB000AFF860B9607A60E6
:10204000B868FFF720FC0346BB61B86800F0ECF904
:1020500003467B61012387F827301FE0BB697B6162
:10206000BC68BB69184600F06DFC03461A467968E7
:102070002046FFF77FFE034687F8273097F8273082
:10208000002B05D0BB691846FFF777FF034604E035
:10209000BB691846FFF765FF0346BB61BB69002BB0
:1020A000DCD17A6907F110031146184600F087F871
:1020B00097F82730002B1DD0B86800F056FC034677
:1020C000FB6107F11C0207F1100311461846FFF7E8
:1020D00022FE0346002B08D007F1140207F1180373
:1020E0001946F86800F052FC25E007F11003184685
:1020F00000F065FCBC683B69184600F0D2F9034665
:102100007A6819462046FFF735FE0346002B08D0B3
:1021100007F1140207F118031946F86800F036FCBD
:1021200009E000233B6207F1200207F11003194682
:10213000F86800F055FCF8682C37BD4690BD80B5B6
:1021400082B000AF78607B685B68184600F0FAFBED
:10215000034618460837BD4680BD80B586B000AF3F
:10216000F8603B1D83E80600FB6818687968BA6868
:10217000FB685B6800F049FC03467B61FB6800225A
:102180005A607B6918461837BD4680BD80B584B05B
:1021900000AFF860B9607A60B86800F073FC02467E
:1021A000FB6812681A60786800F077FC03461A78BA
:1021B000FB681A71FB6818461037BD4680BD80B4B5
:1021C00083B000AF786039607B683A681A607B68DA
:1021D00018460C37BD465DF8047B704780B483B069
:1021E00000AF78607B685B6918460C37BD465DF8C8
:1021F000047B704780B582B000AF78603960396881
:10220000786800F055FC00BF0837BD4680BD80B43B
:1022100083B000AF78607B6818460C37BD465DF828
:10222000047B704780B584B000AFF860B9607A6015
:102230007A68B968F86800F046FC00BF1037BD4600
:1022400080BD80B483B000AF78607B6818460C37DF
:10225000BD465DF8047B7047B0B584B000AFF86050
:10226000B9607A60BB6819461820FEF78BFD0446FA
:102270007868FFF7E6FF03461D460FCD0FC495E8CB
:10228000030084E8030000BF1037BD46B0BD80B432
:1022900083B000AF786039603B681A687B681A6069
:1022A0007B6818460C37BD465DF8047B704790B5D7
:1022B00087B000AFF860B9607A60F86800F016FC8B
:1022C0000446F86800F024FC0346E21ABB689A4210
:1022D00034BF01230023DBB2002B02D0786819F051
:1022E000A3FBF86800F014FC0446F86800F010FC4A
:1022F00003463B6107F1080207F110031146184637
:1023000000F01CFC03461B6823447B61F86800F066
:10231000FFFB02467B69934206D3F86800F0E6FBB8
:1023200002467B69934204D9F86800F0DFFB03465C
:1023300000E07B6918461C37BD4690BD80B584B06F
:1023400000AF78607A6807F10C0311461846FFF772
:102350009EFFFB6818461037BD4680BD90B583B020
:1023600000AF78603960786800F03AF803461C687E
:10237000386800F035F803461B68E31ADB10034A9F
:1023800002FB03F318460C37BD4690BDABAAAAAAC0
:1023900080B582B000AF786039603B68002B06D012
:1023A0007B683968184600F0DDFB034600E0002337
:1023B00018460837BD4680BD90B587B002AFF860BB
:1023C000B9607A603B608DF800403B687A68B96814
:1023D000F86800F0D6FB034618461437BD4690BD9A
:1023E00080B483B000AF78607B6818460C37BD4678
:1023F0005DF8047B704790B585B000AFF860B960B8
:102400007A603B60F86800F0CEFB0446B86800F0E4
:10241000CAFB01463B687A68204600F0D3FB0346BE
:1024200018461437BD4690BD80B483B000AF7860C5
:102430007B68043318460C37BD465DF8047B704753
:1024400090B587B000AFF860B9607A603B601AE081
:10245000FC68B86800F076FA03463A6819462046E8
:10246000FFF788FC034683F00103DBB2002B06D0A4
:10247000BB687B60B868FFF780FDB86003E0B868B0
:10248000FFF76FFDB860BB68002BE1D107F11403C3
:1024900079681846FFF793FE7B6918461C37BD46DE
:1024A00090BD80B582B000AF7860786800F04AFADD
:1024B000034618460837BD4680BD90B583B000AFCF
:1024C000786039607868FFF7DEF904467868FFF7CE
:1024D000ABFF02463B6821467868FFF7B1FF034631
:1024E00018460C37BD4690BD80B483B000AF78600D
:1024F00000BF18460C37BD465DF8047B704780B5B9
:1025000082B000AF78607B681033184600F06BFB38
:10251000034618460837BD4680BD80B582B000AF7F
:10252000786039607B683968184600F068FB7B6822
:1025300018460837BD4680BD80B483B000AF7860D0
:102540007B6818460C37BD465DF8047B704780B445
:1025500083B000AF78607B6818460C37BD465DF8E5
:10256000047B704780B483B000AF78607B68184606
:102570000C37BD465DF8047B7047B0B584B000AF42
:10258000F860B9607A603B60FB68BA681A60786886
:10259000FFF7D2FF04463868FFF7D9FF0546386ACF
:1025A000FFF7E0FF03462A462146B86800F036FBF5
:1025B0000246FB685A60FB6818461037BD46B0BD3E
:1025C00090B58DB000AFF860B9607A603B603B1D9C
:1025D000184600F046FB0346BB61BC69B868FFF7CC
:1025E00023FF03469C420CBF01230023DBB2002BD8
:1025F00030D0B868FFF7F2FD0346002B13D0BC685B
:10260000B86800F03FFB03461B681846FFF749FF18
:1026100003463A6819462046FFF7ACFB0346002BF9
:1026200001D0012300E00023002B0CD00023FB612C
:10263000B86800F027FB024607F11C031946F8684A
:1026400000F0CEF9DBE0FB683A68B9681846FFF79E
:10265000F1FCD4E0BC68BB691846FFF722FF0346D3
:102660001A4639682046FFF785FB0346002B57D0F2
:10267000BB697B61BC69B86800F010FB03461B684E
:102680009C420CBF01230023DBB2002B0DD0B868A5
:1026900000F004FB0446B86800F000FB03461A464D
:1026A0002146F86800F006FBA9E0BC6807F11403B6
:1026B000184600F084F903461B681846FFF7F1FE40
:1026C00003463A6819462046FFF754FB0346002BA1
:1026D0001FD07B691846FFF744FC0346002B0CBF54
:1026E00001230023DBB2002B0AD000233B6207F159
:1026F000140207F120031946F86800F071F97EE032
:1027000007F1180207F118031946F86800F0D2FA29
:1027100075E0FB683A68B9681846FFF78BFC6EE015
:10272000BC68BB691846FFF7BCFE03463A68194609
:102730002046FFF71FFB0346002B56D0BB693B61C9
:10274000BC69B86800F09EFA03461B689C420CBF47
:1027500001230023DBB2002B0CD000237B62B8687E
:1027600000F090FA024607F124031946F86800F0D9
:1027700037F944E0BC6807F11003184600F0B3FADB
:1027800003461B681846FFF78CFE03461A46396855
:102790002046FFF7EFFA0346002B1FD0BB6918460F
:1027A000FFF7DFFB0346002B0CBF01230023DBB246
:1027B000002B0AD00023BB6207F1180207F128039F
:1027C0001946F86800F00CF919E007F1100207F15A
:1027D00010031946F86800F06DFA10E0FB683A68DB
:1027E000B9681846FFF726FC09E00023FB6207F1F1
:1027F0002C0207F118031946F86800F0F1F8F868A0
:102800003437BD4690BD80B483B000AF78607B683C
:1028100018460C37BD465DF8047B704790B583B011
:1028200000AF786039607C683868FFF7ECFF0346DA
:102830001946204600F068FA7B6818460C37BD46FA
:1028400090BD80B483B000AF786039607B683A682F
:1028500012681A607B6818460C37BD465DF8047B29
:10286000704780B483B000AF78607B6818460C373F
:10287000BD465DF8047B7047B0B584B000AFF8602A
:10288000B9607A603B60FB68BA681A607868FFF7E5
:1028900053FE04463868FFF7E4FF0546386AFFF741
:1028A00061FE03462A462146B86800F040FA024617
:1028B000FB685A60FB6818461037BD46B0BD90B53E
:1028C00083B000AF78603960786800F053FA04464E
:1028D0003868FFF714FE03461946204600F055FA03
:1028E00000BF0C37BD4690BD80B582B000AF7860A8
:1028F0003960786800F03EFA0346012239681846CC
:1029000000F050FA00BF0837BD4680BD90B587B0D3
:1029100000AFF860B9607A60F86800F052FA786148
:10292000B868FEF7BCFF04467868FEF7C3FF0346AD
:1029300022467969F86800F055FA7B6918461C3719
:10294000BD4690BD80B584B000AF7860786800F077
:102950006EFA024607F10C031146184600F075FAAC
:10296000034618461037BD4680BD80B584B000AF21
:1029700078607B68DA6807F10C0311461846FFF7A8
:102980001EFCFB6818461037BD4680BD80B584B07C
:1029900000AFF860B9607A60B86800F062FA034688
:1029A0001A68FB681A60786800F066FA03461A68CD
:1029B000FB685A60FB6818461037BD4680BD80B57D
:1029C00082B000AF78607B681B68184618F0C0FFC3
:1029D00002467B681A607B6818460837BD4680BD92
:1029E00080B485B000AFF860B9607A60BB681A68DF
:1029F000FB681A607B681A68FB685A60FB681846B7
:102A00001437BD465DF8047B7047B0B586B000AFA3
:102A1000F860B9607A603B60BB68002B17D1F8683A
:102A2000FFF702FD02467B68934210D0FC683868CD
:102A3000FFF788FF05467868FFF733FD03461A461F
:102A400029462046FFF796F90346002B01D00123C3
:102A500000E00023FB75FB680433F87D7A68396871
:102A600018F078FFFB685B695A1CFB685A6107F134
:102A7000100339681846FFF7A2FB3B691846183760
:102A8000BD46B0BD80B483B000AF78607B681846A7
:102A90000C37BD465DF8047B704780B483B000AF4F
:102AA00078607B6818460C37BD465DF8047B70473C
:102AB00080B483B000AF7860396000BF0C37BD468A
:102AC0005DF8047B704780B584B000AFF860B960F2
:102AD0007A607A6813465B001344DB001946B868D5
:102AE00018F0CCFE00BF1037BD4680BD80B582B067
:102AF00000AF78607B68184600F0E6F90346184698
:102B000000F0C6F9034618460837BD4680BD0000F0
:102B100080B483B000AF78607B685A687B681B68BC
:102B2000D31ADB10044A02FB03F318460C37BD46E8
:102B30005DF8047B704700BFABAAAAAA80B483B03B
:102B400000AF786039607B681A683B681B689A42FE
:102B500001D23B6800E07B6818460C37BD465DF843
:102B6000047B704780B582B000AF78603960002286
:102B70003968786800F0B4F9034618460837BD464E
:102B800080BD80B584B000AFF860B9607A603B600A
:102B90003B687A68B968F86800F0D0F903461846CF
:102BA0001037BD4680BD80B584B000AF786007F1B6
:102BB0000C037968184600F0DEF9FB6818461037F8
:102BC000BD4680BD80B584B000AFF860B9607A6062
:102BD0003B607A68B968F86800F0DFF90346184688
:102BE0001037BD4680BD80B582B000AF7860786890
:102BF00000F0E7F9034618460837BD4680BD80B4AB
:102C000083B000AF786039607B683A681A607B688F
:102C100018460C37BD465DF8047B7047B0B588B0E8
:102C200002AFF860B9607A603B60F86800F0C9F8FC
:102C30007861B868FFF780FC04467868FFF787FC86
:102C400005463868FFF78EFC034600932B46224664
:102C50007969F86800F0C0F97B6918461837BD46F5
:102C6000B0BD80B584B000AF78607B681A6807F1AA
:102C70000C0311461846FFF7A2FAFB6818461037F6
:102C8000BD4680BD80B483B000AF78607B681033F0
:102C900018460C37BD465DF8047B704780B483B09E
:102CA00000AF78607B680C3318460C37BD465DF882
:102CB000047B704780B584B000AFF860B9607A607B
:102CC000B86800F0D9F803461A68FB681A6078689B
:102CD00000F0D2F803461A68FB685A60FB68184691
:102CE0001037BD4680BD80B582B000AF78607B688C
:102CF0001B68184618F02AFE02467B681A607B683B
:102D000018460837BD4680BD90B583B000AF7860E7
:102D100039607C683868FFF776FD0346194620461F
:102D200000F087F97B6818460C37BD4690BDB0B5FA
:102D300088B002AFF860B9607A603B60F86800F074
:102D400040F87861B868FFF7F7FB04467868FFF74A
:102D500088FD05463868FFF705FC034600932B46BF
:102D600022467969F86800F074F97B6918461837CB
:102D7000BD46B0BD80B483B000AF78607B681846B4
:102D80000C37BD465DF8047B704780B582B000AF5C
:102D9000786039603968786800F088F900BF0837D2
:102DA000BD4680BD80B584B000AFF860B9607A6080
:102DB0007A68B968F86800F084F900BF1037BD463A
:102DC00080BD80B582B000AF78607868FFF7D2FF31
:102DD00003460121184600F087F9034618460837D4
:102DE000BD4680BDF0B585B000AFF860B9607A60CF
:102DF0003B60BB6819461820FDF7C4FFF868FFF771
:102E0000B9FF0446B868FFF77AFB05467868FEF715
:102E100046FD06463868FEF74DFD03463246294614
:102E2000204600F070F900BF1437BD46F0BD80B5F4
:102E300082B000AF78607B681033184600F07BF9F1
:102E4000034618460837BD4680BD80B483B000AF46
:102E5000786039603B6818460C37BD465DF8047BE6
:102E6000704780B483B000AF78607B6818460C3739
:102E7000BD465DF8047B704780B483B000AF7860D6
:102E80007B6818460C37BD465DF8047B7047000030
:102E900080B584B000AF78600A4BFB60786800F0C2
:102EA00056F90346BB6007F1080207F10C0311460F
:102EB000184600F058F903461B6818461037BD46FF
:102EC00080BD00BF5555550580B483B000AF786014
:102ED0007B6818460C37BD465DF8047B70470000E0
:102EE00080B584B000AFF860B9607A60F86800F02F
:102EF0004FF90246BB6893428CBF01230023DBB22B
:102F0000002B14BF01230023DBB2002B07D0BB68CA
:102F1000094A934201D918F084FD18F07FFDBA6880
:102F200013465B001344DB00184618F0A9FC034667
:102F300018461037BD4680BDAAAAAA0AB0B584B00B
:102F400000AFF860B9607A603B60F86800F02EF975
:102F50000446B86800F02AF90546786800F026F9BA
:102F600002463B682946204600F02CF903461846E5
:102F70001037BD46B0BD80B582B000AF7860396013
:102F80003B46184600F048F903461A687B681A6009
:102F90007B6818460837BD4680BD80B586B000AF57
:102FA000F860B9607A600123FB750123BB757A680C
:102FB000B968F86800F03BF9034618461837BD4673
:102FC00080BD80B483B000AF78607B6818460C3752
:102FD000BD465DF8047B70472DE9F04186B002AF35
:102FE000F860B9607A603B60BB6819461820FDF74D
:102FF000C9FEF868FFF7BEFE0446B868FFF77FFA1F
:1030000005467868FFF798FA06463868FFF79FFA92
:103010008046B86AFFF7A6FA034600934346324655
:103020002946204600F013F900BF1037BD46BDE821
:10303000F08180B582B000AF786039603868FFF702
:10304000E2FB02467B681A607B6818460837BD467B
:1030500080BD2DE9F04186B002AFF860B9607A60BA
:103060003B60BB6819461820FDF78CFEF868FFF737
:1030700081FE0446B868FFF742FA05467868FFF714
:103080005BFA06463868FFF7ECFB8046B86AFFF744
:1030900069FA03460093434632462946204600F02B
:1030A000F4F800BF1037BD46BDE8F08180B483B0AE
:1030B00000AF7860396000BF0C37BD465DF8047B17
:1030C000704780B584B000AFF860B9607A607A6804
:1030D00013465B001344DB001946B86818F0CEFBBA
:1030E00000BF1037BD4680BD80B582B000AF7860AC
:1030F000396000223968786800F0E6F8034618461F
:103100000837BD4680BD90B585B000AFF860B960A6
:103110007A603B607868FEF7C2FB04463868FEF7C9
:10312000C9FB03462246B968F86800F0FBF800BF07
:103130001437BD4690BD80B582B000AF7860786826
:1031400000F00EF9034618460837BD4680BD80B52D
:1031500082B000AF7860786800F00DF90346184639
:103160000837BD4680BD80B483B000AF7860396059
:103170003B681A687B681B689A4201D23B6800E092
:103180007B6818460C37BD465DF8047B704700002D
:1031900080B483B000AF7860034B18460C37BD464F
:1031A0005DF8047B704700BF5555550580B483B06A
:1031B00000AF78607B6818460C37BD465DF8047B2D
:1031C0007047000080B586B000AFF860B9607A60E3
:1031D0003B60BA68FB68D31ADB100E4A02FB03F3AC
:1031E0007B617B69002B09DD7A6913465B00134420
:1031F000DB001A46F968786818F075FE7A6913469C
:103200005B001344DB001A467B68134418461837EA
:10321000BD4680BDABAAAAAA80B483B000AF7860D7
:103220007B6818460C37BD465DF8047B704780B557
:1032300084B000AFF860B9607A607A68B968F868FD
:1032400000F0A5F8034618461037BD4680BDB0B55E
:1032500086B002AFF860B9607A603B607868FFF7CB
:103260006BF904463868FFF772F90546386AFFF7CC
:1032700079F9034600932B462246B968F86800F0B6
:10328000AEF800BF1037BD46B0BDB0B586B002AFD6
:10329000F860B9607A603B607868FFF74DF90446E2
:1032A0003868FFF7DEFA0546386AFFF75BF9034630
:1032B00000932B462246B968F86800F0B8F800BFC2
:1032C0001037BD46B0BD000080B584B000AFF860D7
:1032D000B9607A60F86800F0D3F80246BB689342A0
:1032E0008CBF01230023DBB2002B14BF012300237A
:1032F000DBB2002B07D0BB68094A934201D918F012
:1033000090FB18F08BFBBA6813465B001344DB009C
:10331000184618F0B5FA034618461037BD4680BD6A
:10332000AAAAAA0AB0B584B000AFF860B9607A6002
:103330003B60BB6819460820FDF724FD0446786809
:10334000FEF7ADFA05463868FEF7B4FA03461A46AA
:103350002946204600F0A2F800BF1037BD46B0BD98
:1033600080B483B000AF78607B6818460C37BD46E8
:103370005DF8047B704780B582B000AF78607868F4
:10338000FFF706FF034618460837BD4680BD90B5D7
:1033900085B000AFF860B9607A60F86800F097F81F
:1033A0000446B86800F093F803467A681946204648
:1033B00000F09EF8034618461437BD4690BD80B510
:1033C00082B000AF786039607B683A681146184671
:1033D00000F0B1F87B6818460837BD4680BDF0B5EF
:1033E00087B000AFF860B9607A603B60BB6819468F
:1033F0000820FDF7C7FC04467868FFF79DF8386899
:10340000FFF7A5F8024607F1140311461846FFF727
:10341000D6FF386BFFF7A6F807F1140233462946AA
:10342000204600F098F800BF1C37BD46F0BDF0B54F
:1034300087B000AFF860B9607A603B60BB6819463E
:103440000820FDF79FFC04467868FFF775F8386898
:10345000FFF707FA024607F1140311461846FEF774
:103460000EFD386BFFF77EF807F11402334629464C
:10347000204600F084F800BF1C37BD46F0BD0000B8
:1034800080B483B000AF7860034B18460C37BD465C
:103490005DF8047B704700BF5555550580B584B075
:1034A00000AFF860B9607A60B868FEF7F8F90346D3
:1034B0001A78FB681A707868FEF7FCF903461A68F8
:1034C000FB685A60FB6818461037BD4680BD80B562
:1034D00082B000AF78603B1D184600F064F80346E8
:1034E000184600F06CF8034618460837BD4680BD04
:1034F000B0B584B000AFF860B9607A60F868FFF7E3
:1035000055FE0446B868FFF751FE05467B6818462D
:10351000FFF74CFE03461A462946204600F05AF8AB
:1035200002463B1D1146184600F064F80346184653
:103530001037BD46B0BD80B483B000AF786039604D
:103540007B683A6812681A607B6818460C37BD467B
:103550005DF8047B7047B0B586B002AFF860397291
:103560007A603B703A468DF800402B467968F868DF
:1035700000F04CF8FB6818461037BD46B0BDB0B53A
:1035800086B002AFF86039727A603B703A468DF8C7
:1035900000402B467968F86800F052F8FB6818463E
:1035A0001037BD46B0BD80B483B000AF78607B6893
:1035B0001B6818460C37BD465DF8047B704780B425
:1035C00083B000AF78607B6818460C37BD465DF865
:1035D000047B704780B584B000AFF860B9607A6052
:1035E0007A68B968F86800F045F80346184610375D
:1035F000BD4680BD80B483B000AF786039603B6861
:1036000018460C37BD465DF8047B704780B584B022
:1036100000AFF860B9607A603B70B86800F03AF8C3
:103620000346184600F043F803461A78FB681A7000
:10363000FB6800225A60FB6818461037BD4680BD03
:1036400080B584B000AFF860B9607A603B70B8684C
:1036500000F038F80346184600F041F803461A789F
:10366000FB681A70FB6800225A60FB681846103726
:10367000BD4680BD80B584B000AFF860B9607A60A7
:103680007A68B968F86800F035F8034618461037CC
:10369000BD4680BD80B582B000AF78607B681846BB
:1036A00000F052F8034618460837BD4680BD80B486
:1036B00083B000AF78607B6818460C37BD465DF874
:1036C000047B704780B582B000AF78607B68184695
:1036D00000F046F8034618460837BD4680BD80B462
:1036E00083B000AF78607B6818460C37BD465DF844
:1036F000047B704780B586B000AFF860B9607A602F
:10370000BA68FB68D31ADB100E4A02FB03F37B6135
:103710007B69002B09D07A6913465B001344DB00F8
:103720001A46F968786818F0DEFB7A6913465B0080
:103730001344DB001A467B68134418461837BD460D
:1037400080BD00BFABAAAAAA80B582B000AF7860E6
:10375000786800F011F8034618460837BD4680BD6A
:1037600080B582B000AF7860786800F012F8034648
:1037700018460837BD4680BD80B582B000AF78607E
:103780007B68184600F012F8034618460837BD4615
:1037900080BD80B582B000AF78607B68184600F0CD
:1037A00011F8034618460837BD4680BD80B483B083
:1037B00000AF78607B681B6818460C37BD465DF823
:1037C000047B704780B483B000AF78607B681B686F
:1037D00018460C37BD465DF8047B704780B586B04F
:1037E00000AF7860FCF71AFE07F10C03184600F0F2
:1037F0000BF807F10C03184600F0B5F8012008F0AB
:10380000C6FD00BFF5E7000080B582B000AF78606C
:103810007B68054A116805221846FDF717FC7B688E
:1038200018460837BD4680BD1401001082B0B0B5FF
:103830008EB004AF786007F1380080E80C000B46CA
:103840007B8097F84C30002B05D0002B31DB023BFE
:10385000012B2ED81AE07B883B8107F10C0407F17D
:1038600038030FCB84E80F0097F848303B7797F880
:103870004C307B7718237B6207F108034FF47A7290
:10388000796A1846FCF750FE386213E07C687D8840
:1038900097F84C3002936A4607F1400393E803001F
:1038A00082E8030007F138030CCB29462046FDF7D8
:1038B000E7FB00BF00BF2837BD46BDE8B04002B0FF
:1038C000704790B58FB004AF786018237B6207F122
:1038D00008030022796A1846FCF74EFE38623A6AFD
:1038E0007B6A9A4212D13C893B7F7A7F0392029392
:1038F0006A4607F1140393E8030082E8030007F126
:103900000C030CCB21467868FFF790FF00BF2C37E3
:10391000BD4690BD82B0B0B586B004AF786007F107
:10392000180080E80C000B467B807B681C687D8853
:1039300097F82C30039397F8283002936A4607F1E2
:10394000200393E8030082E8030007F118030CCB7F
:1039500029462046FFF76AFF00BF0837BD46BDE88D
:10396000B04002B0704790B589B000AF7860786819
:10397000FFF7A7FF7C687B68FB6107F11C0207F17A
:103980000C031146184600F00FF807F10C03194616
:103990002046FDF7ADFB07F10C031846FDF7F8FADA
:1039A00000BF2437BD4690BD90B583B000AF7860AE
:1039B00039607B681A4600231360536093607B680C
:1039C0001846FDF7F2FA7B680022DA60386800F0EA
:1039D0001BF80346002B0ED07C68386800F01FF8F7
:1039E00003461946204600F025F87B68044ADA6051
:1039F0007B68044A9A607B6818460C37BD4690BDC8
:103A0000593A1008A93A100880B483B000AF786022
:103A1000012318460C37BD465DF8047B704780B41F
:103A200083B000AF78607B6818460C37BD465DF800
:103A3000047B704790B583B000AF78603960386818
:103A4000FFF7EDFF034622461946786800F04BF871
:103A500000BF0C37BD4690BD2DE9F04186B002AFE6
:103A6000F860B9607A603B60F86800F055F8044689
:103A7000B868FDF7ADFA05467868FDF7B4FA064672
:103A80003868FDF7BBFA8046B86AFDF7B7FA034617
:103A90000093434632462946204600F04EF800BFC8
:103AA0001037BD46BDE8F08190B585B000AFF86035
:103AB000B9601346FB71FB79012B09D1F86800F05E
:103AC00065F80446B86800F027F80346236005E06F
:103AD000FB791A46B968F86800F064F800231846C4
:103AE0001437BD4690BD90B585B000AFF860B960A1
:103AF0003A71F868FDF752F9034619460420FDF7BC
:103B000041F90446B868FFF78AFF03461B68236043
:103B100000BF1437BD4690BD80B584B000AF78605B
:103B2000786800F079F8F860F86800F081F80346EA
:103B300000BF18461037BD4680BD2DE9F04387B061
:103B400002AFF860B9607A603B60F86800F07BF81B
:103B50000546B868FDF73CFA06467868FDF743FA73
:103B600080463868FDF74AFA0446386BFDF746FA96
:103B7000034601930094434632462946484600F0E6
:103B80006DF800BF1437BD46BDE8F08380B582B044
:103B900000AF78607868FDF701F9034618460837EA
:103BA000BD4680BD90B585B000AFF860B9601346E2
:103BB000FB71FB79032B2AD801A252F823F000BF36
:103BC000D13B1008DF3B1008F33B1008053C100800
:103BD000F868FDF71EFA034600221A6017E0F8683D
:103BE000FFF7D4FF0446B868FFF796FF034623604B
:103BF0000DE0B868FFF790FF03461946F86800F03B
:103C000060F804E02146F86800F06DF800BF00237A
:103C100018461437BD4690BD80B582B000AF7860BD
:103C20007868FDF7C6F8034618460837BD4680BDDC
:103C300080B483B000AF78607B6818460C37BD460F
:103C40005DF8047B704780B483B000AF78607B6818
:103C500018460C37BD465DF8047B70472DE9F041EE
:103C600088B004AF3873B9607A603B60B868FFF71A
:103C7000EAFF80467868FDF7ABF903461E8838688E
:103C8000FDF7B1F90446B86AFDF7B8F903461D78A7
:103C9000F86AFDF7B3F903461B78039302956A4669
:103CA00004F1080393E8030082E8030094E80C00A1
:103CB00031464046FFF72EFE00BF1037BD46BDE837
:103CC000F08190B583B000AF78603960386800F05B
:103CD00016F8034622461946786800F01BF800BF24
:103CE0000C37BD4690BD80B582B000AF78603970AA
:103CF000786800F028F800BF0837BD4680BD80B462
:103D000083B000AF78607B6818460C37BD465DF81D
:103D1000047B704790B585B000AFF860B9603A7128
:103D2000F868FDF73BF8034619460420FDF72AF82A
:103D30000446B868FFF7E3FF03461B68236000BF33
:103D40001437BD4690BD80B582B000AF786078680A
:103D5000FDF724F8034618460837BD4680BD00002D
:103D600080B584B004AF924BC0221A70904BA82249
:103D70005A708F4B01229A708D4B0B22DA708D4B4B
:103D8000FF221A708B4BFF225A708A4BFF229A70C7
:103D9000884B0022DA70884B00221A70864B002272
:103DA0005A70854B00229A70834B0022DA700021F2
:103DB000002017F0C1F97E4B1B781A067C4B5B780C
:103DC0001B041A437A4B9B781B021343784AD27820
:103DD00013431A06764B1B781906754B5B781B0448
:103DE0001943734B9B781B020B437149C9780B43F2
:103DF0001B0203F47F031A436D4B1B7819066C4BAF
:103E00005B781B0419436A4B9B781B020B43684980
:103E1000C9780B431B0A03F47F431A43644B1B7896
:103E20001906634B5B781B041943614B9B781B029B
:103E30000B435F49C9780B431B0E13435F4A136062
:103E40005C4B1B781A065B4B5B781B041A43594B7F
:103E50009B781B021343574AD27813431A06554BDB
:103E60001B781906534B5B781B041943514B9B7805
:103E70001B020B434F49C9780B431B0203F47F031A
:103E80001A434C4B1B7819064A4B5B781B041943A9
:103E9000484B9B781B020B434649C9780B431B0ACE
:103EA00003F47F431A43434B1B781906414B5B785D
:103EB0001B0419433F4B9B781B020B433D49C978B8
:103EC0000B431B0E13433E4A13603B4B1B781A06F1
:103ED000394B5B781B041A43374B9B781B02134307
:103EE000354AD27813431A06334B1B781906324BE6
:103EF0005B781B041943304B9B781B020B432E4904
:103F0000C9780B431B0203F47F031A432A4B1B7827
:103F10001906294B5B781B041943274B9B781B021E
:103F20000B432549C9780B431B0A03F47F431A430B
:103F3000214B1B781906204B5B781B0419431E4B41
:103F40009B781B020B431C49C9780B431B0E134380
:103F50001C4A13601C4B02931C4B019300230093DB
:103F6000184B174A15491A480FF024FE18480FF04D
:103F7000D3FF17480FF0E0FF1649154810F0DEF8A0
:103F800024220021144817F0C8FF134B134A1A606B
:103F9000114B4FF480625A610F4B10229A610E4A06
:103FA0000B490F4808F061F900BFBD4680BD00BF56
:103FB0001C02001020020010240200101002001049
:103FC000140200101802001075B01108CD4410083A
:103FD000DC010010E53F1008280200103CCC11085D
:103FE0008D47100880B483B000AF786000BF0C37F5
:103FF000BD465DF8047B704780B582B000AF786045
:10400000044B1B68184608F0C7FB00BF0837BD46C5
:1040100080BD00BF5402001080B582B000AF786050
:10402000044B1B68184608F0B7FB00BF0837BD46B5
:1040300080BD00BF5802001080B582B000AF78602C
:10404000786804F0C6F9034603F08003802B04D19E
:10405000044B1B68184608F09FFB00BF0837BD469D
:1040600080BD00BF5402001080B5AAB000AF7860D8
:10407000002387F89F300023C7F8A0300023C7F83B
:10408000983007F1100364220021184617F045FF0D
:10409000894B8A4A1A6000233B7280237B72E1239A
:1040A000BB720023FB7200233B7300237B73824AA5
:1040B00007F108035360804B01221A727E4B804A3D
:1040C000DA607D4B7F4A1A617B4B4FF4C0625A61C4
:1040D000794803F08DF9034687F89F303822002194
:1040E000794817F01AFF784B21221A60764B4FF46B
:1040F00040325A61744B00221A6174480FF014FC6C
:104100007B68062283F82C206B4B5B681A787B68EF
:1041100083F82620684B5B685A787B6883F82720F1
:10412000654B5B689A787B6883F82820624B5B68F4
:10413000DA787B6883F829205F4B5B681A797B68A3
:1041400083F82A205C4B5B685A797B6883F82B20C4
:104150007B6840F2DC529A847B6893F82D3043F000
:104160000A03DAB27B6883F82D20002200210120A7
:1041700008F036FA0346564A136000220021012057
:1041800008F02EFA0346534A136007F17403242201
:104190000021184617F0C1FE4F4B7B6740F20443E5
:1041A000C7F888303023C7F88C3007F174031A46FB
:1041B00079684A4808F059F849494A4802F06FFEC0
:1041C000484802F09EFE0346002B06D078680FF0A8
:1041D00085FF78680FF01CFF6BE097F89F30002B8D
:1041E00065D1404802F0DAFEC7F89800D7F8983059
:1041F000012B06DC78680FF071FF78680FF008FF7C
:1042000057E0D7F89830023B032B2BD801A252F885
:1042100023F000BF2542100837421008474210081B
:10422000574210084FF40053C7F8A4304FF48043AE
:10423000C7F8A0301FE00023C7F8A4304FF4804334
:10424000C7F8A03017E04FF40053C7F8A43000239C
:10425000C7F8A0300FE00023C7F8A4300023C7F848
:10426000A03008E04FF40053C7F8A4304FF4804367
:10427000C7F8A03000BF07F1100319460E4803F03D
:104280005DFED7F8A430BB62D7F8A0307B6207F19F
:1042900010031946084804F025F8074803F0A6F96A
:1042A00078680FF049FE78680FF0E4FE01E0FCF753
:1042B000F5FAA837BD4680BD5C02001000800240C0
:1042C00000010410000004100C030010F4FB11089E
:1042D000540200105802001044CC11087944100810
:1042E000000000104403001080B592B000AF786069
:1042F000396000237B6400233B64002387F83F3050
:1043000007F10C0330220021184617F006FE07F1D2
:104310000C0330220021184617F0FFFD3B683B6478
:1043200045E07B6C032B02D96FF00B037FE03B6C05
:1043300059687A6C13465B0013449B0048333B4436
:104340003C3B19603B6C5B8919467A6C13465B00F9
:1043500013449B0048333B44383B19607B6C002B73
:1043600011D07B6C5A1E07F10C00796C0B465B0078
:104370000B449B00C11813465B0013449B00483359
:104380003B44343B19603B6C1B68002B09D17A6CB1
:1043900013465B0013449B0048333B44343B0022EC
:1043A0001A607B6C01337B643B6C1B683B643B6C29
:1043B000002BB6D13B681B891A461F4B5A601E4A18
:1043C00007F10C0393601C4A3B685363386810F094
:1043D00009FB1949194803F0F6F90346002B03D1EC
:1043E000002387F83F301BE0144803F0E5FF034645
:1043F00003F00203002B0DD0114B1B684FF4FA6140
:10440000184608F077F90D4803F064FBFE2387F89F
:104410003F3005E0386810F03FFAF42387F83F306A
:1044200097F93F3013F1020FD3D097F93F30184678
:104430004837BD4680BD00BF0C0300105C02001071
:104440005802001080B584B000AF78600023FB6094
:10445000074B1B78002B05D107F10C0319460548C3
:1044600003F002FAFB6818461037BD4680BD00BF56
:10447000500200105C02001080B584B000AF78607C
:104480000023FB607B68BB600F4B1B684FF0FF3164
:10449000184608F02FF90346002BF5D1B868FFF74E
:1044A000D1FFF860FB68002B0AD0BB681B69B968B4
:1044B000F86898470346002B02D0F86810F0ECF932
:1044C000FB68002BEAD1DFE75402001080B582B010
:1044D00000AF78607B68002B06D10E4B4FF406725C
:1044E0000D490E4817F09AFC7B68732283F82E2042
:1044F0007B68742283F82F207B68094A5A617B68A5
:10450000084A9A617868FFF7AFFD0023184608371C
:10451000BD4680BD4CCC1108ACCC1108BCCC1108F8
:1045200081121108E942100880B584B000AF7860AC
:104530007B68FB60F96809480FF0E6FA084B1B78C6
:10454000012B07D1064B00221A70064B1B68184638
:1045500008F022F900BF1037BD4680BDF4FB1108FA
:10456000500200105402001080B500AF02F02CFE83
:104570000346184680BD000080B58EB000AF78605D
:1045800007F1240300221A605A609A60DA601A6107
:104590007B681B68514A934240F09B80504BD3F894
:1045A000D8304F4A43F40043C2F8D8304C4BD3F8CC
:1045B000D83003F400433B623B6A494BD3F8D83010
:1045C000474A43F48033C2F8D830454BD3F8D8304B
:1045D00003F48033FB61FB69414BD3F8D830404A88
:1045E00043F40033C2F8D8303D4BD3F8D83003F44D
:1045F0000033BB61BB693A4BD3F8E030384A43F033
:104600004003C2F8E030364BD3F8E03003F040030B
:104610007B617B69324BD3F8E030314A43F00403CD
:10462000C2F8E0302E4BD3F8E03003F004033B61D6
:104630003B692B4BD3F8E030294A43F00103C2F821
:10464000E030274BD3F8E03003F00103FB60FB6858
:104650004FF460537B620223BB620023FB6203239F
:104660003B630B237B6307F1240319461D4804F0C9
:104670003DFC32237B620223BB620023FB620323E7
:104680003B630B237B6307F124031946164804F0B0
:104690002DFC86237B620223BB620023FB62032383
:1046A0003B630B237B6307F1240319460F4804F097
:1046B0001DFC002205213D2002F05EFE3D2002F09F
:1046C00075FE002206213E2002F056FE3E2002F03A
:1046D0006DFE00BF3837BD4680BD00BF0080024080
:1046E00000440258001802580008025800000258FE
:1046F00080B500AF024803F00FFE0023184680BDCE
:104700005C02001080B400AF00231846BD465DF87F
:10471000047B704780B584B000AFF860B9607A6000
:104720007B68BA68F968074803F060FB0346002B12
:1047300002D04FF0FF3300E0002318461037BD468B
:1047400080BD00BF5C02001080B584B000AFF8608F
:10475000B9607A607B68BA68F968074803F09AFB29
:104760000346002B02D04FF0FF3300E00023184631
:104770001037BD4680BD00BF5C02001080B500AFA1
:1047800002F022FD0346184680BD000080B5A0B0AF
:1047900000AF786007F1080364220021184617F083
:1047A000BCFB00233B670023FB670023BB670023A0
:1047B0007B677B68FB663A4802F0F0FB3867FB6E6C
:1047C00093F82D309B0803F00103DBB2002B0CD0D3
:1047D0003B6F012B09DC334802F07DFFF86E0FF0D0
:1047E00017FCF86E0FF07AFC55E0FB6E93F82D3055
:1047F00003F00403002B4ED13B6F012B4BDD3B6FCD
:10480000023B032B2AD801A252F823F01D481008BE
:104810002F4810083F4810084F4810084FF4005325
:104820007B674FF48043BB670123FB6717E00023DE
:104830007B674FF48043BB670123FB670FE04FF4B6
:1048400000537B670023BB670123FB6707E000235E
:104850007B670023BB670123FB6700E000BFFB6FA2
:10486000002B18D007F1080319460E4803F066FB29
:104870007B6F3B62BB6FFB6107F108031946094878
:1048800003F030FD074802F0B1FEF86E0FF054FB64
:10489000F86E0FF0EFFB642007F079FD8BE700BFA7
:1048A000440300105C02001080B586B002AF78604F
:1048B00012480FF0B5F8F860FB68002B14D0FB68C5
:1048C00003F120027B681A60FB680D4A1A617B685D
:1048D0001B684FF4C06201920093FB6841220021E3
:1048E00000200FF021FE05E0064B01221A707B68C4
:1048F00000221A6000BF1037BD4680BDF4FB1108CE
:10490000294510085002001080B489B000AFF8604B
:10491000B9607A607B80FB68BB61BB687B61002308
:10492000FB617B68203BFB61FB6900221A60FB692D
:1049300000221A81FB697A885A81BB691B68002BA7
:1049400003D1BB69FA691A6003E07B691B68FA69E5
:104950001A607B69FA691A60BB691B68FB6109E030
:10496000FB691A897B8813449AB2FB691A81FB6937
:104970001B68FB61FB69002BF2D100BF00BF24372D
:10498000BD465DF8047B704780B582B000AF7860AB
:1049900078680FF081FF00BF0837BD4680BD00007A
:1049A000DFF834D002F082FB0C480D490D4A002399
:1049B00002E0D458C4500433C4188C42F9D30A4AD4
:1049C0000A4C002301E013600432A242FBD317F02B
:1049D000AFFBFBF7F3FD70470080041000000010F0
:1049E0009000001028FE110890000010D41E011045
:1049F000FEE780B400AF00BF1846BD465DF8047BFB
:104A0000704780B483B000AF786039707B68184617
:104A10000C37BD465DF8047B704780B483B000AFAF
:104A2000387100BF18460C37BD465DF8047B7047EF
:104A300080B483B000AF78607B68B3FA83F3C3F1CE
:104A40001F0318460C37BD465DF8047B704780B5E0
:104A500082B000AF87ED010A97ED010A16F0F4FF6E
:104A6000F0EE407AB0EE670A0837BD4680BD000020
:104A700080B400AF024B1846BD465DF8047B70471A
:104A80000080FFFF80B58CB000AF786007F11403A1
:104A9000184600F05FF84FF4FA63FB62FB6A4FF4CC
:104AA0007A7202FB03F3174AA2FB03239B09BB6044
:104AB00007F10C0318460AF027FF07F1080207F177
:104AC0000C03114618460AF05DFF0346002B14BF85
:104AD00001230023DBB2002BEFD007F10C031846B3
:104AE0000AF012FFFB6A4FF47A7202FB03F3054AE5
:104AF000A2FB03239B09BB6007F11403184600F0D7
:104B000045F8DAE7D34D621080B582B000AF786027
:104B1000786800F0D4F97B6818460837BD4680BD38
:104B200080B582B000AF78607B68184600F0B7F9B6
:104B30007B6818460837BD4680BD80B582B000AF9F
:104B400078607B681846FFF7EBFF7B6818460837EC
:104B5000BD4680BD80B582B000AF78607B681846E6
:104B6000FFF7EBFF7B680C33074A116803221846F6
:104B7000FCF76CFA7B680621184600F0DBF97B68CD
:104B800018460837BD4680BD1C010010B0B58EB078
:104B900004AF7860786800F0B3F878627B6A002B25
:104BA0002FD1786800F033F803467B84FFF760FF6D
:104BB00003461A46B7F9223093420CBF0123002363
:104BC000DBB2002B1FD1002387F8213040F2051300
:104BD000FB837B8CBB817B6803F10C04FD8B97F816
:104BE000213002936A4607F1140393E8030082E838
:104BF000030007F10C030CCB29462046FCF740FAD2
:104C000002E000BF00E000BF2837BD46B0BD90B550
:104C10002DED028B89B000AF78604FF40043FB8329
:104C20007B68184600F006FAB861BB69002B5FD0BC
:104C30007A6807F10C031146184600F00BFA07F1E9
:104C40000C03184600F043FA044607F10C0318461B
:104C500000F04DFA03461946204600F059FABB69A8
:104C600003F00103002B28D1BB695B085A1E07F132
:104C70000C031146184600F05BFA034693ED008AD8
:104C8000BB695A0807F10C031146184600F050FAA8
:104C90000346D3ED007A78EE277AF0EE006A87EECD
:104CA000A67AB0EE470AFFF7D2FEF0EE407AFDEEAC
:104CB000E77A17EE903AFB8315E0BB695A0807F1D3
:104CC0000C031146184600F033FA0346D3ED007A80
:104CD000B0EE670AFFF7BBFEF0EE407AFDEEE77A32
:104CE00017EE903AFB8307F10C03184600F0BCF86E
:104CF000B7F91E3018462437BD46BDEC028B90BD77
:104D0000B0B590B004AF78604FF47A730293022389
:104D1000019307F10C030093012305223021514830
:104D200004F0CCFC0346002B14BF01230023DBB2AC
:104D3000002B0BD04B4804F0DBFDB861494804F070
:104D40008EFC484804F0F0FBBB6986E04FF000039E
:104D5000FB623B7B1B021AB27B7B1BB213431BB271
:104D60007B847B8C1B099BB2DBB207EE903AF8EE9A
:104D7000E77AC7ED0B7A4FF07653BB6200237B6274
:104D80001CE07A8C7B6A42FA03F303F0010307EE1E
:104D9000903AB8EEE77AD7ED0A7A67EE277A97ED80
:104DA0000B7A77EE277AC7ED0B7AD7ED0A7A77EE92
:104DB000A77AC7ED0A7A7B6A01337B627B6A032B91
:104DC000DFDDD7ED0B7AFDEEE77A17EE903A3B8404
:104DD0007B68184600F02EF9F861FB69052B0FD8A7
:104DE0007B68B7F9202007EE902AF8EEE77AC7ED46
:104DF000047A07F110021146184600F0A9F92BE0D9
:104E00007B68184600F063F904467B68184600F09A
:104E10005EF903467B6107F114030121184600F097
:104E2000A8F905467B68184600F061F903461A4662
:104E30002946204600F0B5F97A68FB69013B19461E
:104E4000104600F075F90346B7F9202007EE902AC6
:104E5000F8EEE77AC3ED007A002318463037BD46F6
:104E6000B0BD00BFAC000010B0B582B000AF78603C
:104E70007B681C687B685D687B68184600F0A7F952
:104E800003461A462946204600F0ACF97B681846CE
:104E900000F021F87B6818460837BD46B0BD80B5E4
:104EA00082B000AF7860786800F0AAF97B68184695
:104EB00000F0B2F97B6818460837BD4680BD80B562
:104EC00082B000AF7860786800F0BAF97B68184665
:104ED0000837BD4680BD80B582B000AF78607B6882
:104EE00019687B689A687B681B68D31A9B101A46FE
:104EF000786800F0B0F97B681846FFF705FE7B681C
:104F000018460837BD4680BD80B582B000AF184650
:104F100000F005F8034618460837BD4680BD80B44A
:104F200083B000AF3871012318460C37BD465DF8D9
:104F3000047B7047B0B584B000AF786039607868A2
:104F400000F09CF902463B6893428CBF012300238A
:104F5000DBB2002B02D0364816F066FD786800F010
:104F60009EF902463B6893428CBF01230023DBB2CB
:104F7000002B59D0786800F05DF8B860FFF7C4FFE7
:104F80000346002B14D07B683968184600F097F967
:104F9000F8607B681C687B685D687B68184600F079
:104FA00016F90346FA682946204600F09CF91FE0EE
:104FB0007B681B68184600F0AAF904467B685B68AA
:104FC000184600F0A4F9034622463968786800F0D4
:104FD000ADF9F8607B681C687B685D687B68184683
:104FE00000F0F5F803461A462946204600F0FAF884
:104FF00078687B6819687B689A687B681B68D31A35
:105000009B101A4600F027F97B68FA681A60BB68A3
:105010009B00FA681A447B685A607B681A683B6890
:105020009B001A447B689A6000BF1037BD46B0BD34
:10503000E4CC110880B483B000AF78607B685A6814
:105040007B681B68D31A9B1018460C37BD465DF869
:10505000047B7047F0B585B000AF786039607C683C
:105060003868FFF7E7FF05463B68184600F07AF915
:10507000024607F10C031146184600F07EF907F1CD
:105080000C031A462946204600F085F907F10C0367
:105090001846FFF714FF386800F091F905463868A4
:1050A00000F09DF906467B681C687B68184600F096
:1050B0008EF8034622463146284600F0A1F9024602
:1050C0007B685A607B6818461437BD46F0BD80B5D2
:1050D00084B000AF78607A6807F10C031146184677
:1050E00000F09FF9FB6818461037BD4680BD80B5BB
:1050F00084B000AF78607B681A1D07F10C0311467D
:10510000184600F08EF9FB6818461037BD4680BD82
:1051100090B583B000AF78603960FFF76AFC224633
:105120003968786800F08DF900BF0C37BD4690BD36
:1051300080B483B000AF786039607B681A683B68E0
:105140009B00134418460C37BD465DF8047B70473E
:1051500080B582B000AF78603960386800F09EF9A1
:1051600003461946786800F0A4F900BF0837BD4629
:1051700080BD80B584B000AF786039607B681A6804
:105180003B689B001344FB6007F10C0207F1080326
:105190001146184600F045F9BB6818461037BD4661
:1051A00080BD90B585B000AFF860B9607A6007F156
:1051B0000C03184600F0ABF923467A68B968F86822
:1051C00000F0B0F9034618461437BD4690BD80B4D0
:1051D00083B000AF78607B6818460C37BD465DF839
:1051E000047B704780B584B000AFF860B9607A6026
:1051F000B968F86800F007FB00BF1037BD4680BDF6
:1052000080B582B000AF7860786800F009FB7B68F9
:1052100018460837BD4680BD80B483B000AF7860C3
:105220007B6800221A607B6800225A607B6800223B
:105230009A607B6818460C37BD465DF8047B704762
:1052400080B483B000AF78607B6818460C37BD46E9
:105250005DF8047B704780B584B000AFF860B9603A
:105260007A60BB68002B05D0FB687A68B96818467D
:1052700000F0E1FA00BF1037BD4680BD80B582B0B6
:1052800000AF78607B68184600F06CF8034618465B
:1052900000F0E0FA034618460837BD4680BD80B4EA
:1052A00083B000AF78607B689A687B681B68D31A0C
:1052B0009B1018460C37BD465DF8047B704780B5DF
:1052C00082B000AF786039603B68002B06D07B6805
:1052D0003968184600F0D8FA034600E00023184663
:1052E0000837BD4680BD90B587B002AFF860B960A1
:1052F0007A603B608DF800403B687A68B968F8686E
:1053000000F0D1FA034618461437BD4690BD80B56B
:1053100084B000AF786007F10C037968184600F09C
:10532000D4FAFB6818461037BD4680BD80B586B0FC
:1053300000AFF860B9607A603B60FB68B9681846F6
:10534000FFF7BDFF7861FB681846FFF740FF034693
:105350007A693968786800F0CAFA7B6918461837A4
:10536000BD4680BD80B483B000AF78607B681846CE
:105370000C37BD465DF8047B704780B582B000AF46
:10538000786039607B683968184600F0C1FA78683F
:105390000837BD4680BD80B584B000AFF860B96005
:1053A0007A60FB687968184600F0CDFAB968F86849
:1053B00000F0DBFAFB6818461037BD4680BD80B5AB
:1053C00084B000AF78607A6807F10C031146184684
:1053D00000F0E6FAFB6818461037BD4680BD80B580
:1053E00084B000AF78607B681A1D07F10C0311468A
:1053F000184600F0D5FAFB6818461037BD4680BD48
:1054000080B584B000AFF860B9607A603B607A68BC
:10541000B968F86800F0D4FA034618461037BD465C
:1054200080BD80B483B000AF786039603B681A6893
:105430007B681A607B6818460C37BD465DF8047BB4
:105440007047B0B584B000AFF860B9603A7107F149
:10545000080207F10C031146184600F0C5FA03468E
:10546000002B17D007F10C0207F10803114618466C
:1054700000F0D2FA03461846FFF7DAFA03465A005C
:105480002B46B968F86800F0DCFA2246B968F8687B
:1054900000F00EFB00BF1037BD46B0BD80B483B036
:1054A00000AF78607B6818460C37BD465DF8047B1A
:1054B0007047B0B582B000AF786039607B685A68D9
:1054C0007B689B689A4211D07C687B685D6838680D
:1054D00000F026FB03461A462946204600F02BFB27
:1054E0007B685B681A1D7B685A600CE07868FFF780
:1054F000FEFD0446386800F013FB03461A462146B9
:10550000786800F02BFB00BF0837BD46B0BD80B403
:1055100083B000AF786000BF18460C37BD465DF819
:10552000047B704790B595B000AFF860B9607A60C1
:105530003B7007F1080207F10C031146184600F012
:10554000C9FB0346002B01D07B6858E107F1080234
:105550003B1D1146184600F0BDFB0346002B01D051
:10556000FB684CE107F10C023B1D1146184600F0A8
:1055700053FA03463B6307F10C0207F10803114697
:10558000184600F049FA0346FB623A6BFB6AD21AEE
:10559000FB6A9A4206D1BA68B968F86800F0B2FBB3
:1055A000BB682CE1FB68BB6207F108023B1D11469A
:1055B000184600F031FA024607F10C03114618466E
:1055C000FFF7D7FD03467B623A6BFB6AD21AFB6A90
:1055D0009A4240F38180FB6A012B40D107F12803F6
:1055E000184600F0B3FB03461846FFF757FF034683
:1055F0001B68FB6107F1280301211846FFF7B9FD7D
:1056000004463A6B07F1280311461846FFF7B1FD2F
:105610000346BA6A1946204600F0A4FB07F11C03B2
:105620001846FFF73BFF04463A6B07F12803114683
:105630001846FFF79EFD0346BB6307F138030121BF
:10564000184600F0A7FB03467B6307F134031846B6
:1056500000F07CFB0246236813607B6ACFE0FA6AA5
:1056600007F1280311461846FFF783FD03463B6206
:105670000023FB6410E0396AB86A00F0A4FB07F16C
:105680002803184600F0B6FB07F12003184600F087
:10569000B1FBFB6C0133FB643A6BFB6AD31AFA6C07
:1056A0009A42E8DB3B6BFA6A93FBF2F101FB02F2F0
:1056B0009B1A3B633B6B002B01D17B6A9FE007F198
:1056C0002C0207F130031146184600F0A3FB3A6B99
:1056D000FB6AD31AFB6277E73A6BFB6AD31AFB6269
:1056E000FB6A012B49D13A6B07F128031146184692
:1056F000FFF73FFD03463B6407F1400301211846D5
:1057000000F048FB0346FB6307F13C03184600F03A
:105710001DFB03461846FFF7C1FE03461B687B616D
:105720003A6B07F1280311461846FFF722FD03469E
:105730007B6407F144030121184600F02BFB04466B
:105740003A6B07F1280311461846FFF712FD03468E
:105750001A462146B86A00F07CFB07F1140318468C
:10576000FFF79CFE044607F12803184600F0EEFA06
:105770000246236813607B6A41E03A6B07F1280315
:1057800011461846FFF7F5FC0346BB61FA6A07F1BC
:1057900018031146184600F0FDFA0346BB620023C9
:1057A000BB6410E007F12803184600F06AFB07F11C
:1057B0001803184600F065FBB969B86A00F003FBEE
:1057C000BB6C0133BB643A6BFB6AD31ABA6C9A4266
:1057D000E8DB3B6BFA6A93FBF2F101FB02F29B1AE6
:1057E0003B633B6B002B01D17B6A08E007F12C0285
:1057F00007F130031146184600F00CFBE4E61846AA
:105800005437BD4690BD80B582B000AF7860396036
:105810003968786800F045FB00BF0837BD4680BD99
:1058200080B483B000AF78607B6818460C37BD4603
:105830005DF8047B704780B584B000AFF860B96054
:105840007A607A68B968F86800F036FB00BF1037F4
:10585000BD4680BD80B584B000AF78606FF0604316
:10586000FB60786800F038FB0346BB6007F1080274
:1058700007F10C0311461846FDF775FC03461B683B
:1058800018461037BD4680BD80B582B000AF786045
:10589000396000223968786800F02AFB0346184610
:1058A0000837BD4680BD80B584B000AFF860B960F0
:1058B0007A603B603B687A68B968F86800F041FB41
:1058C000034618461037BD4680BD80B582B000AF94
:1058D000786039603B46184600F050FB03461A6872
:1058E0007B681A607B6818460837BD4680BD80B566
:1058F00084B000AFF860B9607A603B607A68B968DC
:10590000F86800F046FB034618461037BD4680BDD8
:1059100080B582B000AF786039603968786800F08F
:1059200004F878680837BD4680BD80B582B000AF06
:10593000786039603968786800F03FFB7B6818460A
:105940000837BD4680BD80B582B000AF7860396051
:1059500039687868FFF7E9FF7B681846FFF75CFC59
:105960007B6818460837BD4680BD80B582B000AF61
:105970007860396039687868FFF7A1FC02467B6877
:105980001A607B681A687B685A607B681A683B6893
:105990009B001A447B689A6000BF0837BD4680BDF3
:1059A00080B483B000AF786039603B681A687B6868
:1059B0001A607B6818460C37BD465DF8047B70475B
:1059C00080B586B000AFF860B9607A600123FB75DE
:1059D0000123BB757A68B968F86800F0FAFA0346E3
:1059E00018461837BD4680BD90B583B000AF7860CB
:1059F0003960786800F0FDFA03461C68386800F0EA
:105A0000F8FA03461B689C4214BF01230023DBB253
:105A100018460C37BD4690BD90B583B000AF786096
:105A20003960786800F0E5FA03461C68386800F0D1
:105A3000E0FA03461B68E31A9B1018460C37BD4674
:105A400090BDF0B587B000AFF860B9607A603B7088
:105A50001BE07B68002B06D13346BA68B968F8684A
:105A600000F0D2FA21E07B68013B7B602A46B968EE
:105A7000F86800F0E0FA03467B6123467A68B9686B
:105A80007869FFF7DEFF7B69BB6007F10C0207F165
:105A9000080311461846FFF7BFFF0346102BCCBF83
:105AA00001230023DBB2002BD3D11C37BD46F0BD50
:105AB000F0B585B000AFF860B9603A7107F10C023B
:105AC00007F1080311461846FFF7A6FF0346102BFF
:105AD000CCBF01230023DBB2002B18D007F10C034D
