:020000040810E2
:1000000000800410F5C41008E1491008E9491008FF
:10001000F1491008F9491008014A100800000000D1
:1000200000000000000000000000000081661108D0
:10003000094A100800000000D16811080157110892
:1000400045C5100845C5100845C5100845C5100828
:1000500045C5100845C5100845C5100845C5100818
:1000600045C5100845C5100845C5100845C5100808
:1000700045C5100845C5100845C5100845C51008F8
:1000800045C5100845C5100845C5100845C51008E8
:1000900045C5100845C5100845C5100845C51008D8
:1000A00045C5100845C5100845C5100845C51008C8
:1000B00045C5100845C5100845C5100845C51008B8
:1000C00045C5100845C5100845C5100845C51008A8
:1000D00045C5100845C5100845C5100845C5100898
:1000E00045C5100845C510080000000045C51008AA
:1000F00045C5100845C5100845C5100845C5100878
:1001000045C5100845C5100845C5100845C5100867
:1001100045C5100845C51008194A100845C51008FE
:1001200045C5100845C5100845C5100845C5100847
:1001300045C510082D4A1008414A100845C5100849
:1001400045C5100845C5100800000000000000006B
:1001500045C5100845C5100845C5100845C5100817
:1001600045C5100845C5100845C5100845C5100807
:1001700045C5100845C5100845C510080000000019
:1001800045C5100845C5100845C5100845C51008E7
:1001900045C5100845C5100845C5100845C51008D7
:1001A00045C5100845C5100845C5100845C51008C7
:1001B00045C5100845C5100845C5100845C51008B7
:1001C00045C5100845C5100845C5100845C51008A7
:1001D00045C5100845C5100845C5100845C5100897
:1001E00045C5100845C5100845C5100845C5100887
:1001F00045C5100845C5100845C5100845C5100877
:1002000045C5100845C5100845C5100845C5100866
:1002100045C5100845C5100845C5100845C5100856
:1002200045C5100845C5100845C5100845C5100846
:1002300045C5100845C51008554A100845C51008A1
:1002400045C5100845C5100845C5100845C5100826
:1002500045C5100845C5100845C5100845C5100816
:1002600045C5100845C5100845C5100845C5100806
:1002700045C5100845C5100845C5100845C51008F6
:1002800045C5100845C5100845C510080000000008
:0802900045C5100845C5100822
:1002A00010B5054C237833B9044B13B10448AFF3B0
:1002B00000800123237010BD90000010000000009A
:1002C0005471120808B5034B1BB103490348AFF33F
:1002D000008008BD00000000940000105471120856
:1002E00001F0FF01102A2BDB10F0070F08D010F8E7
:1002F000013B013A8B422DD010F0070F42B3F6D1EB
:10030000F0B441EA012141EA014122F007047FF003
:1003100000070023F0E80256083C85EA010586EA5A
:10032000010685FA47F5A3FA87F586FA47F6A5FA96
:1003300087F68EB9EED1F0BC01F0FF0102F00702A2
:1003400032B110F8013B013A83EA010313B1F8D14D
:100350000020704701387047002D06BF354603382E
:10036000073815F0010F07D1013015F4807F02BF67
:10037000013015F4C03F0130F0BC0138704700BFB8
:1003800081F0004102E000BF83F0004330B54FEA46
:1003900041044FEA430594EA050F08BF90EA020FB3
:1003A0001FBF54EA000C55EA020C7FEA645C7FEA46
:1003B000655C00F0E2804FEA5454D4EB5555B8BF69
:1003C0006D420CDD2C4480EA020281EA030382EADA
:1003D000000083EA010180EA020281EA0303362D6C
:1003E00088BF30BD11F0004F4FEA01314FF4801C3F
:1003F0004CEA113102D0404261EB410113F0004F51
:100400004FEA03334CEA133302D0524263EB430307
:1004100094EA050F00F0A780A4F10104D5F1200EA5
:100420000DDB02FA0EFC22FA05F2801841F1000100
:1004300003FA0EF2801843FA05F359410EE0A5F1D4
:1004400020050EF1200E012A03FA0EFC28BF4CF005
:10045000020C43FA05F3C01851EBE37101F00045BB
:1004600007D54FF0000EDCF1000C7EEB00006EEBC8
:100470000101B1F5801F1BD3B1F5001F0CD3490852
:100480005FEA30004FEA3C0C04F101044FEA4452A9
:1004900012F5800F80F09A80BCF1004F08BF5FEA30
:1004A000500C50F1000041EB045141EA050130BD10
:1004B0005FEA4C0C404141EB0101013C28BFB1F522
:1004C000801FE9D291F0000F04BF01460020B1FA6D
:1004D00081F308BF2033A3F10B03B3F120020CDA40
:1004E0000C3208DD02F1140CC2F10C0201FA0CF01E
:1004F00021FA02F10CE002F11402D8BFC2F1200C83
:1005000001FA02F120FA0CFCDCBF41EA0C01904038
:10051000E41AA2BF01EB0451294330BD6FEA040481
:100520001F3C1CDA0C340EDC04F11404C4F120026C
:1005300020FA04F001FA02F340EA030021FA04F37E
:1005400045EA030130BDC4F10C04C4F1200220FAD5
:1005500002F001FA04F340EA0300294630BD21FA13
:1005600004F0294630BD94F0000F83F4801306BFD9
:1005700081F480110134013D4EE77FEA645C18BFCD
:100580007FEA655C29D094EA050F08BF90EA020F64
:1005900005D054EA000C04BF1946104630BD91EA5C
:1005A000030F1EBF0021002030BD5FEA545C05D15F
:1005B0004000494128BF41F0004130BD14F580049E
:1005C0003CBF01F5801130BD01F0004545F0FE4112
:1005D00041F470014FF0000030BD7FEA645C1ABF47
:1005E000194610467FEA655C1CBF0B46024650EA7E
:1005F000013406BF52EA033591EA030F41F40021AA
:1006000030BD00BF90F0000F04BF0021704730B52F
:100610004FF4806404F132044FF000054FF0000104
:1006200050E700BF90F0000F04BF0021704730B5C5
:100630004FF4806404F1320410F0004548BF40429A
:100640004FF000013EE700BF42004FEAE2014FEAEF
:1006500031014FEA02701FBF12F07F4393F07F4FCA
:1006600081F06051704732F07F4208BF704793F0CD
:100670007F4F04BF41F40021704730B54FF46074E0
:1006800001F0004521F000411CE700BF50EA0102E3
:1006900008BF704730B54FF000050AE050EA01028C
:1006A00008BF704730B511F0004502D5404261EBFC
:1006B00041014FF4806404F132045FEA915C3FF43D
:1006C000D8AE4FF003025FEADC0C18BF03325FEADA
:1006D000DC0C18BF033202EBDC02C2F1200300FA8B
:1006E00003FC20FA02F001FA03FE40EA0E0021FAB0
:1006F00002F11444BDE600BF70B54FF0FF0C4CF49E
:10070000E06C1CEA11541DBF1CEA135594EA0C0F4F
:1007100095EA0C0F00F0DEF82C4481EA030621EA8A
:100720004C5123EA4C5350EA013518BF52EA0335C5
:1007300041F4801143F4801338D0A0FB02CE4FF077
:100740000005E1FB02E506F00042E0FB03E54FF0A7
:100750000006E1FB03569CF0000F18BF4EF0010E9F
:10076000A4F1FF04B6F5007F64F5407404D25FEA9B
:100770004E0E6D4146EB060642EAC62141EA55514E
:100780004FEAC52040EA5E504FEACE2EB4F1FD0C90
:1007900088BFBCF5E06F1ED8BEF1004F08BF5FEA0E
:1007A000500E50F1000041EB045170BD06F00046C0
:1007B00046EA010140EA020081EA0301B4EB5C046D
:1007C000C2BFD4EB0C0541EA045170BD41F4801165
:1007D0004FF0000E013C00F3AB8014F1360FDEBF8A
:1007E000002001F0004170BDC4F10004203C35DA66
:1007F0000C341BDC04F11404C4F1200500FA05F3E9
:1008000020FA04F001FA05F240EA020001F0004289
:1008100021F0004110EBD37021FA04F642EB0601FF
:100820005EEA430E08BF20EAD37070BDC4F10C0429
:10083000C4F1200500FA04F320FA05F001FA04F2ED
:1008400040EA020001F0004110EBD37041F10001D9
:100850005EEA430E08BF20EAD37070BDC4F12005E4
:1008600000FA05F24EEA020E20FA04F301FA05F24C
:1008700043EA020321FA04F001F0004121FA04F2F4
:1008800020EA020000EBD3705EEA430E08BF20EAC4
:10089000D37070BD94F0000F0FD101F000464000FE
:1008A00041EB010111F4801F08BF013CF7D041EA80
:1008B000060195F0000F18BF704703F00046520084
:1008C00043EB030313F4801F08BF013DF7D043EA55
:1008D0000603704794EA0C0F0CEA135518BF95EA0B
:1008E0000C0F0CD050EA410618BF52EA4306D1D192
:1008F00081EA030101F000414FF0000070BD50EAB1
:10090000410606BF1046194652EA430619D094EA3A
:100910000C0F02D150EA013613D195EA0C0F05D124
:1009200052EA03361CBF104619460AD181EA030178
:1009300001F0004141F0FE4141F470014FF0000030
:1009400070BD41F0FE4141F4780170BD70B54FF0CB
:10095000FF0C4CF4E06C1CEA11541DBF1CEA13554B
:1009600094EA0C0F95EA0C0F00F0A7F8A4EB05042D
:1009700081EA030E52EA03354FEA013100F0888024
:100980004FEA03334FF0805545EA131343EA1263ED
:100990004FEA022245EA111545EA10654FEA0026A2
:1009A0000EF000419D4208BF964244F1FD0404F55B
:1009B000407402D25B084FEA3202B61A65EB0305B7
:1009C0005B084FEA32024FF480104FF4002CB6EB74
:1009D000020E75EB030E22BFB61A754640EA0C00F4
:1009E0005B084FEA3202B6EB020E75EB030E22BF34
:1009F000B61A754640EA5C005B084FEA3202B6EB75
:100A0000020E75EB030E22BFB61A754640EA9C0033
:100A10005B084FEA3202B6EB020E75EB030E22BF03
:100A2000B61A754640EADC0055EA060E18D04FEAC1
:100A3000051545EA16754FEA06164FEAC30343EA61
:100A400052734FEAC2025FEA1C1CC0D111F4801F2E
:100A50000BD141EA00014FF000004FF0004CB6E727
:100A600011F4801F04BF01430020B4F1FD0C88BFC6
:100A7000BCF5E06F3FF6AFAEB5EB030C04BFB6EBD1
:100A8000020C5FEA500C50F1000041EB045170BDC4
:100A90000EF0004E4EEA113114EB5C04C2BFD4EBF1
:100AA0000C0541EA045170BD41F480114FF0000E75
:100AB000013C90E645EA060E8DE60CEA135594EAF1
:100AC0000C0F08BF95EA0C0F3FF43BAF94EA0C0FF4
:100AD0000AD150EA01347FF434AF95EA0C0F7FF469
:100AE00025AF104619462CE795EA0C0F06D152EABD
:100AF00003353FF4FDAE1046194622E750EA4106A1
:100B000018BF52EA43067FF4C5AE50EA41047FF4B1
:100B10000DAF52EA43057FF4EBAE12E74FF0FF3C16
:100B200006E000BF4FF0010C02E000BF4FF0010CE7
:100B30004DF804CD4FEA410C7FEA6C5C4FEA430C60
:100B400018BF7FEA6C5C1BD001B050EA410C0CBFAF
:100B500052EA430C91EA030F02BF90EA020F002011
:100B6000704710F1000F91EA030F58BF994208BF78
:100B700090422CBFD8176FEAE37040F00100704735
:100B80004FEA410C7FEA6C5C02D150EA013C07D18C
:100B90004FEA430C7FEA6C5CD6D152EA033CD3D0D7
:100BA0005DF8040B704700BF8446104662468C46D1
:100BB0001946634600E000BF01B5FFF7B7FF002804
:100BC00048BF10F1000F01BD4DF808EDFFF7F4FF2D
:100BD0000CBF012000205DF808FB00BF4DF808EDB8
:100BE000FFF7EAFF34BF012000205DF808FB00BFDB
:100BF0004DF808EDFFF7E0FF94BF012000205DF8FD
:100C000008FB00BF4DF808EDFFF7CEFF94BF0120B1
:100C100000205DF808FB00BF4DF808EDFFF7C4FFAA
:100C200034BF012000205DF808FB00BF4A0011D24C
:100C300012F5001211D20DD56FF47873B3EB625236
:100C40000ED44FEAC12343F0004343EA505323FA42
:100C500002F070474FF00000704750EA013002D1B7
:100C60004FF0FF3070474FF00000704753B94AB95A
:100C7000002908BF00281CBF4FF0FF314FF0FF30A4
:100C800000F06AB9ADF1080C6DE904CE00F006F889
:100C9000DDF804E0DDE9022304B070472DE9F047F8
:100CA000089D0C46002B4ED194468C458646B2FAE0
:100CB00082F262D94AB1C2F12003914020FA03F3D3
:100CC0000CFA02FC194300FA02FE4FEA1C471FFA15
:100CD0008CF6B1FBF7F44FEA1E4307FB141143EA0D
:100CE000014304FB06F199420AD91CEB030304F10A
:100CF000FF3080F01281994240F20F81023C634440
:100D0000591A1FFA8EF3B1FBF7F007FB101143EAF3
:100D1000014300FB06F69E420AD91CEB030300F1D7
:100D2000FF3180F0FC809E4240F2F980634402383B
:100D30009B1B40EA044000211DB1D3400022C5E9BD
:100D40000032BDE8F0878B4205D90DB1C5E900013D
:100D500000210846F5E7B3FA83F1002946D1A34202
:100D600002D39042C0F0F080861A64EB03030120A6
:100D7000002DE6D0C5E90063E3E7002A40F090804B
:100D8000A1EB0C044FEA1C481FFA8CF70121B4FBBD
:100D9000F8F64FEA1E4308FB164443EA044307FBF8
:100DA00006F0984208D91CEB030306F1FF3402D287
:100DB000984200F2CD8026461C1A1FFA8EF3B4FB2F
:100DC000F8F008FB104443EA044300FB07F79F4296
:100DD00008D91CEB030300F1FF3402D29F4200F25A
:100DE000B0802046DB1B40EA0640A5E7C1F12006A3
:100DF0008B4022FA06F71F4320FA06FC04FA01F39F
:100E000043EA0C03F44000FA01F8380C4FEA1349A6
:100E1000B4FBF0FE1FFA87FC00FB1E4449EA0444C1
:100E20000EFB0CF9A14502FA01F20AD93C190EF1A8
:100E3000FF3A80F08480A14540F28180AEF1020E3D
:100E40003C44A4EB09041FFA83F9B4FBF0F300FB64
:100E5000134449EA044403FB0CFCA44507D93C199C
:100E600003F1FF3067D2A44565D9023B3C4443EA15
:100E70000E40A0FB0293A4EB0C049C42CE469C4681
:100E800051D34ED055B1B8EB0E0364EB0C0404FA09
:100E900006F6CB401E43CC40C5E90064002150E774
:100EA000C2F1200320FA03F10CFA02FC24FA03F346
:100EB00094400C434FEA1C4800FA02FE1FFA8CF7DC
:100EC000B3FBF8F008FB1031230C43EA014300FBAD
:100ED00007F1994208D91CEB030300F1FF362CD22D
:100EE00099422AD9023863445B1AA4B2B3FBF8F1E1
:100EF00008FB113344EA034401FB07F3A34208D97A
:100F00001CEB040401F1FF3613D2A34211D90239BC
:100F10006444E41A41EA004139E70446F0E6084631
:100F200006E7C845AED2B9EB020E63EB070C0138F9
:100F3000A8E73146EDE7034699E73046D4E7D646C1
:100F40007FE7634402384DE70646234608460FE72D
:100F5000023E634430E700BF704700BF80B483B0F7
:100F600000AF7860054B1A687B681A607B6818468A
:100F70000C37BD465DF8047B704700BFE4010010EC
:100F800080B500AF104B1B68BFF35B8F03F001030C
:100F9000002B0CBF01230023DBB2002B10D00A482A
:100FA00024F0F4FC0346002B14BF01230023DBB222
:100FB000002B05D00548FFF7D1FF034824F0F2FCD1
:100FC000024B184680BD00BFB0000010AC000010FE
:100FD0000EB480B585B000AF78607B681B684FF0B9
:100FE000FF31184614F038FD07F12003FB60154B64
:100FF0001B689B680C220121134825F02DFD114B25
:101000001B689B68FA68F969184625F0BFF90D4B13
:101010001B689B68022201210C4825F01DFD094B2D
:101020001B689B68184625F0F5FB7B681B68184613
:1010300014F05DFD00BF1437BD46BDE8804003B02D
:10104000704700BF400000106C7112087C711208DC
:101050000EB480B585B000AF78607B681B684FF038
:10106000FF31184614F0F8FC07F12003FB60154B24
:101070001B689B680C220121134825F0EDFC114BE5
:101080001B689B68FA68F969184625F07FF90D4BD3
:101090001B689B68022201210C4825F0DDFC094BEE
:1010A0001B689B68184625F0B5FB7B681B681846D3
:1010B00014F01DFD00BF1437BD46BDE8804003B0ED
:1010C000704700BF40000010807112087C71120848
:1010D00080B582B000AF78607B6803F08053002B4E
:1010E00005D04FF0805010F07BF800F045F87B6899
:1010F000002B05DA4FF0004010F072F800F060F8B5
:1011000000BF0837BD4680BD80B582B002AF0E4B30
:1011100000930E4B0122002140F6543016F082FD60
:1011200003460B4A13600B4B00930B4B012200212B
:1011300040F6543016F076FD0346054A536000230E
:101140001846BD4680BD00BF08000038500000387A
:10115000000000382C000038A40B003880B500AF28
:101160004FF0805010F03CF84FF0004010F038F88D
:101170000023184680BD000080B582B000AF002378
:101180007B600D4B1B68002B12D00B4B1B683A1D6C
:101190001146184616F0A2FF7B68002B09D0074BBA
:1011A0004FF080521A60BFF34F8FBFF36F8F00E094
:1011B00000BF0837BD4680BD0000003804ED00E0E8
:1011C00080B582B000AF00237B600D4B5B68002BC5
:1011D00012D00B4B5B683A1D1146184616F0C2FF41
:1011E0007B68002B09D0074B4FF080521A60BFF389
:1011F0004F8FBFF36F8F00E000BF0837BD4680BD43
:101200000000003804ED00E080B584B000AF7860E5
:101210007B68FB60BFF34F8F00BF124B5B68FA68BF
:101220009A420BD11B211D200FF0A2FF0346002B79
:1012300014D11B211D200FF0BFFF0FE0094B1B68CD
:10124000FA689A420AD11B211E200FF091FF034633
:10125000002B03D11B211E200FF0AEFF00BF103763
:10126000BD4680BD0000003880B586B000AFF86094
:10127000B9607A600F4B5B68002B01D1002315E049
:101280007B68002B09DA0B4B58684FF0FF33BA68C4
:10129000F96816F081FD786107E0064B58687B68B5
:1012A000BA68F96816F078FD78617B6918461837D6
:1012B000BD4680BD0000003880B586B000AFF86044
:1012C000B9607A607B68002B09DA0B4B18684FF025
:1012D000FF33BA68F96816F046FE786107E0064BFE
:1012E00018687B68BA68F96816F03DFE78617B691A
:1012F00018461837BD4680BD0000003880B400AFE6
:1013000000231846BD465DF8047B704780B483B067
:1013100000AF786039603B6818460C37BD465DF811
:10132000047B704780B483B000AF78600B46FB70DD
:1013300097F9033018460C37BD465DF8047B7047BB
:1013400080B483B000AF78607B6800221A607B684D
:1013500018460C37BD465DF8047B704780B485B0F5
:1013600000AFF860B9607A60BB687A68B3FBF2F2EC
:10137000796801FB02F29B1A18461437BD465DF8E6
:10138000047B704780B483B000AF786087ED000ABB
:101390007B683A681A607B6800225A607B6818464E
:1013A0000C37BD465DF8047B704780B483B000AF56
:1013B00078607B685B6818460C37BD465DF8047B37
:1013C000704780B485B000AFF860B9607A60BB68E0
:1013D00093F90020FB681A70FB687A68043307CA27
:1013E00083E80700FB6818461437BD465DF8047BA8
:1013F0007047000080B582B000AF344BD3F8E030C6
:10140000324A43F00073C2F8E030304BD3F8E0309A
:1014100003F000737B607B6801200FF0E1FE10F0A9
:101420007BFC01220221002010F0FCFB284B1B68F2
:101430001B0903F00F03072B08D1264BD3F8043107
:10144000244A43F00103C2F8043107E0214BD3F8EA
:101450001431204A43F00103C2F814310DF0CAFCE4
:1014600000F004F900F01CF900F052F800F09EF8CA
:10147000FFF74AFE14F05EF9174814F067FA0346C6
:10148000164A1360164A0021164814F0B2F90346B2
:10149000154A1360154A0021154814F0AAF90346AD
:1014A000144A1360144A0021144814F0A2F90346A8
:1014B000134A1360134A0021134814F09AF90346A3
:1014C000124A136014F05AF900BFFDE700440258B5
:1014D00000ED00E000640258E0AD1208E4010010E5
:1014E00050AD1208C3B21008D401001074AD120838
:1014F000BD8C1008D801001098AD120813781008A0
:10150000DC010010BCAD1208F9C51008E0010010A4
:1015100080B500AF224B234A1A60214B224A5A6001
:101520001F4B00229A601E4B0122DA601C4B0022E6
:101530001A611B4B00225A61194B00229A61184B09
:101540000022DA61164B00221A6215480FF074FE71
:101550000346002B14BF01230023DBB2002B01D074
:1015600000F036F900210E4810F0C4FA0346002BB3
:1015700014BF01230023DBB2002B01D000F028F9B7
:101580000221074810F001FB0346002B14BF012382
:101590000023DBB2002B01D000F01AF900BF80BDA0
:1015A000EC000010001C0058FFECC01080B500AF2C
:1015B0002C4B2D4A1A602B4B4FF4E1325A60294BC9
:1015C00000229A60274B0022DA60264B00221A6123
:1015D000244B0C225A61234B00229A61214B00229A
:1015E000DA61204B00221A621E4B00225A621D4B08
:1015F00000229A621B4812F0F1FE0346002B14BF32
:1016000001230023DBB2002B01D000F0E1F8002120
:10161000144813F081FF0346002B14BF012300235D
:10162000DBB2002B01D000F0D3F800210D4813F0FD
:10163000B1FF0346002B14BF01230023DBB2002BB4
:1016400001D000F0C5F8074813F02DFF0346002B2A
:1016500014BF01230023DBB2002B01D000F0B8F847
:1016600000BF80BD400100100010014080B483B075
:1016700000AF0A4BD3F8D430084A43F00103C2F854
:10168000D430064BD3F8D43003F001037B607B6881
:1016900000BF0C37BD465DF8047B7047004402581C
:1016A00080B489B000AF374BD3F8E030354A43F00F
:1016B0004003C2F8E030334BD3F8E03003F040038E
:1016C000FB61FB692F4BD3F8E0302E4A43F0100347
:1016D000C2F8E0302B4BD3F8E03003F01003BB61CD
:1016E000BB69284BD3F8E030264A43F00403C2F824
:1016F000E030244BD3F8E03003F004037B617B69D6
:10170000204BD3F8E0301F4A43F00103C2F8E03029
:101710001C4BD3F8E03003F001033B613B69194BEC
:10172000D3F8E030174A43F00203C2F8E030154B1B
:10173000D3F8E03003F00203FB60FB68114BD3F8F1
:10174000E030104A43F08003C2F8E0300D4BD3F88C
:10175000E03003F08003BB60BB680A4BD3F8E03095
:10176000084A43F00803C2F8E030064BD3F8E030F3
:1017700003F008037B607B6800BF2437BD465DF83B
:10178000047B70470044025880B582B000AF786097
:10179000391D4FF6FF730122034812F06FFE7B687C
:1017A00018460837BD4680BD4001001080B582B0A4
:1017B00000AF78607B681B68044A934201D10DF04A
:1017C00077FB00BF0837BD4680BD00BF001000405A
:1017D00080B400AF72B600BF00BFFDE780B582B035
:1017E00000AF7860786800F064F87B6818460837C6
:1017F000BD4680BD80B483B000AF78607B6818467A
:101800000C37BD465DF8047B704780B588B004AFE7
:10181000F860381D80E806003B60F8683B6A029378
:10182000FB690193BB6900933B683A1D06CA00F04F
:101830004BF8FB6818461037BD4680BD80B582B0B6
:1018400000AF7860786800F08DF87B68184608373C
:10185000BD4680BD80B483B000AF78607B68184619
:101860000C37BD465DF8047B704780B588B004AF87
:10187000F860381D80E806003B60F8683B6A029318
:10188000FB690193BB6900933B683A1D06CA00F0EF
:1018900074F8FB6818461037BD4680BD80B483B02D
:1018A00000AF78607B6818460C37BD465DF8047B56
:1018B000704780B483B000AF78607B6818460C37FF
:1018C000BD465DF8047B7047B0B588B004AFF860E2
:1018D000381D80E806003B603B1D184600F09BF871
:1018E00004463B1D184600F0A2F802468DF80C5045
:1018F000BB6A02937B6A01933B6A00933B68214673
:10190000F86800F0A6F8FB6818461037BD46B0BD71
:1019100080B582B000AF7860786800F0BDF87B6871
:1019200018460837BD4680BD80B582B000AF7860EC
:101930007868FFF7EDFF7B6818460837BD4680BD25
:1019400080B582B000AF7860786800F0B0F8786851
:1019500000F0CDF87868FFF7E7FF7B681846083796
:10196000BD4680BD80B483B000AF78607B68184608
:101970000C37BD465DF8047B7047B0B588B004AF46
:10198000F860381D80E806003B603B1D184600F0FB
:10199000BEF804463B1D184600F0C5F802468DF817
:1019A0000C50BB6A02937B6A01933B6A00933B68CD
:1019B0002146F86800F0C9F8FB6818461037BD46A4
:1019C000B0BD80B582B000AF7860786800F0E0F814
:1019D0007B6818460837BD4680BD80B582B000AF31
:1019E00078607868FFF7EDFF7B6818460837BD46DA
:1019F00080BD80B582B000AF7860786800F0D3F821
:101A0000786800F0F0F87868FFF7E7FF7B68184621
:101A10000837BD4680BD80B483B000AF78607B6876
:101A20001B6818460C37BD465DF8047B704790B5BF
:101A300083B000AF78607868FFF7EDFF0446786800
:101A400000F0E1F803461B01234418460C37BD465D
:101A500090BD80B588B002AFF860B9607A603B6035
:101A6000BB6A00937B6A3A6A3968F86800F0D7F875
:101A700009E007F11003BA68F968184600F0F7F8B2
:101A8000BB681033BB60BA687B689A42F1D1FB68CF
:101A900018461837BD4680BD80B483B000AF78606B
:101AA0007B6818460C37BD465DF8047B704780B5EF
:101AB00082B000AF7860786800F0F7F80346194606
:101AC000786800F0FEF87B681A687B685B689B00AA
:101AD00010461A46002125F0E1F87B680022DA6002
:101AE0007B6800229A6000BF0837BD4680BD80B584
:101AF00082B000AF78607B6819687B685B681A46C3
:101B0000786800F0F6F800BF0837BD4680BD80B4A5
:101B100083B000AF78607B681B6818460C37BD4601
:101B20005DF8047B704790B583B000AF786078684B
:101B3000FFF7EDFF0446786800F0F2F80346DB009B
:101B4000234418460C37BD4690BD80B588B002AF1F
:101B5000F860B9607A603B60BB6A00937B6A3A6A5E
:101B60003968F86800F0E8F809E007F11003BA688E
:101B7000F968184600F008F9BB680833BB60BA681A
:101B80007B689A42F1D1FB6818461837BD4680BD84
:101B900080B483B000AF78607B6818460C37BD46D0
:101BA0005DF8047B704780B582B000AF78607868DC
:101BB00000F008F903461946786800F00FF97B68D1
:101BC0001A687B685B689B0010461A46002125F066
:101BD00065F87B680022DA607B6800229A6000BFAB
:101BE0000837BD4680BD80B582B000AF78607B68A5
:101BF00019687B685B681A46786800F007F900BFCF
:101C00000837BD4680BD80B483B000AF78607B6884
:101C10005B6818460C37BD465DF8047B704780B59D
:101C200086B000AFF860B9607A603B603B6A3A68A2
:101C30007968F86800F001F9FB681033B968184654
:101C400023F090FF7861FB685B687A699A4209D952
:101C50007969F86800F031F90246FB681A60FB68A0
:101C60007A695A60FB6818461837BD4680BD90B542
:101C700089B002AFF860B9607A60B86800F03AF9EC
:101C8000786107F110037969184600F03EF9F868A9
:101C900007F110038DF800407A68796900F044F983
:101CA00000BFF8681C37BD4690BD80B483B000AF5C
:101CB00078607B689B6818460C37BD465DF8047BEE
:101CC000704780B584B000AF7860396009E03B6848
:101CD000FB60386800F04FF93860F968786800F008
:101CE00056F93B68002BF2D100BF00BF1037BD464C
:101CF00080BD80B584B000AFF860B9607A60B96823
:101D0000F86800F05FF90346002B05D17A68B968DE
:101D1000F86800F06FF900E000BF1037BD4680BDE5
:101D200080B483B000AF78607B685B6818460C377E
:101D3000BD465DF8047B704780B586B000AFF860A3
:101D4000B9607A603B603B6A3A687968F86800F08D
:101D500074F9FB681033B968184623F003FF786103
:101D6000FB685B687A699A4209D97969F86800F07A
:101D7000A4F90246FB681A60FB687A695A60FB683E
:101D800018461837BD4680BD90B589B002AFF860DF
:101D9000B9607A60B86800F0ADF9786107F11003B6
:101DA0007969184600F0B1F9F86807F110038DF869
:101DB00000407A68796900F0B7F900BFF8681C370D
:101DC000BD4690BD80B483B000AF78607B689B68EF
:101DD00018460C37BD465DF8047B704780B584B06B
:101DE00000AF7860396009E03B68FB60386800F05C
:101DF000C2F93860F968786800F0C9F93B68002BCF
:101E0000F2D100BF00BF1037BD4680BD80B584B0A1
:101E100000AFF860B9607A60B968F86800F0D2F98C
:101E20000346002B05D17A68B968F86800F0E2F93A
:101E300000E000BF1037BD4680BD90B587B000AF51
:101E4000F860B9607A603B607A68B968F86800F059
:101E500001FA07F114033968184600F0EEF907F1AA
:101E600014031946F86800F008FA07F1140318463D
:101E7000FFF712FE2146F86800F011FAFB6803F143
:101E80001802FB681A60FB6801225A60FB6808337D
:101E90001846FFF755FAFB680022DA60FB6810333A
:101EA000B7EE000A1846FFF76DFAFB6800229A6148
:101EB000FB6818461C37BD4690BD80B582B000AFA8
:101EC000786039603B68012B0CBF01230023DBB233
:101ED000002B05D07B6800229A617B68183305E0EF
:101EE0003968786800F0E7F9034600BF18460837FC
:101EF000BD4680BD80B483B000AF78607B68184673
:101F00000C37BD465DF8047B704780B483B000AFEA
:101F1000786039607B683A681A607B6818460C37CD
:101F2000BD465DF8047B704790B589B002AFF8609C
:101F3000B9607A603B60786800F0EAF9024607F120
:101F400014031146184600F0EEF90346184600F057
:101F5000F7F90446786800F0DBF90246F8683B6858
:101F6000009313462246B96800F0F5F900BFF868FF
:101F70001C37BD4690BD80B483B000AF78607B68ED
:101F80001B6818460C37BD465DF8047B704790B55A
:101F900083B000AF78603960786800F08DFA04464D
:101FA0003B680433184600F093FA0346194620466E
:101FB00000F09BFA3968786800F0A3FA00BF0C378C
:101FC000BD4690BD80B483B000AF786039607B6857
:101FD00018333A689A420CBF01230023DBB2002B6E
:101FE00014BF01230023DBB218460C37BD465DF851
:101FF000047B704780B586B000AFF860B9607A6046
:10200000B86800F094FA7861F86800F055FA024672
:1020100007F110031146184600F095FA07F1100376
:102020007A687969184600F0A6FA07F11003184695
:1020300000F096FA1837BD4680BD90B587B000AF66
:10204000F860B9607A603B607A68B968F86800F057
:10205000BEFA07F114033968184600F0ABFA07F12D
:1020600014031946F86800F0C5FA07F1140318467E
:10207000FFF78EFD2146F86800F011F9FB6803F1C7
:102080001802FB681A60FB6801225A60FB6808337B
:102090001846FFF755F9FB680022DA60FB68103339
:1020A000B7EE000A1846FFF76DF9FB6800229A6147
:1020B000FB6818461C37BD4690BD80B582B000AFA6
:1020C000786039603B68012B0CBF01230023DBB231
:1020D000002B05D07B6800229A617B68183305E0ED
:1020E0003968786800F098FA034600BF1846083748
:1020F000BD4680BD80B483B000AF78607B68184671
:102100000C37BD465DF8047B704780B483B000AFE8
:10211000786039607B683A681A607B6818460C37CB
:10212000BD465DF8047B704790B589B002AFF8609A
:10213000B9607A603B60786800F09BFA024607F16C
:1021400014031146184600F09FFA0346184600F0A3
:10215000A8FA0446786800F08CFA0246F8683B68F2
:10216000009313462246B96800F0A6FA00BFF8684B
:102170001C37BD4690BD80B483B000AF78607B68EB
:102180001B6818460C37BD465DF8047B704790B558
:1021900083B000AF78603960786800F03EFB044699
:1021A0003B680433184600F044FB034619462046BA
:1021B00000F04CFB3968786800F054FB00BF0C3726
:1021C000BD4690BD80B483B000AF786039607B6855
:1021D00018333A689A420CBF01230023DBB2002B6C
:1021E00014BF01230023DBB218460C37BD465DF84F
:1021F000047B704780B586B000AFF860B9607A6044
:10220000B86800F094F97861F86800F006FB0246BF
:1022100007F110031146184600F03AFB07F11003CE
:102220007A687969184600F0A6F907F11003184694
:1022300000F096F91837BD4680BD80B582B000AF7A
:1022400078603960786800F030FB7B6818460837A2
:10225000BD4680BD80B584B000AFF860B9607A60DB
:10226000B968F86800F02CFB7968F86800F036FB74
:10227000FB6818461037BD4680BD80B582B000AF00
:1022800078603960386800F036FB03461946786894
:1022900000F03CFB7B6818460837BD4680BD80B423
:1022A00083B000AF786039707B6818460C37BD4644
:1022B0005DF8047B704790B587B000AF78603960F7
:1022C000786800F0F9F8024607F10C031146184649
:1022D00000F039F907F10C033968184600F028FBC3
:1022E0007861786900F055FB38613B689B003A697A
:1022F00010461A46002124F0D1FC3C6907F10C037A
:10230000184600F02DF9234618461C37BD4690BDEF
:1023100080B483B000AF78607B6818460C37BD4648
:102320005DF8047B704780B582B000AF786039609B
:102330003868FFF7EDFF034618460837BD4680BDF5
:1023400080B483B000AF78607B6818460C37BD4618
:102350005DF8047B704790B593B002AFF860B96048
:102360007A603B60B86800F01FFB044600F028FB71
:1023700003469C4294BF01230023DBB2002B33D0E1
:10238000B86800F024FB03467B611AE07B690433E4
:102390001A467968B86800F05DFB0346002B0BD045
:1023A000002387F8273007F1270207F114031946A5
:1023B000F86800F06FFB7BE007F11403184600F0AB
:1023C0003CFBB86800F016FB0346BB6207F128022D
:1023D00007F114031146184600F01BFB034683F077
:1023E0000103DBB2002BD1D17968B86800F06BFB38
:1023F000F863F96BB86800F07BFBB863B86800F06D
:10240000D3FA044600F0DCFA03469C428CBF012359
:102410000023DBB2002B1BD0FB6B7A68B96BB8686A
:1024200000F077FB78637B6B002B11D007F12C0356
:10243000796B184600F086FB002387F8323007F1ED
:10244000320207F12C031946F86800F08AFB2FE0EE
:10245000786800F09FFB04463868FFF759FF034691
:102460003A6D1946204600F0A0FB014607F11C0317
:10247000BA68184600F0B2FB3B6A01220092FA6B80
:10248000B96BB86800F0D2FB0346BB6100233B6226
:10249000012387F8333007F1330207F11803194697
:1024A000F86800F0F7FA07F11C03184600F0A9FBE2
:1024B000F8684437BD4690BD80B582B000AF786003
:1024C000786800F0FCFB034618460837BD4680BD1F
:1024D00080B582B000AF78607B68184600F0FAFBE8
:1024E000034618460837BD4680BD80B582B000AFB0
:1024F00078603960386800F0F9FB00BF0837BD46E6
:1025000080BD80B584B000AF78603960386800F075
:10251000F7FBF8607868FFF7CFFF03460122F96800
:10252000184600F0F9FB00BF1037BD4680BD80B5EE
:1025300082B000AF7860786800F00DFC0346184662
:102540000837BD4680BD80B582B000AF7860396085
:10255000786800F00CFC7B6818460837BD4680BDE3
:1025600080B483B000AF78607B6818460C37BD46F6
:102570005DF8047B704780B588B000AFF860B96043
:102580007A60FB68FB61BB68BB617B687B61FEF7BF
:10259000B5FE0346002B03D0B86923F0F3F905E03C
:1025A0007A69B969F86900F095FF00BF00BF20376C
:1025B000BD4680BD80B582B000AF78603960786874
:1025C00000F0E0FB7B6818460837BD4680BD80B54B
:1025D00084B000AFF860B9607A60B968F86800F05C
:1025E000DCFB7968F86800F079F9FB681846103769
:1025F000BD4680BD80B582B000AF78603960386874
:1026000000F0D9FB03461946786800F0DFFB7B68D1
:1026100018460837BD4680BD90B587B000AF7860DA
:102620003960786800F0F9F8024607F10C031146AA
:10263000184600F02DF907F10C033968184600F030
:1026400077F97861786900F0A4F938613B689B00FC
:102650003A6910461A46002124F020FB3C6907F134
:102660000C031846FFF77CFF234618461C37BD466F
:1026700090BD80B483B000AF78607B6818460C379B
:10268000BD465DF8047B704780B582B000AF7860CE
:1026900039603868FFF7EDFF034618460837BD4636
:1026A00080BD80B483B000AF78607B6818460C377B
:1026B000BD465DF8047B704790B593B002AFF860FB
:1026C000B9607A603B60B86800F092FB044600F0A5
:1026D0009BFB03469C4294BF01230023DBB2002BEB
:1026E00033D0B86800F097FB03467B611AE07B6942
:1026F00004331A467968B86800F0D0FB0346002B13
:102700000BD0002387F8273007F1270207F11403C5
:102710001946F86800F0E2FB7BE007F11403184665
:1027200000F0AFFBB86800F089FB0346BB6207F11D
:10273000280207F114031146184600F08EFB0346E9
:1027400083F00103DBB2002BD1D17968B86800F0C7
:10275000DEFBF863F96BB86800F0EEFBB863B868AD
:1027600000F046FB044600F04FFB03469C428CBF42
:1027700001230023DBB2002B1BD0FB6B7A68B96B03
:10278000B86800F0EAFB78637B6B002B11D007F18F
:102790002C03796B184600F0F9FB002387F83230E0
:1027A00007F1320207F12C031946F86800F0FDFB2F
:1027B0002FE0786800F0EEF904463868FFF759FF1B
:1027C00003463A6D1946204600F008FC014607F121
:1027D0001C03BA68184600F01AFC3B6A01220092FA
:1027E000FA6BB96BB86800F03AFC0346BB61002392
:1027F0003B62012387F8333007F1330207F11803F6
:102800001946F86800F06AFB07F11C03184600F04F
:1028100011FCF8684437BD4690BD80B582B000AF6A
:102820007860786800F064FC034618460837BD46B7
:1028300080BD80B582B000AF78607B68184600F03C
:1028400062FC034618460837BD4680BD80B582B09D
:1028500000AF78603960386800F061FC00BF08376D
:10286000BD4680BD80B584B000AF786039603868FF
:1028700000F05FFCF8607868FFF7CFFF03460122A5
:10288000F968184600F061FC00BF1037BD4680BDF6
:1028900080B582B000AF78603960786800F067FA80
:1028A0007B6818460837BD4680BD80B483B000AF52
:1028B00078607B6818460C37BD465DF8047B70472E
:1028C00080B582B000AF786039603968786800F010
:1028D0005BFC7B6818460837BD4680BD80B582B07A
:1028E00000AF78603960386800F05BFC7B681846A0
:1028F0000837BD4680BD80B483B000AF78607B6888
:1029000018460C37BD465DF8047B704780B582B031
:1029100000AF786039603868FFF7EDFF034619466D
:10292000786800F049FC7B6818460837BD4680BDD2
:1029300080B584B000AF786039607B68FB603B682D
:10294000BB60FEF7DBFC0346002B16D0BB68002201
:1029500099009B0F002B00D001220B46BB60134651
:1029600003F00103DBB2002B01D023F0EFF8BB68CA
:10297000184623F01AF8034607E0BB680022194600
:10298000F86800F01EFF034600BF18461037BD462A
:1029900080BD80B483B000AF78607B6818460C3788
:1029A000BD465DF8047B704780B483B000AF7860AB
:1029B0007B68DB6818460C37BD465DF8047B7047C2
:1029C00080B500AF00F006FC0346184680BD80B518
:1029D00084B000AF78607868FFF767F9024607F1C6
:1029E0000C031146184600F0ADF8FB681846103786
:1029F000BD4680BD80B584B000AF786007F10C03A0
:102A00000021184600F09EF8FB6818461037BD46B6
:102A100080BD80B483B000AF786039607B681A688D
:102A20003B681B689A420CBF01230023DBB21846A7
:102A30000C37BD465DF8047B704780B582B000AFAF
:102A400078607B68184600F0CDFB7B681846083735
:102A5000BD4680BD90B587B000AFF860B9607A60C0
:102A6000F86800F0CFFB04467B68184600F0D6FB00
:102A7000024607F1140311461846FFF754FC0346BB
:102A80001A46B968204600F0D5FB034618461C37A5
:102A9000BD4690BD80B584B000AFF860B9607A6083
:102AA000B86800F0DEFB0246FB6812681A607868BE
:102AB000FEF7F4FE03461A78FB681A71FB681846A5
:102AC0001037BD4680BD80B582B000AF78603960F8
:102AD000786800F0D1FB02463B6893F90030194654
:102AE000104600F0D5FB034618460837BD4680BDAA
:102AF00080B582B000AF786039607B685B681A4649
:102B00003968786800F0D7FB034618460837BD4699
:102B100080BD80B586B000AFF860B9607A603B6078
:102B20003B687A68B968F86800F0D7FB78617B6920
:102B3000002B02D07B691B6800E000231846183781
:102B4000BD4680BD80B582B000AF786039607B68DB
:102B50003968184600F006FC7B6818460837BD4601
:102B600080BD80B584B000AFF860B9607A60B868A5
:102B700000F007FC0246FB6812681A607868FEF7EE
:102B80008DFE03461A78FB681A71FB6818461037E9
:102B9000BD4680BD80B483B000AF78607B681846C6
:102BA0000C37BD465DF8047B704790B585B000AF2B
:102BB000F860B9607A60F868FFF7ECFF0446B8681F
:102BC000FFF7A6FB034604331A462146786800F057
:102BD000E3FB034618461437BD4690BD80B485B06C
:102BE00000AFF860B9607A60FB687A681A60FB68C9
:102BF000BA685A60FB6818461437BD465DF8047B16
:102C0000704780B582B000AF78607B685B68002B4E
:102C100007D07B681A687B685B6819461046FFF727
:102C2000B6F97B6818460837BD4680BD90B58DB0B3
:102C300002AFF860B9607A603B60FB6810331846F9
:102C4000FEF7B3FB0346FB6107F11C037B62FB68E5
:102C500003F11001FB685A68FB68DC6807F1140097
:102C6000BB6B0093234622F0C1FF3B7D002B0AD0B3
:102C7000BB697A6A1946F86800F0A8FB7968F868B9
:102C8000FFF736FFB8603B6804337A681946F86886
:102C900000F0ABFB3A68B968F86800F0B2FBFB687B
:102CA000DB685A1CFB68DA6007F1200339681846B4
:102CB000FFF748FF3B6A18462C37BD4690BD80B4ED
:102CC00083B000AF78607B6818460C37BD465DF86E
:102CD000047B704780B582B000AF7860786800F000
:102CE000D7FB034618460837BD4680BD80B483B085
:102CF00000AF786000BF0C37BD465DF8047B7047BD
:102D000080B582B000AF7860786800F0CCFB0346F5
:102D100018460837BD4680BD80B588B000AFF86062
:102D2000B9607A60FB68FB61BB68BB617B687B61F3
:102D3000FEF7E4FA0346002B03D0B86922F022FE26
:102D400005E07A69B969F86900F075FE00BF00BF57
:102D50002037BD4680BD80B582B000AF786078680E
:102D600000F0ADFB034618460837BD4680BD80B471
:102D700083B000AF78607B6818460C37BD465DF8BD
:102D8000047B704780B483B000AF78607B681846DE
:102D90000C37BD465DF8047B704780B582B000AF4C
:102DA000786039603968786800F0EEF97B68184619
:102DB0000837BD4680BD80B483B000AF78607B68C3
:102DC00018460C37BD465DF8047B704780B582B06D
:102DD00000AF786039603868FFF7EDFF03461946A9
:102DE000786800F086FB7B6818460837BD4680BDD2
:102DF00080B483B000AF78607B68DB6818460C371E
:102E0000BD465DF8047B704780B500AF00F0E2F985
:102E10000346184680BD80B584B000AF78607868FE
:102E2000FEF7D0FF024607F10C031146184600F0EA
:102E3000ADF8FB6818461037BD4680BD80B584B03C
:102E400000AF786007F10C030021184600F09EF8EF
:102E5000FB6818461037BD4680BD80B483B000AF14
:102E6000786039607B681A683B681B689A420CBFBF
:102E700001230023DBB218460C37BD465DF8047B06
:102E8000704780B582B000AF78607B68184600F06C
:102E90003EFB7B6818460837BD4680BD90B587B0BD
:102EA00000AFF860B9607A60F86800F040FB044653
:102EB0007B68184600F047FB024607F114031146F1
:102EC0001846FFF7E1FB03461A46B968204600F0B2
:102ED000B1F9034618461C37BD4690BD80B584B095
:102EE00000AFF860B9607A60B86800F038FB02465D
:102EF000FB6812681A607868FEF7D0FC03461A78FF
:102F0000FB681A71FB6818461037BD4680BD80B556
:102F100082B000AF78603960786800F02BFB024621
:102F20003B6893F900301946104600F0B1F90346AA
:102F300018460837BD4680BD80B582B000AF7860C6
:102F400039607B685B681A463968786800F01EFB58
:102F5000034618460837BD4680BD80B586B000AF31
:102F6000F860B9607A603B603B687A68B968F86875
:102F700000F01EFB78617B69002B02D07B691B6827
:102F800000E0002318461837BD4680BD80B582B0EA
:102F900000AF786039607B683968184600F04DFBF7
:102FA0007B6818460837BD4680BD80B584B000AF49
:102FB000F860B9607A60B86800F04EFB0246FB68C2
:102FC00012681A607868FEF769FC03461A78FB6895
:102FD0001A71FB6818461037BD4680BD90B585B0A4
:102FE00000AFF860B9607A60F868FFF7D3FD044677
:102FF000B868FFF73EFB034604331A46214678685B
:1030000000F035FB034618461437BD4690BD80B42A
:1030100085B000AFF860B9607A60FB687A681A60C2
:10302000FB68BA685A60FB6818461437BD465DF8FD
:10303000047B704780B582B000AF78607B685B68C6
:10304000002B07D07B681A687B685B6819461046BE
:10305000FFF79DF87B6818460837BD4680BD90B5E0
:103060008DB002AFF860B9607A603B60FB681033E6
:103070001846FEF79AF90346FB6107F11C037B62D1
:10308000FB6803F11001FB685A68FB68DC6807F114
:103090001400BB6B0093234622F0A8FD3B7D002B60
:1030A0000AD0BB697A6A1946F86800F0FAFA7968BA
:1030B000F868FFF741FFB8603B6804337A68194647
:1030C000F86800F0FDFA3A68B968F86800F004FBA7
:1030D000FB68DB685A1CFB68DA6007F1200339687B
:1030E0001846FFF753FF3B6A18462C37BD4690BD84
:1030F00080B483B000AF78607B6818460C37BD465B
:103100005DF8047B704780B582B000AF7860786866
:1031100000F029FB034618460837BD4680BD80B441
:1031200083B000AF786000BF0C37BD465DF8047B0C
:10313000704780B582B000AF7860786800F01EFB01
:10314000034618460837BD4680BD80B588B000AF3D
:10315000F860B9607A60FB68FB61BB68BB617B6843
:103160007B61FEF7CBF80346002B03D0B86922F051
:1031700009FC05E07A69B969F86900F074FD00BFDF
:1031800000BF2037BD4680BD80B582B000AF7860FB
:103190003960386800F0FEFA7B6818460837BD468B
:1031A00080BD80B483B000AF78607B6818460C3770
:1031B000BD465DF8047B704780B582B000AF786093
:1031C00039603968786800F0F0FA7B68184608378B
:1031D000BD4680BD80B400AF00231846BD465DF8F3
:1031E000047B704780B582B000AF78607B681B6855
:1031F0001846FEF7C0FE02467B681A6000BF08371B
:10320000BD4680BD80B582B000AF7860786800F0C0
:1032100002FB034618460837BD4680BD80B582B024
:1032200000AF7860786800F001FB03461846083765
:10323000BD4680BD80B485B000AFF860B9607A60EB
:10324000BB6893F900207B6893F900309A420CBF69
:1032500001230023DBB218461437BD465DF8047B1A
:10326000704780B483B000AF78607B6818460C3735
:10327000BD465DF8047B704780B582B000AF7860D2
:10328000786800F0E0FA034618460837BD4680BD6E
:1032900080B584B000AF78600B46FB7097F90320CF
:1032A00007F10C0311461846FEF73CF80346184692
:1032B0001037BD4680BD80B586B000AFF860B960FC
:1032C0007A6007F114037A68B9681846FEF746F881
:1032D000034618461837BD4680BD80B586B000AF9E
:1032E000F860B9607A603B60FB681A68BB689B0055
:1032F00013441B687B617B69002B01D100232DE007
:103300007B691B683B613B6904333A687968F868FC
:1033100000F0A4FA0346002B01D07B691EE03B6954
:103320001B68002B0CD03869FEF725FE03460433DA
:103330001946F86800F0AFFA0246BB68934201D024
:10334000012300E00023002B06D13B697B61386933
:10335000FEF711FE3861D6E700BF00231846183784
:10336000BD4680BD80B483B000AF786039607B68B3
:103370003A681A607B6818460C37BD465DF8047BD6
:10338000704780B483B000AF78607B6818460C3714
:10339000BD465DF8047B7047B0B584B000AFF860FF
:1033A000B9607A60FB681C68B868FFF7F3FB0546F4
:1033B000786800F081FA03461A462946204600F054
:1033C00093FA034618461037BD46B0BD80B584B0A9
:1033D00000AFF860B9607A601A46B968F86800F022
:1033E000BBFA00BF1037BD4680BD80B485B000AFCA
:1033F000F860B9607A6000BF1437BD465DF8047BA1
:103400007047B0B584B000AFF860B9607A60FB680F
:103410001A68BB689B0013441B68002B11D0FB6823
:103420001A68BB689B0013441B681A687B681A60A3
:10343000FB681A68BB689B0013441B687A681A60B3
:1034400022E0FB689A687B681A60FB687A689A6079
:103450007B681B68002B0FD07C68FB681D68786850
:10346000FEF789FD034604331946F86800F013FAA5
:1034700003469B002B441C60FB681A68BB689B00DA
:103480001344FA6808321A6000BF1037BD46B0BD59
:1034900080B483B000AF78607B6818460C37BD46B7
:1034A0005DF8047B704780B582B000AF78607868C3
:1034B00000F0B6FA034618460837BD4680BD80B412
:1034C00083B000AF78607B6818460C37BD465DF866
:1034D000047B704780B584B000AFF860B9607A6053
:1034E0007B689B001946B86822F04EFA1037BD463B
:1034F00080BD80B582B000AF786039603968786887
:1035000000F0ABFA7B6818460837BD4680BD80B531
:1035100082B000AF78607B681B681846FEF72BFE10
:1035200002467B681A6000BF0837BD4680BD80B583
:1035300082B000AF7860786800F06DF903461846F5
:103540000837BD4680BD80B582B000AF786078682E
:1035500000F08FFA034618460837BD4680BD80B498
:1035600083B000AF78607B6818460C37BD465DF8C5
:10357000047B704780B582B000AF7860786800F057
:1035800062F9034618460837BD4680BD80B586B04F
:1035900000AFF860B9607A6007F114037A68B9681F
:1035A0001846FDF7DBFE034618461837BD4680BDBA
:1035B00080B586B000AFF860B9607A603B60FB68A8
:1035C0001A68BB689B0013441B687B617B69002BF6
:1035D00001D100232DE07B691B683B613B6904330B
:1035E0003A687968F86800F051FA0346002B01D078
:1035F0007B691EE03B691B68002B0CD03869FEF725
:10360000BAFD034604331946F86800F05CFA024636
:10361000BB68934201D0012300E00023002B06D1B8
:103620003B697B613869FEF7A6FD3861D6E700BFCC
:10363000002318461837BD4680BD80B483B000AF64
:10364000786039607B683A681A607B6818460C3786
:10365000BD465DF8047B704780B483B000AF7860EE
:103660007B6818460C37BD465DF8047B7047B0B5E3
:1036700084B000AFF860B9607A60FB681C68B86815
:10368000FFF788FA0546786800F02EFA03461A46D6
:103690002946204600F040FA034618461037BD463A
:1036A000B0BD80B584B000AFF860B9607A601A46EA
:1036B000B968F86800F068FA00BF1037BD4680BDF1
:1036C00080B485B000AFF860B9607A6000BF14378D
:1036D000BD465DF8047B7047B0B584B000AFF860BC
:1036E000B9607A60FB681A68BB689B0013441B686A
:1036F000002B11D0FB681A68BB689B0013441B6841
:103700001A687B681A60FB681A68BB689B001344E0
:103710001B687A681A6022E0FB689A687B681A6006
:10372000FB687A689A607B681B68002B0FD07C6806
:10373000FB681D687868FEF71EFD034604331946D2
:10374000F86800F0C0F903469B002B441C60FB683E
:103750001A68BB689B001344FA6808321A6000BFFD
:103760001037BD46B0BD80B483B000AF78607B68D1
:1037700018460C37BD465DF8047B704780B582B0B3
:1037800000AF7860786800F063FA0346184608379F
:10379000BD4680BD80B483B000AF78607B681846BA
:1037A0000C37BD465DF8047B704780B483B000AF32
:1037B000786039607B6818460C37BD465DF8047B3D
:1037C000704780B584B000AFF860B9607A60F8687F
:1037D00000F05BFA0246BB6893428CBF01230023D2
:1037E000DBB2002B14BF01230023DBB2002B07D078
:1037F000BB68B3F1804F01D322F0A8F922F0A3F9FE
:10380000BB689B00184622F0D0F8034600BF18465C
:103810001037BD4680BD80B483B000AF78607B6850
:1038200018460C37BD465DF8047B704780B582B002
:1038300000AF78607B68184600F033FA03461846FC
:103840000837BD4680BD80B483B000AF78607B6828
:1038500018460C37BD465DF8047B704780B584B0D0
:1038600000AFF860B9607A603B603968786800F052
:1038700024FA0346002B09D03A68B968F868FFF7C4
:10388000E9F80346002B01D0012300E0002318468D
:103890001037BD4680BD80B582B000AF786039601A
:1038A0007B685B681A463968786800F012FA03464C
:1038B00018460837BD4680BD80B483B000AF78603D
:1038C0007B6818460C37BD465DF8047B704780B5B1
:1038D00082B000AF78607B681846FDF731FD7B68E9
:1038E00018460837BD4680BDF0B587B000AFF86018
:1038F000B9607A60F868FEF7DFFD034601211846DB
:1039000000F009FA7861786900F03DFA38613B69A6
:1039100019461420FDF7FAFC03461846FFF7D7FFB7
:10392000F868FEF7C9FD04463B6904331846FEF704
:10393000CFFD0546B868FFF72DF906467868FFF712
:10394000BBFF034632462946204600F027FA3B6972
:1039500018461C37BD46F0BD80B58AB000AFF86090
:10396000B9603A71B968F868FEF7A7FAF861F868C3
:10397000FEF79BF97862FB6800229A6000233B62A5
:103980003EE0786AFEF7F7FAB8617B6A0433BA68FA
:103990001946F86800F09DF978617B699B00FA6927
:1039A00013441B68002B1AD1FB689A687B6A1A6063
:1039B000FB687A6A9A607B699B00FA691344FA682B
:1039C00008321A607B6A1B68002B05D03B6A9B009B
:1039D000FA6913447A6A1A607B693B620EE07B697C
:1039E0009B00FA6913441B681A687B6A1A607B693A
:1039F0009B00FA6913441B687A6A1A60BB697B6290
:103A00007B6A002BBDD1F868FEF771F8FB68BA68D5
:103A10005A60FB68FA691A6000BF2837BD4680BD4E
:103A200080B483B000AF78607B6818460C37BD4621
:103A30005DF8047B704780B584B000AFF860B96072
:103A40007A607A6813469B0013449B001946B86855
:103A500021F09AFF1037BD4680BD80B483B000AF1F
:103A6000786039607B6818460C37BD465DF8047B8A
:103A7000704780B582B000AF78607B68184600F070
:103A8000A5F9034618460837BD4680BD80B584B009
:103A900000AFF860B9607A603B603968786800F020
:103AA000A1F90346002B09D03A68B968F868FFF716
:103AB000F5F90346002B01D0012300E0002318464E
:103AC0001037BD4680BD80B582B000AF78603960E8
:103AD0007B685B681A463968786800F08FF903469E
:103AE00018460837BD4680BD80B483B000AF78600B
:103AF0007B6818460C37BD465DF8047B704780B57F
:103B000082B000AF78607B681846FDF719FC7B68CF
:103B100018460837BD4680BDF0B587B000AFF860E5
:103B2000B9607A60F868FEF778FE0346012118460E
:103B300000F086F97861786900F0BAF938613B697C
:103B400019460C20FDF7E2FB03461846FFF7D7FFA6
:103B5000F868FEF762FE04463B6904331846FEF738
:103B600068FE0546B868FFF715F806467868FFF75F
:103B7000BBFF034632462946204600F0A4F93B69C4
:103B800018461C37BD46F0BD80B58AB000AFF8605E
:103B9000B9603A71B968F868FEF78FFAF861F868A9
:103BA000FEF710F97862FB6800229A6000233B62FE
:103BB0003EE0786AFEF7DFFAB8617B6A0433BA68E0
:103BC0001946F86800F01AF978617B699B00FA6978
:103BD00013441B68002B1AD1FB689A687B6A1A6031
:103BE000FB687A6A9A607B699B00FA691344FA68F9
:103BF00008321A607B6A1B68002B05D03B6A9B0069
:103C0000FA6913447A6A1A607B693B620EE07B6949
:103C10009B00FA6913441B681A687B6A1A607B6907
:103C20009B00FA6913441B687A6A1A60BB697B625D
:103C30007B6A002BBDD1F868FDF7D5FFFB68BA6839
:103C40005A60FB68FA691A6000BF2837BD4680BD1C
:103C500080B483B000AF78607B6818460C37BD46EF
:103C60005DF8047B704780B584B000AFF860B96040
:103C70007A607A6813465B0013449B001946B86863
:103C800021F082FE1037BD4680BD80B483B000AF06
:103C900078606FF0604318460C37BD465DF8047BD2
:103CA000704780B582B000AF7860786800F023F983
:103CB000034618460837BD4680BD80B483B000AFC8
:103CC00078603960012318460C37BD465DF8047BE7
:103CD000704780B586B000AFF860B9607A60BB68A5
:103CE0001846FFF79BFA024607F1140311461846DF
:103CF000FEF719FB03461946F86800F007F901467C
:103D000007F110037A681846FDF728FB03461846AA
:103D10001837BD4680BDB0B584B000AF786039605B
:103D20007B68FB603B68BB60FDF7E8FA0346002B4D
:103D30001DD0BB6800211422A3FB02454FF00002F6
:103D40004FF000032A000023002A00D0012123465F
:103D5000BB600B4603F00103DBB2002B01D021F066
:103D6000F5FEBB68184621F020FE034607E0BB685D
:103D700000221946F86800F03BF9034600BF1846D8
:103D80001037BD46B0BD80B483B000AF78607B68AB
:103D900018460C37BD465DF8047B704790B585B07A
:103DA00000AFF860B9607A603B607868FEF7F2FEB9
:103DB00004463868FFF780FD03461A462146B86876
:103DC00000F0B9F800BF1437BD4690BD80B582B091
:103DD00000AF7860786800F0CCF8034618460837E2
:103DE000BD4680BD80B483B000AF786039600123E8
:103DF00018460C37BD465DF8047B704780B586B029
:103E000000AFF860B9607A60BB681846FFF79BFBAB
:103E1000024607F1140311461846FEF735FC034627
:103E20001946F86800F0B0F8014607F110037A6807
:103E30001846FDF793FA034618461837BD4680BD6D
:103E4000B0B584B000AF786039607B68FB603B68D8
:103E5000BB60FDF753FA0346002B1DD0BB68002161
:103E60000C22A3FB02454FF000024FF000032A0092
:103E70000023002A00D001212346BB600B4603F03B
:103E80000103DBB2002B01D021F060FEBB681846B5
:103E900021F08BFD034607E0BB6800221946F86855
:103EA00000F0D6F8034600BF18461037BD46B0BD37
:103EB00080B483B000AF78607B6818460C37BD468D
:103EC0005DF8047B704790B585B000AFF860B960CD
:103ED0007A603B607868FEF75DFE04463868FFF75D
:103EE00003FE03461A462146B86800F062F800BF98
:103EF0001437BD4690BD80B483B000AF78607B6856
:103F000018460C37BD465DF8047B704780B582B01B
:103F100000AF786039607868FFF7AEF902463B6819
:103F200093F9003019461046FFF7B2F903461846D8
:103F30000837BD4680BDB0B584B000AFF860B96049
:103F40007A60FB6819461020FDF7E0F90446B8686E
:103F5000FEF720FE05467868FFF7AEFC03461A46DA
:103F600029462046FDF72DFA234618461037BD4650
:103F7000B0BD80B483B000AF78607B6818460C3762
:103F8000BD465DF8047B704780B582B000AF7860B5
:103F900039607868FFF7EEFA02463B6893F9003023
:103FA00019461046FFF774F9034618460837BD4610
:103FB00080BDB0B584B000AFF860B9607A60FB68CE
:103FC00019460820FDF7A2F90446B868FEF7E2FD9D
:103FD00005467868FFF788FD03461A4629462046BD
:103FE00000F066F8234618461037BD46B0BD000005
:103FF00080B584B000AFF860B9607A60F86800F00E
:104000006DF80246BB6893428CBF01230023DBB2EC
:10401000002B14BF01230023DBB2002B07D0BB68A9
:104020000A4A934201D921F091FD21F08CFDBA6832
:1040300013469B0013449B00184621F0B6FC034630
:1040400000BF18461037BD4680BD00BFCCCCCC0C9D
:1040500080B584B000AFF860B9607A60F86800F0AD
:104060004BF80246BB6893428CBF01230023DBB2AE
:10407000002B14BF01230023DBB2002B07D0BB6849
:104080000A4A934201D921F061FD21F05CFDBA6832
:1040900013465B0013449B00184621F086FC034640
:1040A00000BF18461037BD4680BD00BF5555551599
:1040B00080B485B000AFF860B9607A60BB6893F9EE
:1040C0000020FB681A707B681A68FB685A60FB68FE
:1040D00018461437BD465DF8047B704780B483B042
:1040E00000AF7860034B18460C37BD465DF8047B83
:1040F000704700BF6666660680B483B000AF786024
:10410000034B18460C37BD465DF8047B704700BF73
:10411000AAAAAA0A80B582B000AF78607B68184668
:10412000FDF767FC7B6818460837BD4680BD80B543
:1041300082B000AF78607B681846FDF701FC7B68B1
:1041400018460837BD4680BD80B5EAB004AF07F514
:10415000CC73A3F5CA73186007F5CC73A3F5CC73C1
:10416000196007F5CC73A3F5CA731B68012B40F0E7
:104170006D8207F5CC73A3F5CC731B684FF6FF7205
:10418000934240F0638207F5CC73A3F5C4731846DD
:10419000F0231A46002122F081FD07F5CC73A3F528
:1041A000C473EC4A5A6007F5CC73A3F5C4730122BB
:1041B0001A7207F5CC73A3F5C47312221A7307F5AC
:1041C000CC73A3F5C47301221A7407F5CC73A3F55D
:1041D000C473E14A5A6107F5CC73A3F5C473012295
:1041E0001A7607F5CC73A3F5C47312221A7707F574
:1041F000CC73A3F5C473022283F8202007F5CC7397
:10420000A3F5C473D54A5A6207F5CC73A3F5C473FA
:10421000012283F8282007F5CC73A3F5C47312227A
:1042200083F82C2007F5CC73A3F5C473032283F81D
:10423000302007F5CC73A3F5C473C94A5A6307F558
:10424000CC73A3F5C473012283F8382007F5CC732F
:10425000A3F5C473122283F83C2007F5CC73A3F5B1
:10426000C473042283F8402007F5CC73A3F5C4730C
:10427000BC4A5A6407F5CC73A3F5C473012283F8D2
:10428000482007F5CC73A3F5C473122283F84C20A1
:1042900007F5CC73A3F5C473052283F8502007F506
:1042A000CC73A3F5C473B04A5A6507F5CC73A3F574
:1042B000C473012283F8582007F5CC73A3F5C473A7
:1042C000122283F85C2007F5CC73A3F5C473062291
:1042D00083F8602007F5CC73A3F5C473A34A5A662C
:1042E00007F5CC73A3F5C473012283F8682007F5A2
:1042F000CC73A3F5C473122283F86C2007F5CC733A
:10430000A3F5C473072283F8702007F5CC73A3F5D7
:10431000C473974A5A6707F5CC73A3F5C473012297
:1043200083F8782007F5CC73A3F5C473122283F8C1
:104330007C2007F5CC73A3F5C473082283F8802092
:1043400007F5CC73A3F5C4734DF20D12A3F88420C6
:1043500007F5CC73A3F5C473602283F88C2007F5AE
:10436000CC73A3F5C473092283F8902007F5CC73AE
:10437000A3F5C4734DF20712A3F8942007F5CC738C
:10438000A3F5C473602283F89C2007F5CC73A3F5D2
:10439000C4730A2283F8A02007F5CC73A3F5C47375
:1043A0004DF21212A3F8A42007F5CC73A3F5C47341
:1043B000602283F8AC2007F5CC73A3F5C4730B22FD
:1043C00083F8B02007F5CC73A3F5C4734DF2061241
:1043D000A3F8B42007F5CC73A3F5C473602283F867
:1043E000BC2007F5CC73A3F5C4730C2283F8C0205E
:1043F00007F5CC73A3F5C4734DF21F12A3F8C420C4
:1044000007F5CC73A3F5C473602283F8CC2007F5BD
:10441000CC73A3F5C4730D2283F8D02007F5CC73B9
:10442000A3F5C4734DF65C12A3F8D42007F5CC7342
:10443000A3F5C473782283F8DC2007F5CC73A3F5C9
:10444000C4730E2283F8E02007F5CC73A3F5C47380
:104450004DF67712A3F8E42007F5CC73A3F5C473E7
:10446000782283F8EC2007F5CC73A3F5C87307F125
:1044700010021A6007F5CC73A3F5C8730F225A60B7
:1044800007F584731846FDF7A9F907F5CC73A3F572
:10449000C87207F58473029307F58273019307F5D9
:1044A00080730093002306CA3248FDF7AEF907F582
:1044B00084731846FDF79EF907F58A737822002168
:1044C000184622F0EBFB2C4BC7F81831012387F874
:1044D0001C312A4BC7F82031022387F82431284B9E
:1044E000C7F82831032387F82C31264BC7F8303121
:1044F000042387F83431244BC7F83831052387F873
:104500003C31224BC7F84031062387F84431204B19
:10451000C7F84831072387F84C311E4BC7F8503194
:10452000082387F854311C4BC7F85831092387F802
:104530005C311A4BC7F860310A2387F86431184B95
:10454000C7F868310B2387F86C31164BC7F8703108
:104550000C2329E002010244020107480101004343
:1045600001010946010104420201084202011A4800
:104570000101294AB4000010D8711208EC71120828
:1045800000721208107212081C7212082C721208A3
:104590003C7212084C721208607212086C72120897
:1045A000787212088872120887F87431354BC7F890
:1045B00078310D2387F87C31334BC7F880310E23D7
:1045C00087F88431314BC7F8883107F58A73C7F80B
:1045D0000C310F23C7F8103107F5CA731846FDF7E1
:1045E0002DF907F5CA73029307F5C873019307F510
:1045F000C6730093002307F5867206CA2448FDF7A8
:1046000034F907F5CA731846FDF724F900221C2176
:10461000402012F00AFB03461E4A136000221C21B0
:10462000102012F002FB03461B4A136000221C21DB
:10463000102012F0FAFA0346184A136000221C21D7
:10464000042012F0F2FA0346154A136007F5CC7302
:10465000A3F5CA731B68002B0ED107F5CC73A3F525
:10466000CC731B684FF6FF72934205D10848FFF7E1
:1046700051FD0C48FFF75BFD00BF07F5CC77BD4649
:1046800080BD00BFA0721208B4721208C472120872
:10469000D0000010E8010010EC010010F001001043
:1046A000F4010010B400001080B500AF4FF6FF71A8
:1046B0000120FFF749FD80BD80B500AF4FF6FF71C7
:1046C0000020FFF741FD80BD80B582B000AF104BE8
:1046D000D3F8F4300E4A43F00203C2F8F4300C4B26
:1046E000D3F8F43003F002037B607B6800220F21D3
:1046F0006FF001000AF0C8FC002207217E200AF0BA
:10470000C3FC7E200AF0DAFC00BF0837BD4680BD3E
:104710000044025880B5BCB000AF786007F1DC03FC
:1047200000221A605A609A60DA601A6107F1100379
:10473000C8220021184622F0B1FA7B681B68274A7C
:10474000934246D14FF010024FF00003C7E9042313
:104750000023C7F8AC3007F1100318460DF004FD34
:104760000346002B01D0FDF733F81D4BD3F8E030A2
:104770001B4A43F00803C2F8E030194BD3F8E0308D
:1047800003F00803FB60FB684FF44053C7F8DC30CC
:104790001223C7F8E0300023C7F8E4300023C7F83D
:1047A000E8300423C7F8EC3007F1DC0319460D4864
:1047B0000CF024FA0A4BD3F8F430094A43F0800392
:1047C000C2F8F430064BD3F8F43003F08003BB603A
:1047D000BB6800BFF037BD4680BD00BF001C00585D
:1047E00000440258000C025880B582B000AF7860D7
:1047F0007B681B680C4A934211D10C4BD3F8F43000
:104800000A4A23F08003C2F8F4304FF4805108487C
:104810000CF0A4FB4FF4005105480CF09FFB00BFC7
:104820000837BD4680BD00BF001C00580044025838
:10483000000C025880B5BCB000AF786007F1DC0313
:1048400000221A605A609A60DA601A6107F1100358
:10485000C8220021184622F021FA7B681B68274AEB
:10486000934246D14FF001024FF00003C7E9042301
:104870000023C7F8903007F1100318460DF074FCC0
:104880000346002B01D0FCF7A3FF1D4BD3F8F030FB
:104890001B4A43F01003C2F8F030194BD3F8F03044
:1048A00003F01003FB60FB68154BD3F8E030144AAB
:1048B00043F00103C2F8E030114BD3F8E03003F0CD
:1048C0000103BB60BB684FF4C063C7F8DC30022350
:1048D000C7F8E0300023C7F8E4300023C7F8E83019
:1048E0000723C7F8EC3007F1DC03194605480CF044
:1048F00085F900BFF037BD4680BD00BF0010014004
:10490000004402580000025880B590B000AF7860B3
:104910007B680F2B27D80022796836200AF0B4FB79
:1049200036200AF0CBFB294A7B681360284BD3F86A
:10493000E830274A43F01003C2F8E830244BD3F89C
:10494000E83003F01003FB60FB6807F1100207F189
:104950001403114618460DF0C5FBBB6ABB63BB6B65
:10496000002B06D101E001232BE00DF08FFBF86353
:1049700004E00DF08BFB03465B00FB63FB6B154A09
:10498000A2FB03239B0C013B7B63134B134A1A606E
:10499000114B40F2E732DA600F4A7B6B53600E4BEB
:1049A00000221A610C4B00229A600B480FF048FA63
:1049B0000346002B04D108480FF0A4FA034600E098
:1049C000012318464037BD4680BD00BF1C000010C3
:1049D0000044025883DE1B43F80100100010004021
:1049E00080B400AF00BFFDE780B400AF00BFFDE7BB
:1049F00080B400AF00BFFDE780B400AF00BFFDE7AB
:104A000080B400AF00BFFDE780B400AF00BFBD467B
:104A10005DF8047B7047000080B500AF02480FF0DE
:104A2000E9FA00BF80BD00BFF801001080B500AFFB
:104A300002480AF03BFF00BF80BD00BF8C0300109E
:104A400080B500AF02480AF031FF00BF80BD00BF53
:104A50008C03001080B500AF0CF0D4FB00BF80BD0C
:104A600080B400AF01231846BD465DF8047B704753
:104A700080B483B000AF78603960054B16221A60AD
:104A80004FF0FF3318460C37BD465DF8047B704786
:104A9000C4E6001080B582B000AF78604FF0FF31FF
:104AA0007868FFF7E5FF00BFFDE780B586B000AF8F
:104AB000F860B9607A6000237B610AE0AFF30080A0
:104AC0000146BB685A1CBA60CAB21A707B690133CE
:104AD0007B617A697B689A42F0DB7B6818461837FD
:104AE000BD4680BD80B586B000AFF860B9607A6021
:104AF00000237B6109E0BB685A1CBA601B7818462A
:104B0000FCF742FE7B6901337B617A697B689A42DC
:104B1000F1DB7B6818461837BD4680BD80B483B092
:104B200000AF78604FF0FF3318460C37BD465DF894
:104B3000047B704780B483B000AF786039603B6815
:104B40004FF400525A60002318460C37BD465DF8FA
:104B5000047B704780B483B000AF786001231846AF
:104B60000C37BD465DF8047B704780B485B000AF5C
:104B7000F860B9607A60002318461437BD465DF8C6
:104B8000047B704780B487B000AF7860144A154B3F
:104B9000D31A7B617B693B61134B1B68002B02D1ED
:104BA000114B124A1A60104B1A687B6813443A6919
:104BB0009A4205D20E4B0C221A604FF0FF3309E0E7
:104BC000094B1B68FB60084B1A687B681344064A54
:104BD0001360FB6818461C37BD465DF8047B7047C0
:104BE000008004100010000044020010D0E6001005
:104BF000C4E6001080B400AF00231846BD465DF83F
:104C0000047B704780B483B000AF78600B46FB70C4
:104C100013463B807B6800221A707B6801330022B8
:104C20001A707B68023300221A707B6803330522F6
:104C30001A707B68043300221A707B6805330122E6
:104C40001A707B680633F4221A707B680733FA788F
:104C50001A707B68083322221A703B881B0A9AB2AA
:104C60007B680933D2B21A707B680A333A88D2B2B1
:104C70001A7000BF0C37BD465DF8047B704780B4E6
:104C800083B000AF78600B46FB707B6800221A701F
:104C90007B68013300221A707B68023300221A708D
:104CA0007B68033306221A707B68043300221A7073
:104CB0007B68053301221A707B680633F4221A7070
:104CC0007B680733FA781A707B6808332C221A70D5
:104CD0007B68093303221A707B680A33F3221A7047
:104CE0007B680B3300221A7000BF0C37BD465DF89D
:104CF000047B704780B485B000AFF8600B467A60E3
:104D0000FB72FB6800221A70FB68013300221A70E4
:104D1000FB68023300221A70FB6803330A221A7000
:104D2000FB68043300221A70FB68053301221A70F5
:104D3000FB680633F4221A70FB680733FA7A1A709C
:104D4000FB6808332C221A70FB68093301221A70A1
:104D5000FB680A33F3221A70FB680B3300221A70C7
:104D60007B681A0EFB680C33D2B21A707B681A0C7F
:104D7000FB680D33D2B21A707B681A0AFB680E33D7
:104D8000D2B21A70FB680F337A68D2B21A7000BFC1
:104D90001437BD465DF8047B70470000B0B58CB099
:104DA00000AFF860B9607A60FB70002387F82F309D
:104DB000032387F82830002387F8293097F9033038
:104DC0000E2B00F2778101A252F823F0094E100851
:104DD000354E1008614E10087B4E1008954E100895
:104DE000AF4E1008DB4E1008074F1008214F100877
:104DF000594F1008854F1008B14F1008DD4F1008AB
:104E0000435010086F5010087B68012B03D8012312
:104E100087F82F3053E100233B74BB681B781B02DB
:104E20001AB2BB6801331B781BB213431BB29BB28F
:104E3000BB8244E17B68012B03D8012387F82F3024
:104E40003DE101233B74BB681B781B021AB2BB68AF
:104E500001331B781BB213431BB29BB2BB822EE102
:104E60007B68002B03D1012387F82F3027E1022331
:104E70003B74BB681B783B7521E17B68002B03D139
:104E8000012387F82F301AE103233B74BB681B789A
:104E90003B7514E17B68002B03D1012387F82F3089
:104EA0000DE104233B74BB681B783B7507E17B680D
:104EB000012B03D8012387F82F3000E105233B7431
:104EC000BB681B781B021AB2BB6801331B781BB28C
:104ED00013431BB29BB2BB82F1E07B68012B03D86A
:104EE000012387F82F30EAE006233B74BB681B7868
:104EF0001B021AB2BB6801331B781BB213431BB2EF
:104F00009BB2BB82DBE07B68002B03D1012387F8D7
:104F10002F30D4E007233B74BB681B783B75CEE091
:104F20007B68032B03D8012387F82F30C7E00823C1
:104F30003B74BB681B781A06BB6801331B781B04E3
:104F40001A43BB6802331B781B021343BA6803324F
:104F5000127813437B61B2E07B68012B03D80123F5
:104F600087F82F30ABE009233B74BB681B781B022A
:104F70001AB2BB6801331B781BB213431BB29BB23E
:104F8000BB829CE07B68012B03D8012387F82F307C
:104F900095E00A233B74BB681B781B021AB2BB68FE
:104FA00001331B781BB213431BB29BB2BB8286E05A
:104FB0007B68012B03D8012387F82F307FE00B2378
:104FC0003B74BB681B781B021AB2BB6801331B78A9
:104FD0001BB213431BB29BB2BB8270E07B68082BF1
:104FE00003D8012387F82F3069E00C233B74BB689A
:104FF0001B781A04BB6801331B781B021343BA6881
:105000000232127813437B61BB6803331B781A04A6
:10501000BB6804331B781B021343BA68053212784D
:105020001343BB61BB6806331B781A04BB680733A4
:105030001B781B021343BA68083212781343FB61D2
:105040003DE07B68012B03D8012387F82F3036E041
:105050000D233B74BB681B781B021AB2BB6801337B
:105060001B781BB213431BB29BB2BB8227E07B6849
:10507000032B03D8012387F82F3020E00E233B7445
:10508000BB681B781B021AB2BB6801331B781BB2CA
:1050900013431BB29BB2BB82BB6802331B781B025B
:1050A0001AB2BB6803331B781BB213431BB29BB20B
:1050B000FB8204E02946F86800F048F815E097F80C
:1050C0002F30002B0BD0FBF75BFF03460949184636
:1050D000FBF77EFF2146F86800F038F805E007F19D
:1050E00010031946F86800F03FF8F8683037BD46FD
:1050F000B0BD00BFD472120880B582B000AF786036
:105100007B68184600F044F87B6800221A777B68B9
:1051100018460837BD4680BD80B582B000AF7860C4
:105120007B681846FFF7E8FF7B6818460837BD46DE
:1051300080BD80B582B000AF78607B681846FFF70D
:10514000EBFF7B6818460837BD4680BD80B582B04E
:1051500000AF786039707B681846FFF7EAFF7B681C
:1051600018460837BD4680BDB0B582B000AF786044
:1051700039607C68386800F016F803461A462946FC
:10518000204600F02CF87B6818460837BD46B0BDB5
:1051900080B483B000AF78607B6818460C37BD469A
:1051A0005DF8047B704780B483B000AF78607B68A3
:1051B00018460C37BD465DF8047B704790B585B046
:1051C00000AFF86039727A60FB687A682146184649
:1051D00000F01AF8FB6818461437BD4690BDB0B50C
:1051E00084B000AFF86039727A60FC687868FFF7C5
:1051F000DAFF03461A4629462046FFF7DFFFFB6821
:1052000018461037BD46B0BDB0B584B000AFF860E9
:1052100039727A60FC687868FFF7C5FF03461A4662
:105220002946204600F008F8FB6801221A77FB683F
:1052300018461037BD46B0BDB0B584B000AFF860B9
:1052400039727A607868FFF7AEFF0246FB681C4649
:1052500015460FCD0FC495E8070084E80700FB68EA
:1052600018461037BD46B0BD80B5EAB004AF07F5AB
:10527000CC73A3F5CA73186007F5CC73A3F5CC7390
:10528000196007F5CC73A3F5CA731B68012B40F0B6
:105290004D8207F5CC73A3F5CC731B684FF6FF72F4
:1052A000934240F0438207F5CC73A3F5C4731846CC
:1052B000F0231A46002121F0F1FC07F5CC73A3F589
:1052C000C473EC4A5A6007F5CC73A3F5C47301228A
:1052D0001A7207F5CC73A3F5C47312221A7307F57B
:1052E000CC73A3F5C47301221A7407F5CC73A3F52C
:1052F000C473E14A5A6107F5CC73A3F5C473012264
:105300001A7607F5CC73A3F5C47312221A7707F542
:10531000CC73A3F5C473022283F8202007F5CC7365
:10532000A3F5C473D54A5A6207F5CC73A3F5C473C9
:10533000012283F8282007F5CC73A3F5C473122249
:1053400083F82C2007F5CC73A3F5C473032283F8EC
:10535000302007F5CC73A3F5C473C94A5A6307F527
:10536000CC73A3F5C473012283F8382007F5CC73FE
:10537000A3F5C473122283F83C2007F5CC73A3F580
:10538000C473042283F8402007F5CC73A3F5C473DB
:10539000BC4A5A6407F5CC73A3F5C473012283F8A1
:1053A000482007F5CC73A3F5C473122283F84C2070
:1053B00007F5CC73A3F5C473052283F8502007F5D5
:1053C000CC73A3F5C473B04A5A6507F5CC73A3F543
:1053D000C473012283F8582007F5CC73A3F5C47376
:1053E000122283F85C2007F5CC73A3F5C473062260
:1053F00083F8602007F5CC73A3F5C473A34A5A66FB
:1054000007F5CC73A3F5C473012283F8682007F570
:10541000CC73A3F5C473122283F86C2007F5CC7308
:10542000A3F5C473072283F8702007F5CC73A3F5A6
:10543000C473974A5A6707F5CC73A3F5C473012266
:1054400083F8782007F5CC73A3F5C473122283F890
:105450007C2007F5CC73A3F5C473082283F8802061
:1054600007F5CC73A3F5C4734DF20D12A3F8842095
:1054700007F5CC73A3F5C473602283F88C2007F57D
:10548000CC73A3F5C473092283F8902007F5CC737D
:10549000A3F5C4734DF20712A3F8942007F5CC735B
:1054A000A3F5C473602283F89C2007F5CC73A3F5A1
:1054B000C4730A2283F8A02007F5CC73A3F5C47344
:1054C0004DF21212A3F8A42007F5CC73A3F5C47310
:1054D000602283F8AC2007F5CC73A3F5C4730B22CC
:1054E00083F8B02007F5CC73A3F5C4734DF2061210
:1054F000A3F8B42007F5CC73A3F5C473602283F836
:10550000BC2007F5CC73A3F5C4730C2283F8C0202C
:1055100007F5CC73A3F5C4734DF21F12A3F8C42092
:1055200007F5CC73A3F5C473602283F8CC2007F58C
:10553000CC73A3F5C4730D2283F8D02007F5CC7388
:10554000A3F5C4734DF65C12A3F8D42007F5CC7311
:10555000A3F5C473782283F8DC2007F5CC73A3F598
:10556000C4730E2283F8E02007F5CC73A3F5C4734F
:105570004DF67712A3F8E42007F5CC73A3F5C473B6
:10558000782283F8EC2007F5CC73A3F5C87307F1F4
:1055900010021A6007F5CC73A3F5C8730F225A6086
:1055A00007F584731846FCF719F907F5CC73A3F5D2
:1055B000C87207F58473029307F58273019307F5A8
:1055C00080730093002306CA3248FCF71EF907F5E2
:1055D00084731846FCF70EF907F58A7378220021C8
:1055E000184621F05BFB2C4BC7F81831012387F8D4
:1055F0001C312A4BC7F82031022387F82431284B6D
:10560000C7F82831032387F82C31264BC7F83031EF
:10561000042387F83431244BC7F83831052387F841
:105620003C31224BC7F84031062387F84431204BE8
:10563000C7F84831072387F84C311E4BC7F8503163
:10564000082387F854311C4BC7F85831092387F8D1
:105650005C311A4BC7F860310A2387F86431184B64
:10566000C7F868310B2387F86C31164BC7F87031D7
:105670000C2329E002010244020107480101004312
:1056800001010946010104420201084202011A48CF
:105690000101294A480200101C73120830731208D5
:1056A000447312085473120860731208707312085E
:1056B0008073120890731208A4731208B073120852
:1056C000BC731208CC73120887F87431254BC7F8E5
:1056D00078310D2387F87C31234BC7F880310E23B6
:1056E00087F88431214BC7F8883107F58A73C7F8EA
:1056F0000C310F23C7F8103107F5CA731846FCF7B1
:105700009DF807F5CA73029307F5C873019307F56F
:10571000C6730093002307F5867206CA1448FCF787
:10572000A4F807F5CA731846FCF794F807F5CC738C
:10573000A3F5CA731B68002B0ED107F5CC73A3F534
:10574000CC731B684FF6FF72934205D10848FEF7F1
:10575000E1FC0848FEF7EBFC00BF07F5CC77BD463F
:1057600080BD00BFE4731208F873120808741208B1
:10577000640200104802001080B500AF4FF6FF71C0
:105780000120FFF771FD80BD80B500AF4FF6FF71BE
:105790000020FFF769FD80BD80B582B000AF786062
:1057A00020F02AFB80B582B000AF0346FB71FB7985
:1057B000002B03D00548FFF7EFFF02E00448FFF796
:1057C000EBFF00BF0837BD4680BD00BF187412084C
:1057D0003874120880B500AF20F00EFB80B485B09D
:1057E00000AF02237B6000233B7001237B70022308
:1057F000FB600023BB600FE03A46BB6813441B7894
:10580000002B06D0FB68012B01D8022308E0BB68FF
:10581000FB60BB680133BB60BB68012BECD9FB6844
:1058200018461437BD465DF8047B704780B485B0D8
:1058300000AF02237B6001233B7000237B700223B7
:10584000FB600023BB600FE03A46BB6813441B7843
:10585000002B06D0FB68012B01D8022308E0BB68AF
:10586000FB60BB680133BB60BB68012BECD9FB68F4
:1058700018461437BD465DF8047B704780B500AF0D
:10588000104B1B68BFF35B8F03F00103002B0CBFB1
:1058900001230023DBB2002B10D00A4820F076F859
:1058A0000346002B14BF01230023DBB2002B05D0DD
:1058B000054800F00BF8034820F074F8024B184636
:1058C00080BD00BFCC020010B802001080B483B0CD
:1058D00000AF78607B6800225A607B6800229A6083
:1058E0007B68FF221A737B6800225A737B68002250
:1058F0009A737B6800221A617B6818460C37BD4694
:105900005DF8047B704780B588B002AFF860B9607D
:105910007A60FB70FFF7B2FF786197F9033000936C
:105920007B68BA68F968786900F080FC0023184643
:105930001837BD4680BD80B586B000AFF860B9604D
:105940001346FB71FFF79AFF786197F90730BA6841
:10595000F968786900F066FD002318461837BD46DF
:1059600080BD80B584B000AF78600B46FB70FFF758
:1059700085FFF86097F903301A467968F86800F0F7
:10598000AFFD00BF1037BD4680BD80B588B002AF07
:10599000F860B9607A603B60FFF770FF78613B8C1C
:1059A00001933B6800937B68BA68F968786900F0F6
:1059B00025F900BF1837BD4680BD000080B586B010
:1059C00000AF7860234B7B6107F10C031946224836
:1059D00016F016F94FF420725E21362018F0BCF94B
:1059E00038613B69002B08D1FBF7CAFA03461B4913
:1059F0001846FBF7EDFA002327E03B695B685E225F
:105A00001449184621F099FA7B68586807F10C028E
:105A100040F26C7339691FF0CDFC0346002B14BFB4
:105A200001230023DBB2002B0BD0FBF7A9FA0346BE
:105A30000B491846FBF7CCFA386918F06FFC0023C5
:105A400003E0386918F06AFC012318461837BD4690
:105A500080BD00BF5C741208BC741208CC741208BC
:105A6000F0741208F0B58FB000AF7860304B07F1DA
:105A700010041D460FCD0FC40FCD0FC42B6823801B
:105A800000237B8607F10C0319462A4816F0B8F864
:105A90004FF420722421362018F05EF978637B6B76
:105AA000002B08D1FBF76CFA034623491846FBF795
:105AB0008FFA002337E07B6B5B6807F110049C468C
:105AC00004F1200E654626460FCE28606960AA6064
:105AD000EB6010340CF1100C7445F3D16346224690
