:020000040810E2
:10000000008004101D321008F5071008FD071008C5
:10001000050810080D081008150810080000000059
:10002000000000000000000000000000E14910088E
:100030001D08100800000000314C10084541100850
:100040006D3210086D3210086D3210086D321008D4
:100050006D3210086D3210086D3210086D321008C4
:100060006D3210086D3210086D3210086D321008B4
:100070006D3210086D3210086D3210086D321008A4
:100080006D3210086D3210086D3210086D32100894
:100090006D3210086D3210086D3210086D32100884
:1000A0006D3210086D3210086D3210086D32100874
:1000B0006D3210086D3210086D3210086D32100864
:1000C0006D3210086D3210086D3210086D32100854
:1000D0006D3210086D3210086D3210086D32100844
:1000E0006D3210086D321008000000006D321008EB
:1000F0006D3210086D3210086D3210086D32100824
:100100006D3210086D3210086D3210086D32100813
:100110006D3210086D3210082D0810086D3210086D
:100120006D3210086D3210086D3210086D321008F3
:100130006D3210086D3210086D3210086D321008E3
:100140006D3210086D321008000000000000000041
:100150006D3210086D3210086D3210086D321008C3
:100160006D3210086D3210086D3210086D321008B3
:100170006D3210086D3210086D321008000000005A
:100180006D3210086D3210086D3210086D32100893
:100190006D3210086D3210086D3210086D32100883
:1001A0006D3210086D3210086D3210086D32100873
:1001B0006D3210086D3210086D3210086D32100863
:1001C0006D3210086D3210086D3210086D32100853
:1001D0006D3210086D3210086D3210086D32100843
:1001E0006D3210086D3210086D3210086D32100833
:1001F0006D3210086D3210086D3210086D32100823
:100200006D3210086D3210086D3210086D32100812
:100210006D3210086D3210086D3210086D32100802
:100220006D3210086D3210086D3210086D321008F2
:100230006D3210086D321008410810086D32100838
:100240006D3210086D3210086D3210086D321008D2
:100250006D3210086D3210086D3210086D321008C2
:100260006D3210086D3210086D3210086D321008B2
:100270006D3210086D3210086D3210086D321008A2
:100280006D3210086D3210086D3210080000000049
:080290006D3210086D321008F8
:1002A00010B5054C237833B9044B13B10448AFF3B0
:1002B00000800123237010BD6400001000000000C6
:1002C000E47E100808B5034B1BB103490348AFF3A4
:1002D000008008BD0000000068000010E47E1008E7
:1002E00080B582B000AF78607B6803F08053002B4C
:1002F00005D04FF0805003F075F900F06BF87B6883
:10030000002B05DA4FF0004003F06CF900F086F89E
:1003100000BF0837BD4680BD80B584B002AF204B1A
:10032000D3F8E0301E4A43F00073C2F8E0301C4BB3
:10033000D3F8E03003F000737B607B6800211B2062
:1003400003F018F94FF4AF620021164807F094FC4F
:100350004FF4AF620021144807F08EFC134B00935A
:10036000104B012200214FF4AF6005F05DFA034607
:100370000F4A13600F4B00930B4B012200214FF4E7
:10038000AF6005F051FA0346094A536000211A2074
:1003900003F014F9002318460837BD4680BD00BF9E
:1003A0000044025850000038C805003808000038E2
:1003B000000000382C00003880B500AF4FF08050AE
:1003C00003F010F94FF0004003F00CF90023184639
:1003D00080BD000080B582B000AF00237B600D4B74
:1003E0001B68002B12D00B4B1B683A1D1146184698
:1003F00005F076FC7B68002B09D0074B4FF080524C
:100400001A60BFF34F8FBFF36F8F00E000BF083754
:10041000BD4680BD0000003804ED00E080B582B02C
:1004200000AF00237B600D4B5B68002B12D00B4BA1
:100430005B683A1D1146184605F096FC7B68002B58
:1004400009D0074B4FF080521A60BFF34F8FBFF3B4
:100450006F8F00E000BF0837BD4680BD0000003848
:1004600004ED00E080B584B000AF78607B68FB608D
:10047000BFF34F8F00BF124B5B68FA689A420BD1F3
:100480001B211D2003F076F80346002B14D11B21FD
:100490001D2003F093F80FE0094B1B68FA689A429D
:1004A0000AD11B211E2003F065F80346002B03D15F
:1004B0001B211E2003F082F800BF1037BD4680BD0F
:1004C0000000003880B586B000AFF860B9607A608F
:1004D0000F4B5B68002B01D1002315E07B68002BDC
:1004E00009DA0B4B58684FF0FF33BA68F96805F02A
:1004F00055FA786107E0064B58687B68BA68F96876
:1005000005F04CFA78617B6918461837BD4680BD06
:100510000000003880B586B000AFF860B9607A603E
:100520007B68002B09DA0B4B18684FF0FF33BA6871
:10053000F96805F01AFB786107E0064B18687B68DC
:10054000BA68F96805F011FB78617B6918461837BD
:10055000BD4680BD0000003880B582B000AF264B9C
:10056000D3F8E030244A43F00073C2F8E030224B65
:10057000D3F8E03003F000737B607B68012003F068
:1005800031F803F0D5F801220221002003F056F8DB
:100590001A4B1B681B0903F00F03072B08D1184BDC
:1005A000D3F80431164A43F00103C2F8043107E0DE
:1005B000134BD3F81431124A43F00103C2F814313B
:1005C00002F072FEFFF7A8FE00F028F803F0D4FD59
:1005D0000C4A00210C4803F019FE03460B4A136035
:1005E0000B4A00210B4803F011FE03460A4A136030
:1005F00003F0E6FD00BFFDE70044025800ED00E017
:1006000000640258507F10086B0910088000001029
:10061000747F10088D1010088400001080B483B01F
:1006200000AF0A4BD3F8D430084A43F00103C2F8B4
:10063000D430064BD3F8D43003F001037B607B68E1
:1006400000BF0C37BD465DF8047B7047004402587C
:1006500080B582B000AF78607B681B68044A934223
:1006600001D102F07FFE00BF0837BD4680BD00BF4C
:100670000010004080B582B000AF786039607B68C0
:10068000012B14D13B684FF6FF7293420FD1002229
:100690001821082004F079FC0346074A1360002261
:1006A0001821102004F071FC0346044A136000BFB7
:1006B0000837BD4680BD00BF880000108C000010C8
:1006C00080B500AF4FF6FF710120FFF7D3FF80BD6B
:1006D00080B582B000AF104BD3F8F4300E4A43F02F
:1006E0000203C2F8F4300C4BD3F8F43003F00203E9
:1006F0007B607B6800220F216FF0010002F0FEFE9C
:10070000002205217E2002F0F9FE7E2002F010FF7B
:1007100000BF0837BD4680BD0044025880B590B088
:1007200000AF78607B680F2B27D8002279683620CD
:1007300002F0E4FE362002F0FBFE294A7B681360DB
:10074000284BD3F8E830274A43F01003C2F8E830CA
:10075000244BD3F8E83003F01003FB60FB6807F18B
:10076000100207F114031146184603F0B1F9BB6AF1
:10077000BB63BB6B002B06D101E001232BE003F030
:1007800091F9F86304E003F08DF903465B00FB6325
:10079000FB6B154AA2FB03239B0C013B7B63134BB2
:1007A000134A1A60114B40F2E732DA600F4A7B6B52
:1007B00053600E4B00221A610C4B00229A600B48CA
:1007C00003F0C8F90346002B04D1084803F024FACB
:1007D000034600E0012318464037BD4680BD00BFF8
:1007E000080000100044025883DE1B4390000010F4
:1007F0000010004080B400AF00BFFDE780B400AF40
:1008000000BFFDE780B400AF00BFFDE780B400AFDC
:1008100000BFFDE780B400AF00BFFDE780B400AFCC
:1008200000BFBD465DF8047B7047000080B500AF97
:10083000024803F069FA00BF80BD00BF90000010BD
:1008400080B500AF02F0E0FE00BF80BD80B400AF15
:1008500001231846BD465DF8047B704780B582B021
:1008600000AF7860396007F0B9FA034616221A60C3
:100870004FF0FF3318460837BD4680BD80B582B0C3
:1008800000AF78604FF0FF317868FFF7E7FF00BFF7
:10089000FDE7000080B586B000AF7860144A154BC4
:1008A000D31A7B617B693B61134B1B68002B02D120
:1008B000114B124A1A60104B1A687B6813443A694C
:1008C0009A4207D207F08AFA03460C221A604FF0C8
:1008D000FF3309E0084B1B68FB60074B1A687B6815
:1008E0001344054A1360FB6818461837BD4680BD9F
:1008F0000080041000100000DC000010204C0010EC
:1009000080B483B000AF786039603B6818460C371C
:10091000BD465DF8047B704780B483B000AF78605B
:100920007B6818460C37BD465DF8047B704780B481
:1009300083B000AF78607B6818460C37BD465DF821
:10094000047B704780B582B000AF78607B689B689D
:10095000002B05D07B689B687868796803229847EC
:100960007B6818460837BD4680BD80B586B000AFAD
:100970007860FFF721FD07F10C03184600F00AF834
:1009800007F10C03184600F05DF8012003F0D0FCDD
:1009900000BFF5E780B582B000AF78607B68054A9C
:1009A00011680422184600F0A5FA7B68184608373B
:1009B000BD4680BD8C00001082B080B483B000AF13
:1009C000786007F1100080E80C000B46FB7000BF58
:1009D00000BF0C37BD465DF8047B02B0704782B0A3
:1009E000B0B586B004AF786007F1180080E80C005D
:1009F0000B46FB707B681C68FD7897F828300293E3
:100A00006A4607F1200393E8030082E8030007F138
:100A100018030CCB29462046FFF7CEFF00BF08374E
:100A2000BD46BDE8B04002B0704780B582B000AFAF
:100A300078607B681846FFF785FF7B6818460837A3
:100A4000BD4680BD90B591B000AF78601823FB63C0
:100A500007F10C030022F96B1846FFF75BFDB86342
:100A6000BA6BFB6B9A4210D1154B1B68DBB287F84F
:100A70002130134B1B680133114A136007F10C033B
:100A80000022F96B1846FFF71DFD7C687B687B63CD
:100A900007F1340207F124031146184600F026F846
:100AA00007F124031946204600F03EFA07F124031B
:100AB0001846FFF7BAFF00BF4437BD4690BD00BFE0
:100AC000E000001080B483B000AF78607B681A4605
:100AD0000023136053607B6800229A607B6818468D
:100AE0000C37BD465DF8047B7047000090B583B0BD
:100AF00000AF786039607B681A460023136053604A
:100B000093607B681846FFF7DDFF7B680022DA60A0
:100B1000386800F01BF80346002B0ED07C6838685C
:100B200000F01FF803461946204600F025F87B68C0
:100B3000044ADA607B68044A9A607B6818460C377E
:100B4000BD4690BD9D0B1008DD0B100880B483B02E
:100B500000AF7860012318460C37BD465DF8047B72
:100B6000704780B483B000AF78607B6818460C375C
:100B7000BD465DF8047B704790B583B000AF7860E8
:100B800039603868FFF7EDFF03462246194678685A
:100B900000F043F800BF0C37BD4690BDF0B585B0FE
:100BA00000AFF860B9607A603B60F86800F04EF81A
:100BB0000446B86800F05BF80546786800F062F813
:100BC0000646386800F069F8034632462946204652
:100BD00000F06EF800BF1437BD46F0BD90B585B08B
:100BE00000AFF860B9601346FB71FB79012B09D1A6
:100BF000F86800F081F80446B86800F027F803466A
:100C0000236005E0FB791A46B968F86800F080F8BF
:100C1000002318461437BD4690BD90B585B000AF8F
:100C2000F860B9603A71F868FFF776FE0346194636
:100C30000420FFF765FE0446B868FFF792FF0346FD
:100C40001B68236000BF1437BD4690BD80B584B0DB
:100C500000AF7860786800F095F8F860F86800F008
:100C60009DF8034600BF18461037BD4680BD80B4CE
:100C700083B000AF78607B6818460C37BD465DF8DE
:100C8000047B704780B483B000AF78607B681846FF
:100C90000C37BD465DF8047B704780B483B000AF6D
:100CA00078607B6818460C37BD465DF8047B70475A
:100CB0002DE9F04186B002AFF860B9607A603B6020
:100CC000F86800F076F80446B868FFF7D0FF0546EC
:100CD0007868FFF7D7FF06463868FFF7DEFF034660
:100CE000009333462A462146404600F06DF800BF87
:100CF0001037BD46BDE8F08180B582B000AF7860A6
:100D00007868FFF709FE034618460837BD4680BDE0
:100D100090B585B000AFF860B9601346FB71FB7900
:100D2000032B2AD801A252F823F000BF3D0D100872
:100D30004B0D10085F0D1008710D1008F86800F0D9
:100D40006EF8034600221A6017E0F868FFF7D4FF38
:100D50000446B868FFF77AFF034623600DE0B868E1
:100D6000FFF774FF03461946F86800F064F804E0E2
:100D70002146F86800F071F800BF002318461437C8
:100D8000BD4690BD80B582B000AF78607868FFF74F
:100D9000CEFD034618460837BD4680BD80B483B0FB
:100DA00000AF78607B6818460C37BD465DF8047B61
:100DB000704780B483B000AF78607B6818460C370A
:100DC000BD465DF8047B7047F0B589B004AF387359
:100DD000B9607A603B60B868FFF7EBFF0646786859
:100DE000FFF745FF03461D783868FFF74BFF0446C1
:100DF000B86AFFF752FF03461B7802936A4604F174
:100E0000080393E8030082E8030094E80C002946F5
:100E10003046FFF7E4FD00BF1437BD46F0BD80B596
:100E200082B000AF78607868FFF776FD0346184619
:100E30000837BD4680BD90B583B000AF786039609B
:100E4000386800F016F8034622461946786800F024
:100E50001BF800BF0C37BD4690BD80B582B000AF17
:100E600078603970786800F028F800BF0837BD4610
:100E700080BD80B483B000AF78607B6818460C37C3
:100E8000BD465DF8047B704790B585B000AFF86053
:100E9000B9603A71F868FFF73FFD03461946042030
:100EA000FFF72EFD0446B868FFF7E3FF03461B6813
:100EB000236000BF1437BD4690BD80B582B000AF3F
:100EC00078607868FFF728FD034618460837BD4666
:100ED00080BD80B483B000AF78607B689B68002BD6
:100EE0000CBF01230023DBB218460C37BD465DF86A
:100EF000047B704780B485B000AFF860B9601346DA
:100F0000FB71FB68BA681A60FB68FA791A71054BC5
:100F10001A68FB689A60FB6818461437BD465DF88E
:100F2000047B70478800001090B58FB004AF7860E4
:100F300039607B681B68002B24D001237B6211E0A1
:100F40003C7B97F8203002936A4607F1180393E838
:100F5000030082E8030007F110030CCB2146386838
:100F600000F014F87B681B6807F10C01002218469A
:100F700004F00AFA0346012B0CBF01230023DBB265
:100F8000002BDDD100BF2C37BD4690BD82B02DE9CE
:100F9000F04182B000AF786007F1200080E80C00DB
:100FA0000B46FB707B681846FFF793FF0346002B48
:100FB00001D006F074FD7B68DC687D68FB1C184678
:100FC000FFF755FE064607F12000FFF75BFE80465F
:100FD00007F130031846FFF760FE034642463146EC
:100FE0002846A04700BF0837BD46BDE8F04102B023
:100FF000704780B582B000AF78607B6800221A70BD
:10100000786800F005F87B6818460837BD4680BD53
:1010100080B483B000AF78607B6800225A607A6841
:101020007B689A607A687B68DA607B6800221A6164
:1010300000BF0C37BD465DF8047B704780B582B0B9
:1010400000AF78607B68184600F057F97B68184657
:101050000837BD4680BD80B582B000AF78607B6840
:101060001846FFF7EBFF7B6818460837BD4680BD82
:1010700080B582B000AF78607B681846FFF7EBFF61
:101080007B6818460837BD4680BD000080B588B033
:1010900000AF786007F108031846FFF7E9FF094B36
:1010A0001A6807F108030421184600F00DF807F14B
:1010B0000803184600F01BF8012003F039F900BFBF
:1010C000F5E700BF8C00001080B586B000AFF86077
:1010D0000B467A60FB72F96807F110003B1D07F1BF
:1010E0000B0200F01FF900BF1837BD4680BD80B568
:1010F00086B000AF786007F10C037968184600F0FD
:1011000035F807F10C031946786800F08DF807F1FF
:101110000C03184600F020F900BF1837BD4680BD0B
:1011200080B582B000AF7860786800F040F97B68E5
:1011300018460837BD4680BD80B582B000AF7860E4
:101140007B68184600F023F97B6818460837BD46CF
:1011500080BD80B582B000AF78607B681846FFF72D
:10116000EBFF7B6818460837BD4680BDB0B592B02E
:1011700000AF786039607868FFF7EBFF01237B648C
:10118000284B1B6807F128010022184604F0FCF8E0
:1011900078647B6C012B05D107F128031946786828
:1011A00000F030F97B6C012BEAD0786800F050F940
:1011B0000346002B14BF01230023DBB2002B2BD0EE
:1011C0007B683B64386C00F059F90346FB60386C6F
:1011D00000F064F90346BB6013E007F10C03184606
:1011E00000F096F9034607F110041D460FCD0FC419
:1011F00095E8030084E8030007F10C03184600F0AB
:1012000076F907F1080207F10C031146184600F0C1
:1012100056F90346002BE0D100BF78684837BD4639
:10122000B0BD00BF88000010B0B590B000AF7860CE
:1012300039603B68FB63F86B00F076F90346BB61ED
:10124000F86B00F081F903467B6146E007F1180373
:10125000184600F0B3F9034607F11C041D460FCDF4
:101260000FC495E8030084E8030097F83130FB745D
:101270007B6807F113021146184600F0ABF90346EC
:10128000FB607B68184600F0B4F903467B6307F106
:10129000340207F10C031146184600F0B7F9034673
:1012A000002B15D07B6807F113021146184600F099
:1012B000C1F903461B68BB63BB6B002B08D007F169
:1012C0001C0100230A22B86B03F0BEFE0346012B6B
:1012D00007F11803184600F060F907F1140207F14E
:1012E00018031146184600F040F90346002BADD113
:1012F00000BF00BF4037BD46B0BD80B582B000AF73
:101300007860786800F0F2F97B68184600F0FAF926
:101310007B6804331846FFF76CFE7B681846083775
:10132000BD4680BDB0B584B000AFF860B9607A60EA
:101330003B60BC68786800F0FCF90546386800F04E
:1013400003FA0346F8682A46214600F008FA00BF6F
:10135000F8681037BD46B0BDB0B582B000AF786058
:101360007B681C687B685D687B68184600F04CFAF7
:1013700003461A462946204600F051FA7B68184673
:1013800000F022F87B6818460837BD46B0BD80B52E
:1013900082B000AF7860786800F04FFA7B6818463A
:1013A00000F057FA7B6818460837BD4680BD80B507
:1013B00082B000AF7860786800F05FFA7B6818460A
:1013C0000837BD4680BD000080B582B000AF7860B0
:1013D0007B6819687B689A687B681B68D31ADB1086
:1013E000074A02FB03F31A46786800F051FA7B685B
:1013F0001846FFF795FE7B6818460837BD4680BD46
:10140000ABAAAAAA80B582B000AF786039607B68C9
:101410005A687B689B689A420DD078687B685B68E5
:101420003A68194600F047FA7B685B6803F11802D6
:101430007B685A6008E0786800F030F803463A6844
:101440001946786800F060FA00BF0837BD4680BDD5
:1014500080B483B000AF78607B685A687B681B6893
:10146000D31ADB10044A02FB03F318460C37BD46BF
:101470005DF8047B704700BFABAAAAAA80B584B010
:1014800000AF78607A6807F10C031146184600F047
:1014900003FBFB6818461037BD4680BD80B584B09D
:1014A00000AF78607B681A1D07F10C0311461846DF
:1014B00000F0F2FAFB6818461037BD4680BD90B5C3
:1014C00083B000AF78603960786800F0F5FA0346C1
:1014D0001C68386800F0F0FA03461B689C4214BF91
:1014E00001230023DBB218460C37BD4690BD80B403
:1014F00083B000AF78607B681B6803F118027B68DB
:101500001A607B6818460C37BD465DF8047B70474F
:1015100080B483B000AF78607B681B6818460C37D6
:10152000BD465DF8047B704780B584B000AF78603D
:101530007A6807F10C031146184600F0C8FAFB68F8
:1015400018461037BD4680BD80B584B000AF7860C6
:101550007B681A1D07F10C031146184600F0B7FA14
:10156000FB6818461037BD4680BD90B583B000AF0C
:1015700078603960786800F0BAFA03461C68386809
:1015800000F0B5FA03461B689C4214BF01230023F8
:10159000DBB218460C37BD4690BD80B483B000AFB7
:1015A00078607B681B6803F118027B681A607B68AF
:1015B00018460C37BD465DF8047B704780B483B095
:1015C00000AF78607B681B6818460C37BD465DF835
:1015D000047B704780B582B000AF786039607B686B
:1015E0003968184600F08EFA034618460837BD469B
:1015F00080BD80B582B000AF78607B68184600F08F
:10160000BDFA034618460837BD4680BD80B483B096
:1016100000AF786039607B681A683B681B689A4243
:1016200014BF01230023DBB218460C37BD465DF81A
:10163000047B704790B58BB002AF78603960396831
:10164000786800F0ACFA0346BB607868FFF7D1FF1A
:101650000346FB6007F10C0207F108031146184628
:1016600000F0ACFA0346002B12D1786800F0BAFA09
:1016700007F10803184600F0C2FA03461A4607F1BC
:1016800010033968184600F0C8FA0346002B01D051
:10169000012300E00023002B1BD07C6807F1080227
:1016A00007F114031146184600F0DBFA07F118039E
:1016B0003968184600F0C6FA07F1180207F11C0352
:1016C00000931346084A7969204600F0DAFA034687
:1016D000BB6007F10803184600F091FA0346043393
:1016E00018462437BD4690BD987F100880B582B05B
:1016F00000AF7860786800F00AFB7B68184608370E
:10170000BD4680BD80B483B000AF78607B6818466A
:101710000C37BD465DF8047B704780B582B000AFE2
:101720007860786800F027FB034618460837BD4606
:1017300080BD80B483B000AF78607B6818460C37FA
:10174000BD465DF8047B704780B483B000AF78601D
:101750007B6818460C37BD465DF8047B704790B532
:101760008DB000AFF860B9607A603B607868FFF7D1
:10177000E0FF04463868FFF7E7FF034607F118006B
:101780002246B96800F003FB07F11803184600F081
:10179000B7FB024607F11003B968184600F02BFBAF
:1017A0007B69002B15D007F1180007F1100393E8AF
:1017B000060000F0B3FB03463B62012387F82730A5
:1017C00007F1270207F120031946F86800F0BFFB74
:1017D00011E03A6907F128031146184600F0D0FBE2
:1017E000002387F82F3007F12F0207F1280319464D
:1017F000F86800F0ACFB07F11803184600F0E6FAB1
:10180000F8683437BD4690BD80B483B000AF7860CF
:101810007B6818460C37BD465DF8047B704780B581
:1018200084B000AFF860B9607A60B968F86800F019
:10183000C2FB00BF1037BD4680BD80B582B000AF8F
:101840007860786800F0C4FB7B6818460837BD46AE
:1018500080BD80B483B000AF78607B6800221A60DE
:101860007B6800225A607B6800229A607B68184679
:101870000C37BD465DF8047B704780B483B000AF81
:1018800078607B6818460C37BD465DF8047B70476E
:1018900080B584B000AFF860B9607A60BB68002B97
:1018A00005D0FB687A68B968184600F09CFB00BF59
:1018B0001037BD4680BD80B584B000AFF860B96018
:1018C0007A60786800F09EFB03461A46B968F868AB
:1018D00000F0A3FB00BF1037BD4680BD80B582B0CD
:1018E00000AF184600F005F8034618460837BD4615
:1018F00080BD80B483B000AF3871012318460C3727
:10190000BD465DF8047B7047B0B58CB000AFF860A1
:10191000B9607A605E4A0121F86800F099FBB8620C
:10192000FB681B687B62FB685B683B62F868FFF7DB
:10193000A5FD03467B6107F1140207F10803114678
:10194000184600F0CDFB0346FB61FB68B96A1846F8
:1019500000F0E0FBB861BB69FB62FC68FA69134602
:101960005B001344DB001A46BB699D18786800F0E1
:1019700049FB03461A4629462046FFF79CFF0023F1
:10198000FB62FFF7ABFF0346002B27D007F10803EC
:10199000184600F091F803461C68FB681846FFF7EC
:1019A00033FF0346BA692146786A00F0C7FBF86244
:1019B000FB6A1833FB6207F10803184600F07CF855
:1019C00003461C68FB681846FFF71EFF0346FA6AC9
:1019D000396A204600F0B2FBF86226E007F10803FE
:1019E000184600F069F803461C68FB681846FFF7C4
:1019F0000BFF0346BA692146786A00F0B3FBF86230
:101A0000FB6A1833FB6207F10803184600F054F82C
:101A100003461C68FB681846FFF7F6FE0346FA6AA1
:101A2000396A204600F09EFBF862FFF757FF034635
:101A300083F00103DBB2002B09D0FB681846FFF7E7
:101A4000E3FE03461A46396A786AFFF7E8FEF8684B
:101A5000FB689A687B6AD31ADB100E4A02FB03F319
:101A60001A46796AFFF714FFFB68BA691A60FB68C7
:101A7000FA6A5A60BA6A13465B001344DB001A46DE
:101A8000BB691A44FB689A6000BF3037BD46B0BDE1
:101A90001C7F1008ABAAAAAA80B483B000AF7860FC
:101AA00039603B681A687B681A607B6818460C3797
:101AB000BD465DF8047B704780B483B000AF7860AA
:101AC0007B6818460C37BD465DF8047B704780B4D0
:101AD00083B000AF786039603B681A687B681A6031
:101AE0007B6818460C37BD465DF8047B704780B4B0
:101AF00083B000AF78607B6818460C37BD465DF850
:101B0000047B704790B585B000AF78603960786825
:101B1000FFF703FE0446786800F03DFB02463B6891
:101B20002146786800F043FB0346BB60786800F00C
:101B300025F80346FB6007F10C0207F10803114684
:101B4000184600F03BF80346002B0DD17C68BB68BB
:101B5000184600F05DFB03461A463968204600F03F
:101B60005CF80346002B04D0786800F007F80346C1
:101B700000E0BB6818461437BD4690BD80B584B000
:101B800000AF78607B681A1D07F10C0311461846F8
:101B900000F0F6F9FB6818461037BD4680BD80B5E9
:101BA00082B000AF786039607B683968184600F011
:101BB0003BFB034618460837BD4680BD80B483B062
:101BC00000AF786039607B681A683B681B689A428E
:101BD0000CBF01230023DBB218460C37BD465DF86D
:101BE000047B704790B583B000AF78607B6818467F
:101BF00000F031FB00BF20460C37BD4690BD80B5DC
:101C000082B000AF78607B681B68184600F02EFB3E
:101C1000034618460837BD4680BD80B485B000AF86
:101C2000F860B9607A60BB681A787B681B789A4262
:101C300034BF01230023DBB218461437BD465DF8DC
:101C4000047B704780B582B000AF786039607B68F4
:101C50003968184600F018FB7B6818460837BD46FF
:101C600080BD80B483B000AF786039603B681A688B
:101C70007B681A607B6818460C37BD465DF8047BAC
:101C80007047B0B58CB002AFF860B9607A603B6065
:101C9000786800F008FB0446386800F00FFB054642
:101CA000B86B00F016FB034607F11C0000932B46AF
:101CB0002246F96800F018FB07F11C03184600F0F3
:101CC0001FF9034607F11400BA68F96800F02FFB0A
:101CD000BB69002B09D007F11C0007F1140393E83E
:101CE000060000F01BF9044607E07A6907F12403B7
:101CF0001146184600F044F97C6A07F11C031846A7
:101D000000F064F8234618462837BD46B0BD80B4BD
:101D100083B000AF78607B6818460C37BD465DF82D
:101D2000047B704780B483B000AF78607B68DB6869
:101D300018460C37BD465DF8047B704780B483B00D
:101D400000AF78607B689B6818460C37BD465DF82D
:101D5000047B704780B582B000AF78603960396825
:101D6000786800F007FC3968786800F018FC00BF5C
:101D70000837BD4680BD80B483B000AF78607B6813
:101D80009B6818460C37BD465DF8047B704790B5DC
:101D900085B000AFF860B9607A603B60FB68BA68F4
:101DA0001A607868FFF7C5FC04463868FFF7CCFC7A
:101DB00003461A462146B86800F003FC0246FB6859
:101DC0005A60FB6818461437BD4690BD80B582B096
:101DD00000AF78607B685B68002B07D07B681A686F
:101DE0007B685B6819461046FFF7B4FF7B681846AE
:101DF0000837BD4680BD90B58BB000AFF860B960C4
:101E00007A60B868FFF789FC0346BB61B86800F0E8
:101E1000C2F903467B61012387F827301FE0BB69C5
:101E20007B61BC68BB69184600F0E7FB03461A46B5
:101E300079682046FFF7F1FE034687F8273097F8C8
:101E40002730002B05D0BB691846FFF777FF034604
:101E500004E0BB691846FFF765FF0346BB61BB6939
:101E6000002BDCD17A6907F110031146184600F007
:101E700087F897F82730002B1DD0B86800F0D0FB0A
:101E80000346FB6107F11C0207F1100311461846D7
:101E9000FFF794FE0346002B08D007F1140207F168
:101EA00018031946F86800F0CCFB25E007F1100391
:101EB000184600F0DFFBBC683B69184600F0A8F943
:101EC00003467A6819462046FFF7A7FE0346002B13
:101ED00008D007F1140207F118031946F86800F05A
:101EE000B0FB09E000233B6207F1200207F1100379
:101EF0001946F86800F0CFFBF8682C37BD4690BD56
:101F000080B582B000AF78607B685B68184600F0EF
:101F100074FB034618460837BD4680BD80B586B0C1
:101F200000AFF8603B1D83E80600FB68186879681D
:101F3000BA68FB685B6800F0C3FB03467B61FB6823
:101F400000225A607B6918461837BD4680BD80B5AF
:101F500084B000AFF860B9607A60B86800F0EDFB5B
:101F60000246FB6812681A60786800F0F1FB0346CD
:101F70001A78FB681A71FB6818461037BD4680BD99
:101F800080B483B000AF786039607B683A681A60CB
:101F90007B6818460C37BD465DF8047B704780B4FB
:101FA00083B000AF78607B685B6918460C37BD462C
:101FB0005DF8047B704780B582B000AF786039600F
:101FC0003968786800F0CFFB00BF0837BD4680BD98
:101FD00080B483B000AF78607B6818460C37BD468C
:101FE0005DF8047B704780B584B000AFF860B960DD
:101FF0007A607A68B968F86800F0C0FB00BF1037F3
:10200000BD4680BD80B483B000AF78607B68184661
:102010000C37BD465DF8047B7047B0B584B000AFA7
:10202000F860B9607A60BB6819461820FEF768FC52
:1020300004467868FFF7E6FF03461D460FCD0FC440
:1020400095E8030084E8030000BF1037BD46B0BD2B
:1020500090B587B000AFF860B9607A60F86800F0BA
:10206000A0FB0446F868FFF7F3F90346E21ABB68E1
:102070009A4234BF01230023DBB2002B02D07868E0
:1020800005F00AFDF868FFF7E3F90446F868FFF782
:10209000DFF903463B6107F1080207F1100311461F
:1020A000184600F08FFB03461B6823447B61F868E9
:1020B000FFF7CEF902467B69934206D3F86800F039
:1020C00070FB02467B69934204D9F86800F069FB13
:1020D000034600E07B6918461C37BD4690BD0000F2
:1020E00090B583B000AF786039607868FFF7E4FCA2
:1020F00003461C683868FFF7DFFC03461B68E31AD9
:10210000DB10034A02FB03F318460C37BD4690BDB3
:10211000ABAAAAAA80B582B000AF786039603B68EC
:10212000002B06D07B683968184600F05FFB034639
:1021300000E0002318460837BD4680BD90B587B043
:1021400002AFF860B9607A603B608DF800403B6890
:102150007A68B968F86800F058FB034618461437E7
:10216000BD4690BD90B585B000AFF860B9607A60AB
:102170003B60F86800F05BFB0446B86800F057FB72
:1021800001463B687A68204600F060FB034618462B
:102190001437BD4690BD80B483B000AF78607B68D3
:1021A000043318460C37BD465DF8047B704790B584
:1021B00087B000AFF860B9607A603B601AE0FC68F5
:1021C000B86800F01AFA03463A6819462046FFF745
:1021D00024FD034683F00103DBB2002B06D0BB686D
:1021E0007B60B868FFF7AAFDB86003E0B868FFF746
:1021F00099FDB860BB68002BE1D107F11403796841
:102200001846FFF7BDFE7B6918461C37BD4690BDDA
:1022100080B582B000AF7860786800F0EEF90346D0
:1022200018460837BD4680BD90B583B000AF7860D2
:1022300039607868FFF771FA04467868FFF7ABFFFA
:1022400002463B6821467868FFF7B1FF034618460F
:102250000C37BD4690BD80B483B000AF786000BF3E
:1022600018460C37BD465DF8047B704780B582B0D8
:1022700000AF78607B681033184600F0F8FA034628
:1022800018460837BD4680BD80B582B000AF786083
:1022900039607B683968184600F0F5FA7B681846A3
:1022A0000837BD4680BD80B483B000AF78607B68DE
:1022B00018460C37BD465DF8047B704780B483B088
:1022C00000AF78607B6818460C37BD465DF8047B2C
:1022D000704780B483B000AF78607B6818460C37D5
:1022E000BD465DF8047B7047B0B584B000AFF860C0
:1022F000B9607A603B60FB68BA681A607868FFF77B
:10230000D2FF04463868FFF7D9FF0546386AFFF761
:10231000E0FF03462A462146B86800F0C3FA0246A9
:10232000FB685A60FB6818461037BD46B0BD90B5D3
:102330008DB000AFF860B9607A603B603B1D184615
:1023400000F0D3FA0346BB61BC69B868FFF723FF0E
:1023500003469C420CBF01230023DBB2002B30D08C
:10236000B868FFF71CFE0346002B13D0BC68B868A2
:1023700000F0CCFA03461B681846FFF749FF0346F6
:102380003A6819462046FFF748FC0346002B01D067
:10239000012300E00023002B0CD00023FB61B86870
:1023A00000F0B4FA024607F11C031946F86800F081
:1023B00072F9DBE0FB683A68B9681846FFF71BFD65
:1023C000D4E0BC68BB691846FFF722FF03461A46F3
:1023D00039682046FFF721FC0346002B57D0BB6924
:1023E0007B61BC69B86800F09DFA03461B689C429B
:1023F0000CBF01230023DBB2002B0DD0B86800F026
:1024000091FA0446B86800F08DFA03461A46214650
:10241000F86800F093FAA9E0BC6807F114031846C5
:1024200000F028F903461B681846FFF7F1FE034643
:102430003A6819462046FFF7F0FB0346002B1FD0F1
:102440007B691846FFF76EFC0346002B0CBF012387
:102450000023DBB2002B0AD000233B6207F11402F9
:1024600007F120031946F86800F015F97EE007F13E
:10247000180207F118031946F86800F05FFA75E0D2
:10248000FB683A68B9681846FFF7B5FC6EE0BC68AF
:10249000BB691846FFF7BCFE03463A68194620465A
:1024A000FFF7BBFB0346002B56D0BB693B61BC6901
:1024B000B86800F02BFA03461B689C420CBF01234E
:1024C0000023DBB2002B0CD000237B62B86800F045
:1024D0001DFA024607F124031946F86800F0DBF8FC
:1024E00044E0BC6807F11003184600F040FA0346C8
:1024F0001B681846FFF78CFE03461A4639682046CB
:10250000FFF78BFB0346002B1FD0BB691846FFF774
:1025100009FC0346002B0CBF01230023DBB2002B78
:102520000AD00023BB6207F1180207F128031946FD
:10253000F86800F0B0F819E007F1100207F1100395
:102540001946F86800F0FAF910E0FB683A68B968D3
:102550001846FFF750FC09E00023FB6207F12C024C
:1025600007F118031946F86800F095F8F868343751
:10257000BD4690BD90B583B000AF78603960786893
:1025800000F006FA04463868FFF770FE0346194665
:10259000204600F008FA00BF0C37BD4690BD80B55C
:1025A00082B000AF78603960786800F0F1F90346D6
:1025B00001223968184600F003FA00BF0837BD460B
:1025C00080BD90B587B000AFF860B9607A60F868F8
:1025D00000F005FA7861B868FFF7ABF80446786850
:1025E000FFF7B2F8034622467969F86800F008FA66
:1025F0007B6918461C37BD4690BD80B584B000AFDE
:102600007860786800F021FA024607F10C03114661
:10261000184600F028FA034618461037BD4680BD1C
:1026200080B584B000AF78607B68DA6807F10C038E
:1026300011461846FFF7A4FCFB6818461037BD4644
:1026400080BD80B584B000AFF860B9607A60B868CA
:1026500000F015FA03461A68FB681A60786800F003
:1026600019FA03461A68FB685A60FB681846103767
:10267000BD4680BD80B582B000AF78607B681B68C6
:10268000184605F09DF902467B681A607B6818467B
:102690000837BD4680BD80B485B000AFF860B96032
:1026A0007A60BB681A68FB681A607B681A68FB6806
:1026B0005A60FB6818461437BD465DF8047B7047C6
:1026C000B0B586B000AFF860B9607A603B60BB68B7
:1026D000002B17D1F868FFF75EFD02467B68934236
:1026E00010D0FC683868FFF788FF05467868FFF768
:1026F0008FFD03461A4629462046FFF78EFA034609
:10270000002B01D0012300E00023FB75FB6804339C
:10271000F87D7A68396805F055F9FB685B695A1CE1
:10272000FB685A6107F1100339681846FFF728FC67
:102730003B6918461837BD46B0BD80B483B000AFC2
:1027400078607B6818460C37BD465DF8047B70479F
:1027500080B483B000AF78607B6818460C37BD4604
:102760005DF8047B704780B483B000AF7860396057
:1027700000BF0C37BD465DF8047B704780B584B060
:1027800000AFF860B9607A607A6813465B00134462
:10279000DB001946B86805F0A9F800BF1037BD4640
:1027A00080BD80B582B000AF78607B68184600F0CD
:1027B00099F90346184600F079F903461846083798
:1027C000BD4680BD80B483B000AF786039607B685F
:1027D0001A683B681B689A4201D23B6800E07B683C
:1027E00018460C37BD465DF8047B704780B582B053
:1027F00000AF7860396000223968786800F07EF9AF
:10280000034618460837BD4680BD80B584B000AF8A
:10281000F860B9607A603B603B687A68B968F868CC
:1028200000F09AF9034618461037BD4680BD80B5C2
:1028300084B000AF786007F10C037968184600F0A7
:10284000A8F9FB6818461037BD4680BD80B584B036
:1028500000AFF860B9607A603B607A68B968F86880
:1028600000F0A9F9034618461037BD4680BD80B573
:1028700082B000AF7860786800F0B1F9034618467E
:102880000837BD4680BD80B483B000AF7860396042
:102890007B683A681A607B6818460C37BD465DF85D
:1028A000047B7047B0B588B002AFF860B9607A6059
:1028B0003B60F86800F093F87861B868FFF7F3FCC4
:1028C00004467868FFF7FAFC05463868FFF701FD13
:1028D000034600932B4622467969F86800F08AF98E
:1028E0007B6918461837BD46B0BD80B584B000AFCF
:1028F00078607B681A6807F10C0311461846FFF7E9
:102900003FFBFB6818461037BD4680BD80B483B0DE
:1029100000AF78607B68103318460C37BD465DF811
:10292000047B704780B483B000AF78607B680C3361
:1029300018460C37BD465DF8047B704780B584B0FF
:1029400000AFF860B9607A60B86800F0A3F8034699
:102950001A68FB681A60786800F09CF803461A68E9
:10296000FB685A60FB6818461037BD4680BD80B5CD
:1029700082B000AF78607B681B68184605F01EF8CF
:1029800002467B681A607B6818460837BD4680BDE2
:1029900080B483B000AF78607B6818460C37BD46C2
:1029A0005DF8047B704780B582B000AF7860396015
:1029B0003968786800F04BF900BF0837BD4680BD24
:1029C00080B584B000AFF860B9607A607A68B968A1
:1029D000F86800F047F900BF1037BD4680BD80B5EC
:1029E00082B000AF78607868FFF7D2FF034601211C
:1029F000184600F04AF9034618460837BD4680BD20
:102A0000F0B585B000AFF860B9607A603B60BB6834
:102A100019461820FDF774FFF868FFF7B9FF044660
:102A2000B868FFF723FC05467868FEF782FE064685
:102A30003868FEF789FE034632462946204600F0F4
:102A400033F900BF1437BD46F0BD80B582B000AF8A
:102A500078607B681033184600F03EF9034618464C
:102A60000837BD4680BD80B483B000AF7860396060
:102A70003B6818460C37BD465DF8047B704780B450
:102A800083B000AF78607B6818460C37BD465DF8B0
:102A9000047B704780B483B000AF78607B681846D1
:102AA0000C37BD465DF8047B7047000080B584B0EC
:102AB00000AF78600A4BFB60786800F019F90346B4
:102AC000BB6007F1080207F10C031146184600F03D
:102AD0001BF903461B6818461037BD4680BD00BF72
:102AE0005555550580B483B000AF78607B681846B3
:102AF0000C37BD465DF8047B7047000080B584B09C
:102B000000AFF860B9607A60F86800F011F9024629
:102B1000BB6893428CBF01230023DBB2002B14BFA0
:102B200001230023DBB2002B07D0BB68094A934284
:102B300001D904F0AEFF04F0A9FFBA6813465B00A8
:102B40001344DB00184604F0D3FE03461846103742
:102B5000BD4680BDAAAAAA0AB0B584B000AFF8608D
:102B6000B9607A603B60F86800F0F0F80446B86835
:102B700000F0ECF80546786800F0E8F802463B689B
:102B80002946204600F0EEF8034618461037BD46A9
:102B9000B0BD80B582B000AF786039603B46184662
:102BA00000F00AF903461A687B681A607B681846C9
:102BB0000837BD4680BD80B586B000AFF860B9600B
:102BC0007A600123FB750123BB757A68B968F868E0
:102BD00000F0FDF8034618461837BD4680BD80B4A6
:102BE00083B000AF78607B6818460C37BD465DF84F
:102BF000047B70472DE9F04186B002AFF860B96000
:102C00007A603B60BB6819461820FDF779FEF868CA
:102C1000FFF7BEFE0446B868FFF728FB0546786854
:102C2000FFF741FB06463868FFF748FB8046B86A65
:102C3000FFF74FFB034600934346324629462046A2
:102C400000F0D5F800BF1037BD46BDE8F08180B474
:102C500083B000AF7860396000BF0C37BD465DF8C7
:102C6000047B704780B584B000AFF860B9607A60CB
:102C70007A6813465B001344DB001946B86804F019
:102C800035FE00BF1037BD4680BD80B582B000AFB5
:102C90007860396000223968786800F0C7F8034628
:102CA00018460837BD4680BD90B585B000AFF860C6
:102CB000B9607A603B607868FEF73BFD044638688F
:102CC000FEF742FD03462246B968F86800F0DCF8DA
:102CD00000BF1437BD4690BD80B582B000AF7860AC
:102CE000786800F0EFF8034618460837BD4680BD07
:102CF00080B582B000AF7860786800F0EEF80346E7
:102D000018460837BD4680BD80B483B000AF7860F8
:102D100039603B681A687B681B689A4201D23B683D
:102D200000E07B6818460C37BD465DF8047B7047B1
:102D300080B483B000AF7860034B18460C37BD46B3
:102D40005DF8047B704700BF5555550580B483B0CE
:102D500000AF78607B6818460C37BD465DF8047B91
:102D60007047000080B586B000AFF860B9607A6047
:102D70003B60BA68FB68D31ADB100E4A02FB03F310
:102D80007B617B69002B09DD7A6913465B00134484
:102D9000DB001A46F968786804F054FF7A69134634
:102DA0005B001344DB001A467B681344184618374F
:102DB000BD4680BDABAAAAAA80B483B000AF78603C
:102DC0007B6818460C37BD465DF8047B704780B5BC
:102DD00084B000AFF860B9607A607A68B968F86862
:102DE00000F087F8034618461037BD4680BDB0B5E1
:102DF00086B002AFF860B9607A603B607868FFF730
:102E000052FA04463868FFF759FA0546386AFFF760
:102E100060FA034600932B462246B968F86800F032
:102E200090F800BF1037BD46B0BD000080B584B03B
:102E300000AFF860B9607A60F86800F0ABF802465D
:102E4000BB6893428CBF01230023DBB2002B14BF6D
:102E500001230023DBB2002B07D0BB68094A934251
:102E600001D904F016FE04F011FEBA6813465B00A7
:102E70001344DB00184604F03BFD034618461037A8
:102E8000BD4680BDAAAAAA0AB0B584B000AFF8605A
:102E9000B9607A603B60BB6819460820FDF730FDD9
:102EA00004467868FEF745FC05463868FEF74CFC9A
:102EB00003461A462946204600F07AF800BF10372C
:102EC000BD46B0BD80B483B000AF78607B68184663
:102ED0000C37BD465DF8047B704780B582B000AF0B
:102EE00078607868FFF724FF034618460837BD4628
:102EF00080BD90B585B000AFF860B9607A60F868C1
:102F000000F06FF80446B86800F06BF803467A6882
:102F10001946204600F076F8034618461437BD4699
:102F200090BD80B582B000AF786039607B683A6848
:102F30001146184600F089F87B6818460837BD46E8
:102F400080BDF0B587B000AFF860B9607A603B60D3
:102F5000BB6819460820FDF7D3FC04467868FFF7E4
:102F6000A2F93868FFF7AAF9024607F114031146DF
:102F70001846FFF7D6FF386BFFF7ABF907F11402DD
:102F800033462946204600F070F800BF1C37BD4686
:102F9000F0BD000080B483B000AF7860034B1846EA
:102FA0000C37BD465DF8047B704700BF555555058D
:102FB00080B584B000AFF860B9607A60B868FEF799
:102FC000B8FB03461A78FB681A707868FEF7BCFBFA
:102FD00003461A68FB685A60FB6818461037BD46FE
:102FE00080BD80B582B000AF78603B1D184600F010
:102FF00050F80346184600F058F8034618460837BC
:10300000BD4680BDB0B584B000AFF860B9607A60ED
:10301000F868FFF79BFE0446B868FFF797FE054681
:103020007B681846FFF792FE03461A46294620465B
:1030300000F046F802463B1D1146184600F050F8D5
:10304000034618461037BD46B0BD80B483B000AF0C
:10305000786039607B683A6812681A607B68184645
:103060000C37BD465DF8047B7047B0B586B002AF43
:10307000F86039727A603B703A468DF800402B4612
:103080007968F86800F038F8FB6818461037BD46D4
:10309000B0BD80B483B000AF78607B681B68184611
:1030A0000C37BD465DF8047B704780B483B000AF39
:1030B00078607B6818460C37BD465DF8047B704726
:1030C00080B584B000AFF860B9607A607A68B9689A
:1030D000F86800F02BF8034618461037BD4680BD4F
:1030E00080B483B000AF786039603B6818460C3715
:1030F000BD465DF8047B704780B584B000AFF860D2
:10310000B9607A603B70B86800F020F80346184652
:1031100000F029F803461A78FB681A70FB68002251
:103120005A60FB6818461037BD4680BD80B584B034
:1031300000AFF860B9607A607A68B968F86800F042
:103140001DF8034618461037BD4680BD80B582B0D5
:1031500000AF78607B68184600F03AF803461846DE
:103160000837BD4680BD80B483B000AF78607B680F
:1031700018460C37BD465DF8047B704780B586B0B5
:1031800000AFF860B9607A60BA68FB68D31ADB10E8
:103190000E4A02FB03F37B617B69002B09D07A693D
:1031A00013465B001344DB001A46F968786804F0A4
:1031B00049FD7A6913465B001344DB001A467B68BD
:1031C000134418461837BD4680BD00BFABAAAAAA53
:1031D00080B582B000AF7860786800F005F80346EB
:1031E00018460837BD4680BD80B582B000AF786014
:1031F0007B68184600F005F8034618460837BD46B8
:1032000080BD80B483B000AF78607B681B681846CF
:103210000C37BD465DF8047B70470000DFF834D002
:1032200000F026F80C480D490D4A002302E0D4585E
:10323000C4500433C4188C42F9D30A4A0A4C002300
:1032400001E013600432A242FBD304F0CDFDFDF790
:1032500083F9704700800410000000106400001023
:10326000B87F1008640000101C4C0010FEE700003E
:1032700080B400AF0B4BD3F888300A4A43F4700394
:10328000C2F88830074B1B69064A43F010031361EC
:10329000044B4FF001629A6000BFBD465DF8047BAD
:1032A000704700BF00ED00E080B582B000AF284B52
:1032B000D3F8D830264A43F48043C2F8D830244BA0
:1032C000D3F8D83003F480433B603B68214B1B6844
:1032D00023F47F2323F470631E4A43F401431360F5
:1032E0001C4B1B681B4A43F001031360032000F0D2
:1032F000FAF800F02BFA0246154B9B691B0A03F003
:103300000F031549CB5C03F01F0322FA03F37B6024
:103310000F4B9B6903F00F030F4AD35C03F01F03AD
:103320007A6822FA03F30D4A13600C4B1B680C4AAF
:1033300013600020FDF7F2F90346002B01D00123B2
:1033400002E0FDF7C5F9002318460837BD4680BDE9
:1033500000440258004402409C7F10080400001002
:103360000000001080B400AF064B1B781A46064BD5
:103370001B681344044A136000BFBD465DF8047B1C
:10338000704700BF0C000010E400001080B485B04E
:1033900000AF78607B6803F00703FB600C4BDB68D1
:1033A000BB60BA684FF6FF031340BB60FB681A02AC
:1033B000BB68134343F0BF6343F40033BB60044A6C
:1033C000BB68D36000BF1437BD465DF8047B70470F
:1033D00000ED00E080B400AF044BDB681B0A03F093
:1033E00007031846BD465DF8047B704700ED00E01A
:1033F00080B483B000AF0346FB80B7F90630002BE2
:103400000BDBFB8803F01F020749B7F906305B09A5
:10341000012000FA02F241F8232000BF0C37BD461C
:103420005DF8047B704700BF00E100E080B483B02A
:1034300000AF03463960FB80B7F90630002B0ADB8A
:103440003B68DAB20C49B7F906301201D2B20B442C
:1034500083F800230AE03B68DAB20849FB8803F0EE
:103460000F03043B1201D2B20B441A7600BF0C3793
:10347000BD465DF8047B704700E100E000ED00E030
:1034800080B489B000AFF860B9607A60FB6803F07F
:103490000703FB61FB69C3F10703042B28BF042367
:1034A000BB61FB690433062B02D9FB69033B00E0D7
:1034B00000237B614FF0FF32BB6902FA03F3DA436A
:1034C000BB681A407B699A404FF0FF317B6901FA73
:1034D00003F3D9437B680B40134318462437BD469A
:1034E0005DF8047B704780B582B000AF7860786883
:1034F000FFF74CFF00BF0837BD4680BD80B586B0E2
:1035000000AF0346B9607A60FB81FFF763FF786123
:103510007A68B9687869FFF7B3FF0246B7F90E30E9
:1035200011461846FFF782FF00BF1837BD4680BD21
:1035300080B582B000AF0346FB80B7F9063018466D
:10354000FFF756FF00BF0837BD4680BD80B400AF0F
:10355000074B1B681B0903F00F03072B01D1032343
:1035600000E001231846BD465DF8047B704700BFAC
:1035700000ED00E080B483B000AF786039600E49A0
:103580003B6843F0004343F480737A6841F822308B
:10359000094A7B6852F823203B6843F0004343F418
:1035A00080739A4201D1002300E0012318460C37B2
:1035B000BD465DF8047B70470064025880B483B058
:1035C00000AF7860396006493B6843F480727B68DD
:1035D00041F8232000BF0C37BD465DF8047B7047DF
:1035E0000064025880B483B000AF7860054B1A685D
:1035F00004497B6813430B6000BF0C37BD465DF880
:10360000047B70471065025880B582B000AF0A4B4A
:10361000DB687B60084B1A687B68DB430649134014
:103620000B60054A7B6853607868FCF759FE00BF61
:103630000837BD4680BD00BF1065025880B584B014
:1036400000AFF8600B467A60FB72374B1B6823F0C3
:1036500001023549FB6813430B607B68002B23D1C3
:10366000FFF774FF0346032B58D12F4B1B692E4ADB
:1036700023F0010313612D4B1B692C4A43F0040313
:103680001361BFF34F8F00BFBFF36F8F00BFFB7A93
:10369000012B01D130BF00E020BF244B1B69234A1E
:1036A00023F0040313613CE07B68012B23D1FFF777
:1036B0004DFF0346012B33D11B4B5B691A4A23F0A4
:1036C00002035361194B1B69184A43F00403136149
:1036D000BFF34F8F00BFBFF36F8F00BFFB7A012B8B
:1036E00001D130BF00E020BF104B1B690F4A23F00F
:1036F0000403136115E0FFF729FF0346032B06D1EE
:10370000094B1B69084A23F00403136109E0064BC7
:103710005B69054A23F00403536102E000BF00E047
:1037200000BF1037BD4680BD0048025800ED00E0E4
:1037300080B500AFFFF70AFF0346032B01D120BF7E
:1037400001E040BF20BF00BF80BD000080B489B051
:1037500000AFB34B1B6903F03803182B00F25581FF
:1037600001A252F823F000BFCD3710080B3A100821
:103770000B3A10080B3A10080B3A10080B3A1008D5
:103780000B3A10080B3A1008F33710080B3A1008E0
:103790000B3A10080B3A10080B3A10080B3A1008B5
:1037A0000B3A10080B3A1008F93710080B3A1008BA
:1037B0000B3A10080B3A10080B3A10080B3A100895
:1037C0000B3A10080B3A1008FF371008944B1B688F
:1037D00003F02003002B09D0914B1B68DB0803F09A
:1037E0000303904A22FA03F3BB6111E18D4BBB61E5
:1037F0000EE18D4BBB610BE18C4BBB6108E1884B4B
:103800009B6A03F003037B61854B9B6A1B0903F0F2
:103810003F033B61824BDB6A03F00103FB60804B9B
:103820005B6BDB08C3F30C03FA6802FB03F307EEE0
:10383000903AF8EE677AC7ED027A3B69002B00F008
:10384000E1807B69022B00F083807B69022B00F210
:10385000A1807B69002B03D07B69012B56D099E0B6
:103860006F4B1B6803F02003002B2DD06C4B1B68A3
:10387000DB0803F003036B4A22FA03F37B607B68E7
:1038800007EE903AF8EE676A3B6907EE903AF8EE79
:10389000677A86EEA77A624B1B6BC3F3080307EEC9
:1038A000903AF8EE676A97ED026ADFED615AC6EE6C
:1038B000257A76EEA77AF7EE006A77EEA67A67EEBB
:1038C000277AC7ED077A87E03B6907EE903AF8EE72
:1038D000677ADFED586A86EEA77A514B1B6BC3F30C
:1038E000080307EE903AF8EE676A97ED026ADFED9B
:1038F000505AC6EE257A76EEA77AF7EE006A77EE92
:10390000A67A67EE277AC7ED077A65E03B6907EE8E
:10391000903AF8EE677ADFED486A86EEA77A404B78
:103920001B6BC3F3080307EE903AF8EE676A97ED56
:10393000026ADFED3F5AC6EE257A76EEA77AF7EEF9
:10394000006A77EEA67A67EE277AC7ED077A43E03A
:103950003B6907EE903AF8EE677ADFED386A86EE5B
:10396000A77A2F4B1B6BC3F3080307EE903AF8EED0
:10397000676A97ED026ADFED2E5AC6EE257A76EE7B
:10398000A77AF7EE006A77EEA67A67EE277AC7ED98
:10399000077A21E03B6907EE903AF8EE677ADFEDAF
:1039A000266A86EEA77A1E4B1B6BC3F3080307EE4D
:1039B000903AF8EE676A97ED026ADFED1D5AC6EE9F
:1039C000257A76EEA77AF7EE006A77EEA67A67EEAA
:1039D000277AC7ED077A00BF114B1B6B5B0A03F018
:1039E0007F0301333B603B6807EE903AB8EE677A9D
:1039F000D7ED076AC6EE877AFCEEE77A17EE903AC3
:103A0000BB6105E00023BB6102E0074BBB6100BF67
:103A1000BB6918462437BD465DF8047B704700BF7C
:103A2000004402580090D00300093D0040787D0119
:103A3000000000460024744C0024744A20BCBE4B95
:103A400080B582B000AFFFF781FE0246114B9B6943
:103A50001B0A03F00F031049CB5C03F01F0322FA8B
:103A600003F37B600B4B9B6903F00F030A4AD35CA3
:103A700003F01F037A6822FA03F3084A1360074B26
:103A80001B68074A1360054B1B6818460837BD467C
:103A900080BD00BF004402589C7F10080400001045
:103AA0000000001080B500AFFFF7CAFF0246064BCA
:103AB000DB691B0903F007030449CB5C03F01F0318
:103AC00022FA03F3184680BD004402589C7F100878
:103AD00080B483B000AF786039607B683F221A60A1
:103AE0001A4B1B6903F007027B685A60174B9B69EE
:103AF00003F470627B689A60144B9B6903F00F02B9
:103B00007B68DA60114B9B6903F070027B681A6175
:103B10000E4BDB6903F070027B685A610B4BDB696B
:103B200003F4E0627B689A61084B1B6A03F0700241
:103B30007B68DA61064B1B6803F00F023B681A6072
:103B400000BF0C37BD465DF8047B70470044025847
:103B50000020005280B582B000AF78607B68002BF7
:103B600001D1012349E07B6893F83D30DBB2002BA3
:103B700006D17B68002283F83C20786800F041F889
:103B80007B68022283F83D207B681A687B680433D7
:103B90001946104600F0E8F97B68012283F84820B6
:103BA0007B68012283F83E207B68012283F83F2056
:103BB0007B68012283F840207B68012283F8412042
:103BC0007B68012283F842207B68012283F843202E
:103BD0007B68012283F844207B68012283F845201A
:103BE0007B68012283F846207B68012283F8472006
:103BF0007B68012283F83D20002318460837BD4624
:103C000080BD80B483B000AF786000BF0C37BD4684
:103C10005DF8047B7047000080B485B000AF786029
:103C20007B6893F83D30DBB2012B01D0012354E0D7
:103C30007B68022283F83D207B681B68DA687B681A
:103C40001B6842F00102DA607B681B68264A9342D7
:103C500022D07B681B68B3F1804F1DD07B681B6846
:103C6000224A934218D07B681B68214A934213D0A2
:103C70007B681B681F4A93420ED07B681B681E4AF4
:103C8000934209D07B681B681C4A934204D07B682E
:103C90001B681B4A934215D17B681B689A68194BB5
:103CA0001340FB60FB68062B15D0FB68B3F5803F23
:103CB00011D07B681B681A687B681B6842F00102A0
:103CC0001A6008E07B681B681A687B681B6842F012
:103CD00001021A6000E000BF002318461437BD46F9
:103CE0005DF8047B704700BF000001400004004005
:103CF00000080040000C0040000401400018004093
:103D0000004001400700010080B584B000AF78603A
:103D10007B681B68DB68FB607B681B681B69BB609A
:103D2000BB6803F00203002B20D0FB6803F0020302
:103D3000002B1BD07B681B686FF002021A617B6846
:103D400001221A777B681B689B6903F00303002B31
:103D500003D0786800F0E9F805E0786800F0DBF857
:103D6000786800F0ECF87B6800221A77BB6803F0F3
:103D70000403002B20D0FB6803F00403002B1BD0AE
:103D80007B681B686FF004021A617B6802221A7755
:103D90007B681B689B6903F44073002B03D0786831
:103DA00000F0C3F805E0786800F0B5F8786800F036
:103DB000C6F87B6800221A77BB6803F00803002B63
:103DC00020D0FB6803F00803002B1BD07B681B6826
:103DD0006FF008021A617B6804221A777B681B68FF
:103DE000DB6903F00303002B03D0786800F09DF833
:103DF00005E0786800F08FF8786800F0A0F87B683C
:103E000000221A77BB6803F01003002B20D0FB6858
:103E100003F01003002B1BD07B681B686FF01002AF
:103E20001A617B6808221A777B681B68DB6903F4D8
:103E30004073002B03D0786800F077F805E07868CD
:103E400000F069F8786800F07AF87B6800221A7749
:103E5000BB6803F00103002B0CD0FB6803F00103E7
:103E6000002B07D07B681B686FF001021A6178682D
:103E7000FCF7EEFBBB6803F08003002B04D1BB68AA
:103E800003F40053002B0CD0FB6803F08003002BDD
:103E900007D07B681B686FF402521A61786800F0E3
:103EA00013F9BB6803F48073002B0CD0FB6803F09C
:103EB0008003002B07D07B681B686FF480721A6147
:103EC000786800F00BF9BB6803F04003002B0CD0BE
:103ED000FB6803F04003002B07D07B681B686FF082
:103EE00040021A61786800F034F8BB6803F02003E0
:103EF000002B0CD0FB6803F02003002B07D07B685D
:103F00001B686FF020021A61786800F0D3F800BFD8
:103F10001037BD4680BD80B483B000AF786000BF6D
:103F20000C37BD465DF8047B704780B483B000AFAA
:103F3000786000BF0C37BD465DF8047B704780B4E5
:103F400083B000AF786000BF0C37BD465DF8047BDE
:103F5000704780B483B000AF786000BF0C37BD46B7
:103F60005DF8047B7047000080B485B000AF7860D6
:103F700039607B681B68FB607B68464A934213D0BC
:103F80007B68B3F1804F0FD07B68434A93420BD0DC
:103F90007B68424A934207D07B68414A934203D0F0
:103FA0007B68404A934208D1FB6823F07003FB60B2
:103FB0003B685B68FA681343FB607B68354A934251
:103FC0001FD07B68B3F1804F1BD07B68324A93428D
:103FD00017D07B68314A934213D07B68304A9342B2
:103FE0000FD07B682F4A93420BD07B682E4A9342B6
:103FF00007D07B682D4A934203D07B682C4A9342BA
:1040000008D1FB6823F44073FB603B68DB68FA6807
:104010001343FB60FB6823F080023B685B6913433A
:10402000FB607B68FA681A603B689A687B68DA62B2
:104030003B681A687B689A627B68164A93420FD085
:104040007B68184A93420BD07B68174A934207D08B
:104050007B68164A934203D07B68154A934203D18A
:104060003B681A697B681A637B6801225A617B6826
:104070001B6903F00103012B05D17B681B6923F049
:1040800001027B681A6100BF1437BD465DF8047BEE
:10409000704700BF000001400004004000080040DD
:1040A000000C004000040140004001400044014079
:1040B0000048014080B483B000AF786000BF0C3787
:1040C000BD465DF8047B704780B483B000AF786074
:1040D00000BF0C37BD465DF8047B704780B483B0E9
:1040E00000AF786000BF0C37BD465DF8047B7047B9
:1040F00080B483B000AF03463960FB80B7F9063067
:10410000002B0ADB3B68DAB20C49B7F90630120122
:10411000D2B20B4483F800230AE03B68DAB20849C4
:10412000FB8803F00F03043B1201D2B20B441A7652
:1041300000BF0C37BD465DF8047B704700E100E02E
:1041400000ED00E080B500AF054B1B6802F026FED5
:104150000346012B01D000F09FFD00BF80BD00BFD2
:1041600010E000E080B500AF00216FF00400FFF721
:10417000BFFF00BF80BD000080B483B000AFEFF38D
:1041800005833B603B68002B03D06FF005037B6029
:104190000CE00A4B1B68002B05D1084B01221A606A
:1041A00000237B6002E04FF0FF337B607B681846A2
:1041B0000C37BD465DF8047B704700BFE800001077
:1041C00080B582B000AFEFF305833B603B68002B06
:1041D00003D06FF005037B6010E00B4B1B68012BD5
:1041E00009D1FFF7BFFF084B02221A6002F03AF92B
:1041F00000237B6002E04FF0FF337B607B68184652
:104200000837BD4680BD00BFE800001080B58EB005
:1042100004AFF860B9607A6000233B61EFF3058377
:104220007B617B69002B7ED1FB68002B7BD08023D8
:104230003B621823FB6100237B624FF0FF33BB61BD
:104240007B68002B45D07B681B68002B02D07B6805
:104250001B687B627B689B69002B02D07B689B6933
:10426000FB61FB69002B08D0FB69382B05D87B6804
:104270005B6803F00103002B01D0002354E07B684E
:104280005B69002B03D07B685B699B083B627B68A2
:104290009B68002B0ED07B68DB68A72B0AD97B6854
:1042A0001B69002B06D07B685B69002B02D00123C1
:1042B000BB6110E07B689B68002B0CD17B68DB68DE
:1042C000002B08D17B681B69002B04D10023BB6144
:1042D00001E00023BB61BB69012B10D17B681B6926
:1042E0007A68926802920193FB690093BB683A6A0C
:1042F000796AF86801F0C2FE03463B6113E0BB69CE
:10430000002B10D13B6A9AB207F110030193FB69AD
:104310000093BB68796AF86801F010FF0346012B2F
:1043200001D000233B613B6918462837BD4680BD5C
:1043300080B584B000AF7860EFF30583BB60BB68E5
:10434000002B03D06FF00503FB6007E00023FB6048
:104350007B68002B02D0786802F04EF8FB681846A4
:104360001037BD4680BD000080B485B000AFF86056
:10437000B9607A60FB68074A1A60BB68064A1A602F
:104380007B6880221A6000BF1437BD465DF8047B4D
:10439000704700BFEC0000109401001080B485B09D
:1043A00000AFF860B9607A60FB68074A1A60BB68C2
:1043B000064A1A607B684FF480721A6000BF143797
:1043C000BD465DF8047B7047940300103C04001068
:1043D00080B58AB000AF78600023FB6102F0B2F8CC
:1043E0005C4B1B68002B01D100F024F95A4B1A6872
:1043F0007B681340002B40F095807B68002B1ED01B
:1044000008227B6813447B607B6803F00703002B62
:1044100015D07B6823F0070308337B607B6803F0CB
:104420000703002B0BD04FF0500383F31188BFF329
:104430006F8FBFF34F8F7B6100BF00BFFDE77B68CD
:10444000002B6FD0454B1B687A689A426AD8444B60
:104450003B62434B1B687B6204E07B6A3B627B6A86
:104460001B687B627B6A5B687A689A4203D97B6AC5
:104470001B68002BF1D1374B1B687A6A9A4251D0E6
:104480003B6A1B6808221344FB617B6A1A683B6A1B
:104490001A607B6A5A687B68D21A08235B009A42CA
:1044A00020D97A6A7B681344BB61BB6903F00703B8
:1044B000002B0BD04FF0500383F31188BFF36F8FA5
:1044C000BFF34F8F3B6100BF00BFFDE77B6A5A68B7
:1044D0007B68D21ABB695A607B6A7A685A60B8698D
:1044E00000F00AF91D4B1A687B6A5B68D31A1B4AF5
:1044F00013601A4B1A681B4B1B689A4203D2174B66
:104500001B68184A13607B6A5A68134B1B681A436E
:104510007B6A5A607B6A00221A60134B1B68013366
:10452000114A136002F01CF8FB6903F00703002B2B
:104530000BD04FF0500383F31188BFF36F8FBFF39D
:104540004F8FFB6000BF00BFFDE7FB6918462837AF
:10455000BD4680BD4444001058440010484400103B
:104560003C4400104C4400105044001080B586B00C
:1045700000AF78607B687B617B68002B4FD008239D
:104580005B427A6913447B617B693B613B695A6892
:10459000254B1B681340002B0BD14FF0500383F3C6
:1045A0001188BFF36F8FBFF34F8FFB6000BF00BF59
:1045B000FDE73B691B68002B0BD04FF0500383F3E2
:1045C0001188BFF36F8FBFF34F8FBB6000BF00BF79
:1045D000FDE73B695A68144B1B681340002B1ED043
:1045E0003B691B68002B1AD13B695A680E4B1B684C
:1045F000DB431A403B695A6001F0A4FF3B695A68EB
:104600000A4B1B681344094A1360386900F074F8B8
:10461000074B1B680133064A136001F0A1FF00BF7E
:104620001837BD4680BD00BF5844001048440010F4
:104630005444001080B485B000AF4FF47053BB6099
:10464000274BFB60FB6803F00703002B0CD0FB68D3
:104650000733FB60FB6823F00703FB60BA68FB6865
:10466000D31A1F4A1344BB60FB687B601D4A7B68FA
:1046700013601C4B00225A607B68BA681344FB60CD
:104680000822FB689B1AFB60FB6823F00703FB60B2
:10469000FB68154A1360144B1B6800225A60124BCA
:1046A0001B6800221A607B683B603B68FA68D21A7C
:1046B0003B685A600C4B1A683B681A603B685B6841
:1046C0000A4A13603B685B68094A1360094B4FF064
:1046D00000421A6000BF1437BD465DF8047B704786
:1046E0003C0800103C440010444400104C440010AE
:1046F000484400105844001080B485B000AF786082
:10470000284BFB6002E0FB681B68FB60FB681B68D2
:104710007A689A42F7D8FB68BB60FB685B68BA6846
:1047200013447A689A4208D1FB685A687B685B68D0
:104730001A44FB685A60FB687B607B68BB607B68DF
:104740005B68BA681A44FB681B689A4218D1FB6818
:104750001A68154B1B689A420DD07B685A68FB6833
:104760001B685B681A447B685A60FB681B681A68A0
:104770007B681A6008E00C4B1A687B681A6003E0DB
:10478000FB681A687B681A60FA687B689A4202D0F4
:10479000FB687A681A6000BF1437BD465DF8047B79
:1047A000704700BF3C4400104444001080B483B004
:1047B00000AF78607B6803F108027B685A607B6811
:1047C0004FF0FF329A607B6803F108027B68DA6081
:1047D0007B6803F108027B681A617B6800221A601B
:1047E00000BF0C37BD465DF8047B704780B483B0D2
:1047F00000AF78607B6800221A6100BF0C37BD46AD
:104800005DF8047B704780B485B000AF7860396094
:104810007B685B68FB603B68FA685A60FB689A6873
:104820003B689A60FB689B683A685A60FB683A6824
:104830009A603B687A681A617B681B685A1C7B68BF
:104840001A6000BF1437BD465DF8047B704780B422
:1048500085B000AF786039603B681B68BB60BB689F
:10486000B3F1FF3F03D17B681B69FB600CE07B6801
:104870000833FB6002E0FB685B68FB60FB685B6819
:104880001B68BA689A42F6D2FB685A683B685A605D
:104890003B685B683A689A603B68FA689A60FB68B4
:1048A0003A685A603B687A681A617B681B685A1CD0
:1048B0007B681A6000BF1437BD465DF8047B704703
:1048C00080B485B000AF78607B681B69FB607B6853
:1048D0005B687A6892689A607B689B687A685268BD
:1048E0005A60FB685B687A689A4203D17B689A6871
:1048F000FB685A607B6800221A61FB681B685A1EBD
:10490000FB681A60FB681B6818461437BD465DF8E3
:10491000047B704780B485B000AFF860B9607A60FE
:10492000FB68043BFB60FB684FF080721A60FB6819
:10493000043BFB60BB6823F00102FB681A60FB6864
:10494000043BFB600C4AFB681A60FB68143BFB608D
:104950007A68FB681A60FB68043BFB60FB686FF0D9
:1049600002021A60FB68203BFB60FB6818461437A4
:10497000BD465DF8047B70477D49100880B485B062
:1049800000AF00237B60134B1B68B3F1FF3F0BD0DC
:104990004FF0500383F31188BFF36F8FBFF34F8F36
:1049A000FB6000BF00BFFDE74FF0500383F31188A9
:1049B000BFF36F8FBFF34F8FBB6000BF00BF7B683B
:1049C000002BFCD000BF00BF1437BD465DF8047B50
:1049D000704700BF10000010000000000000000041
:1049E000074B19680868B0E8F04F80F30988BFF3F7
:1049F0006F8F4FF0000080F311887047AFF3008095
:104A0000A444001000BF00BF08480068006880F39D
:104A100008884FF0000080F3148862B661B6BFF3D7
:104A20004F8FBFF36F8F00DF00BF00BF08ED00E0C6
:104A300080B586B000AF474B1B68474A93420BD105
:104A40004FF0500383F31188BFF36F8FBFF34F8F85
:104A50003B6100BF00BFFDE73E4B1B683F4A9342EE
:104A60000BD14FF0500383F31188BFF36F8FBFF367
:104A70004F8FFB6000BF00BFFDE7394B7B617B6957
:104A80001B78DBB27B607B69FF221A707B691B7825
:104A9000DBB2FB70FB78DBB203F05003DAB2314BD0
:104AA0001A70314B07221A6009E02F4B1B68013B3B
:104AB0002D4A1360FB78DBB25B00DBB2FB70FB7846
:104AC000DBB203F08003802BEFD0274B1B68C3F1D0
:104AD0000703042B0BD04FF0500383F31188BFF36F
:104AE0006F8FBFF34F8FBB6000BF00BFFDE71E4B52
:104AF0001B681B021C4A13601B4B1B6803F4E0631A
:104B0000194A13607B68DAB27B691A70174B1B680D
:104B1000164A43F470031360144B1B68134A43F0A6
:104B20007043136000F0DAF8114B00221A6000F0B5
:104B3000F9F8104B1B680F4A43F040431360FFF72E
:104B400063FF01F075FEFFF719FF002318461837C1
:104B5000BD4680BD00ED00E071C20F4170C20F4143
:104B600000E400E05C4400106044001020ED00E030
:104B70001000001034EF00E080B483B000AF4FF0BD
:104B8000500383F31188BFF36F8FBFF34F8F7B60A8
:104B900000BF104B1B6801330E4A13600D4B1B689E
:104BA000012B10D10C4B1B68DBB2002B0BD04FF04C
:104BB000500383F31188BFF36F8FBFF34F8F3B60B8
:104BC00000BF00BFFDE700BF0C37BD465DF8047BAA
:104BD000704700BF1000001004ED00E080B483B007
:104BE00000AF124B1B68002B0BD14FF0500383F327
:104BF0001188BFF36F8FBFF34F8F7B6000BF00BF83
:104C0000FDE70A4B1B68013B084A1360074B1B6812
:104C1000002B05D100233B603B6883F3118800BF64
:104C200000BF0C37BD465DF8047B704710000010D4
:104C3000EFF30980BFF36F8F154B1A681EF0100F4A
:104C400008BF20ED108A20E9F04F10602DE909001F
:104C50004FF0500080F31188BFF34F8FBFF36F8F79
:104C600001F0E6FD4FF0000080F3118809BC1968DF
:104C70000868B0E8F04F1EF0100F08BFB0EC108AC3
:104C800080F30988BFF36F8F704700BFAFF30080D8
:104C9000A444001000BF00BF80B582B000AF4FF049
:104CA000500383F31188BFF36F8FBFF34F8F7B6087
:104CB00000BF01F003FD0346002B03D0064B4FF06D
:104CC00080521A6000233B603B6883F3118800BF69
:104CD00000BF0837BD4680BD04ED00E080B400AFE2
:104CE0000B4B00221A600B4B00221A600A4B1B6808
:104CF0000A4AA2FB03239B09094A013B1360044BA8
:104D000007221A6000BFBD465DF8047B704700BFF4
:104D100010E000E018E000E004000010D34D621045
:104D200014E000E0DFF80C00016841F4700101605C
:104D3000704700BF88ED00E080B485B000AFEFF3AE
:104D40000583FB60FB680F2B15D9184AFB681344D9
:104D50001B78FB72164B1B78FA7A9A420BD24FF0F3
:104D6000500383F31188BFF36F8FBFF34F8F7B60C6
:104D700000BF00BFFDE70F4B1B6803F4E0620E4B62
:104D80001B689A420BD94FF0500383F31188BFF38D
:104D90006F8FBFF34F8F3B6000BF00BFFDE700BFC9
:104DA0001437BD465DF8047B704700BFF0E300E0B8
:104DB0005C4400100CED00E06044001080B584B04D
:104DC00000AF786039607B68FB60FB68002B0BD11B
:104DD0004FF0500383F31188BFF36F8FBFF34F8FF2
:104DE000BB6000BF00BFFDE7FFF7C6FEFB681A68A7
:104DF000FB68DB6BF968096C01FB03F31A44FB6881
:104E00009A60FB6800229A63FB681A68FB685A6024
:104E1000FB681A68FB68DB6B013BF968096C01FBF6
:104E200003F31A44FB68DA60FB68FF2283F844202E
:104E3000FB68FF2283F845203B68002B14D1FB68F8
:104E40001B69002B1AD0FB681033184601F0A8FD2F
:104E50000346002B12D00D4B4FF080521A60BFF367
:104E60004F8FBFF36F8F09E0FB6810331846FFF7D1
:104E70009DFCFB6824331846FFF798FCFFF7AEFE55
:104E8000012318461037BD4680BD00BF04ED00E089
:104E900080B58EB002AFF860B9607A603B60FB68A5
:104EA000002B0BD14FF0500383F31188BFF36F8FAA
:104EB000BFF34F8FBB6200BF00BFFDE73B68002B15
:104EC0000BD14FF0500383F31188BFF36F8FBFF303
:104ED0004F8F7B6200BF00BFFDE77B68002B02D0D5
:104EE000BB68002B01D0012300E00023002B0BD175
:104EF0004FF0500383F31188BFF36F8FBFF34F8FD1
:104F00003B6200BF00BFFDE77B68002B02D1BB689E
:104F1000002B01D1012300E00023002B0BD14FF027
:104F2000500383F31188BFF36F8FBFF34F8FFB6183
:104F300000BF00BFFDE750237B617B69502B0BD086
:104F40004FF0500383F31188BFF36F8FBFF34F8F80
:104F5000BB6100BF00BFFDE77B693B68FB62FB6A8A
:104F6000002B0DD0FB6A012283F8462097F83820E9
:104F7000FB6A009313467A68B968F86800F040F855
:104F8000FB6A18463037BD4680BD80B58AB002AF97
:104F9000F860B9601346FB71FB68002B0BD14FF032
:104FA000500383F31188BFF36F8FBFF34F8F3B61C3
:104FB00000BF00BFFDE7FB68BA6802FB03F3FB61BB
:104FC000FB6950331846FFF703FAB861BB69002B41
:104FD00011D0BB697B617B6950337B61BB69002267
:104FE00083F84620FA79BB69009313467A69B96859
:104FF000F86800F005F8BB6918462037BD4680BD4B
:1050000080B584B000AFF860B9607A60FB70BB68AF
:10501000002B03D1BB69BA691A6002E0BB697A68E8
:105020001A60BB69FA68DA63BB69BA681A6401215D
:10503000B869FFF7C3FEBB69FA7883F84C2000BF5C
:105040001037BD4680BD000080B58EB000AFF8605F
:10505000B9607A603B6000237B63FB683B633B6B1A
:10506000002B0BD14FF0500383F31188BFF36F8FE8
:10507000BFF34F8FBB6200BF00BFFDE7BB68002BD3
:1050800003D13B6B1B6C002B01D1012300E00023FB
:10509000002B0BD14FF0500383F31188BFF36F8FB8
:1050A000BFF34F8F7B6200BF00BFFDE73B68022B61
:1050B00003D13B6BDB6B012B01D1012300E000230B
:1050C000002B0BD14FF0500383F31188BFF36F8F88
:1050D000BFF34F8F3B6200BF00BFFDE701F05EFEF4
:1050E0000346002B02D17B68002B01D1012300E095
:1050F0000023002B0BD14FF0500383F31188BFF333
:105100006F8FBFF34F8FFB6100BF00BFFDE7FFF75D
:1051100033FD3B6B9A6B3B6BDB6B9A4202D33B6874
:10512000022B29D13A68B968386B00F00FFAF8629F
:105130003B6B5B6A002B10D03B6B2433184601F0AD
:105140002FFC0346002B13D03F4B4FF080521A60C8
:10515000BFF34F8FBFF36F8F0AE0FB6A002B07D0BE
:10516000394B4FF080521A60BFF34F8FBFF36F8FF0
:10517000FFF734FD012363E07B68002B03D1FFF7C9
:105180002DFD00235CE07B6B002B06D107F114039F
:10519000184601F091FC01237B63FFF71FFD01F02E
:1051A000D1F9FFF7E9FC3B6B93F844305BB2B3F104
:1051B000FF3F03D13B6B002283F844203B6B93F805
:1051C00045305BB2B3F1FF3F03D13B6B002283F864
:1051D0004520FFF703FD3A1D07F114031146184659
:1051E00001F080FC0346002B24D1386B00F0A6FAB6
:1051F0000346002B18D03B6B10337A6811461846D3
:1052000001F07CFB386B00F031FA01F0A9F903469C
:10521000002B7FF47CAF0C4B4FF080521A60BFF331
:105220004F8FBFF36F8F72E7386B00F01FFA01F0FA
:1052300097F96CE7386B00F019FA01F091F9002347
:1052400018463837BD4680BD04ED00E080B590B00B
:1052500000AFF860B9607A603B60FB68BB63BB6B12
:10526000002B0BD14FF0500383F31188BFF36F8FE6
:10527000BFF34F8FBB6200BF00BFFDE7BB68002BD1
:1052800003D1BB6B1B6C002B01D1012300E0002379
:10529000002B0BD14FF0500383F31188BFF36F8FB6
:1052A000BFF34F8F7B6200BF00BFFDE73B68022B5F
:1052B00003D1BB6BDB6B012B01D1012300E0002389
:1052C000002B0BD14FF0500383F31188BFF36F8F86
:1052D000BFF34F8F3B6200BF00BFFDE7FFF72CFD20
:1052E000EFF311824FF0500383F31188BFF36F8FF8
:1052F000BFF34F8FFA61BB61FB697B63BB6B9A6B3A
:10530000BB6BDB6B9A4202D33B68022B2FD1BB6B8A
:1053100093F8453087F83330BB6B9B6BFB623A6880
:10532000B968B86B00F012F997F93330B3F1FF3F69
:1053300012D1BB6B5B6A002B16D0BB6B24331846B3
:1053400001F02EFB0346002B0ED07B68002B0BD008
:105350007B6801221A6007E097F833300133DBB233
:105360005AB2BB6B83F845200123FB6301E00023A5
:10537000FB637B6B7B617B6983F3118800BFFB6BF5
:1053800018464037BD4680BD80B58CB000AFF86090
:10539000B9607A600023FB62FB68BB62BB6A002BCA
:1053A0000BD14FF0500383F31188BFF36F8FBFF31E
:1053B0004F8F3B6200BF00BFFDE7BB68002B03D1EE
:1053C000BB6A1B6C002B01D1012300E00023002BE2
:1053D0000BD14FF0500383F31188BFF36F8FBFF3EE
:1053E0004F8FFB6100BF00BFFDE701F0D7FC034614
:1053F000002B02D17B68002B01D1012300E00023A8
:10540000002B0BD14FF0500383F31188BFF36F8F44
:10541000BFF34F8FBB6100BF00BFFDE7FFF7ACFBE1
:10542000BB6A9B6B7B627B6A002B1FD0B968B86A32
:1054300000F0F6F87B6A5A1EBB6A9A63BB6A1B6966
:10544000002B0FD0BB6A1033184601F0A9FA0346AF
:10545000002B07D03C4B4FF080521A60BFF34F8FA8
:10546000BFF36F8FFFF7BAFB012369E07B68002B66
:1054700003D1FFF7B3FB002362E0FB6A002B06D1E8
:1054800007F11003184601F017FB0123FB62FFF739
:10549000A5FB01F057F8FFF76FFBBB6A93F84430A8
:1054A0005BB2B3F1FF3F03D1BB6A002283F8442013
:1054B000BB6A93F845305BB2B3F1FF3F03D1BB6ADF
:1054C000002283F84520FFF789FB3A1D07F11003FE
:1054D0001146184601F006FB0346002B23D1B86A9B
:1054E00000F016F90346002B17D0BB6A24337A6804
:1054F0001146184601F002FAB86A00F0B7F801F058
:105500002FF80346002B89D10F4B4FF080521A60C1
:10551000BFF34F8FBFF36F8F80E7B86A00F0A6F834
:1055200001F01EF87AE7B86A00F0A0F801F018F868
:10553000B86A00F0EDF80346002B3FF46FAF00238C
:1055400018463037BD4680BD04ED00E080B586B01A
:1055500000AFF860B9607A6000237B61FB689B6BE9
:105560003B61FB681B6C002B0DD1FB681B68002B9B
:105570004DD1FB689B68184601F02EFC7861FB68F2
:1055800000229A6043E07B68002B19D1FB685868C1
:10559000FB681B6C1A46B96802F04CFCFB685A6841
:1055A000FB681B6C1A44FB685A60FB685A68FB680E
:1055B0009B689A422BD3FB681A68FB685A6026E006
:1055C000FB68D868FB681B6C1A46B96802F032FCAD
:1055D000FB68DA68FB681B6C5B421A44FB68DA60A4
:1055E000FB68DA68FB681B689A4207D2FB689A6816
:1055F000FB681B6C5B421A44FB68DA607B68022B19
:1056000005D13B69002B02D03B69013B3B613B6903
:105610005A1CFB689A637B6918461837BD4680BDE3
:1056200080B582B000AF786039607B681B6C002B5E
:1056300018D07B68DA687B681B6C1A447B68DA6078
:105640007B68DA687B689B689A4203D37B681A6838
:105650007B68DA607B68D9687B681B6C1A4638689F
:1056600002F0E8FB00BF0837BD4680BD80B584B0BE
:1056700000AF7860FFF780FA7B6893F84530FB73E2
:1056800011E07B685B6A002B12D07B6824331846DC
:1056900001F086F90346002B01D001F087FAFB7B6D
:1056A000013BDBB2FB7397F90F30002BE9DC00E024
:1056B00000BF7B68FF2283F84520FFF78FFAFFF7D2
:1056C0005BFA7B6893F84430BB7311E07B681B691D
:1056D000002B12D07B681033184601F061F90346A5
:1056E000002B01D001F062FABB7B013BDBB2BB7344
:1056F00097F90E30002BE9DC00E000BF7B68FF2249
:1057000083F84420FFF76AFA00BF1037BD4680BD1A
:1057100080B584B000AF7860FFF72EFA7B689B6B92
:10572000002B02D10123FB6001E00023FB60FFF7A7
:1057300055FAFB6818461037BD4680BD80B584B069
:1057400000AF7860FFF718FA7B689A6B7B68DB6BB9
:105750009A4202D10123FB6001E00023FB60FFF7C6
:105760003DFAFB6818461037BD4680BD80B485B051
:1057700000AF786039600023FB6014E00F4AFB68DB
:1057800052F83330002B0BD10C49FB683A6841F8D2
:1057900033200A4AFB68DB0013447A685A6006E04B
:1057A000FB680133FB60FB68072BE7D900BF00BF34
:1057B0001437BD465DF8047B704700BF6444001099
:1057C00080B586B000AFF860B9607A60FB687B6135
:1057D000FFF7D2F97B6993F844305BB2B3F1FF3F36
:1057E00003D17B69002283F844207B6993F845301C
:1057F0005BB2B3F1FF3F03D17B69002283F8452000
:10580000FFF7ECF97B699B6B002B06D17B69243396
:105810007A68B968184601F097F87869FFF726FFAB
:1058200000BF1837BD4680BD80B590B002AFF860AC
:10583000B9607A603B603B6CFB623B68002B0BD12C
:105840004FF0500383F31188BFF36F8FBFF34F8F77
:10585000BB6200BF00BFFDE73B6C002B0BD14FF0DC
:10586000500383F31188BFF36F8FBFF34F8F7B62B9
:1058700000BF00BFFDE7BA68FB689A420BD94FF042
:10588000500383F31188BFF36F8FBFF34F8F3B62D9
:1058900000BF00BFFDE7BB68002B01D10123BB6047
:1058A0007B68002B03D0032387F8333002E0022308
:1058B00087F83330FB68042B0BD84FF0500383F389
:1058C0001188BFF36F8FBFF34F8FFB6100BF00BF25
:1058D000FDE724237B617B69242B0BD04FF0500321
:1058E00083F31188BFF36F8FBFF34F8FBB6100BF8E
:1058F00000BFFDE73B68002B15D03B6C002B12D09E
:1059000097F833300093BB68FA683968F86A00F09A
:1059100081FBFB6A1B7F43F00203DAB2FB6A1A7752
:105920003B6C7B6301E000237B637B6B184638375D
:10593000BD4680BD80B487B000AF78607B683B61B6
:105940003B69002B0BD14FF0500383F31188BFF359
:105950006F8FBFF34F8FFB6000BF00BFFDE73B6958
:105960009A683B691B6813447B613B695B687A6991
:10597000D31A7B617B69013B7B613B699B687A69D8
:105980009A4204D33B699B687A69D31A7B617B692D
:1059900018461C37BD465DF8047B704780B590B053
:1059A00002AFF860B9607A603B60FB68FB6200237D
:1059B0007B637B683B63BB68002B0BD14FF05003CC
:1059C00083F31188BFF36F8FBFF34F8F7B6200BFEC
:1059D00000BFFDE7FB6A002B0BD14FF0500383F3B0
:1059E0001188BFF36F8FBFF34F8F3B6200BF00BFC3
:1059F000FDE7FB6A1B7F03F00103002B12D03B6B1A
:105A000004333B633A6B7B689A420BD84FF05003E8
:105A100083F31188BFF36F8FBFF34F8FFB6100BF1C
:105A200000BFFDE73B68002B3FD007F1100318468D
:105A300001F01AF8FFF7A0F8F86AFFF77BFF786328
:105A40007A6B3B6B9A4218D2002001F07BFBFB6A19
:105A50005B69002B0BD04FF0500383F31188BFF329
:105A60006F8FBFF34F8FBB6100BF00BFFDE701F039
:105A700085F90246FB6A5A6102E0FFF7AFF814E0CD
:105A8000FFF7ACF83B6800220021002001F014FA77
:105A9000FB6A00225A613A4607F110031146184684
:105AA00001F020F80346002BC4D07B6B002B03D100
:105AB000F86AFFF73FFF78633B6B00937B6B7A6874
:105AC000B968F86A00F014F8B862BB6A002B0AD013
:105AD000F86A00F07FFA0246FB6ADB689A4202D35A
