:020000040810E2
:1000000000800410E9A010080D3310081533100803
:100010001D331008253310082D3310080000000090
:100020000000000000000000000000007142110804
:100030003533100800000000C1441108F5321108E2
:1000400039A1100839A1100839A1100839A11008E8
:1000500039A1100839A1100839A1100839A11008D8
:1000600039A1100839A1100839A1100839A11008C8
:1000700039A1100839A1100839A1100839A11008B8
:1000800039A1100839A1100839A1100839A11008A8
:1000900039A1100839A1100839A1100839A1100898
:1000A00039A1100839A1100839A1100839A1100888
:1000B00039A1100839A1100839A1100839A1100878
:1000C00039A1100839A1100839A1100839A1100868
:1000D00039A1100839A1100839A1100839A1100858
:1000E00039A1100839A110080000000039A110083A
:1000F00039A1100839A1100839A1100839A1100838
:1001000039A1100839A1100839A1100839A1100827
:1001100039A1100839A110084533100839A1100879
:1001200039A1100839A1100839A1100839A1100807
:1001300039A11008593310086D33100839A110087F
:1001400039A1100839A110080000000000000000CB
:1001500039A1100839A1100839A1100839A11008D7
:1001600039A1100839A1100839A1100839A11008C7
:1001700039A1100839A1100839A1100800000000A9
:1001800039A1100839A1100839A1100839A11008A7
:1001900039A1100839A1100839A1100839A1100897
:1001A00039A1100839A1100839A1100839A1100887
:1001B00039A1100839A1100839A1100839A1100877
:1001C00039A1100839A1100839A1100839A1100867
:1001D00039A1100839A1100839A1100839A1100857
:1001E00039A1100839A1100839A1100839A1100847
:1001F00039A1100839A1100839A1100839A1100837
:1002000039A1100839A1100839A1100839A1100826
:1002100039A1100839A1100839A1100839A1100816
:1002200039A1100839A1100839A1100839A1100806
:1002300039A1100839A110088133100839A110081C
:1002400039A1100839A1100839A1100839A11008E6
:1002500039A1100839A1100839A1100839A11008D6
:1002600039A1100839A1100839A1100839A11008C6
:1002700039A1100839A1100839A1100839A11008B6
:1002800039A1100839A1100839A110080000000098
:0802900039A1100839A1100882
:1002A00010B5054C237833B9044B13B10448AFF3B0
:1002B00000800123237010BD90000010000000009A
:1002C0003C4D120808B5034B1BB103490348AFF37B
:1002D000008008BD00000000940000103C4D120892
:1002E00001F0FF01102A2BDB10F0070F08D010F8E7
:1002F000013B013A8B422DD010F0070F42B3F6D1EB
:10030000F0B441EA012141EA014122F007047FF003
:1003100000070023F0E80256083C85EA010586EA5A
:10032000010685FA47F5A3FA87F586FA47F6A5FA96
:1003300087F68EB9EED1F0BC01F0FF0102F00702A2
:1003400032B110F8013B013A83EA010313B1F8D14D
:100350000020704701387047002D06BF354603382E
:10036000073815F0010F07D1013015F4807F02BF67
:10037000013015F4C03F0130F0BC0138704700BFB8
:1003800081F0004102E000BF83F0004330B54FEA46
:1003900041044FEA430594EA050F08BF90EA020FB3
:1003A0001FBF54EA000C55EA020C7FEA645C7FEA46
:1003B000655C00F0E2804FEA5454D4EB5555B8BF69
:1003C0006D420CDD2C4480EA020281EA030382EADA
:1003D000000083EA010180EA020281EA0303362D6C
:1003E00088BF30BD11F0004F4FEA01314FF4801C3F
:1003F0004CEA113102D0404261EB410113F0004F51
:100400004FEA03334CEA133302D0524263EB430307
:1004100094EA050F00F0A780A4F10104D5F1200EA5
:100420000DDB02FA0EFC22FA05F2801841F1000100
:1004300003FA0EF2801843FA05F359410EE0A5F1D4
:1004400020050EF1200E012A03FA0EFC28BF4CF005
:10045000020C43FA05F3C01851EBE37101F00045BB
:1004600007D54FF0000EDCF1000C7EEB00006EEBC8
:100470000101B1F5801F1BD3B1F5001F0CD3490852
:100480005FEA30004FEA3C0C04F101044FEA4452A9
:1004900012F5800F80F09A80BCF1004F08BF5FEA30
:1004A000500C50F1000041EB045141EA050130BD10
:1004B0005FEA4C0C404141EB0101013C28BFB1F522
:1004C000801FE9D291F0000F04BF01460020B1FA6D
:1004D00081F308BF2033A3F10B03B3F120020CDA40
:1004E0000C3208DD02F1140CC2F10C0201FA0CF01E
:1004F00021FA02F10CE002F11402D8BFC2F1200C83
:1005000001FA02F120FA0CFCDCBF41EA0C01904038
:10051000E41AA2BF01EB0451294330BD6FEA040481
:100520001F3C1CDA0C340EDC04F11404C4F120026C
:1005300020FA04F001FA02F340EA030021FA04F37E
:1005400045EA030130BDC4F10C04C4F1200220FAD5
:1005500002F001FA04F340EA0300294630BD21FA13
:1005600004F0294630BD94F0000F83F4801306BFD9
:1005700081F480110134013D4EE77FEA645C18BFCD
:100580007FEA655C29D094EA050F08BF90EA020F64
:1005900005D054EA000C04BF1946104630BD91EA5C
:1005A000030F1EBF0021002030BD5FEA545C05D15F
:1005B0004000494128BF41F0004130BD14F580049E
:1005C0003CBF01F5801130BD01F0004545F0FE4112
:1005D00041F470014FF0000030BD7FEA645C1ABF47
:1005E000194610467FEA655C1CBF0B46024650EA7E
:1005F000013406BF52EA033591EA030F41F40021AA
:1006000030BD00BF90F0000F04BF0021704730B52F
:100610004FF4806404F132044FF000054FF0000104
:1006200050E700BF90F0000F04BF0021704730B5C5
:100630004FF4806404F1320410F0004548BF40429A
:100640004FF000013EE700BF42004FEAE2014FEAEF
:1006500031014FEA02701FBF12F07F4393F07F4FCA
:1006600081F06051704732F07F4208BF704793F0CD
:100670007F4F04BF41F40021704730B54FF46074E0
:1006800001F0004521F000411CE700BF50EA0102E3
:1006900008BF704730B54FF000050AE050EA01028C
:1006A00008BF704730B511F0004502D5404261EBFC
:1006B00041014FF4806404F132045FEA915C3FF43D
:1006C000D8AE4FF003025FEADC0C18BF03325FEADA
:1006D000DC0C18BF033202EBDC02C2F1200300FA8B
:1006E00003FC20FA02F001FA03FE40EA0E0021FAB0
:1006F00002F11444BDE600BF70B54FF0FF0C4CF49E
:10070000E06C1CEA11541DBF1CEA135594EA0C0F4F
:1007100095EA0C0F00F0DEF82C4481EA030621EA8A
:100720004C5123EA4C5350EA013518BF52EA0335C5
:1007300041F4801143F4801338D0A0FB02CE4FF077
:100740000005E1FB02E506F00042E0FB03E54FF0A7
:100750000006E1FB03569CF0000F18BF4EF0010E9F
:10076000A4F1FF04B6F5007F64F5407404D25FEA9B
:100770004E0E6D4146EB060642EAC62141EA55514E
:100780004FEAC52040EA5E504FEACE2EB4F1FD0C90
:1007900088BFBCF5E06F1ED8BEF1004F08BF5FEA0E
:1007A000500E50F1000041EB045170BD06F00046C0
:1007B00046EA010140EA020081EA0301B4EB5C046D
:1007C000C2BFD4EB0C0541EA045170BD41F4801165
:1007D0004FF0000E013C00F3AB8014F1360FDEBF8A
:1007E000002001F0004170BDC4F10004203C35DA66
:1007F0000C341BDC04F11404C4F1200500FA05F3E9
:1008000020FA04F001FA05F240EA020001F0004289
:1008100021F0004110EBD37021FA04F642EB0601FF
:100820005EEA430E08BF20EAD37070BDC4F10C0429
:10083000C4F1200500FA04F320FA05F001FA04F2ED
:1008400040EA020001F0004110EBD37041F10001D9
:100850005EEA430E08BF20EAD37070BDC4F12005E4
:1008600000FA05F24EEA020E20FA04F301FA05F24C
:1008700043EA020321FA04F001F0004121FA04F2F4
:1008800020EA020000EBD3705EEA430E08BF20EAC4
:10089000D37070BD94F0000F0FD101F000464000FE
:1008A00041EB010111F4801F08BF013CF7D041EA80
:1008B000060195F0000F18BF704703F00046520084
:1008C00043EB030313F4801F08BF013DF7D043EA55
:1008D0000603704794EA0C0F0CEA135518BF95EA0B
:1008E0000C0F0CD050EA410618BF52EA4306D1D192
:1008F00081EA030101F000414FF0000070BD50EAB1
:10090000410606BF1046194652EA430619D094EA3A
:100910000C0F02D150EA013613D195EA0C0F05D124
:1009200052EA03361CBF104619460AD181EA030178
:1009300001F0004141F0FE4141F470014FF0000030
:1009400070BD41F0FE4141F4780170BD70B54FF0CB
:10095000FF0C4CF4E06C1CEA11541DBF1CEA13554B
:1009600094EA0C0F95EA0C0F00F0A7F8A4EB05042D
:1009700081EA030E52EA03354FEA013100F0888024
:100980004FEA03334FF0805545EA131343EA1263ED
:100990004FEA022245EA111545EA10654FEA0026A2
:1009A0000EF000419D4208BF964244F1FD0404F55B
:1009B000407402D25B084FEA3202B61A65EB0305B7
:1009C0005B084FEA32024FF480104FF4002CB6EB74
:1009D000020E75EB030E22BFB61A754640EA0C00F4
:1009E0005B084FEA3202B6EB020E75EB030E22BF34
:1009F000B61A754640EA5C005B084FEA3202B6EB75
:100A0000020E75EB030E22BFB61A754640EA9C0033
:100A10005B084FEA3202B6EB020E75EB030E22BF03
:100A2000B61A754640EADC0055EA060E18D04FEAC1
:100A3000051545EA16754FEA06164FEAC30343EA61
:100A400052734FEAC2025FEA1C1CC0D111F4801F2E
:100A50000BD141EA00014FF000004FF0004CB6E727
:100A600011F4801F04BF01430020B4F1FD0C88BFC6
:100A7000BCF5E06F3FF6AFAEB5EB030C04BFB6EBD1
:100A8000020C5FEA500C50F1000041EB045170BDC4
:100A90000EF0004E4EEA113114EB5C04C2BFD4EBF1
:100AA0000C0541EA045170BD41F480114FF0000E75
:100AB000013C90E645EA060E8DE60CEA135594EAF1
:100AC0000C0F08BF95EA0C0F3FF43BAF94EA0C0FF4
:100AD0000AD150EA01347FF434AF95EA0C0F7FF469
:100AE00025AF104619462CE795EA0C0F06D152EABD
:100AF00003353FF4FDAE1046194622E750EA4106A1
:100B000018BF52EA43067FF4C5AE50EA41047FF4B1
:100B10000DAF52EA43057FF4EBAE12E74FF0FF3C16
:100B200006E000BF4FF0010C02E000BF4FF0010CE7
:100B30004DF804CD4FEA410C7FEA6C5C4FEA430C60
:100B400018BF7FEA6C5C1BD001B050EA410C0CBFAF
:100B500052EA430C91EA030F02BF90EA020F002011
:100B6000704710F1000F91EA030F58BF994208BF78
:100B700090422CBFD8176FEAE37040F00100704735
:100B80004FEA410C7FEA6C5C02D150EA013C07D18C
:100B90004FEA430C7FEA6C5CD6D152EA033CD3D0D7
:100BA0005DF8040B704700BF8446104662468C46D1
:100BB0001946634600E000BF01B5FFF7B7FF002804
:100BC00048BF10F1000F01BD4DF808EDFFF7F4FF2D
:100BD0000CBF012000205DF808FB00BF4DF808EDB8
:100BE000FFF7EAFF34BF012000205DF808FB00BFDB
:100BF0004DF808EDFFF7E0FF94BF012000205DF8FD
:100C000008FB00BF4DF808EDFFF7CEFF94BF0120B1
:100C100000205DF808FB00BF4DF808EDFFF7C4FFAA
:100C200034BF012000205DF808FB00BF4A0011D24C
:100C300012F5001211D20DD56FF47873B3EB625236
:100C40000ED44FEAC12343F0004343EA505323FA42
:100C500002F070474FF00000704750EA013002D1B7
:100C60004FF0FF3070474FF00000704753B94AB95A
:100C7000002908BF00281CBF4FF0FF314FF0FF30A4
:100C800000F06AB9ADF1080C6DE904CE00F006F889
:100C9000DDF804E0DDE9022304B070472DE9F047F8
:100CA000089D0C46002B4ED194468C458646B2FAE0
:100CB00082F262D94AB1C2F12003914020FA03F3D3
:100CC0000CFA02FC194300FA02FE4FEA1C471FFA15
:100CD0008CF6B1FBF7F44FEA1E4307FB141143EA0D
:100CE000014304FB06F199420AD91CEB030304F10A
:100CF000FF3080F01281994240F20F81023C634440
:100D0000591A1FFA8EF3B1FBF7F007FB101143EAF3
:100D1000014300FB06F69E420AD91CEB030300F1D7
:100D2000FF3180F0FC809E4240F2F980634402383B
:100D30009B1B40EA044000211DB1D3400022C5E9BD
:100D40000032BDE8F0878B4205D90DB1C5E900013D
:100D500000210846F5E7B3FA83F1002946D1A34202
:100D600002D39042C0F0F080861A64EB03030120A6
:100D7000002DE6D0C5E90063E3E7002A40F090804B
:100D8000A1EB0C044FEA1C481FFA8CF70121B4FBBD
:100D9000F8F64FEA1E4308FB164443EA044307FBF8
:100DA00006F0984208D91CEB030306F1FF3402D287
:100DB000984200F2CD8026461C1A1FFA8EF3B4FB2F
:100DC000F8F008FB104443EA044300FB07F79F4296
:100DD00008D91CEB030300F1FF3402D29F4200F25A
:100DE000B0802046DB1B40EA0640A5E7C1F12006A3
:100DF0008B4022FA06F71F4320FA06FC04FA01F39F
:100E000043EA0C03F44000FA01F8380C4FEA1349A6
:100E1000B4FBF0FE1FFA87FC00FB1E4449EA0444C1
:100E20000EFB0CF9A14502FA01F20AD93C190EF1A8
:100E3000FF3A80F08480A14540F28180AEF1020E3D
:100E40003C44A4EB09041FFA83F9B4FBF0F300FB64
:100E5000134449EA044403FB0CFCA44507D93C199C
:100E600003F1FF3067D2A44565D9023B3C4443EA15
:100E70000E40A0FB0293A4EB0C049C42CE469C4681
:100E800051D34ED055B1B8EB0E0364EB0C0404FA09
:100E900006F6CB401E43CC40C5E90064002150E774
:100EA000C2F1200320FA03F10CFA02FC24FA03F346
:100EB00094400C434FEA1C4800FA02FE1FFA8CF7DC
:100EC000B3FBF8F008FB1031230C43EA014300FBAD
:100ED00007F1994208D91CEB030300F1FF362CD22D
:100EE00099422AD9023863445B1AA4B2B3FBF8F1E1
:100EF00008FB113344EA034401FB07F3A34208D97A
:100F00001CEB040401F1FF3613D2A34211D90239BC
:100F10006444E41A41EA004139E70446F0E6084631
:100F200006E7C845AED2B9EB020E63EB070C0138F9
:100F3000A8E73146EDE7034699E73046D4E7D646C1
:100F40007FE7634402384DE70646234608460FE72D
:100F5000023E634430E700BF704700BF80B483B0F7
:100F600000AF7860054B1A687B681A607B6818468A
:100F70000C37BD465DF8047B704700BFC801001008
:100F800080B500AF104B1B68BFF35B8F03F001030C
:100F9000002B0CBF01230023DBB2002B10D00A482A
:100FA00022F0ECFA0346002B14BF01230023DBB22E
:100FB000002B05D00548FFF7D1FF034822F0EAFADD
:100FC000024B184680BD00BFB0000010AC000010FE
:100FD0000EB480B585B000AF78607B681B684FF0B9
:100FE000FF31184612F032FB07F12003FB60114B72
:100FF0001B689B68FA68F969184622F0BBFF0D4B25
:101000001B689B68022201210B4823F019FB094B46
:101010001B689B68184623F0F1F97B681B6818462B
:1010200012F05FFB00BF1437BD46BDE8804003B03F
:10103000704700BF40000010544D120880B582B0C8
:1010400000AF78607B6803F08053002B05D04FF031
:1010500080500DF0BFFE00F045F87B68002B05DAEC
:101060004FF000400DF0B6FE00F060F800BF08370A
:10107000BD4680BD80B582B002AF0E4B00930E4BD3
:101080000122002140F6543014F0C4FB03460B4A01
:1010900013600B4B00930B4B0122002140F65430A0
:1010A00014F0B8FB0346054A536000231846BD46BA
:1010B00080BD00BF08000038500000380000003834
:1010C0002C000038A40B003880B500AF4FF08050E2
:1010D0000DF080FE4FF000400DF07CFE002318461E
:1010E00080BD000080B582B000AF00237B600D4B57
:1010F0001B68002B12D00B4B1B683A1D114618467B
:1011000014F0E4FD7B68002B09D0074B4FF08052B0
:101110001A60BFF34F8FBFF36F8F00E000BF083737
:10112000BD4680BD0000003804ED00E080B582B00F
:1011300000AF00237B600D4B5B68002B12D00B4B84
:101140005B683A1D1146184614F004FE7B68002BBC
:1011500009D0074B4FF080521A60BFF34F8FBFF397
:101160006F8F00E000BF0837BD4680BD000000382B
:1011700004ED00E080B584B000AF78607B68FB6070
:10118000BFF34F8F00BF124B5B68FA689A420BD1D6
:101190001B211D200DF0E6FD0346002B14D11B2161
:1011A0001D200DF003FE0FE0094B1B68FA689A4200
:1011B0000AD11B211E200DF0D5FD0346002B03D1C3
:1011C0001B211E200DF0F2FD00BF1037BD4680BD73
:1011D0000000003880B586B000AFF860B9607A6072
:1011E0000F4B5B68002B01D1002315E07B68002BBF
:1011F00009DA0B4B58684FF0FF33BA68F96814F0FE
:10120000C3FB786107E0064B58687B68BA68F968E9
:1012100014F0BAFB78617B6918461837BD4680BD6B
:101220000000003880B586B000AFF860B9607A6021
:101230007B68002B09DA0B4B18684FF0FF33BA6854
:10124000F96814F088FC786107E0064B18687B6841
:10125000BA68F96814F07FFC78617B691846183722
:10126000BD4680BD0000003880B400AF00231846A2
:10127000BD465DF8047B704780B483B000AF7860F2
:1012800039603B6818460C37BD465DF8047B7047F3
:1012900080B483B000AF78600B46FB7097F90330E1
:1012A00018460C37BD465DF8047B704780B483B0A8
:1012B00000AF78607B6800221A607B6818460C37A4
:1012C000BD465DF8047B704780B485B000AFF86020
:1012D000B9607A60BB687A68B3FBF2F2796801FBA7
:1012E00002F29B1A18461437BD465DF8047B70471E
:1012F00080B483B000AF786087ED000A7B683A68FD
:101300001A607B6800225A607B6818460C37BD461D
:101310005DF8047B704780B483B000AF78607B6871
:101320005B6818460C37BD465DF8047B704780B497
:1013300085B000AFF860B9607A60BB6893F90020AF
:10134000FB681A70FB687A68043307CA83E80700F1
:10135000FB6818461437BD465DF8047B70470000F3
:1013600080B582B000AF344BD3F8E030324A43F05E
:101370000073C2F8E030304BD3F8E03003F0007374
:101380007B607B6801200DF025FD0EF0BFFA012285
:10139000022100200EF040FA284B1B681B0903F0C5
:1013A0000F03072B08D1264BD3F80431244A43F00E
:1013B0000103C2F8043107E0214BD3F81431204A6D
:1013C00043F00103C2F814310BF00EFB00F004F9F6
:1013D00000F01CF900F052F800F09EF8FFF74AFE0A
:1013E00011F0A2FF174812F0ABF80346164A13603B
:1013F000164A0021164811F0F6FF0346154A1360FD
:10140000154A0021154811F0EEFF0346144A1360F7
:10141000144A0021144811F0E6FF0346134A1360F2
:10142000134A0021134811F0DEFF0346124A1360ED
:1014300011F09EFF00BFFDE70044025800ED00E000
:10144000006402587C851208C8010010EC84120860
:10145000B78E1008B801001010851208B168100886
:10146000BC0100103485120857571008C001001045
:1014700058851208EDA11008C401001080B500AF16
:10148000224B234A1A60214B224A5A601F4B0022EA
:101490009A601E4B0122DA601C4B00221A611B4B22
:1014A00000225A61194B00229A61184B0022DA611E
:1014B000164B00221A6215480DF0B8FC0346002BAB
:1014C00014BF01230023DBB2002B01D000F036F95A
:1014D00000210E480EF008F90346002B14BF01232B
:1014E0000023DBB2002B01D000F028F902210748CD
:1014F0000EF045F90346002B14BF01230023DBB295
:10150000002B01D000F01AF900BF80BDD000001000
:10151000001C0058FFECC01080B500AF2C4B2D4ACA
:101520001A602B4B4FF4E1325A60294B00229A602B
:10153000274B0022DA60264B00221A61244B0C2232
:101540005A61234B00229A61214B0022DA61204B21
:1015500000221A621E4B00225A621D4B00229A6220
:101560001B4810F035FD0346002B14BF0123002358
:10157000DBB2002B01D000F0E1F80021144811F09B
:10158000C5FD0346002B14BF01230023DBB2002B53
:1015900001D000F0D3F800210D4811F0F5FD03460D
:1015A000002B14BF01230023DBB2002B01D000F07D
:1015B000C5F8074811F071FD0346002B14BF012345
:1015C0000023DBB2002B01D000F0B8F800BF80BDD3
:1015D000240100100010014080B483B000AF0A4B1A
:1015E000D3F8D430084A43F00103C2F8D430064B94
:1015F000D3F8D43003F001037B607B6800BF0C3765
:10160000BD465DF8047B70470044025880B489B041
:1016100000AF374BD3F8E030354A43F04003C2F80F
:10162000E030334BD3F8E03003F04003FB61FB695B
:101630002F4BD3F8E0302E4A43F01003C2F8E030CD
:101640002B4BD3F8E03003F01003BB61BB69284B90
:10165000D3F8E030264A43F00403C2F8E030244BCC
:10166000D3F8E03003F004037B617B69204BD3F8AF
:10167000E0301F4A43F00103C2F8E0301C4BD3F8BE
:10168000E03003F001033B613B69194BD3F8E030D4
:10169000174A43F00203C2F8E030154BD3F8E030AC
:1016A00003F00203FB60FB68114BD3F8E030104AF3
:1016B00043F08003C2F8E0300D4BD3F8E03003F084
:1016C0008003BB60BB680A4BD3F8E030084A43F0A4
:1016D0000803C2F8E030064BD3F8E03003F008030B
:1016E0007B607B6800BF2437BD465DF8047B704794
:1016F0000044025880B582B000AF7860391D4FF6C3
:10170000FF730122034810F0B3FC7B6818460837CA
:10171000BD4680BD2401001080B582B000AF786066
:101720007B681B68044A934201D10BF0BBF900BFF0
:101730000837BD4680BD00BF0010004080B400AF38
:1017400072B600BF00BFFDE780B582B000AF786021
:10175000786800F034F87B6818460837BD4680BDCD
:1017600080B483B000AF78607B6818460C37BD4604
:101770005DF8047B704780B588B004AFF860381D11
:1017800080E806003B60F8683B6A0293FB690193BE
:10179000BB6900933B683A1D06CA00F01BF8FB6862
:1017A00018461037BD4680BD80B483B000AF786066
:1017B0007B6818460C37BD465DF8047B704780B4E3
:1017C00083B000AF78607B6818460C37BD465DF883
:1017D000047B7047B0B588B004AFF860381D80E86E
:1017E00006003B603B1D184600F042F804463B1DD6
:1017F000184600F049F802468DF80C50BB6A029377
:101800007B6A01933B6A00933B682146F86800F0CD
:101810004DF8FB6818461037BD46B0BD80B582B0A4
:1018200000AF7860786800F064F87B681846083785
:10183000BD4680BD80B582B000AF78607868FFF7A4
:10184000EDFF7B6818460837BD4680BD80B582B085
:1018500000AF7860786800F057F8786800F074F8A6
:101860007868FFF7E7FF7B6818460837BD4680BDFC
:1018700080B483B000AF78607B681B6818460C3773
:10188000BD465DF8047B704790B583B000AF7860CB
:101890007868FFF7EDFF0446786800F065F80346C6
:1018A0001B01234418460C37BD4690BD80B588B057
:1018B00002AFF860B9607A603B60BB6A00937B6AF4
:1018C0003A6A3968F86800F05BF809E007F110033C
:1018D000BA68F968184600F07BF8BB681033BB6043
:1018E000BA687B689A42F1D1FB6818461837BD4642
:1018F00080BD80B483B000AF78607B6818460C3739
:10190000BD465DF8047B704780B582B000AF78605B
:10191000786800F07BF803461946786800F082F892
:101920007B681A687B685B689B0010461A4600213A
:1019300022F0A8FF7B680022DA607B6800229A60B0
:1019400000BF0837BD4680BD80B582B000AF78606B
:101950007B6819687B685B681A46786800F07AF8DB
:1019600000BF0837BD4680BD80B483B000AF78604B
:101970007B685B6818460C37BD465DF8047B704792
:1019800080B586B000AFF860B9607A603B603B6AB2
:101990003A687968F86800F074F8FB681033B96841
:1019A000184621F0D5FE7861FB685B687A699A4237
:1019B00009D97969F86800F0A4F80246FB681A6052
:1019C000FB687A695A60FB6818461837BD4680BDC7
:1019D00090B589B002AFF860B9607A60B86800F07D
:1019E000ADF8786107F110037969184600F0B1F895
:1019F000F86807F110038DF800407A68796900F003
:101A0000B7F800BFF8681C37BD4690BD80B483B0FE
:101A100000AF78607B689B6818460C37BD465DF860
:101A2000047B704780B584B000AF7860396009E00E
:101A30003B68FB60386800F0C2F83860F968786885
:101A400000F0C9F83B68002BF2D100BF00BF10378F
:101A5000BD4680BD80B584B000AFF860B9607A60E3
:101A6000B968F86800F0D2F80346002B05D17A680F
:101A7000B968F86800F0E2F800E000BF1037BD4632
:101A800080BD90B587B000AFF860B9607A603B6008
:101A90007A68B968F86800F001F907F11403396849
:101AA000184600F0EEF807F114031946F86800F044
:101AB00008F907F114031846FFF71BFF2146F868E1
:101AC00000F011F9FB6803F11802FB681A60FB686B
:101AD00001225A60FB6808331846FFF7E7FBFB68F2
:101AE0000022DA60FB681033B7EE000A1846FFF7F1
:101AF000FFFBFB6800229A61FB6818461C37BD4655
:101B000090BD80B582B000AF786039603B68012B32
:101B10000CBF01230023DBB2002B05D07B68002221
:101B20009A617B68183305E03968786800F0E7F857
:101B3000034600BF18460837BD4680BD80B483B059
:101B400000AF78607B6818460C37BD465DF8047BB3
:101B5000704780B483B000AF786039607B683A68C2
:101B60001A607B6818460C37BD465DF8047B7047E9
:101B700090B589B002AFF860B9607A603B60786870
:101B800000F0EAF8024607F114031146184600F087
:101B9000EEF80346184600F0F7F80446786800F0BF
:101BA000DBF80246F8683B68009313462246B968A2
:101BB00000F0F5F800BFF8681C37BD4690BD80B452
:101BC00083B000AF78607B681B6818460C37BD4651
:101BD0005DF8047B704790B583B000AF78603960E2
:101BE000786800F08DF904463B680433184600F02D
:101BF00093F903461946204600F09BF93968786846
:101C000000F0A3F900BF0C37BD4690BD80B483B08F
:101C100000AF786039607B6818333A689A420CBF2D
:101C200001230023DBB2002B14BF01230023DBB20E
:101C300018460C37BD465DF8047B704780B586B00A
:101C400000AFF860B9607A60B86800F094F9786124
:101C5000F86800F055F9024607F1100311461846DE
:101C600000F095F907F110037A687969184600F0D9
:101C7000A6F907F11003184600F096F91837BD468B
:101C800080BD80B582B000AF78603960786800F0C0
:101C9000B5F97B6818460837BD4680BD80B584B06D
:101CA00000AFF860B9607A60B968F86800F0B1F91F
:101CB0007968F86800F0BBF9FB6818461037BD4634
:101CC00080BD80B582B000AF78603960386800F0C0
:101CD000BBF903461946786800F0C1F97B681846DD
:101CE0000837BD4680BD80B483B000AF78603970DE
:101CF0007B6818460C37BD465DF8047B704790B58D
:101D000087B000AF78603960786800F0F9F8024673
:101D100007F10C031146184600F039F907F10C03DE
:101D20003968184600F0ADF97861786900F0DAF9A1
:101D300038613B689B003A6910461A46002122F040
:101D4000A1FD3C6907F10C03184600F02DF923466C
:101D500018461C37BD4690BD80B483B000AF786094
:101D60007B6818460C37BD465DF8047B704780B52C
:101D700082B000AF786039603868FFF7EDFF034646
:101D800018460837BD4680BD80B483B000AF786088
:101D90007B6818460C37BD465DF8047B704790B5EC
:101DA00093B002AFF860B9607A603B60B86800F049
:101DB000A4F9044600F0ADF903469C4294BF012308
:101DC0000023DBB2002B33D0B86800F0A9F903463A
:101DD0007B611AE07B6904331A467968B86800F0C1
:101DE000E2F90346002B0BD0002387F8273007F1D8
:101DF000270207F114031946F86800F0F4F97BE0B4
:101E000007F11403184600F0C1F9B86800F09BF917
:101E10000346BB6207F1280207F114031146184676
:101E200000F0A0F9034683F00103DBB2002BD1D10F
:101E30007968B86800F0F0F9F863F96BB86800F0F9
:101E400000FAB863B86800F058F9044600F061F988
:101E500003469C428CBF01230023DBB2002B1BD026
:101E6000FB6B7A68B96BB86800F0FCF978637B6B40
:101E7000002B11D007F12C03796B184600F00BFAF8
:101E8000002387F8323007F1320207F12C0319469C
:101E9000F86800F00FFA2FE0786800F024FA0446A2
:101EA0003868FFF759FF03463A6D1946204600F09F
:101EB00025FA014607F11C03BA68184600F037FA04
:101EC0003B6A01220092FA6BB96BB86800F057FACE
:101ED0000346BB6100233B62012387F8333007F1DF
:101EE000330207F118031946F86800F07CF907F18E
:101EF0001C03184600F02EFAF8684437BD4690BD22
:101F000080B582B000AF7860786800F081FA03464F
:101F100018460837BD4680BD80B582B000AF7860F6
:101F20007B68184600F07FFA034618460837BD461E
:101F300080BD80B582B000AF78603960386800F04D
:101F40007EFA00BF0837BD4680BD80B584B000AFC3
:101F500078603960386800F07CFAF8607868FFF7DC
:101F6000CFFF03460122F968184600F07EFA00BF51
:101F70001037BD4680BD80B582B000AF786078680C
:101F800000F092FA034618460837BD4680BD80B57A
:101F900082B000AF78603960786800F091FA7B68B1
:101FA00018460837BD4680BD80B483B000AF786066
:101FB0007B6818460C37BD465DF8047B704780B5DA
:101FC00088B000AFF860B9607A60FB68FB61BB68FD
:101FD000BB617B687B61FFF747F90346002B03D0A9
:101FE000B86921F0C7FA05E07A69B969F86900F0C3
:101FF00018FC00BF00BF2037BD4680BD80B483B051
:1020000000AF78607B6818460C37BD465DF8047BEE
:10201000704780B582B000AF786039603968786801
:1020200000F059FA7B6818460837BD4680BD80B578
:1020300082B000AF78603960386800F059FA7B6888
:1020400018460837BD4680BD80B483B000AF7860C5
:102050007B6818460C37BD465DF8047B704780B539
:1020600082B000AF786039603868FFF7EDFF034653
:102070001946786800F047FA7B6818460837BD466D
:1020800080BD80B584B000AF786039607B68FB604C
:102090003B68BB60FFF7E8F80346002B16D0BB682F
:1020A000002299009B0F002B00D001220B46BB6041
:1020B000134603F00103DBB2002B01D021F03EFBFD
:1020C000BB68184621F069FA034607E0BB680022A6
:1020D0001946F86800F0CBFB034600BF18461037DE
:1020E000BD4680BD80B483B000AF78607B68184681
:1020F0000C37BD465DF8047B704780B483B000AFF9
:1021000078607B68DB6818460C37BD465DF8047B59
:10211000704780B500AF00F004FA0346184680BD52
:1021200080B584B000AF78607868FFF76FFC024636
:1021300007F10C031146184600F0ADF8FB6818468D
:102140001037BD4680BD80B584B000AF786007F120
:102150000C030021184600F09EF8FB681846103763
:10216000BD4680BD80B483B000AF786039607B68C5
:102170001A683B681B689A420CBF01230023DBB23C
:1021800018460C37BD465DF8047B704780B582B0B9
:1021900000AF78607B68184600F0CBF97B68184682
:1021A0000837BD4680BD90B587B000AFF860B96014
:1021B0007A60F86800F0CDF904467B68184600F0B4
:1021C000D4F9024607F1140311461846FFF7CFFD74
:1021D00003461A46B968204600F0D3F9034618466C
:1021E0001C37BD4690BD80B584B000AFF860B960C3
:1021F0007A60B86800F0DCF90246FB6812681A6081
:102200007868FFF7D1FA03461A78FB681A71FB6801
:1022100018461037BD4680BD80B582B000AF7860EB
:102220003960786800F0CFF902463B6893F90030D6
:102230001946104600F0D3F9034618460837BD4644
:1022400080BD80B582B000AF786039607B685B6824
:102250001A463968786800F0D5F9034618460837F9
:10226000BD4680BD80B586B000AFF860B9607A60C9
:102270003B603B687A68B968F86800F0D5F9786126
:102280007B69002B02D07B691B6800E000231846A5
:102290001837BD4680BD80B582B000AF7860396028
:1022A0007B683968184600F004FA7B6818460837DE
:1022B000BD4680BD80B584B000AFF860B9607A607B
:1022C000B86800F005FA0246FB6812681A60786880
:1022D000FFF76AFA03461A78FB681A71FB6818461A
:1022E0001037BD4680BD80B483B000AF78607B6896
:1022F00018460C37BD465DF8047B704790B585B035
:1023000000AFF860B9607A60F868FFF7ECFF044648
:10231000B868FFF721FD034604331A462146786862
:1023200000F0E1F9034618461437BD4690BD80B46D
:1023300085B000AFF860B9607A60FB687A681A60AF
:10234000FB68BA685A60FB6818461437BD465DF8EA
:10235000047B704780B582B000AF78607B685B68B3
:10236000002B07D07B681A687B685B6819461046AB
:10237000FFF731FC7B6818460837BD4680BD90B535
:102380008DB002AFF860B9607A603B60FB681033D3
:102390001846FEF7C0FF0346FB6107F11C037B6292
:1023A000FB6803F11001FB685A68FB68DC6807F101
:1023B0001400BB6B0093234621F00EFA3B7D002BEB
:1023C0000AD0BB697A6A1946F86800F0A6F97968FC
:1023D000F868FFF736FFB8603B6804337A6819463F
:1023E000F86800F0A9F93A68B968F86800F0B0F93F
:1023F000FB68DB685A1CFB68DA6007F12003396868
:102400001846FFF748FF3B6A18462C37BD4690BD7B
:1024100080B483B000AF78607B6818460C37BD4647
:102420005DF8047B704780B582B000AF7860786853
:1024300000F0D5F9034618460837BD4680BD80B484
:1024400083B000AF786000BF0C37BD465DF8047BF9
:10245000704780B582B000AF7860786800F0CAF944
:10246000034618460837BD4680BD80B588B000AF2A
:10247000F860B9607A60FB68FB61BB68BB617B6830
:102480007B61FEF7F1FE0346002B03D0B86921F013
:1024900071F805E07A69B969F86900F022FB00BFBC
:1024A00000BF2037BD4680BD80B582B000AF7860E8
:1024B000786800F0ABF9034618460837BD4680BD82
:1024C00080B483B000AF78607B6818460C37BD4697
:1024D0005DF8047B704780B582B000AF78603960EA
:1024E000386800F0ADF97B6818460837BD4680BDF6
:1024F00080B483B000AF78607B6818460C37BD4667
:102500005DF8047B704780B582B000AF78603960B9
:102510003968786800F09FF97B6818460837BD462F
:1025200080BD80B400AF00231846BD465DF8047B33
:10253000704780B582B000AF78607B681B68184632
:10254000FFF73DFB02467B681A6000BF0837BD46B7
:1025500080BD80B582B000AF7860786800F0B1F9D6
:10256000034618460837BD4680BD80B582B000AF2F
:102570007860786800F0B0F9034618460837BD4621
:1025800080BD80B485B000AFF860B9607A60BB6888
:1025900093F900207B6893F900309A420CBF012325
:1025A0000023DBB218461437BD465DF8047B704744
:1025B00080B483B000AF78607B6818460C37BD46A6
:1025C0005DF8047B704780B582B000AF78607868B2
:1025D00000F08FF9034618460837BD4680BD80B528
:1025E00084B000AF78600B46FB7097F9032007F1C9
:1025F0000C0311461846FEF74BFE034618461037EB
:10260000BD4680BD80B586B000AFF860B9607A6025
:1026100007F114037A68B9681846FEF755FE0346B9
:1026200018461837BD4680BD80B586B000AFF8604B
:10263000B9607A603B60FB681A68BB689B00134412
:102640001B687B617B69002B01D100232DE07B6936
:102650001B683B613B6904333A687968F86800F0AD
:1026600053F90346002B01D07B691EE03B691B68D0
:10267000002B0CD03869FFF7A2FA03460433194641
:10268000F86800F05EF90246BB68934201D001236E
:1026900000E00023002B06D13B697B613869FFF71E
:1026A0008EFA3861D6E700BF002318461837BD46BA
:1026B00080BD80B483B000AF786039607B683A68D1
:1026C0001A607B6818460C37BD465DF8047B70477E
:1026D00080B483B000AF78607B6818460C37BD4685
:1026E0005DF8047B7047B0B584B000AFF860B960A6
:1026F0007A60FB681C68B868FFF7F5FD05467868E6
:1027000000F030F903461A462946204600F042F907
:10271000034618461037BD46B0BD80B584B000AF43
:10272000F860B9607A601A46B968F86800F06AF92A
:1027300000BF1037BD4680BD80B485B000AFF860E3
:10274000B9607A6000BF1437BD465DF8047B7047FE
:10275000B0B584B000AFF860B9607A60FB681A6801
:10276000BB689B0013441B68002B11D0FB681A68E0
:10277000BB689B0013441B681A687B681A60FB687F
:102780001A68BB689B0013441B687A681A6022E0D1
:10279000FB689A687B681A60FB687A689A607B6855
:1027A0001B68002B0FD07C68FB681D687868FFF7FA
:1027B00006FA034604331946F86800F0C2F80346E7
:1027C0009B002B441C60FB681A68BB689B00134489
:1027D000FA6808321A6000BF1037BD46B0BD80B439
:1027E00083B000AF78607B6818460C37BD465DF853
:1027F000047B704780B582B000AF7860786800F0E5
:1028000065F9034618460837BD4680BD80B483B0DD
:1028100000AF78607B6818460C37BD465DF8047BD6
:10282000704780B584B000AFF860B9607A607B68AB
:102830009B001946B86820F09FFE1037BD4680BD4A
:1028400080B483B000AF78607B6818460C37BD4613
:102850005DF8047B704780B483B000AF7860396066
:102860007B6818460C37BD465DF8047B704780B521
:1028700084B000AFF860B9607A60F86800F043F99E
:102880000246BB6893428CBF01230023DBB2002BBE
:1028900014BF01230023DBB2002B07D0BB68B3F1C8
:1028A000804F01D320F04AFF20F045FFBB689B001A
:1028B000184620F072FE034600BF18461037BD468A
:1028C00080BD80B483B000AF78607B6818460C3759
:1028D000BD465DF8047B704780B582B000AF78607C
:1028E0007B68184600F01BF9034618460837BD46BA
:1028F00080BD80B483B000AF78607B6818460C3729
:10290000BD465DF8047B704780B584B000AFF860C9
:10291000B9607A603B603968786800F00CF903466A
:10292000002B09D03A68B968F868FFF73CFC034609
:10293000002B01D0012300E0002318461037BD46CC
:1029400080BD80B582B000AF786039607B685B681D
:102950001A463968786800F0FAF8034618460837CE
:10296000BD4680BD80B483B000AF78607B681846F8
:102970000C37BD465DF8047B704780B582B000AF70
:1029800078607B681846FEF791FC7B68184608372C
:10299000BD4680BDF0B587B000AFF860B9607A6021
:1029A000F868FFF7ADFA03460121184600F0F1F888
:1029B0007861786900F025F938613B69194614207F
:1029C000FEF75AFC03461846FFF7D7FFF868FFF7F3
:1029D00097FA04463B6904331846FFF79DFA05460B
:1029E000B868FFF780FC06467868FFF7BBFF034630
:1029F00032462946204600F00FF93B6918461C373D
:102A0000BD46F0BD80B58AB000AFF860B9603A71DC
:102A1000B968F868FFF775F8F861F868FEF7F6FF2F
:102A20007862FB6800229A6000233B623EE0786A8D
:102A3000FFF7C5F8B8617B6A0433BA681946F868CD
:102A400000F085F878617B699B00FA6913441B6884
:102A5000002B1AD1FB689A687B6A1A60FB687A6A55
:102A60009A607B699B00FA691344FA6808321A601D
:102A70007B6A1B68002B05D03B6A9B00FA691344F4
:102A80007A6A1A607B693B620EE07B699B00FA6997
:102A900013441B681A687B6A1A607B699B00FA6999
:102AA00013441B687A6A1A60BB697B627B6A002BDD
:102AB000BDD1F868FEF748FFFB68BA685A60FB684A
:102AC000FA691A6000BF2837BD4680BD80B483B064
:102AD00000AF78607B6818460C37BD465DF8047B14
:102AE000704780B584B000AFF860B9607A607A68EA
:102AF00013469B0013449B001946B86820F03CFD28
:102B00001037BD4680BD80B483B000AF78606FF0F1
:102B1000604318460C37BD465DF8047B704780B5AE
:102B200082B000AF7860786800F08EF803461846EF
:102B30000837BD4680BD80B483B000AF786039608F
:102B4000012318460C37BD465DF8047B704780B5FD
:102B500086B000AFF860B9607A60BB681846FFF7CE
:102B600004FD024607F1140311461846FFF7FFF86B
:102B700003461946F86800F072F8014607F11003A1
:102B80007A681846FEF7A0FB034618461837BD467C
:102B900080BDB0B584B000AF786039607B68FB6001
:102BA0003B68BB60FEF760FB0346002B1DD0BB6893
:102BB00000211422A3FB02454FF000024FF0000356
:102BC0002A000023002A00D001212346BB600B46C7
:102BD00003F00103DBB2002B01D020F0AFFDBB6896
:102BE000184620F0DAFC034607E0BB6800221946CD
:102BF000F86800F067F8034600BF18461037BD4676
:102C0000B0BD80B483B000AF78607B6818460C37E5
:102C1000BD465DF8047B704790B585B000AFF860A5
:102C2000B9607A603B607868FFF75DFB04463868FE
:102C3000FFF798FE03461A462146B86800F024F8CC
:102C400000BF1437BD4690BD80B483B000AF78603C
:102C50007B6818460C37BD465DF8047B704780B52D
:102C600082B000AF786039607868FFF7ACFC02464C
:102C70003B6893F9003019461046FFF7B0FC034655
:102C800018460837BD4680BDB0B584B000AFF860C7
:102C9000B9607A60FB6819461020FEF7EDFA044629
:102CA000B868FFF720FB05467868FFF75BFE034630
:102CB0001A4629462046FEF73AFB234618461037A7
:102CC000BD46B0BD80B584B000AFF860B9607A6031
:102CD000F86800F027F80246BB6893428CBF0123D6
:102CE0000023DBB2002B14BF01230023DBB2002B37
:102CF00007D0BB680A4A934201D920F01FFD20F09B
:102D00001AFDBA6813469B0013449B00184620F036
:102D100044FC034600BF18461037BD4680BD00BFC7
:102D2000CCCCCC0C80B483B000AF7860034B184699
:102D30000C37BD465DF8047B704700BF66666606CB
:102D400080B582B000AF78607B681846FEF77EFDE4
:102D50007B6818460837BD4680BD000080B5C8B006
:102D600004AF07F58873A3F58673186007F58873B9
:102D7000A3F58873196007F58873A3F586731B683C
:102D8000012B40F0F58007F58873A3F588731B6865
:102D90004FF6FF72934240F0EB8007F11403F022EC
:102DA0000021184621F06EFD7D4BBB6101233B776E
:102DB000122387F82030012387F82430794BBB6237
:102DC000012387F82C30122387F83030022387F84C
:102DD0003430754BBB63012387F83C30122387F8EE
:102DE0004030032387F84430704BBB64012387F8DD
:102DF0004C30122387F85030042387F854306C4B42
:102E0000BB65012387F85C30122387F86030052307
:102E100087F86430674BBB66012387F86C30122358
:102E200087F87030062387F87430634BBB67012343
:102E300087F87C30122387F88030072387F88430A6
:102E40005E4BC7F88830012387F88C30122387F84F
:102E50009030082387F894304DF20D13A7F898307E
:102E6000602387F8A030092387F8A4304DF20713B8
:102E7000A7F8A830602387F8B0300A2387F8B43069
:102E80004DF21213A7F8B830602387F8C0300B2337
:102E900087F8C4304DF20613A7F8C830602387F8CE
:102EA000D0300C2387F8D4304DF21F13A7F8D83058
:102EB000602387F8E0300D2387F8E4304DF65C138B
:102EC000A7F8E830782387F8F0300E2387F8F4303D
:102ED0004DF67713A7F8F830782387F8003107F517
:102EE0008873A3F5827307F114021A6007F58873DB
:102EF000A3F582730F225A6007F586731846FEF712
:102F000023FC07F58873A3F5827207F58673029395
:102F100007F58473019307F582730093002306CAB3
:102F20002748FEF728FC07F586731846FEF718FCBD
:102F300000221C21402011F070FC0346214A13603E
:102F400000221C21102011F068FC03461E4A136069
:102F500000221C21102011F060FC03461B4A136064
:102F600000221C21042011F058FC0346184A13606B
:102F700007F58873A3F586731B68002B0BD107F543
:102F80008873A3F588731B684FF6FF72934202D1D2
:102F90000B48FFF7D5FE00BF07F58877BD4680BD1B
:102FA00002010244020107480101004301010946F0
:102FB000010104420201084202011A480101294AA2
:102FC000B4000010CC010010D0010010D40100109A
:102FD000D801001080B500AF4FF6FF710120FFF758
:102FE000BDFE80BD80B500AF4FF6FF710020FFF73A
:102FF000B5FE80BD80B582B000AF104BD3F8F43081
:103000000E4A43F00203C2F8F4300C4BD3F8F4300C
:1030100003F002037B607B6800220F216FF0010048
:1030200009F02CFE002207217E2009F027FE7E20D9
:1030300009F03EFE00BF0837BD4680BD004402587F
:1030400080B5BCB000AF786007F1DC0300221A60E5
:103050005A609A60DA601A6107F11003C8220021F1
:10306000184621F00FFC7B681B68274A934246D123
:103070004FF010024FF00003C7E904230023C7F804
:10308000AC3007F1100318460CF068FE0346002B25
:1030900001D0FEF753FB1D4BD3F8E0301B4A43F041
:1030A0000803C2F8E030194BD3F8E03003F008030E
:1030B000FB60FB684FF44053C7F8DC301223C7F8BD
:1030C000E0300023C7F8E4300023C7F8E8300423D9
:1030D000C7F8EC3007F1DC0319460D480BF088FB0C
:1030E0000A4BD3F8F430094A43F08003C2F8F430B5
:1030F000064BD3F8F43003F08003BB60BB6800BF1D
:10310000F037BD4680BD00BF001C00580044025887
:10311000000C025880B582B000AF78607B681B68F5
:103120000C4A934211D10C4BD3F8F4300A4A23F0E5
:103130008003C2F8F4304FF4805108480BF008FDCA
:103140004FF4005105480BF003FD00BF0837BD46A2
:1031500080BD00BF001C005800440258000C0258FB
:1031600080B5BCB000AF786007F1DC0300221A60C4
:103170005A609A60DA601A6107F11003C8220021D0
:10318000184621F07FFB7B681B68274A934246D193
:103190004FF001024FF00003C7E904230023C7F8F2
:1031A000903007F1100318460CF0D8FD0346002BB1
:1031B00001D0FEF7C3FA1D4BD3F8F0301B4A43F0A1
:1031C0001003C2F8F030194BD3F8F03003F01003BD
:1031D000FB60FB68154BD3F8E030144A43F0010361
:1031E000C2F8E030114BD3F8E03003F00103BB60CC
:1031F000BB684FF4C063C7F8DC300223C7F8E03087
:103200000023C7F8E4300023C7F8E8300723C7F8E5
:10321000EC3007F1DC03194605480BF0E9FA00BF72
:10322000F037BD4680BD00BF001001400044025889
:103230000000025880B590B000AF78607B680F2B1B
:1032400027D800227968362009F018FD362009F0C9
:103250002FFD294A7B681360284BD3F8E830274AB2
:1032600043F01003C2F8E830244BD3F8E83003F001
:103270001003FB60FB6807F1100207F1140311460D
:1032800018460CF029FDBB6ABB63BB6B002B06D153
:1032900001E001232BE00CF0F3FCF86304E00CF0F8
:1032A000EFFC03465B00FB63FB6B154AA2FB0323A9
:1032B0009B0C013B7B63134B134A1A60114B40F28A
:1032C000E732DA600F4A7B6B53600E4B00221A61C3
:1032D0000C4B00229A600B480EF0ACFB0346002B0F
:1032E00004D108480EF008FC034600E0012318460C
:1032F0004037BD4680BD00BF1C000010004402588E
:1033000083DE1B43DC0100100010004080B400AFDE
:1033100000BFFDE780B400AF00BFFDE780B400AFA1
:1033200000BFFDE780B400AF00BFFDE780B400AF91
:1033300000BFFDE780B400AF00BFBD465DF8047B71
:103340007047000080B500AF02480EF04DFC00BF92
:1033500080BD00BFDC01001080B500AF02480AF05C
:103360009FF800BF80BD00BF1803001080B500AFFC
:1033700002480AF095F800BF80BD00BF1803001096
:1033800080B500AF0BF038FD00BF80BD80B400AF4A
:1033900001231846BD465DF8047B704780B483B0B6
:1033A00000AF78603960054B16221A604FF0FF338A
:1033B00018460C37BD465DF8047B704750E6001098
:1033C00080B582B000AF78604FF0FF317868FFF7CA
:1033D000E5FF00BFFDE780B586B000AFF860B960DB
:1033E0007A6000237B610AE0AFF300800146BB688E
:1033F0005A1CBA60CAB21A707B6901337B617A6960
:103400007B689A42F0DB7B6818461837BD4680BD62
:1034100080B586B000AFF860B9607A6000237B6148
:1034200009E0BB685A1CBA601B781846FEF762F9BF
:103430007B6901337B617A697B689A42F1DB7B6847
:1034400018461837BD4680BD80B483B000AF7860A1
:103450004FF0FF3318460C37BD465DF8047B7047CC
:1034600080B483B000AF786039603B684FF400529D
:103470005A60002318460C37BD465DF8047B704740
:1034800080B483B000AF7860012318460C37BD4686
:103490005DF8047B704780B485B000AFF860B96018
:1034A0007A60002318461437BD465DF8047B7047E8
:1034B00080B487B000AF7860144A154BD31A7B6193
:1034C0007B693B61134B1B68002B02D1114B124AE5
:1034D0001A60104B1A687B6813443A699A4205D205
:1034E0000E4B0C221A604FF0FF3309E0094B1B68AA
:1034F000FB60084B1A687B681344064A1360FB683C
:1035000018461C37BD465DF8047B704700800410E8
:10351000001000002802001058E6001050E60010CD
:1035200080B400AF00231846BD465DF8047B7047A9
:1035300080B483B000AF78600B46FB7013463B80CD
:103540007B6800221A707B68013300221A707B6846
:10355000023300221A707B68033305221A707B68DD
:10356000043300221A707B68053301221A707B68CD
:103570000633F4221A707B680733FA781A707B6876
:10358000083322221A703B881B0A9AB27B680933DF
:10359000D2B21A707B680A333A88D2B21A7000BF6E
:1035A0000C37BD465DF8047B704780B483B000AF34
:1035B00078600B46FB707B6800221A707B680133D1
:1035C00000221A707B68023300221A707B68033372
:1035D00006221A707B68043300221A707B68053358
:1035E00001221A707B680633F4221A707B68073355
:1035F000FA781A707B6808332C221A707B680933BA
:1036000003221A707B680A33F3221A707B680B332B
:1036100000221A7000BF0C37BD465DF8047B70476E
:1036200080B485B000AFF8600B467A60FB72FB682F
:1036300000221A70FB68013300221A70FB68023303
:1036400000221A70FB6803330A221A70FB680433E5
:1036500000221A70FB68053301221A70FB680633DA
:10366000F4221A70FB680733FA7A1A70FB68083381
:103670002C221A70FB68093301221A70FB680A3386
:10368000F3221A70FB680B3300221A707B681A0E43
:10369000FB680C33D2B21A707B681A0CFB680D33CE
:1036A000D2B21A707B681A0AFB680E33D2B21A7053
:1036B000FB680F337A68D2B21A7000BF1437BD4668
:1036C0005DF8047B70470000B0B58CB000AFF860C7
:1036D000B9607A60FB70002387F82F30032387F8E6
:1036E0002830002387F8293097F903300E2B00F299
:1036F000778101A252F823F035371008613710089E
:103700008D371008A7371008C1371008DB371008AD
:1037100007381008333810084D381008853810085D
:10372000B1381008DD381008093910086F39100851
:103730009B3910087B68012B03D8012387F82F30B1
:1037400053E100233B74BB681B781B021AB2BB68B1
:1037500001331B781BB213431BB29BB2BB8244E103
:103760007B68012B03D8012387F82F303DE101232B
:103770003B74BB681B781B021AB2BB6801331B7811
:103780001BB213431BB29BB2BB822EE17B68002BA2
:1037900003D1012387F82F3027E102233B74BB6854
:1037A0001B783B7521E17B68002B03D1012387F84F
:1037B0002F301AE103233B74BB681B783B7514E17F
:1037C0007B68002B03D1012387F82F300DE1042300
:1037D0003B74BB681B783B7507E17B68012B03D802
:1037E000012387F82F3000E105233B74BB681B7869
:1037F0001B021AB2BB6801331B781BB213431BB206
:103800009BB2BB82F1E07B68012B03D8012387F8D0
:103810002F30EAE006233B74BB681B781B021AB208
:10382000BB6801331B781BB213431BB29BB2BB8234
:10383000DBE07B68002B03D1012387F82F30D4E035
:1038400007233B74BB681B783B75CEE07B68032B7A
:1038500003D8012387F82F30C7E008233B74BB68E7
:103860001B781A06BB6801331B781B041A43BB681C
:1038700002331B781B021343BA68033212781343D6
:103880007B61B2E07B68012B03D8012387F82F30DE
:10389000ABE009233B74BB681B781B021AB2BB6800
:1038A00001331B781BB213431BB29BB2BB829CE05B
:1038B0007B68012B03D8012387F82F3095E00A237A
:1038C0003B74BB681B781B021AB2BB6801331B78C0
:1038D0001BB213431BB29BB2BB8286E07B68012BF9
:1038E00003D8012387F82F307FE00B233B74BB689C
:1038F0001B781B021AB2BB6801331B781BB213433F
:103900001BB29BB2BB8270E07B68082B03D80123FB
:1039100087F82F3069E00C233B74BB681B781A04CE
:10392000BB6801331B781B021343BA68023212785A
:1039300013437B61BB6803331B781A04BB680433F1
:103940001B781B021343BA68053212781343BB611C
:10395000BB6806331B781A04BB6807331B781B024D
:103960001343BA68083212781343FB613DE07B6869
:10397000012B03D8012387F82F3036E00D233B7449
:10398000BB681B781B021AB2BB6801331B781BB2E1
:1039900013431BB29BB2BB8227E07B68032B03D887
:1039A000012387F82F3020E00E233B74BB681B787F
:1039B0001B021AB2BB6801331B781BB213431BB244
:1039C0009BB2BB82BB6802331B781B021AB2BB6876
:1039D00003331B781BB213431BB29BB2FB8204E080
:1039E0002946F86800F048F815E097F82F30002BCA
:1039F0000BD0FDF7C5FA034609491846FDF7E8FA6A
:103A00002146F86800F038F805E007F11003194680
:103A1000F86800F03FF8F8683037BD46B0BD00BF29
:103A2000A04D120880B582B000AF78607B68184660
:103A300000F044F87B6800221A777B681846083744
:103A4000BD4680BD80B582B000AF78607B68184607
:103A5000FFF7E8FF7B6818460837BD4680BD80B594
:103A600082B000AF78607B681846FFF7EBFF7B6899
:103A700018460837BD4680BD80B582B000AF78607B
:103A800039707B681846FFF7EAFF7B6818460837ED
:103A9000BD4680BDB0B582B000AF786039607C684B
:103AA000386800F016F803461A462946204600F00A
:103AB0002CF87B6818460837BD46B0BD80B483B08B
:103AC00000AF78607B6818460C37BD465DF8047B14
:103AD000704780B483B000AF78607B6818460C37BD
:103AE000BD465DF8047B704790B585B000AFF860C7
:103AF00039727A60FB687A682146184600F01AF835
:103B0000FB6818461437BD4690BDB0B584B000AF11
:103B1000F86039727A60FC687868FFF7DAFF03466C
:103B20001A4629462046FFF7DFFFFB681846103784
:103B3000BD46B0BDB0B584B000AFF86039727A60F0
:103B4000FC687868FFF7C5FF03461A4629462046F9
:103B500000F008F8FB6801221A77FB681846103756
:103B6000BD46B0BDB0B584B000AFF86039727A60C0
:103B70007868FFF7AEFF0246FB681C4615460FCD7E
:103B80000FC495E8070084E80700FB681846103763
:103B9000BD46B0BD80B5C8B004AF07F58873A3F5C6
:103BA0008673186007F58873A3F58873196007F5A5
:103BB0008873A3F586731B68012B40F0D58007F549
:103BC0008873A3F588731B684FF6FF72934240F029
:103BD000CB8007F11403F0220021184620F052FE9A
:103BE0006D4BBB6101233B77122387F82030012303
:103BF00087F82430694BBB62012387F82C301223ED
:103C000087F83030022387F83430654BBB630123DB
:103C100087F83C30122387F84030032387F844307C
:103C2000604BBB64012387F84C30122387F8503077
:103C3000042387F854305C4BBB65012387F85C3064
:103C4000122387F86030052387F86430574BBB6632
:103C5000012387F86C30122387F87030062387F829
:103C60007430534BBB67012387F87C30122387F8ED
:103C70008030072387F884304E4BC7F88830012303
:103C800087F88C30122387F89030082387F8943017
:103C90004DF20D13A7F89830602387F8A030092360
:103CA00087F8A4304DF20713A7F8A830602387F8EF
:103CB000B0300A2387F8B4304DF21213A7F8B830A9
:103CC000602387F8C0300B2387F8C4304DF2061309
:103CD000A7F8C830602387F8D0300C2387F8D43099
:103CE0004DF21F13A7F8D830602387F8E0300D237A
:103CF00087F8E4304DF65C13A7F8E830782387F8AE
:103D0000F0300E2387F8F4304DF67713A7F8F8302B
:103D1000782387F8003107F58873A3F5827307F1DC
:103D200014021A6007F58873A3F582730F225A6094
:103D300007F586731846FDF707FD07F58873A3F5A9
:103D4000827207F58673029307F58473019307F572
:103D500082730093002306CA1748FDF70CFD07F590
:103D600086731846FDF7FCFC07F58873A3F5867388
:103D70001B68002B0BD107F58873A3F588731B68AC
:103D80004FF6FF72934202D10B48FEF7D9FF00BFF6
:103D900007F58877BD4680BD02010244020107484D
:103DA00001010043010109460101044202010842E8
:103DB00002011A480101294A2C02001080B500AF07
:103DC0004FF6FF710120FFF7E5FE80BD80B500AF23
:103DD0004FF6FF710020FFF7DDFE80BD80B582B099
:103DE00000AF78601FF0FCFD80B582B000AF0346E5
:103DF000FB71FB79002B03D00548FFF7EFFF02E0D2
:103E00000448FFF7EBFF00BF0837BD4680BD00BF89
:103E1000E84D1208084E120880B500AF1FF0E0FD13
:103E200080B485B000AF02237B6000233B70012388
:103E30007B700223FB600023BB600FE03A46BB6847
:103E400013441B78002B06D0FB68012B01D80223FA
:103E500008E0BB68FB60BB680133BB60BB68012B3B
:103E6000ECD9FB6818461437BD465DF8047B7047F3
:103E700080B485B000AF02237B6001233B70002338
:103E80007B700223FB600023BB600FE03A46BB68F7
:103E900013441B78002B06D0FB68012B01D80223AA
:103EA00008E0BB68FB60BB680133BB60BB68012BEB
:103EB000ECD9FB6818461437BD465DF8047B7047A3
:103EC00080B500AF104B1B68BFF35B8F03F001039D
:103ED000002B0CBF01230023DBB2002B10D00A48BB
:103EE0001FF04CFB0346002B14BF01230023DBB261
:103EF000002B05D0054800F00BF803481FF04AFBE3
:103F0000024B184680BD00BF74020010640200100E
:103F100080B483B000AF78607B6800225A607B6811
:103F200000229A607B68FF221A737B6800225A7312
:103F30007B6818460C37BD465DF8047B704780B53A
:103F400088B002AFF860B9607A60FB70FFF7B8FF25
:103F5000786197F9033000937B68BA68F9687869EB
:103F600000F080FC002318461837BD4680BD80B5A0
:103F700086B000AFF860B9601346FB71FFF7A0FF91
:103F8000786197F90730BA68F968786900F066FDDA
:103F9000002318461837BD4680BD80B584B000AFF9
:103FA00078600B46FB70FFF78BFFF86097F90330E2
:103FB0001A467968F86800F0AFFD00BF1037BD46BB
:103FC00080BD80B588B002AFF860B9607A603B60B0
:103FD000FFF776FF78613B8C01933B6800937B6829
:103FE000BA68F968786900F025F900BF1837BD464E
:103FF00080BD000080B586B000AF7860234B7B6148
:1040000007F10C031946224815F0F2FB4FF4207219
:104010005E21362017F098FC38613B69002B08D1EF
:10402000FCF7AEFF03461B491846FCF7D1FF0023FF
:1040300027E03B695B685E221449184620F071FD59
:104040007B68586807F10C0240F26C7339691EF006
:10405000A9FF0346002B14BF01230023DBB2002B72
:104060000BD0FCF78DFF03460B491846FCF7B0FF59
:10407000386917F04BFF002303E0386917F046FF5B
:10408000012318461837BD4680BD00BF2C4E1208CC
:104090008C4E12089C4E1208C04E1208F0B58FB01C
:1040A00000AF7860304B07F110041D460FCD0FC4F0
:1040B0000FCD0FC42B68238000237B8607F10C03F0
:1040C00019462A4815F094FB4FF42072242136201B
:1040D00017F03AFC78637B6B002B08D1FCF750FF9C
:1040E000034623491846FCF773FF002337E07B6B38
:1040F0005B6807F110049C4604F1200E65462646D5
:104100000FCE28606960AA60EB6010340CF1100CCF
:104110007445F3D163462246106818607B6858687E
:1041200007F10C0240F2AB13796B1EF03BFF034624
:10413000002B14BF01230023DBB2002B0BD0FCF7B4
:104140001FFF03460B491846FCF742FF786B17F038
:10415000DDFE002303E0786B17F0D8FE012318463C
:104160003C37BD46F0BD00BF304F1208E04E12088C
:10417000F04E1208144F120880B586B000AF786078
:10418000284A07F10C0392E80300186004331980F1
:1041900002330A0C1A7007F108031946224815F079
:1041A00027FB4FF420720621362017F0CDFB7861F3
:1041B0007B69002B08D1FCF7E3FE03461B49184638
:1041C000FCF706FF002328E07B695B6807F10C0120
:1041D0000622184620F0A5FC7B68586807F1080203
:1041E00041F69B2379691EF0DDFE0346002B14BFC8
:1041F00001230023DBB2002B0BD0FCF7C1FE0346EA
:104200000B491846FCF7E4FE786917F07FFE00239F
:1042100003E0786917F07AFE012318461837BD4687
:1042200080BD00BFA04F1208E04E1208544F120884
:104230007C4F120890B5A5B000AFF860B9607A6005
:104240003B603B68002B07D1FCF79AFE03469F4971
:104250001846FCF7BDFECAE1FCF792FE0446D7F80B
:10426000A00015F0EFFB0246B7F8A43098492046AD
:10427000FCF7AEFE3B685B89052B0BD8FCF780FE94
:104280003B685B891A469349FCF7A2FE386817F031
:104290003DFEACE13B685B68C7F88830D7F88830F2
:1042A0001B78002B11D1D7F8883001331B78002BF5
:1042B0000BD1D7F8883002331B78002B05D1D7F803
:1042C000883003331B78322B0AD0FCF759FE0346A3
:1042D00081491846FCF77CFE386817F017FE86E126
:1042E000D7F888301B781A06D7F8883001331B7846
:1042F0001B041A43D7F8883002331B781B02134380
:10430000D7F88820033212781343C7F88430D7F8DF
:10431000843006333A68528993420CD9FCF730FE58
:104320003B685B89D7F884206C49FCF751FE3868FC
:1043300017F0ECFD5BE13B685B890E2B40F24C8192
:10434000D7F888300E33C7F880303B685B890E3B66
:10435000FB676349D7F8800020F0AFFAB86761497E
:10436000D7F8800020F0A9FA7867BB6F002B00F027
:104370002B817B6F002B00F02781BB6F0333BB6762
:104380007B6F03337B67BB6F03F10C02D7F88010A0
:10439000FB6F0B449A4200F2AF8000233B6607F1AB
:1043A000640300221A605A601A7207F160030C223B
:1043B000B96F184620F06EFAFCF7E2FD07F16003D2
:1043C0001A464949FCF704FE0023BB650023A7F801
:1043D0005C300023C7F88C3046E007F14C03002125
:1043E0000A461A800A469A70D7F88C305B009033E0
:1043F0003B4413F8303C87F84C30D7F88C305B00E6
:10440000013390333B4413F8303C87F84D3007F1CB
:10441000480107F14C03102218461FF05FFC386773
:10442000BB6C1B78002B05D13B6F002B02DB3B6F75
:10443000FF2B0BDDFCF7A4FD07F14C031A462B49BB
:10444000FCF7C6FD386817F061FDD0E03B6FD9B2CC
:1044500007F15802D7F88C3013440A461A70D7F87F
:104460008C300133C7F88C30D7F88C30052BB4DD95
:1044700007F1500307F1580292E803001860043373
:10448000198007F150031946D7F8A00013F0C0FEB9
:104490000346002B0CBF01230023DBB2002B0CD002
:1044A000FCF76EFD034612491846FCF791FDFB68C8
:1044B000D7F8A02012681A6025E0FCF761FD0346DA
:1044C0000C491846FCF784FD1DE000BFA84F1208F8
:1044D000D84F1208F84F12082C50120858501208E2
:1044E000885012088C50120890501208AC501208D4
:1044F000D4501208FC501208FCF742FD03463D4917
:104500001846FCF765FD7B6F03F11102D7F88010A8
:10451000FB6F0B449A424FD800237B6307F13803AB
:1045200000221A605A609A609A8107F134031122BE
:10453000796F184620F0AEF9FCF722FD07F134033D
:104540001A462D49FCF744FD022387F833302B4BE4
:10455000186807F13301002342F2107210F0E2FAFA
:104560000346012B14BF01230023DBB2002B09D02B
:10457000FCF706FD034697F8332021491846FCF75F
:1045800027FD34E080233B75032387F82C3000237C
:1045900087F82D3007F1140304331122796F184680
:1045A00020F078F9174B186807F11401002342F244
:1045B000107210F0B7FA17E0FCF7E2FC034612495C
:1045C0001846FCF705FD0FE0FCF7DAFC03460F493F
:1045D0001846FCF7FDFC07E0FCF7D2FC3B685B8962
:1045E0001A460B49FCF7F4FC386817F08FFC943737
:1045F000BD4690BD2051120850511208940200107F
:1046000064511208CC010010A0511208C8511208C0
:10461000FC51120880B582B000AF78601EF062FFD6
:1046200002467B685A607B685B68002B0ED07B6813
:104630005B6800220B4918461EF06AFE7B685B68C7
:104640000022094918461EF0EBFE06E0FCF798FC34
:10465000034606491846FCF7BBFC00BF0837BD46B9
:1046600080BD00BFE8851208C33F10084052120801
:1046700080B582B000AF78607B685B68002B16D095
:104680007B685B680022002118461EF0C9FE7B682B
:104690005B6818461EF0E4FE7B6800225A60FCF757
:1046A0006FFC034607491846FCF792FC06E0FCF74E
:1046B00067FC034604491846FCF78AFC00BF08372C
:1046C000BD4680BD5C5212088852120880B584B085
:1046D00000AF78603A4817F05BFF19F08FFB024695
:1046E0007B689A607B689B68002B0BD1FCF748FCC9
:1046F000034634491846FCF76BFC314817F057FF66
:10470000002359E07B689B685A8B7B689B6842F06A
:10471000400292B25A837B689B6800222A4918465D
:1047200018F096FA0346FB7397F90F30002B0FD061
:10473000FCF726FC97F90F301A462449FCF748FC91
:10474000786800F04DF81E4817F031FF002333E081
:104750007B689B680021184619F058FB7B689B68B2
:104760001B49184619F064FB7B689B681949184679
:1047700019F080FB7B6898687968174B41F69122A5
:1047800018F0ECFB0346BB7397F90E30002B0FD0EB
:10479000FCF7F6FB97F90E301A461049FCF718FCA7
:1047A000786800F01DF8064817F001FF002303E0C9
:1047B000034817F0FCFE012318461037BD4680BDA4
:1047C000F4E40010B4521208E8851208D05212081E
:1047D0003F3F10089B3F10086F3F1008EC52120833
:1047E00080B582B000AF78601B4817F0D1FE7B68BF
:1047F0009B68002B21D07B689B680021184619F02C
:1048000005FB7B689B680021184619F011FB7B684B
:104810009B680021184619F02DFB7B689B681846A1
:1048200018F020F97B6800229A60FCF7A9FB034688
:104830000A491846FCF7CCFB06E0FCF7A1FB03464F
:1048400007491846FCF7C4FB034817F0B0FE00BF49
:104850000837BD4680BD00BFF4E400100C531208B9
:10486000385312082DE9F0438BB000AFF860B960FF
:104870007A603B606B461E463B68002B03D097F97D
:104880004830002B3CD0FB689B680021184619F08B
:10489000BDFAFB689B680021184619F0C9FAFB684D
:1048A0009B680021184619F0E5FAFB689B681846DA
:1048B00018F0D8F8FB6800229A60FCF761FB034609
:1048C00061491846FCF784FB04233B755F4B18686D
:1048D00007F1140100235E4A10F024F90346012B6E
:1048E00014BF01230023DBB2002B00F0A880FCF7EB
:1048F00047FB03463A7D57491846FCF769FB9EE0A3
:104900003B685B897B62796A0B46013B3B62002313
:10491000884699464FF000024FF000034FEAC90362
:1049200043EA58734FEAC80200230C461D464FF075
:1049300000024FF00003EB0043EA5473E200CB1D8A
:10494000DB08DB00ADEB030D6B460033FB613B681E
:104950005B687A6A1946F86920F0E3F8FB689A68A0
:104960003B685B891946104618F064FA386817F0FE
:10497000CDFAFB691B781A06FB695B781B041A43A6
:10498000FB699B781B021343FA69D2781343BB611E
:10499000BB6906337A6A9A4207D2FCF7F1FA7B6A5E
:1049A000BA692D49FCF714FB49E0FB699B79FB755B
:1049B000FB69DB79BB75BB7DF42B3FD1FB691B7AAF
:1049C0007B757B7D7F2B21D07B7D7F2B33D87B7DBF
:1049D000622B03D07B7D6C2B0DD02CE0FB6903F1A7
:1049E0000B01BB69053B1A46F86800F035F9FB6816
:1049F00000225A7320E0FB690933FA7D1946F868F2
:104A000000F0A2F9FB6800225A7315E0FB685B7B9B
:104A10000133DAB2FB685A73FB685B7B092B0AD956
:104A20000423FB74094B186807F11301002342F2B9
:104A3000107210F077F800BFB54601E000BFB54630
:104A40002C37BD46BDE8F0836C5312089402001069
:104A5000A0860100645112085850120880B586B033
:104A600000AFF860B9607A60FB7097F90330002BF3
:104A700022D0FCF785FA97F903301A462149FCF752
:104A8000A7FA0423FB75204B186807F117010023D0
:104A90001E4A10F047F80346012B14BF01230023E0
:104AA000DBB2002B29D0FCF76BFA0346FA7D1849DC
:104AB0001846FCF78DFA20E0FCF762FA0346154928
:104AC0001846FCF785FA0323BB750F4B186807F1EE
:104AD000160100230D4A10F025F80346012B14BFE0
:104AE00001230023DBB2002B07D0FCF749FA034671
:104AF000BA7D07491846FCF76BFA00BF1837BD4668
:104B000080BD00BF9453120894020010A0860100DB
:104B100064511208B853120880B586B000AFF8602F
:104B2000B9601346FB71FCF72BFA97F907301A4668
:104B30001049FCF74DFA0423FB750F4B186807F179
:104B4000170100230D4A0FF0EDFF0346012B14BFA0
:104B500001230023DBB2002B07D0FCF711FA034638
:104B6000FA7D07491846FCF733FA00BF1837BD46EF
:104B700080BD00BFCC53120894020010A086010033
:104B80006451120880B586B000AFF860B9607A60F1
:104B9000FB70FB7883F00103DBB2002B02D01B48D3
:104BA00017F0F6FCFB6898687B689AB20123B96835
:104BB0001BF0FEFF0346FB7597F91730002B12D050
:104BC000FCF7DEF997F917301A461149FCF700FA9D
:104BD000FB7883F00103DBB2002B02D00B4817F007
:104BE000E6FC00230EE0FB689B6818461CF0CAFD3B
:104BF000FB7883F00103DBB2002B02D0034817F0EF
:104C0000D6FC012318461837BD4680BDF4E40010D9
:104C1000E853120880B582B000AF7860786800F081
:104C20000EF80346002B04D0786800F0C8F903465C
:104C300001E0FFF7F1F818460837BD4680BD80B4A3
:104C400083B000AF78607B681B7F18460C37BD4689
:104C50005DF8047B70470000B0B594B000AFF86019
:104C6000B9607A60FB6893F90C3007F130007A681C
:104C7000B968FEF729FD07F13003184600F093F9F3
:104C80000346002B17D007F130031846FFF7C2FF89
:104C9000034607F110041D460FCD0FC495E8070029
:104CA00084E80700144B186807F11001002342F252
:104CB00010720FF037FF082387F82F300F4B18685A
:104CC00007F12F0100230E4A0FF02CFF0346012BA2
:104CD00014BF01230023DBB2002B08D0FCF750F9EE
:104CE000034697F82F2007491846FCF771F900BFD3
:104CF0005037BD46B0BD00BFCC010010940200107B
:104D0000A08601006451120890B583B000AF7860AE
:104D1000786800F00DF80446FFF782F803469C42DD
:104D20000CBF01230023DBB218460C37BD4690BDF3
:104D300080B483B000AF78607B681B7918460C376D
:104D4000BD465DF8047B704780B594B000AFF86055
:104D5000B9601346FB71BB681B7887F84F3097F832
:104D60004F30012B65D097F84F30032B7BD11023A8
:104D7000BB6400233B6307F1340300221A605A60CE
:104D80009A60FB680C331946394800F037F903463E
:104D9000FB62374800F041F903463B6407F14002EB
:104DA00007F12C0311461846FDF7DCF90346002BEA
:104DB00009D0FCF7E5F8FB6893F90C301A462D4949
:104DC000FCF706F950E007F12C03184600F032F921
:104DD000024607F12003043207CA83E8070007F1FF
:104DE00020031846FFF790FF034683F00103DBB270
:104DF000002B09D0FCF7C4F8FB6893F90C301A4675
:104E00001D49FCF7E5F82FE007F12003184600F0F4
:104E100020F903461A68F97907F130031846FEF7BE
:104E2000FFFB07F1300101231022F868FFF7AAFE0B
:104E30001AE00B237B6400237B6107F11803002237
:104E40001A60C3F80320F97907F114034FF4734291
:104E50001846FEF76DFB07F1140101230B22F868D9
:104E6000FFF790FE00E000BF5037BD4680BD00BF99
:104E700048020010085412084054120890B591B02E
:104E800000AF78600B46FB7097F903207B681A73BC
:104E9000FB1C1946374800F0B1F803463B63354820
:104EA00000F0BBF803467B6307F1340207F13003DF
:104EB00011461846FDF756F90346002B09D0FCF7BA
:104EC0005FF8034697F903202B491846FCF780F852
:104ED0004CE007F13003184600F0ACF8024607F149
:104EE0002403043207CA83E8070007F124031846A5
:104EF00000F0BDF80346002B20D00B23BB6300233A
:104F0000BB6107F11C0300221A60C3F8032097F865
:104F10002C4007F12403184600F0BDF803461A8818
:104F200007F1180321461846FEF702FB07F11801A6
:104F300000230B227868FFF725FE17E00C23FB63A4
:104F40000023FB6007F1100300221A605A6097F8F3
:104F50002C2007F10C0311461846FEF726FB07F13B
:104F60000C0100230C227868FFF70CFE4437BD4685
:104F700090BD00BF480200108854120880B582B06E
:104F800000AF78607868FFF735F87868FFF786F843
:104F90007868FFF7F1F84FF496700EF0B6FA00BF9C
:104FA0000837BD4680BD80B582B000AF78607868B4
:104FB000FFF745FE034618460837BD4680BD80B55D
:104FC00082B000AF7860FCF74FF90346002B0AD09F
:104FD0007868FFF734FE034683F00103DBB2002B51
:104FE00001D0012300E00023002B7B68184600F06D
:104FF00060F8034618460837BD4680BD80B582B0CC
:1050000000AF786039607B683968184600F05CF85A
:10501000034618460837BD4680BD80B582B000AF54
:1050200078607B68184600F0ADF8034618460837EC
:10503000BD4680BD80B582B000AF78607B681B68DC
:1050400004331846FCF768FF034618460837BD4688
:1050500080BD80B584B000AF78600123FB607868C4
:1050600000F0BFF8034618461037BD4680BD90B526
:1050700083B000AF78607868FFF75AFE0446FEF709
:10508000F7FE03469C420CBF01230023DBB2184607
:105090000C37BD4690BD80B584B000AF786000236A
:1050A000FB60786800F0DBF8034618461037BD4611
:1050B00080BD80B483B000AF78607B6818460C3741
:1050C000BD465DF8047B704790B589B000AF78604D
:1050D00039607868FDF711F80446FDF71AF80346C1
:1050E0009C4294BF01230023DBB2002B2ED07868B2
:1050F00000F0D3F80346FB6010E0FB6804331A4667
:105100003968786800F0E9F80346002B01D0FB68A5
:1051100034E007F10C03184600F0D2F8786800F08C
:1051200031F803463B6107F1100207F10C03114609
:105130001846FDF717F8034683F00103DBB2002B96
:10514000DBD1786800F01EF8034617E0396878680C
:10515000FDF785FDF861F9697868FDF772F8B861C7
:10516000FB693A68B969786800F0D7F8024607F138
:1051700014031146184600F0E9F87B6918462437F5
:10518000BD4690BD80B584B000AF786007F10C03D8
:105190000021184600F0DAF8FB6818461037BD46C3
:1051A00080BD80B582B000AF7860786800F0F8F814
:1051B0000346184600F0FFF8034618460837BD4678
:1051C00080BD80B582B000AF7860786800F0DDF80F
:1051D00003461846FFF7E5FF034618460837BD4665
:1051E00080BD80B582B000AF78607868FFF7A0FD21
:1051F0000346012B14BF01230023DBB2002B06D092
:10520000786800F0B2F803461846FEF7EDFD7868BE
:10521000FFF7D7FF034618460837BD4680BD80B567
:1052200082B000AF7860786800F0BAF8034618469C
:1052300000F0CCF8034618460837BD4680BD80B55F
:1052400082B000AF7860786800F09FF80346184697
:10525000FFF7E5FF034618460837BD4680BD80B519
:1052600082B000AF78607868FFF762FD0346002BDC
:1052700014BF01230023DBB2002B06D0786800F0B6
:1052800074F803461846FEF7AFFD7868FFF7D7FFBE
:10529000034618460837BD4680BD80B584B000AFD0
:1052A00078607868FCF7B2FB024607F10C03114600
:1052B000184600F04BF8FB6818461037BD4680BD15
:1052C00080B582B000AF78607B681846FDF731F991
:1052D0007B6818460837BD4680BD90B587B000AFE3
:1052E000F860B9607A60F868FDF733F904467B68C6
:1052F0001846FDF73AF9024607F11403114618461D
:10530000FCF735FD03461A46B9682046FDF739F922
:10531000034618461C37BD4690BD80B586B000AF29
:10532000F860B9607A603B603B687A68B968F86891
:1053300000F057F878617B69002B02D07B691B680D
:1053400000E0002318461837BD4680BD80B582B006
:1053500000AF786039607B6839681846FDF7A9F9B5
:105360007B6818460837BD4680BD80B582B000AF67
:1053700078607B68184600F079F8034683F00103F3
:10538000DBB218460837BD4680BD80B483B000AF9D
:1053900078607B6818460C37BD465DF8047B704723
:1053A00080B483B000AF78607B6818460C37BD4688
:1053B0005DF8047B704780B483B000AF78607B6891
:1053C00018460C37BD465DF8047B704780B483B047
:1053D00000AF78607B6818460C37BD465DF8047BEB
:1053E000704780B586B000AFF860B9607A603B6006
:1053F000FB681A68BB689B0013441B687B617B6970
:10540000002B01D100232DE07B691B683B613B69C8
:1054100004333A687968F86800F033F80346002BE3
:1054200001D07B691EE03B691B68002B0CD03869FA
:10543000FCF7C5FB034604331946F868FDF781FA0B
:105440000246BB68934201D0012300E00023002BF9
:1054500006D13B697B613869FCF7B1FB3861D6E75F
:1054600000BF002318461837BD4680BD80B483B006
:1054700000AF7860012318460C37BD465DF8047B09
:10548000704780B584B000AFF860B9607A603B6067
:1054900039687868FDF74FFB0346002B09D03A685E
:1054A000B968F868FFF719FF0346002B01D0012304
:1054B00000E0002318461037BD4680BD80B5C8B057
:1054C00004AF07F58873A3F58673186007F5887332
:1054D000A3F58873196007F58873A3F586731B68B5
:1054E000012B40F0D58007F58873A3F588731B68FE
:1054F0004FF6FF72934240F0CB8007F11403F02285
:10550000002118461FF0BEF96D4BBB6101233B77AC
:10551000122387F82030012387F82430694BBB62BF
:10552000012387F82C30122387F83030022387F8C4
:105530003430654BBB63012387F83C30122387F876
:105540004030032387F84430604BBB64012387F865
:105550004C30122387F85030042387F854305C4BCA
:10556000BB65012387F85C30122387F86030052380
:1055700087F86430574BBB66012387F86C301223E1
:1055800087F87030062387F87430534BBB670123CC
:1055900087F87C30122387F88030072387F884301F
:1055A0004E4BC7F88830012387F88C30122387F8D8
:1055B0009030082387F894304DF20D13A7F89830F7
:1055C000602387F8A030092387F8A4304DF2071331
:1055D000A7F8A830602387F8B0300A2387F8B430E2
:1055E0004DF21213A7F8B830602387F8C0300B23B0
:1055F00087F8C4304DF20613A7F8C830602387F847
:10560000D0300C2387F8D4304DF21F13A7F8D830D0
:10561000602387F8E0300D2387F8E4304DF65C1303
:10562000A7F8E830782387F8F0300E2387F8F430B5
:105630004DF67713A7F8F830782387F8003107F58F
:105640008873A3F5827307F114021A6007F5887353
:10565000A3F582730F225A6007F586731846FCF78C
:1056600073F807F58873A3F5827207F586730293C2
:1056700007F58473019307F582730093002306CA2C
:105680001748FCF778F807F586731846FCF768F8B2
:1056900007F58873A3F586731B68002B0BD107F5FC
:1056A0008873A3F588731B684FF6FF72934202D18B
:1056B0000B48FDF745FB00BF07F58877BD4680BD69
:1056C00002010244020107480101004301010946A9
:1056D000010104420201084202011A480101294A5B
:1056E0004802001080B500AF4FF6FF710120FFF7B0
:1056F000E5FE80BD80B500AF4FF6FF710020FFF7DB
:10570000DDFE80BD80B483B000AF78607B68184652
:105710000C37BD465DF8047B704780B483B000AFA2
:1057200078607B6818460C37BD465DF8047B70478F
:1057300080B582B000AF78607B689B68002B05D095
:105740007B689B6878687968032298477B6818466D
:105750000837BD4680BD80B58EB000AF786007F1D8
:105760000803184600F00AF807F10803184600F08D
:10577000B9F801200DF0C9FE00BFF5E780B582B091
:1057800000AF78607B68134A11680322184600F066
:1057900079FF7B6800221A737B68103300221A603D
:1057A0005A609A60DA607B68FF2283F820207B6869
:1057B000FF2283F821207B6800225A62FEF780FBDB
:1057C00002467B689A6203F03DFE7B681846083704
:1057D000BD4680BDD401001082B080B584B000AF5A
:1057E000786007F1180080E80C000B46FB70FB782E
:1057F000832B06D0832B21DC812B13D0822B17D057
:105800001CE03B7E002B01D0002300E00123FB7352
:105810000E4B186807F10F01002342F210720FF0CF
:1058200081F90CE007F11801786800F0E5F906E06D
:1058300007F11801786800F08BFA00E000BF00BFA4
:105840001037BD46BDE8804002B07047940200109A
:1058500080B582B000AF78607B681B7B012B05D1DF
:105860007B689B6A1846FFF789FB00E000BF00BF1A
:105870000837BD4680BD82B0F0B589B006AF78600C
:1058800007F1200080E80C000B46FB707B681D6868
:10589000FE7897F83830049397F8343003936C46C9
:1058A00007F1280393E8070084E8070007F12003C5
:1058B0000CCB31462846FFF78FFF00BF0C37BD46A3
:1058C000BDE8F04002B0704780B582B000AF7860AC
:1058D0007B681846FFF72CFF7B6818460837BD46E3
:1058E00080BD000090B58BB000AF78607C687B68AD
:1058F000FB6107F11C0207F10C031146184600F08A
:1059000079FB07F10C031946204600F00EFF07F162
:105910000C031846FFF7D8FF7868FFF799FF0123BB
:105920007B62144B1B6807F10B01002218460FF035
:1059300029FB78627B6A012B14D1FB7A19467868BF
:1059400000F01AF8034687F823307B681B7B97F832
:1059500023209A4206D07B6897F823201A73786830
:10596000FFF776FF7B6A012BDBD000BF00BF2C372F
:10597000BD4690BD9402001080B582B000AF786043
:105980000B46FB707B681B7B042B30D801A252F8BE
:1059900023F000BFA9591008B7591008C5591008BD
:1059A000D3591008E1591008FB781946786800F0BF
:1059B00025F803461DE0FB781946786800F034F8B6
:1059C000034616E0FB781946786800F053F8034662
:1059D0000FE0FB781946786800F08EF8034608E07F
:1059E000FB781946786800F0C1F8034601E07B684F
:1059F0001B7B18460837BD4680BD00BF80B582B00E
:105A000000AF78600B46FB70FB78002B06D17B68FB
:105A10009B6A1846FEF7FEFD012301E07B681B7BB5
:105A200018460837BD4680BD80B582B000AF7860AB
:105A30000B46FB70FB78012B02D0022B07D012E043
:105A40007B689B6A1846FEF713FE00230DE07B6817
:105A50009B6A1846FEF70CFE7B689B6A1846FEF7A9
:105A600035FE022301E07B681B7B18460837BD46E4
:105A700080BD000080B584B000AF78600B46FB703D
:105A8000FB78042B0DD0042B2EDC012B02D0032B32
:105A900013D029E07B689B6A1846FEF7A1FE00231D
:105AA00024E07B689B6A1846FEF79AFE7B689B6A37
:105AB0001846FEF7AFFD012318E07B68D3E9042305
:105AC000134304D17B68D3E9062313430AD006238A
:105AD000FB73084B186807F10F01002342F21072A4
