:020000040810E2
:100000000080041011411008510910085909100806
:100010006109100869091008710910080000000042
:1000200000000000000000000000000081801008B7
:100030007909100800000000D1821008E170100852
:1000400061411008614110086141100861411008C8
:1000500061411008614110086141100861411008B8
:1000600061411008614110086141100861411008A8
:100070006141100861411008614110086141100898
:100080006141100861411008614110086141100888
:100090006141100861411008614110086141100878
:1000A0006141100861411008614110086141100868
:1000B0006141100861411008614110086141100858
:1000C0006141100861411008614110086141100848
:1000D0006141100861411008614110086141100838
:1000E00061411008614110080000000061411008E2
:1000F0006141100861411008614110086141100818
:100100006141100861411008614110086141100807
:100110006141100861411008890910086141100807
:1001200061411008614110086141100861411008E7
:10013000614110089D091008B109100861411008BB
:10014000614110086141100800000000000000003B
:1001500061411008614110086141100861411008B7
:1001600061411008614110086141100861411008A7
:100170006141100861411008614110080000000051
:100180006141100861411008614110086141100887
:100190006141100861411008614110086141100877
:1001A0006141100861411008614110086141100867
:1001B0006141100861411008614110086141100857
:1001C0006141100861411008614110086141100847
:1001D0006141100861411008614110086141100837
:1001E0006141100861411008614110086141100827
:1001F0006141100861411008614110086141100817
:100200006141100861411008614110086141100806
:1002100061411008614110086141100861411008F6
:1002200061411008614110086141100861411008E6
:100230006141100861411008C509100861411008AA
:1002400061411008614110086141100861411008C6
:1002500061411008614110086141100861411008B6
:1002600061411008614110086141100861411008A6
:100270006141100861411008614110086141100896
:100280006141100861411008614110080000000040
:080290006141100861411008F2
:1002A00010B5054C237833B9044B13B10448AFF3B0
:1002B00000800123237010BD90000010000000009A
:1002C000F86A110808B5034B1BB103490348AFF3A3
:1002D000008008BD0000000094000010F86A1108BA
:1002E00001F0FF01102A2BDB10F0070F08D010F8E7
:1002F000013B013A8B422DD010F0070F42B3F6D1EB
:10030000F0B441EA012141EA014122F007047FF003
:1003100000070023F0E80256083C85EA010586EA5A
:10032000010685FA47F5A3FA87F586FA47F6A5FA96
:1003300087F68EB9EED1F0BC01F0FF0102F00702A2
:1003400032B110F8013B013A83EA010313B1F8D14D
:100350000020704701387047002D06BF354603382E
:10036000073815F0010F07D1013015F4807F02BF67
:10037000013015F4C03F0130F0BC0138704700BFB8
:1003800080B582B000AF78607B6803F08053002BAB
:1003900005D04FF0805006F0F3F800F06BF87B6862
:1003A000002B05DA4FF0004006F0EAF800F086F87E
:1003B00000BF0837BD4680BD80B584B002AF204B7A
:1003C000D3F8E0301E4A43F00073C2F8E0301C4B13
:1003D000D3F8E03003F000737B607B6800211B20C2
:1003E00006F096F84FF4AF620021164815F047FD6D
:1003F0004FF4AF620021144815F041FD134B0093F8
:10040000104B012200214FF4AF6009F00BF90346B5
:100410000F4A13600F4B00930B4B012200214FF446
:10042000AF6009F0FFF80346094A536000211A2023
:1004300006F092F8002318460837BD4680BD00BF7D
:100440000044025850000038C80500380800003841
:10045000000000382C00003880B500AF4FF080500D
:1004600006F08EF84FF0004006F08AF80023184698
:1004700080BD000080B582B000AF00237B600D4BD3
:100480001B68002B12D00B4B1B683A1D11461846F7
:1004900009F009FA7B68002B09D0074B4FF0805216
:1004A0001A60BFF34F8FBFF36F8F00E000BF0837B4
:1004B000BD4680BD0000003804ED00E080B582B08C
:1004C00000AF00237B600D4B5B68002B12D00B4B01
:1004D0005B683A1D1146184609F029FA7B68002B23
:1004E00009D0074B4FF080521A60BFF34F8FBFF314
:1004F0006F8F00E000BF0837BD4680BD00000038A8
:1005000004ED00E080B584B000AF78607B68FB60EC
:10051000BFF34F8F00BF124B5B68FA689A420BD152
:100520001B211D2005F0F4FF0346002B14D11B21D5
:100530001D2006F011F80FE0094B1B68FA689A427B
:100540000AD11B211E2005F0E3FF0346002B03D137
:100550001B211E2006F000F800BF1037BD4680BDED
:100560000000003880B586B000AFF860B9607A60EE
:100570007B68002B09DA0B4B18684FF0FF33BA6821
:10058000F96809F0D5F8786107E0064B18687B68D0
:10059000BA68F96809F0CCF878617B6918461837B1
:1005A000BD4680BD0000003880B582B000AF2B4B47
:1005B000D3F8E030294A43F00073C2F8E030274B0B
:1005C000D3F8E03003F000737B607B68012005F016
:1005D000D7FF06F07BF801220221002005F0FCFF86
:1005E0001F4B1B681B0903F00F03072B08D11D4B82
:1005F000D3F804311B4A43F00103C2F8043107E089
:10060000184BD3F81431174A43F00103C2F81431E0
:1006100003F0CAFE00F03AF800F052F8FFF7CCFE03
:1006200006F078FD104A0021104806F0D2FD03467E
:100630000F4A13600F4A00210F4806F0CAFD034617
:100640000E4A13600E4A00210E4806F0C2FD034612
:100650000D4A136006F082FD00BFFDE7004402581A
:1006600000ED00E000640258A09A1108F90B100890
:10067000AC000010C49A1108F1121008B00000106C
:10068000E89A1108650B1008B400001080B483B01C
:1006900000AF0A4BD3F8D430084A43F00103C2F844
:1006A000D430064BD3F8D43003F001037B607B6871
:1006B00000BF0C37BD465DF8047B7047004402580C
:1006C00080B487B000AF304BD3F8E0302E4A43F00F
:1006D0004003C2F8E0302C4BD3F8E03003F0400385
:1006E0007B617B69284BD3F8E030274A43F0100345
:1006F000C2F8E030244BD3F8E03003F010033B6144
:100700003B69214BD3F8E0301F4A43F00403C2F8A1
:10071000E0301D4BD3F8E03003F00403FB60FB68CE
:10072000194BD3F8E030184A43F00103C2F8E03027
:10073000154BD3F8E03003F00103BB60BB68124BEC
:10074000D3F8E030104A43F00203C2F8E0300E4B19
:10075000D3F8E03003F002037B607B680A4BD3F8E8
:10076000E030094A43F08003C2F8E030064BD3F88A
:10077000E03003F080033B603B6800BF1C37BD46A0
:100780005DF8047B704700BF0044025880B582B01A
:1007900000AF78607B681B68044A934201D103F084
:1007A00061FE00BF0837BD4680BD00BF001000409D
:1007B00080B400AF72B600BF00BFFDE780B582B065
:1007C00000AF786039607B68012B1CD13B684FF625
:1007D000FF72934217D100221821082007F025FF4D
:1007E00003460B4A136000221821102007F01DFF5A
:1007F0000346084A136000221821402007F015FF25
:100800000346054A136000BF0837BD4680BD00BFE0
:10081000B8000010BC000010C000001080B500AF90
:100820004FF6FF710120FFF7C9FF80BD80B582B090
:1008300000AF104BD3F8F4300E4A43F00203C2F875
:10084000F4300C4BD3F8F43003F002037B607B6888
:1008500000220F216FF0010003F0F0FE00220721BB
:100860007E2003F0EBFE7E2003F002FF00BF08377E
:10087000BD4680BD0044025880B590B000AF78609E
:100880007B680F2B27D800227968362003F0D6FE2C
:10089000362003F0EDFE294A7B681360284BD3F81D
:1008A000E830274A43F01003C2F8E830244BD3F86D
:1008B000E83003F01003FB60FB6807F1100207F15A
:1008C00014031146184606F0D1F8BB6ABB63BB6B34
:1008D000002B06D101E001232BE006F0B1F8F8630C
:1008E00004E006F0ADF803465B00FB63FB6B154AC2
:1008F000A2FB03239B0C013B7B63134B134A1A603F
:10090000114B40F2E732DA600F4A7B6B53600E4BBB
:1009100000221A610C4B00229A600B4806F0E8F89E
:100920000346002B04D1084806F044F9034600E0D2
:10093000012318464037BD4680BD00BF1C00001093
:100940000044025883DE1B43C40000100010004026
:1009500080B400AF00BFFDE780B400AF00BFFDE78B
:1009600080B400AF00BFFDE780B400AF00BFFDE77B
:1009700080B400AF00BFFDE780B400AF00BFBD464C
:100980005DF8047B7047000080B500AF024806F0B8
:1009900089F900BF80BD00BFC400001080B500AF62
:1009A000024804F05DFA00BF80BD00BF9401001052
:1009B00080B500AF024804F053FA00BF80BD00BF0D
:1009C0009401001080B500AF05F0ECFD00BF80BDC4
:1009D00080B400AF01231846BD465DF8047B704724
:1009E00080B483B000AF78603960054B16221A607E
:1009F0004FF0FF3318460C37BD465DF8047B704757
:100A0000041E011080B582B000AF78604FF0FF3156
:100A10007868FFF7E5FF00BFFDE780B586B000AF5F
:100A2000F860B9607A6000237B610AE0AFF3008070
:100A30000146BB685A1CBA60CAB21A707B6901339E
:100A40007B617A697B689A42F0DB7B6818461837CD
:100A5000BD4680BD80B586B000AFF860B9607A60F1
:100A600000237B6109E0BB685A1CBA601B781846FA
:100A7000AFF300807B6901337B617A697B689A42BE
:100A8000F1DB7B6818461837BD4680BD80B483B063
:100A900000AF78604FF0FF3318460C37BD465DF865
:100AA000047B704780B483B000AF786039603B68E6
:100AB0004FF400525A60002318460C37BD465DF8CB
:100AC000047B704780B483B000AF78600123184680
:100AD0000C37BD465DF8047B704780B485B000AF2D
:100AE000F860B9607A60002318461437BD465DF897
:100AF000047B704780B487B000AF7860144A154B10
:100B0000D31A7B617B693B61134B1B68002B02D1BD
:100B1000114B124A1A60104B1A687B6813443A69E9
:100B20009A4205D20E4B0C221A604FF0FF3309E0B7
:100B3000094B1B68FB60084B1A687B681344064A24
:100B40001360FB6818461C37BD465DF8047B704790
:100B5000008004100010000010010010101E011091
:100B6000041E011080B584B000AF786047F23050A9
:100B700006F0C1FB07F0A0F8F86002F081FC07F076
:100B80009BF8F8604FF47A7006F0B5FBFAE780B492
:100B900083B000AF786039603B6818460C37BD46BB
:100BA0005DF8047B704780B483B000AF78607B68E9
:100BB00018460C37BD465DF8047B704780B483B09F
:100BC00000AF78607B6818460C37BD465DF8047B43
:100BD000704780B582B000AF78607B689B68002B5F
:100BE00005D07B689B6878687968032298477B68A2
:100BF00018460837BD4680BD80B586B000AF786026
:100C0000FFF72AFC07F10C03184600F00BF807F178
:100C10000C03184600F05EF8012006F06CFB00BFE4
:100C2000F5E7000080B582B000AF78607B68054AC8
:100C300011680422184600F08FFA7B6818460837BE
:100C4000BD4680BDBC00001082B080B483B000AF50
:100C5000786007F1100080E80C000B46FB7000BFC5
:100C60000C37BD465DF8047B02B0704782B0B0B56A
:100C700086B004AF786007F1180080E80C000B46DE
:100C8000FB707B681C68FD7897F8283002936A46F1
:100C900007F1200393E8030082E8030007F118033B
:100CA0000CCB29462046FFF7CFFF00BF0837BD46D3
:100CB000BDE8B04002B0704780B582B000AF786048
:100CC0007B681846FFF785FF7B6818460837BD46E6
:100CD00080BD000090B591B000AF78601823FB6331
:100CE00007F10C030F4AF96B1846FFF73BFCB8639A
:100CF0007C687B687B6307F1340207F124031146AB
:100D0000184600F025F807F124031946204600F0A4
:100D10003DFA07F124031846FFF7CEFF00BF443722
:100D2000BD4690BDA086010080B483B000AF78605E
:100D30007B681A460023136053607B6800229A6028
:100D40007B6818460C37BD465DF8047B7047000091
:100D500090B583B000AF786039607B681A46002395
:100D60001360536093607B681846FFF7DDFF7B6874
:100D70000022DA60386800F01BF80346002B0ED022
:100D80007C68386800F01FF803461946204600F0DA
:100D900025F87B68044ADA607B68044A9A607B68BD
:100DA00018460C37BD4690BD010E1008410E1008C4
:100DB00080B483B000AF7860012318460C37BD467D
:100DC0005DF8047B704780B483B000AF78607B68C7
:100DD00018460C37BD465DF8047B704790B583B06C
:100DE00000AF786039603868FFF7EDFF03462246B0
:100DF0001946786800F043F800BF0C37BD4690BD37
:100E0000F0B585B000AFF860B9607A603B60F86813
:100E100000F04EF80446B86800F05BF805467868C4
:100E200000F062F80646386800F069F8034632467A
:100E30002946204600F06EF800BF1437BD46F0BDCD
:100E400090B585B000AFF860B9601346FB71FB79CF
:100E5000012B09D1F86800F081F80446B86800F069
:100E600027F80346236005E0FB791A46B968F8685D
:100E700000F080F8002318461437BD4690BD90B5A9
:100E800085B000AFF860B9603A71F868FFF78BFE83
:100E9000034619460420FFF77AFE0446B868FFF7B8
:100EA00092FF03461B68236000BF1437BD4690BD08
:100EB00080B584B000AF7860786800F095F8F8608D
:100EC000F86800F09DF8034600BF18461037BD468D
:100ED00080BD80B483B000AF78607B6818460C3763
:100EE000BD465DF8047B704780B483B000AF786086
:100EF0007B6818460C37BD465DF8047B704780B4AC
:100F000083B000AF78607B6818460C37BD465DF84B
:100F1000047B70472DE9F04186B002AFF860B960FC
:100F20007A603B60F86800F076F80446B868FFF72E
:100F3000D0FF05467868FFF7D7FF06463868FFF709
:100F4000DEFF0346009333462A462146404600F022
:100F50006DF800BF1037BD46BDE8F08180B582B0A6
:100F600000AF78607868FFF71EFE03461846083722
:100F7000BD4680BD90B585B000AFF860B96013463E
:100F8000FB71FB79032B2AD801A252F823F000BF92
:100F9000A10F1008AF0F1008C30F1008D50F1008CD
:100FA000F86800F06EF8034600221A6017E0F8684F
:100FB000FFF7D4FF0446B868FFF77AFF03462360C3
:100FC0000DE0B868FFF774FF03461946F86800F0B3
:100FD00064F804E02146F86800F071F800BF0023CF
:100FE00018461437BD4690BD80B582B000AF78601A
:100FF0007868FFF7E3FD034618460837BD4680BD15
:1010000080B483B000AF78607B6818460C37BD466B
:101010005DF8047B704780B483B000AF78607B6874
:1010200018460C37BD465DF8047B7047F0B589B0B3
:1010300004AF3873B9607A603B60B868FFF7EBFFC4
:1010400006467868FFF745FF03461D783868FFF7C6
:101050004BFF0446B86AFFF752FF03461B78029322
:101060006A4604F1080393E8030082E8030094E869
:101070000C0029463046FFF7F9FD00BF1437BD4686
:10108000F0BD80B582B000AF78607868FFF78BFD67
:10109000034618460837BD4680BD90B583B000AF03
:1010A00078603960386800F016F803462246194621
:1010B000786800F01BF800BF0C37BD4690BD80B5C6
:1010C00082B000AF78603970786800F028F800BF0F
:1010D0000837BD4680BD80B483B000AF78607B68C0
:1010E00018460C37BD465DF8047B704790B585B057
:1010F00000AFF860B9603A71F868FFF754FD034635
:1011000019460420FFF743FD0446B868FFF7E3FFE4
:1011100003461B68236000BF1437BD4690BD80B5F1
:1011200082B000AF78607868FFF73DFD034618464F
:101130000837BD4680BD80B483B000AF78607B685F
:101140009B68002B0CBF01230023DBB218460C3731
:10115000BD465DF8047B704780B485B000AFF86091
:10116000B9601346FB71FB68BA681A60FB68FA79CC
:101170001A71054B1A68FB689A60FB6818461437A9
:10118000BD465DF8047B7047B800001090B58FB085
:1011900004AF786039607B681B68002B24D0012382
:1011A0007B6211E03C7B97F8203002936A4607F19E
:1011B000180393E8030082E8030007F110030CCB47
:1011C0002146386800F014F87B681B6807F10C01B1
:1011D0000022184607F0DEFD0346012B0CBF012359
:1011E0000023DBB2002BDDD100BF2C37BD4690BD04
:1011F00082B02DE9F04182B000AF786007F12000A5
:1012000080E80C000B46FB707B681846FFF793FFE5
:101210000346002B01D014F0E0FB7B68DC687D689E
:10122000FB1C1846FFF755FE064607F12000FFF7A6
:101230005BFE804607F130031846FFF760FE034669
:10124000424631462846A04700BF0837BD46BDE8A4
:10125000F04102B0704780B582B000AF78607B6823
:1012600000221A70786800F005F87B681846083785
:10127000BD4680BD80B483B000AF78607B6800223B
:101280005A607A687B689A607A687B68DA607B6803
:1012900000221A6100BF0C37BD465DF8047B704721
:1012A00080B582B000AF78607B68184600F057F9CF
:1012B0007B6818460837BD4680BD80B582B000AF58
:1012C00078607B681846FFF7EBFF7B6818460837A5
:1012D000BD4680BD80B582B000AF78607B6818469F
:1012E000FFF7EBFF7B6818460837BD4680BD00005E
:1012F00080B588B000AF786007F108031846FFF7A3
:10130000E9FF094B1A6807F108030421184600F0A9
:101310000DF807F10803184600F01BF8012005F04E
:10132000EAFF00BFF5E700BFBC00001080B586B043
:1013300000AFF8600B467A60FB72F96807F11000A5
:101340003B1D07F10B0200F01FF900BF1837BD4627
:1013500080BD80B586B000AF786007F10C03796876
:10136000184600F035F807F10C031946786800F0CC
:101370008DF807F10C03184600F020F900BF18376C
:10138000BD4680BD80B582B000AF7860786800F05F
:1013900040F97B6818460837BD4680BD80B582B0ED
:1013A00000AF78607B68184600F023F97B68184628
:1013B0000837BD4680BD80B582B000AF78607B68DD
:1013C0001846FFF7EBFF7B6818460837BD4680BD1F
:1013D000B0B592B000AF786039607868FFF7EBFF86
:1013E00001237B64284B1B6807F128010022184663
:1013F00007F0D0FC78647B6C012B05D107F1280342
:101400001946786800F030F97B6C012BEAD07868D7
:1014100000F050F90346002B14BF01230023DBB278
:10142000002B2BD07B683B64386C00F059F90346E5
:10143000FB60386C00F064F90346BB6013E007F111
:101440000C03184600F096F9034607F110041D46F8
:101450000FCD0FC495E8030084E8030007F10C03E7
:10146000184600F076F907F1080207F10C0311465F
:10147000184600F056F90346002BE0D100BF78680B
:101480004837BD46B0BD00BFB8000010B0B590B041
:1014900000AF786039603B68FB63F86B00F076F969
:1014A0000346BB61F86B00F081F903467B6146E0BF
:1014B00007F11803184600F0B3F9034607F11C04BE
:1014C0001D460FCD0FC495E8030084E8030097F88C
:1014D0003130FB747B6807F113021146184600F0A7
:1014E000ABF90346FB607B68184600F0B4F903468D
:1014F0007B6307F1340207F10C031146184600F034
:10150000B7F90346002B15D07B6807F1130211468B
:10151000184600F0C1F903461B68BB63BB6B002B88
:1015200008D007F11C0100230A22B86B07F002FA69
:101530000346012B07F11803184600F060F907F184
:10154000140207F118031146184600F040F903464B
:10155000002BADD100BF00BF4037BD46B0BD80B548
:1015600082B000AF7860786800F0F2F97B681846C6
:1015700000F0FAF97B6804331846FFF76CFE7B68CD
:1015800018460837BD4680BDB0B584B000AFF860DE
:10159000B9607A603B60BC68786800F0FCF9054689
:1015A000386800F003FA0346F8682A46214600F03E
:1015B00008FA00BFF8681037BD46B0BDB0B582B0BC
:1015C00000AF78607B681C687B685D687B68184644
:1015D00000F04CFA03461A462946204600F051FA1C
:1015E0007B68184600F022F87B6818460837BD462D
:1015F000B0BD80B582B000AF7860786800F04FFA77
:101600007B68184600F057FA7B6818460837BD46D5
:1016100080BD80B582B000AF7860786800F05FFA76
:101620007B6818460837BD4680BD000080B582B093
:1016300000AF78607B6819687B689A687B681B6874
:10164000D31ADB10074A02FB03F31A46786800F04E
:1016500051FA7B681846FFF795FE7B6818460837F5
:10166000BD4680BDABAAAAAA80B582B000AF7860A3
:1016700039607B685A687B689B689A420DD07868AD
:101680007B685B683A68194600F047FA7B685B68DC
:1016900003F118027B685A6008E0786800F030F8BF
:1016A00003463A681946786800F060FA00BF0837C8
:1016B000BD4680BD80B483B000AF78607B685A6857
:1016C0007B681B68D31ADB10044A02FB03F318463D
:1016D0000C37BD465DF8047B704700BFABAAAAAAD1
:1016E00080B584B000AF78607A6807F10C031146CA
:1016F000184600F003FBFB6818461037BD4680BD56
:1017000080B584B000AF78607B681A1D07F10C03C8
:101710001146184600F0F2FAFB6818461037BD462D
:1017200080BD90B583B000AF78603960786800F014
:10173000F5FA03461C68386800F0F0FA03461B68A7
:101740009C4214BF01230023DBB218460C37BD4670
:1017500090BD80B483B000AF78607B681B6803F1F4
:1017600018027B681A607B6818460C37BD465DF826
:10177000047B704780B483B000AF78607B681B68DF
:1017800018460C37BD465DF8047B704780B584B0C1
:1017900000AF78607A6807F10C031146184600F034
:1017A000C8FAFB6818461037BD4680BD80B584B0C6
:1017B00000AF78607B681A1D07F10C0311461846CC
:1017C00000F0B7FAFB6818461037BD4680BD90B5EB
:1017D00083B000AF78603960786800F0BAFA0346E9
:1017E0001C68386800F0B5FA03461B689C4214BFB9
:1017F00001230023DBB218460C37BD4690BD80B4F0
:1018000083B000AF78607B681B6803F118027B68C7
:101810001A607B6818460C37BD465DF8047B70473C
:1018200080B483B000AF78607B681B6818460C37C3
:10183000BD465DF8047B704780B582B000AF78602C
:1018400039607B683968184600F08EFA03461846FE
:101850000837BD4680BD80B582B000AF78607B6838
:10186000184600F0BDFA034618460837BD4680BD4D
:1018700080B483B000AF786039607B681A683B68D9
:101880001B689A4214BF01230023DBB218460C37B1
:10189000BD465DF8047B704790B58BB002AF7860B1
:1018A00039603968786800F0ACFA0346BB60786844
:1018B000FFF7D1FF0346FB6007F10C0207F10803B5
:1018C0001146184600F0ACFA0346002B12D1786896
:1018D00000F0BAFA07F10803184600F0C2FA03460E
:1018E0001A4607F110033968184600F0C8FA034693
:1018F000002B01D0012300E00023002B1BD07C68CB
:1019000007F1080207F114031146184600F0DBFA4C
:1019100007F118033968184600F0C6FA07F11802F3
:1019200007F11C0300931346084A7969204600F02A
:10193000DAFA0346BB6007F10803184600F091FA93
:101940000346043318462437BD4690BD0C9B11084E
:1019500080B582B000AF7860786800F00AFB7B68E1
:1019600018460837BD4680BD80B483B000AF7860AC
:101970007B6818460C37BD465DF8047B704780B520
:1019800082B000AF7860786800F027FB0346184605
:101990000837BD4680BD80B483B000AF78607B68F7
:1019A00018460C37BD465DF8047B704780B483B0A1
:1019B00000AF78607B6818460C37BD465DF8047B45
:1019C000704790B58DB000AFF860B9607A603B6049
:1019D0007868FFF7E0FF04463868FFF7E7FF034643
:1019E00007F118002246B96800F003FB07F118035D
:1019F000184600F0B7FB024607F11003B968184615
:101A000000F02BFB7B69002B15D007F1180007F1C4
:101A1000100393E8060000F0B3FB03463B6201238A
:101A200087F8273007F1270207F120031946F868E5
:101A300000F0BFFB11E03A6907F128031146184690
:101A400000F0D0FB002387F82F3007F12F0207F1B9
:101A500028031946F86800F0ACFB07F11803184694
:101A600000F0E6FAF8683437BD4690BD80B483B024
:101A700000AF78607B6818460C37BD465DF8047B84
:101A8000704780B584B000AFF860B9607A60B9681B
:101A9000F86800F0C2FB00BF1037BD4680BD80B5BE
:101AA00082B000AF7860786800F0C4FB7B681846AD
:101AB0000837BD4680BD80B483B000AF78607B68D6
:101AC00000221A607B6800225A607B6800229A60BC
:101AD0007B6818460C37BD465DF8047B704780B4C0
:101AE00083B000AF78607B6818460C37BD465DF860
:101AF000047B704780B584B000AFF860B9607A604D
:101B0000BB68002B05D0FB687A68B968184600F0FE
:101B10009CFB00BF1037BD4680BD80B584B000AFD0
:101B2000F860B9607A60786800F09EFB03461A4658
:101B3000B968F86800F0A3FB00BF1037BD4680BD50
:101B400080B582B000AF184600F005F8034618468D
:101B50000837BD4680BD80B483B000AF3871012323
:101B600018460C37BD465DF8047B7047B0B58CB0A5
:101B700000AFF860B9607A605E4A0121F86800F051
:101B800099FBB862FB681B687B62FB685B683B6221
:101B9000F868FFF7A5FD03467B6107F1140207F122
:101BA00008031146184600F0CDFB0346FB61FB68B5
:101BB000B96A184600F0E0FBB861BB69FB62FC68DB
:101BC000FA6913465B001344DB001A46BB699D1893
:101BD000786800F049FB03461A4629462046FFF77D
:101BE0009CFF0023FB62FFF7ABFF0346002B27D0CF
:101BF00007F10803184600F091F803461C68FB68DB
:101C00001846FFF733FF0346BA692146786A00F0A9
:101C1000C7FBF862FB6A1833FB6207F1080318463A
:101C200000F07CF803461C68FB681846FFF71EFFAF
:101C30000346FA6A396A204600F0B2FBF86226E0F1
:101C400007F10803184600F069F803461C68FB68B2
:101C50001846FFF70BFF0346BA692146786A00F081
:101C6000B3FBF862FB6A1833FB6207F108031846FE
:101C700000F054F803461C68FB681846FFF7F6FEB0
:101C80000346FA6A396A204600F09EFBF862FFF7C5
:101C900057FF034683F00103DBB2002B09D0FB683A
:101CA0001846FFF7E3FE03461A46396A786AFFF7DB
:101CB000E8FEF868FB689A687B6AD31ADB100E4A64
:101CC00002FB03F31A46796AFFF714FFFB68BA694F
:101CD0001A60FB68FA6A5A60BA6A13465B001344DA
:101CE000DB001A46BB691A44FB689A6000BF3037B4
:101CF000BD46B0BD406B1108ABAAAAAA80B483B0A0
:101D000000AF786039603B681A687B681A607B684E
:101D100018460C37BD465DF8047B704780B483B02D
:101D200000AF78607B6818460C37BD465DF8047BD1
:101D3000704780B483B000AF786039603B681A6840
:101D40007B681A607B6818460C37BD465DF8047BDB
:101D5000704780B483B000AF78607B6818460C375A
:101D6000BD465DF8047B704790B585B000AF7860E4
:101D700039607868FFF703FE0446786800F03DFBA1
:101D800002463B682146786800F043FB0346BB608F
:101D9000786800F025F80346FB6007F10C0207F1B4
:101DA00008031146184600F03BF80346002B0DD1FE
:101DB0007C68BB68184600F05DFB03461A4639682C
:101DC000204600F05CF80346002B04D0786800F051
:101DD00007F8034600E0BB6818461437BD4690BDBF
:101DE00080B584B000AF78607B681A1D07F10C03E2
:101DF0001146184600F0F6F9FB6818461037BD4644
:101E000080BD80B582B000AF786039607B6839688A
:101E1000184600F03BFB034618460837BD4680BD18
:101E200080B483B000AF786039607B681A683B6823
:101E30001B689A420CBF01230023DBB218460C3703
:101E4000BD465DF8047B704790B583B000AF786005
:101E50007B68184600F031FB00BF20460C37BD46BA
:101E600090BD80B582B000AF78607B681B68184673
:101E700000F02EFB034618460837BD4680BD80B4EF
:101E800085B000AFF860B9607A60BB681A787B688B
:101E90001B789A4234BF01230023DBB21846143763
:101EA000BD465DF8047B704780B582B000AF7860B6
:101EB00039607B683968184600F018FB7B68184663
:101EC0000837BD4680BD80B483B000AF786039600C
:101ED0003B681A687B681A607B6818460C37BD46F9
:101EE0005DF8047B7047B0B58CB002AFF860B960A4
:101EF0007A603B60786800F008FB0446386800F0C0
:101F00000FFB0546B86B00F016FB034607F11C00FB
:101F100000932B462246F96800F018FB07F11C03DA
:101F2000184600F01FF9034607F11400BA68F96873
:101F300000F02FFBBB69002B09D007F11C0007F153
:101F4000140393E8060000F01BF9044607E07A69E1
:101F500007F124031146184600F044F97C6A07F1A2
:101F60001C03184600F064F8234618462837BD467F
:101F7000B0BD80B483B000AF78607B6818460C3782
:101F8000BD465DF8047B704780B483B000AF7860D5
:101F90007B68DB6818460C37BD465DF8047B7047EC
:101FA00080B483B000AF78607B689B6818460C37BC
:101FB000BD465DF8047B704780B582B000AF7860A5
:101FC00039603968786800F007FC3968786800F093
:101FD00018FC00BF0837BD4680BD80B483B000AF99
:101FE00078607B689B6818460C37BD465DF8047BBB
:101FF000704790B585B000AFF860B9607A603B601B
:10200000FB68BA681A607868FFF7C5FC0446386850
:10201000FFF7CCFC03461A462146B86800F003FCE3
:102020000246FB685A60FB6818461437BD4690BDEF
:1020300080B582B000AF78607B685B68002B07D00A
:102040007B681A687B685B6819461046FFF7B4FF27
:102050007B6818460837BD4680BD90B58BB000AF91
:10206000F860B9607A60B868FFF789FC0346BB6125
:10207000B86800F0C2F903467B61012387F8273076
:102080001FE0BB697B61BC68BB69184600F0E7FBD9
:1020900003461A4679682046FFF7F1FE034687F8A3
:1020A000273097F82730002B05D0BB691846FFF77B
:1020B00077FF034604E0BB691846FFF765FF034658
:1020C000BB61BB69002BDCD17A6907F110031146B3
:1020D000184600F087F897F82730002B1DD0B86815
:1020E00000F0D0FB0346FB6107F11C0207F110036F
:1020F00011461846FFF794FE0346002B08D007F15F
:10210000140207F118031946F86800F0CCFB25E02B
:1021100007F11003184600F0DFFBBC683B69184666
:1021200000F0A8F903467A6819462046FFF7A7FE93
:102130000346002B08D007F1140207F118031946D3
:10214000F86800F0B0FB09E000233B6207F12002D1
:1021500007F110031946F86800F0CFFBF8682C3738
:10216000BD4690BD80B582B000AF78607B685B688B
:10217000184600F074FB034618460837BD4680BD7C
:1021800080B586B000AFF8603B1D83E80600FB68B1
:1021900018687968BA68FB685B6800F0C3FB03469F
:1021A0007B61FB6800225A607B6918461837BD4680
:1021B00080BD80B584B000AFF860B9607A60B8685F
:1021C00000F0EDFB0246FB6812681A60786800F0C8
:1021D000F1FB03461A78FB681A71FB681846103742
:1021E000BD4680BD80B483B000AF786039607B6845
:1021F0003A681A607B6818460C37BD465DF8047B68
:10220000704780B483B000AF78607B685B69184624
:102210000C37BD465DF8047B704780B582B000AFD7
:10222000786039603968786800F0CFFB00BF083704
:10223000BD4680BD80B483B000AF78607B6818462F
:102240000C37BD465DF8047B704780B584B000AFA5
:10225000F860B9607A607A68B968F86800F0C0FB25
:1022600000BF1037BD4680BD80B483B000AF78603A
:102270007B6818460C37BD465DF8047B7047B0B5E7
:1022800084B000AFF860B9607A60BB681946182066
:10229000FEF77DFC04467868FFF7E6FF03461D461F
:1022A0000FCD0FC495E8030084E8030000BF10378A
:1022B000BD46B0BD90B587B000AFF860B9607A6038
:1022C000F86800F0A0FB0446F868FFF7F3F903464E
:1022D000E21ABB689A4234BF01230023DBB2002B11
:1022E00002D0786813F076FBF868FFF7E3F904464C
:1022F000F868FFF7DFF903463B6107F1080207F1D1
:1023000010031146184600F08FFB03461B68234458
:102310007B61F868FFF7CEF902467B69934206D3EA
:10232000F86800F070FB02467B69934204D9F868B4
:1023300000F069FB034600E07B6918461C37BD4688
:1023400090BD000090B583B000AF786039607868C8
:10235000FFF7E4FC03461C683868FFF7DFFC034620
:102360001B68E31ADB10034A02FB03F318460C3721
:10237000BD4690BDABAAAAAA80B582B000AF786076
:1023800039603B68002B06D07B683968184600F03E
:102390005FFB034600E0002318460837BD4680BDBA
:1023A00090B587B002AFF860B9607A603B608DF895
:1023B00000403B687A68B968F86800F058FB03464B
:1023C00018461437BD4690BD90B585B000AFF86093
:1023D000B9607A603B60F86800F05BFB0446B8685F
:1023E00000F057FB01463B687A68204600F060FB2E
:1023F000034618461437BD4690BD80B483B000AF85
:1024000078607B68043318460C37BD465DF8047B62
:10241000704790B587B000AFF860B9607A603B60F4
:102420001AE0FC68B86800F01AFA03463A681946E0
:102430002046FFF724FD034683F00103DBB2002BA7
:1024400006D0BB687B60B868FFF7AAFDB86003E000
:10245000B868FFF799FDB860BB68002BE1D107F1C0
:10246000140379681846FFF7BDFE7B6918461C37D0
:10247000BD4690BD80B582B000AF7860786800F04E
:10248000EEF9034618460837BD4680BD90B583B0C7
:1024900000AF786039607868FFF771FA04467868B1
:1024A000FFF7ABFF02463B6821467868FFF7B1FFB4
:1024B000034618460C37BD4690BD80B483B000AFCC
:1024C000786000BF18460C37BD465DF8047B704746
:1024D00080B582B000AF78607B681033184600F09A
:1024E000F8FA034618460837BD4680BD80B582B06D
:1024F00000AF786039607B683968184600F0F5FAFB
:102500007B6818460837BD4680BD80B483B000AFF5
:1025100078607B6818460C37BD465DF8047B7047D1
:1025200080B483B000AF78607B6818460C37BD4636
:102530005DF8047B704780B483B000AF78607B683F
:1025400018460C37BD465DF8047B7047B0B584B0C3
:1025500000AFF860B9607A603B60FB68BA681A60E7
:102560007868FFF7D2FF04463868FFF7D9FF0546C1
:10257000386AFFF7E0FF03462A462146B86800F0B4
:10258000C3FA0246FB685A60FB6818461037BD461E
:10259000B0BD90B58DB000AFF860B9607A603B60B7
:1025A0003B1D184600F0D3FA0346BB61BC69B8680E
:1025B000FFF723FF03469C420CBF01230023DBB23D
:1025C000002B30D0B868FFF71CFE0346002B13D059
:1025D000BC68B86800F0CCFA03461B681846FFF7E1
:1025E00049FF03463A6819462046FFF748FC034670
:1025F000002B01D0012300E00023002B0CD000238E
:10260000FB61B86800F0B4FA024607F11C031946F2
:10261000F86800F072F9DBE0FB683A68B9681846C0
:10262000FFF71BFDD4E0BC68BB691846FFF722FF2B
:1026300003461A4639682046FFF721FC0346002B63
:1026400057D0BB697B61BC69B86800F09DFA03464E
:102650001B689C420CBF01230023DBB2002B0DD072
:10266000B86800F091FA0446B86800F08DFA0346A5
:102670001A462146F86800F093FAA9E0BC6807F111
:102680001403184600F028F903461B681846FFF7A4
:10269000F1FE03463A6819462046FFF7F0FB034671
:1026A000002B1FD07B691846FFF76EFC0346002BFA
:1026B0000CBF01230023DBB2002B0AD000233B62B6
:1026C00007F1140207F120031946F86800F015F924
:1026D0007EE007F1180207F118031946F86800F0C8
:1026E0005FFA75E0FB683A68B9681846FFF7B5FC11
:1026F0006EE0BC68BB691846FFF7BCFE03463A684B
:1027000019462046FFF7BBFB0346002B56D0BB699A
:102710003B61BC69B86800F02BFA03461B689C4219
:102720000CBF01230023DBB2002B0CD000237B6203
:10273000B86800F01DFA024607F124031946F8684C
:1027400000F0DBF844E0BC6807F11003184600F025
:1027500040FA03461B681846FFF78CFE03461A46EC
:1027600039682046FFF78BFB0346002B1FD0BB695F
:102770001846FFF709FC0346002B0CBF012300237A
:10278000DBB2002B0AD00023BB6207F1180207F16D
:1027900028031946F86800F0B0F819E007F11002B4
:1027A00007F110031946F86800F0FAF910E0FB6829
:1027B0003A68B9681846FFF750FC09E00023FB624D
:1027C00007F12C0207F118031946F86800F095F894
:1027D000F8683437BD4690BD90B583B000AF7860DF
:1027E0003960786800F006FA04463868FFF770FE32
:1027F00003461946204600F008FA00BF0C37BD46D4
:1028000090BD80B582B000AF78603960786800F024
:10281000F1F9034601223968184600F003FA00BFB7
:102820000837BD4680BD90B587B000AFF860B9608D
:102830007A60F86800F005FA7861B868FFF7ABF8DD
:1028400004467868FFF7B2F8034622467969F868CB
:1028500000F008FA7B6918461C37BD4690BD80B56C
:1028600084B000AF7860786800F021FA024607F182
:102870000C031146184600F028FA03461846103794
:10288000BD4680BD80B584B000AF78607B68DA68F3
:1028900007F10C0311461846FFF7A4FCFB68184625
:1028A0001037BD4680BD80B584B000AFF860B96018
:1028B0007A60B86800F015FA03461A68FB681A6077
:1028C000786800F019FA03461A68FB685A60FB68DA
:1028D00018461037BD4680BD80B582B000AF786025
:1028E0007B681B68184613F009F802467B681A607B
:1028F0007B6818460837BD4680BD80B485B000AF00
:10290000F860B9607A60BB681A68FB681A607B6817
:102910001A68FB685A60FB6818461437BD465DF8B4
:10292000047B7047B0B586B000AFF860B9607A60DC
:102930003B60BB68002B17D1F868FFF75EFD0246CD
:102940007B68934210D0FC683868FFF788FF054623
:102950007868FFF78FFD03461A4629462046FFF7A1
:102960008EFA0346002B01D0012300E00023FB7503
:10297000FB680433F87D7A68396812F0C1FFFB68A0
:102980005B695A1CFB685A6107F1100339681846E5
:10299000FFF728FC3B6918461837BD46B0BD80B428
:1029A00083B000AF78607B6818460C37BD465DF891
:1029B000047B704780B483B000AF78607B681846B2
:1029C0000C37BD465DF8047B704780B483B000AF20
:1029D0007860396000BF0C37BD465DF8047B7047F6
:1029E00080B584B000AFF860B9607A607A68134649
:1029F0005B001344DB001946B86812F015FF00BFF6
:102A00001037BD4680BD80B582B000AF78607B686E
:102A1000184600F099F90346184600F079F9034684
:102A200018460837BD4680BD80B483B000AF7860DB
:102A300039607B681A683B681B689A4201D23B6820
:102A400000E07B6818460C37BD465DF8047B704794
:102A500080B582B000AF786039600022396878684C
:102A600000F07EF9034618460837BD4680BD80B5A4
:102A700084B000AFF860B9607A603B603B687A6808
:102A8000B968F86800F09AF9034618461037BD4651
:102A900080BD80B584B000AF786007F10C03796821
:102AA000184600F0A8F9FB6818461037BD4680BDEF
:102AB00080B584B000AFF860B9607A603B607A6836
:102AC000B968F86800F0A9F9034618461037BD4602
:102AD00080BD80B582B000AF7860786800F0B1F951
:102AE000034618460837BD4680BD80B483B000AFAA
:102AF000786039607B683A681A607B6818460C37E2
:102B0000BD465DF8047B7047B0B588B002AFF86091
:102B1000B9607A603B60F86800F093F87861B86853
:102B2000FFF7F3FC04467868FFF7FAFC05463868BF
:102B3000FFF701FD034600932B4622467969F868AA
:102B400000F08AF97B6918461837BD46B0BD80B5DC
:102B500084B000AF78607B681A6807F10C031146F7
:102B60001846FFF73FFBFB6818461037BD4680BD8F
:102B700080B483B000AF78607B68103318460C37A0
:102B8000BD465DF8047B704780B483B000AF7860C9
:102B90007B680C3318460C37BD465DF8047B7047E4
:102BA00080B584B000AFF860B9607A60B86800F0B2
:102BB000A3F803461A68FB681A60786800F09CF86E
:102BC00003461A68FB685A60FB6818461037BD4612
:102BD00080BD80B582B000AF78607B681B68184606
:102BE00012F08AFE02467B681A607B681846083736
:102BF000BD4680BD80B483B000AF78607B68184666
:102C00000C37BD465DF8047B704780B582B000AFDD
:102C1000786039603968786800F04BF900BF083790
:102C2000BD4680BD80B584B000AFF860B9607A6001
:102C30007A68B968F86800F047F900BF1037BD46F8
:102C400080BD80B582B000AF78607868FFF7D2FFB2
:102C500003460121184600F04AF903461846083792
:102C6000BD4680BDF0B585B000AFF860B9607A6050
:102C70003B60BB6819461820FDF789FFF868FFF72D
:102C8000B9FF0446B868FFF723FC05467868FEF7ED
:102C900082FE06463868FEF789FE0346324629461C
:102CA000204600F033F900BF1437BD46F0BD80B5B3
:102CB00082B000AF78607B681033184600F03EF9B0
:102CC000034618460837BD4680BD80B483B000AFC8
:102CD000786039603B6818460C37BD465DF8047B68
:102CE000704780B483B000AF78607B6818460C37BB
:102CF000BD465DF8047B704780B483B000AF786058
:102D00007B6818460C37BD465DF8047B70470000B1
:102D100080B584B000AF78600A4BFB60786800F043
:102D200019F90346BB6007F1080207F10C031146CD
:102D3000184600F01BF903461B6818461037BD46BD
:102D400080BD00BF5555550580B483B000AF786095
:102D50007B6818460C37BD465DF8047B7047000061
:102D600080B584B000AFF860B9607A60F86800F0B0
:102D700011F90246BB6893428CBF01230023DBB2EA
:102D8000002B14BF01230023DBB2002B07D0BB684C
:102D9000094A934201D912F01AFE12F015FEBA68E0
:102DA00013465B001344DB00184612F03FFD034658
:102DB00018461037BD4680BDAAAAAA0AB0B584B08D
:102DC00000AFF860B9607A603B60F86800F0F0F836
:102DD0000446B86800F0ECF80546786800F0E8F8BA
:102DE00002463B682946204600F0EEF803461846A6
:102DF0001037BD46B0BD80B582B000AF7860396095
:102E00003B46184600F00AF903461A687B681A60C8
:102E10007B6818460837BD4680BD80B586B000AFD8
:102E2000F860B9607A600123FB750123BB757A688D
:102E3000B968F86800F0FDF8034618461837BD4633
:102E400080BD80B483B000AF78607B6818460C37D3
:102E5000BD465DF8047B70472DE9F04186B002AFB6
:102E6000F860B9607A603B60BB6819461820FDF7CE
:102E70008EFEF868FFF7BEFE0446B868FFF728FB31
:102E800005467868FFF741FB06463868FFF748FBC0
:102E90008046B86AFFF74FFB03460093434632462D
:102EA0002946204600F0D5F800BF1037BD46BDE8E2
:102EB000F08180B483B000AF7860396000BF0C3718
:102EC000BD465DF8047B704780B584B000AFF86004
:102ED000B9607A607A6813465B001344DB001946D8
:102EE000B86812F0A1FC00BF1037BD4680BD80B5A8
:102EF00082B000AF7860396000223968786800F0ED
:102F0000C7F8034618460837BD4680BD90B585B062
:102F100000AFF860B9607A603B607868FEF73BFD0F
:102F200004463868FEF742FD03462246B968F86851
:102F300000F0DCF800BF1437BD4690BD80B582B00C
:102F400000AF7860786800F0EFF80346184608375D
:102F5000BD4680BD80B582B000AF7860786800F073
:102F6000EEF8034618460837BD4680BD80B483B0EE
:102F700000AF786039603B681A687B681B689A42CA
:102F800001D23B6800E07B6818460C37BD465DF80F
:102F9000047B704780B483B000AF7860034B184661
:102FA0000C37BD465DF8047B704700BF555555058D
:102FB00080B483B000AF78607B6818460C37BD469C
:102FC0005DF8047B7047000080B586B000AFF86004
:102FD000B9607A603B60BA68FB68D31ADB100E4AAE
:102FE00002FB03F37B617B69002B09DD7A691346E1
:102FF0005B001344DB001A46F968786812F025FF7D
:103000007A6913465B001344DB001A467B6813445D
:1030100018461837BD4680BDABAAAAAA80B483B0B3
:1030200000AF78607B6818460C37BD465DF8047BBE
:10303000704780B584B000AFF860B9607A607A6894
:10304000B968F86800F087F8034618461037BD469F
:1030500080BDB0B586B002AFF860B9607A603B6001
:103060007868FFF752FA04463868FFF759FA0546C0
:10307000386AFFF760FA034600932B462246B96888
:10308000F86800F090F800BF1037BD46B0BD0000F2
:1030900080B584B000AFF860B9607A60F86800F07D
:1030A000ABF80246BB6893428CBF01230023DBB21E
:1030B000002B14BF01230023DBB2002B07D0BB6819
:1030C000094A934201D912F082FC12F07DFCBA68E1
:1030D00013465B001344DB00184612F0A7FB0346BF
:1030E00018461037BD4680BDAAAAAA0AB0B584B05A
:1030F00000AFF860B9607A603B60BB681946082091
:10310000FDF745FD04467868FEF745FC054638683E
:10311000FEF74CFC03461A462946204600F07AF892
:1031200000BF1037BD46B0BD80B483B000AF78603B
:103130007B6818460C37BD465DF8047B704780B548
:1031400082B000AF78607868FFF724FF0346184626
:103150000837BD4680BD90B585B000AFF860B96056
:103160007A60F86800F06FF80446B86800F06BF811
:1031700003467A681946204600F076F8034618465A
:103180001437BD4690BD80B582B000AF786039601D
:103190007B683A681146184600F089F87B68184643
:1031A0000837BD4680BDF0B587B000AFF860B960A4
:1031B0007A603B60BB6819460820FDF7E8FC0446CE
:1031C0007868FFF7A2F93868FFF7AAF9024607F115
:1031D000140311461846FFF7D6FF386BFFF7ABF91B
:1031E00007F1140233462946204600F070F800BF6C
:1031F0001C37BD46F0BD000080B483B000AF7860DE
:10320000034B18460C37BD465DF8047B704700BF82
:103210005555550580B584B000AFF860B9607A6047
:10322000B868FEF7B8FB03461A78FB681A7078682E
:10323000FEF7BCFB03461A68FB685A60FB68184639
:103240001037BD4680BD80B582B000AF78603B1DB1
:10325000184600F050F80346184600F058F80346A8
:1032600018460837BD4680BDB0B584B000AFF860E1
:10327000B9607A60F868FFF79BFE0446B868FFF70C
:1032800097FE05467B681846FFF792FE03461A46EE
:103290002946204600F046F802463B1D11461846D6
:1032A00000F050F8034618461037BD46B0BD80B454
:1032B00083B000AF786039607B683A6812681A6042
:1032C0007B6818460C37BD465DF8047B7047B0B587
:1032D00086B002AFF86039727A603B703A468DF87A
:1032E00000402B467968F86800F038F8FB6818460B
:1032F0001037BD46B0BD80B483B000AF78607B6846
:103300001B6818460C37BD465DF8047B704780B4D7
:1033100083B000AF78607B6818460C37BD465DF817
:10332000047B704780B584B000AFF860B9607A6004
:103330007A68B968F86800F02BF803461846103729
:10334000BD4680BD80B483B000AF786039603B6813
:1033500018460C37BD465DF8047B704780B584B0D5
:1033600000AFF860B9607A603B70B86800F020F890
:103370000346184600F029F803461A78FB681A70CD
:10338000FB6800225A60FB6818461037BD4680BDB6
:1033900080B584B000AFF860B9607A607A68B968C7
:1033A000F86800F01DF8034618461037BD4680BD8A
:1033B00080B582B000AF78607B68184600F03AF8BC
:1033C000034618460837BD4680BD80B483B000AFC1
:1033D00078607B6818460C37BD465DF8047B704703
:1033E00080B586B000AFF860B9607A60BA68FB68F3
:1033F000D31ADB100E4A02FB03F37B617B69002BBF
:1034000009D07A6913465B001344DB001A46F96859
:10341000786812F01AFD7A6913465B001344DB00EA
:103420001A467B68134418461837BD4680BD00BF56
:10343000ABAAAAAA80B582B000AF7860786800F025
:1034400005F8034618460837BD4680BD80B582B0F2
:1034500000AF78607B68184600F005F80346184610
:103460000837BD4680BD80B483B000AF78607B680C
:103470001B6818460C37BD465DF8047B704700009A
:1034800080B584B004AF924BC0221A70904BA82232
:103490005A708F4B01229A708D4B0B22DA708D4B34
:1034A000FF221A708B4BFF225A708A4BFF229A70B0
:1034B000884B0022DA70884B00221A70864B00225B
:1034C0005A70854B00229A70834B0022DA700021DB
:1034D000002011F007FE7E4B1B781A067C4B5B78B0
:1034E0001B041A437A4B9B781B021343784AD27809
:1034F00013431A06764B1B781906754B5B781B0431
:103500001943734B9B781B020B437149C9780B43DA
:103510001B0203F47F031A436D4B1B7819066C4B97
:103520005B781B0419436A4B9B781B020B43684969
:10353000C9780B431B0A03F47F431A43644B1B787F
:103540001906634B5B781B041943614B9B781B0284
:103550000B435F49C9780B431B0E13435F4A13604B
:103560005C4B1B781A065B4B5B781B041A43594B68
:103570009B781B021343574AD27813431A06554BC4
:103580001B781906534B5B781B041943514B9B78EE
:103590001B020B434F49C9780B431B0203F47F0303
:1035A0001A434C4B1B7819064A4B5B781B04194392
:1035B000484B9B781B020B434649C9780B431B0AB7
:1035C00003F47F431A43434B1B781906414B5B7846
:1035D0001B0419433F4B9B781B020B433D49C978A1
:1035E0000B431B0E13433E4A13603B4B1B781A06DA
:1035F000394B5B781B041A43374B9B781B021343F0
:10360000354AD27813431A06334B1B781906324BCE
:103610005B781B041943304B9B781B020B432E49EC
:10362000C9780B431B0203F47F031A432A4B1B7810
:103630001906294B5B781B041943274B9B781B0207
:103640000B432549C9780B431B0A03F47F431A43F4
:10365000214B1B781906204B5B781B0419431E4B2A
:103660009B781B020B431C49C9780B431B0E134369
:103670001C4A13601C4B02931C4B019300230093C4
:10368000184B174A15491A480BF09CF818480BF0CC
:103690004BFA17480BF058FA164915480BF056FB31
:1036A00024220021144812F0EAFB134B134A1A603B
:1036B000114B4FF480625A610F4B10229A610E4AEF
:1036C0000B490F4803F085FD00BFBD4680BD00BF1C
:1036D00054010010580100105C0100104801001056
:1036E0004C0100105001001021501108ED3B100852
:1036F0001401001005371008600100105C6B110800
:10370000AD3E100880B483B000AF786000BF0C37C6
:10371000BD465DF8047B704780B582B000AF78602D
:10372000044B1B68184603F0EBFF00BF0837BD468B
:1037300080BD00BF8C01001080B582B000AF786002
:10374000044B1B68184603F0DBFF00BF0837BD467B
:1037500080BD00BF9001001080B582B000AF7860DE
:10376000786801F098FF034603F08003802B04D1B2
:10377000044B1B68184603F0C3FF00BF0837BD4663
:1037800080BD00BF8C01001080B5AAB000AF78608A
:10379000002387F89F300023C7F8A0300023C7F824
:1037A000983007F1100364220021184612F067FBDD
:1037B000894B8A4A1A6000233B7280237B72E12383
:1037C000BB720023FB7200233B7300237B73824A8E
:1037D00007F108035360804B01221A727E4B804A26
:1037E000DA607D4B7F4A1A617B4B4FF4C0625A61AD
:1037F000794800F05FFF034687F89F3038220021A8
:10380000794812F03CFB784B21221A60764B4FF43A
:1038100040325A61744B00221A6174480AF08CFEDF
:103820007B68062283F82C206B4B5B681A787B68D8
:1038300083F82620684B5B685A787B6883F82720DA
:10384000654B5B689A787B6883F82820624B5B68DD
:10385000DA787B6883F829205F4B5B681A797B688C
:1038600083F82A205C4B5B685A797B6883F82B20AD
:103870007B6840F2DC529A847B6893F82D3043F0E9
:103880000A03DAB27B6883F82D2000220021012090
:1038900003F05AFE0346564A13600022002101201D
:1038A00003F052FE0346534A136007F174032422C7
:1038B0000021184612F0E3FA4F4B7B674FF4AF73C9
:1038C000C7F888303023C7F88C3007F174031A46E4
:1038D00079684A4803F07DFC49494A4800F041FCB8
:1038E000484800F070FC0346002B06D078680BF0C7
:1038F000FDF978680BF094F96BE097F89F30002B96
:1039000065D1404800F0ACFCC7F89800D7F8983073
:10391000012B06DC78680BF0E9F978680BF080F988
:1039200057E0D7F89830023B032B2BD801A252F86E
:1039300023F000BF453910085739100867391008BF
:10394000773910084FF40053C7F8A4304FF4804380
:10395000C7F8A0301FE00023C7F8A4304FF480431D
:10396000C7F8A03017E04FF40053C7F8A430002385
:10397000C7F8A0300FE00023C7F8A4300023C7F831
:10398000A03008E04FF40053C7F8A4304FF4804350
:10399000C7F8A03000BF07F1100319460E4801F028
:1039A0002FFCD7F8A430BB62D7F8A0307B6207F1B8
:1039B00010031946084801F0F7FD074800F078FFAA
:1039C00078680BF0C1F878680BF05CF901E0FCF75F
:1039D000EFFEA837BD4680BD940100100080024074
:1039E000000104100000041044020010109B110894
:1039F0008C01001090010010646B1108993B1008B5
:103A0000000000107C02001080B592B000AF78601A
:103A1000396000237B6400233B64002387F83F3038
:103A200007F10C0330220021184612F028FA07F1A2
:103A30000C0330220021184612F021FA3B683B6447
:103A400045E07B6C032B02D96FF00B037FE03B6CEE
:103A500059687A6C13465B0013449B0048333B441F
:103A60003C3B19603B6C5B8919467A6C13465B00E2
:103A700013449B0048333B44383B19607B6C002B5C
:103A800011D07B6C5A1E07F10C00796C0B465B0061
:103A90000B449B00C11813465B0013449B00483342
:103AA0003B44343B19603B6C1B68002B09D17A6C9A
:103AB00013465B0013449B0048333B44343B0022D5
:103AC0001A607B6C01337B643B6C1B683B643B6C12
:103AD000002BB6D13B681B891A461F4B5A601E4A01
:103AE00007F10C0393601C4A3B68536338680BF082
:103AF00081FD1949194800F0C8FF0346002B03D186
:103B0000002387F83F301BE0144801F0B7FD03465F
:103B100003F00203002B0DD0114B1B684FF4FA6128
:103B2000184603F09BFD0D4801F036F9FE2387F897
:103B30003F3005E038680BF0B7FCF42387F83F30DE
:103B400097F93F3013F1020FD3D097F93F30184661
:103B50004837BD4680BD00BF4402001094010010EC
:103B60009001001080B584B000AF78600023FB6046
:103B7000074B1B78002B05D107F10C0319460548AC
:103B800000F0D4FFFB6818461037BD4680BD00BF6B
:103B9000880100109401001080B584B000AF7860F7
:103BA0000023FB607B68BB600F4B1B684FF0FF314D
:103BB000184603F053FD0346002BF5D1B868FFF714
:103BC000D1FFF860FB68002B0AD0BB681B69B9689D
:103BD000F86898470346002B02D0F8680BF064FCA5
:103BE000FB68002BEAD1DFE78C01001080B582B0C2
:103BF00000AF78607B68002B06D10E4B4FF4067245
:103C00000D490E4812F0BCF87B68732283F82E2011
:103C10007B68742283F82F207B68094A5A617B688D
:103C2000084A9A617868FFF7AFFD00231846083705
:103C3000BD4680BD6C6B1108CC6B1108DC6B1108A4
:103C400091BE1008093A100880B584B000AF7860C2
:103C50007B68FB60F96809480AF05EFD084B1B7839
:103C6000012B07D1064B00221A70064B1B68184621
:103C700003F046FD00BF1037BD4680BD109B110804
:103C8000880100108C01001080B500AF00F0FEFB31
:103C90000346184680BD000080B58EB000AF786046
:103CA00007F1240300221A605A609A60DA601A61F0
:103CB0007B681B68514A934240F09B80504BD3F87D
:103CC000D8304F4A43F40043C2F8D8304C4BD3F8B5
:103CD000D83003F400433B623B6A494BD3F8D830F9
:103CE000474A43F48033C2F8D830454BD3F8D83034
:103CF00003F48033FB61FB69414BD3F8D830404A71
:103D000043F40033C2F8D8303D4BD3F8D83003F435
:103D10000033BB61BB693A4BD3F8E030384A43F01B
:103D20004003C2F8E030364BD3F8E03003F04003F4
:103D30007B617B69324BD3F8E030314A43F00403B6
:103D4000C2F8E0302E4BD3F8E03003F004033B61BF
:103D50003B692B4BD3F8E030294A43F00103C2F80A
:103D6000E030274BD3F8E03003F00103FB60FB6841
:103D70004FF460537B620223BB620023FB62032388
:103D80003B630B237B6307F1240319461D4802F0B4
:103D90000FFA32237B620223BB620023FB62032300
:103DA0003B630B237B6307F124031946164802F09B
:103DB000FFF986237B620223BB620023FB6203239D
:103DC0003B630B237B6307F1240319460F4802F082
:103DD000EFF9002205213D2000F030FC3D2000F0ED
:103DE00047FC002206213E2000F028FC3E2000F087
:103DF0003FFC00BF3837BD4680BD00BF0080024099
:103E000000440258001802580008025800000258E6
:103E100080B500AF024801F0E1FB0023184680BDE9
:103E20009401001080B400AF00231846BD465DF831
:103E3000047B704780B584B000AFF860B9607A60E9
:103E40007B68BA68F968074801F032F90346002B2D
:103E500002D04FF0FF3300E0002318461037BD4674
:103E600080BD00BF9401001080B584B000AFF86041
:103E7000B9607A607B68BA68F968074801F06CF944
:103E80000346002B02D04FF0FF3300E0002318461A
:103E90001037BD4680BD00BF9401001080B500AF53
:103EA00000F0F4FA0346184680BD000080B5A2B0C9
:103EB00000AF786007F1100364220021184611F06A
:103EC000DEFF0023BB670023C7F884300023C7F858
:103ED00080300023FB677B687B674B4800F0C0F9AC
:103EE000B86707F10C0301220021484801F0E0F80F
:103EF000FB681946464811F043FF07F108031F22EB
:103F00000021424801F0D4F8BB681946414811F03D
:103F100037FF7B6F93F82D309B0803F00103DBB272
:103F2000002B0CD0BB6F012B09DC384800F035FDAD
:103F3000786F0AF075FE786F0AF0D8FE5FE07B6F4D
:103F400093F82D3003F00403002B58D1BB6F012BE5
:103F500055DDBB6F023B032B32D801A252F823F090
:103F6000713F1008873F10089B3F1008AF3F1008B3
:103F70004FF40053FB674FF48043C7F880300123B0
:103F8000C7F884301DE00023FB674FF48043C7F877
:103F900080300123C7F8843013E04FF40053FB67EF
:103FA0000023C7F880300123C7F8843009E00023DC
:103FB000FB670023C7F880300123C7F8843000E096
:103FC00000BFD7F88430002B19D007F11003194631
:103FD0000E4801F015F9FB6FBB62D7F880307B62A9
:103FE00007F110031946094801F0DEFA074800F00E
:103FF0005FFC786F0AF0A8FD786F0AF043FE64203A
:1040000003F079F969E700BF7C0200109401001009
:10401000046C1108246C110880B586B002AF78607A
:1040200012480AF005FBF860FB68002B14D0FB680F
:1040300003F120027B681A60FB680D4A1A617B68F5
:104040001B684FF4C06201920093FB68412200217B
:1040500000200BF071F805E0064B01221A707B6816
:1040600000221A6000BF1037BD4680BD109B1108AA
:10407000493C10088801001080B489B000AFF86096
:10408000B9607A607B80FB68BB61BB687B610023A1
:10409000FB617B68203BFB61FB6900221A60FB69C6
:1040A00000221A81FB697A885A81BB691B68002B40
:1040B00003D1BB69FA691A6003E07B691B68FA697E
:1040C0001A607B69FA691A60BB691B68FB6109E0C9
:1040D000FB691A897B8813449AB2FB691A81FB69D0
:1040E0001B68FB61FB69002BF2D100BF00BF2437C6
:1040F000BD465DF8047B704780B582B000AF786044
:1041000078680BF0D1F900BF0837BD4680BD0000CC
:10411000DFF834D000F02CF90C480D490D4A00238B
:1041200002E0D458C4500433C4188C42F9D30A4A6C
:104130000A4C002301E013600432A242FBD311F0C9
:1041400097FFFCF731FA7047008004100000001060
:1041500090000010449D1108900000100C1E0110EA
:10416000FEE780B483B000AF786039607B68002BD5
:104170000BD03B68DB68002B07D03B689B68002BAB
:1041800003D03B681B69002B02D14FF0FF3314E0D2
:104190003B681A687B689A603B685A687B68DA609B
:1041A0003B68DA687B685A613B689A687B681A6189
:1041B0003B681A697B689A61002318460C37BD4634
:1041C0005DF8047B704780B586B000AF786000234F
:1041D000FB6000237B6100233B617B685B68002BF5
:1041E00039D17B689B68002B02D07B689B6898471D
:1041F0007B6820221A6000237B611CE07B685B697E
:1042000007F10C021221786998470346002B03DA64
:104210006FF004033B610BE0FB6803F01F037A6956
:104220009A4205D17B687A691A6000233B6105E0F8
:104230007B6901337B617B691F2BDFD97B681B683E
:104240001F2B02D96FF002033B613B69002B02D1A7
:104250007B6801225A603B6918461837BD4680BD0D
:1042600080B584B000AF78600023FB607B685B6939
:104270007A68106807F10C02012198470346002B69
:1042800002DA6FF004036EE07B685B697A6810689D
:1042900007F10C02012198470346002B02DA6FF068
:1042A000040360E0FB6803F00403002B01D1012349
:1042B00059E07B685B697A68106807F10C0200219D
:1042C00098470346002B02DA6FF004034BE0FB68CB
:1042D00003F48053002B1BD1FB6803F40053002B25
:1042E00006D0FB6803F48073002B01D002233AE070
:1042F000FB6803F40053002B01D0032333E0FB6879
:1043000003F48073002B01D004232CE005232AE062
:104310007B685B697A68106807F10C021F21984777
:104320000346002B02DA6FF004031CE0FB6803F481
:104330008053002B01D1062315E0FB6803F01C031A
:10434000182B01D102230EE0FB6803F01C03082B9D
:1043500001D1032307E0FB6803F01C03142B01D1F8
:10436000042300E0052318461037BD4680BD000039
:1043700080B400AF0B4BD3F888300A4A43F4700383
:10438000C2F88830074B1B69064A43F010031361DB
:10439000044B4FF001629A6000BFBD465DF8047B9C
:1043A000704700BF00ED00E080B582B000AF284B41
:1043B000D3F8D830264A43F48043C2F8D830244B8F
:1043C000D3F8D83003F480433B603B68214B1B6833
:1043D00023F47F2323F470631E4A43F401431360E4
:1043E0001C4B1B681B4A43F001031360032000F0C1
:1043F0001AF902F079F90246154B9B691B0A03F082
:104400000F031549CB5C03F01F0322FA03F37B6013
:104410000F4B9B6903F00F030F4AD35C03F01F039C
:104420007A6822FA03F30D4A13600C4B1B680C4A9E
:1044300013600020FCF720FA0346002B01D0012373
:1044400002E0FCF7F3F9002318460837BD4680BDAB
:1044500000440258004402401C9B11081800001040
:104460001400001080B400AF064B1B781A46064BB0
:104470001B681344044A136000BFBD465DF8047B0B
:10448000704700BF200000109C02001080B400AFF5
:10449000034B1B681846BD465DF8047B704700BFA0
:1044A0009C02001080B483B000AF7860064B5B685C
:1044B00023F4600204497B6813434B6000BF0C3750
:1044C000BD465DF8047B70470004005880B485B099
:1044D00000AF78607B6803F00703FB600C4BDB6880
:1044E000BB60BA684FF6FF031340BB60FB681A025B
:1044F000BB68134343F0BF6343F40033BB60044A1B
:10450000BB68D36000BF1437BD465DF8047B7047BD
:1045100000ED00E080B400AF044BDB681B0A03F041
:1045200007031846BD465DF8047B704700ED00E0C8
:1045300080B483B000AF0346FB80B7F90630002B90
:104540000BDBFB8803F01F020749B7F906305B0954
:10455000012000FA02F241F8232000BF0C37BD46CB
:104560005DF8047B704700BF00E100E080B483B0D9
:1045700000AF03463960FB80B7F90630002B0ADB39
:104580003B68DAB20C49B7F906301201D2B20B44DB
:1045900083F800230AE03B68DAB20849FB8803F09D
:1045A0000F03043B1201D2B20B441A7600BF0C3742
:1045B000BD465DF8047B704700E100E000ED00E0DF
:1045C00080B489B000AFF860B9607A60FB6803F02E
:1045D0000703FB61FB69C3F10703042B28BF042316
:1045E000BB61FB690433062B02D9FB69033B00E086
:1045F00000237B614FF0FF32BB6902FA03F3DA4319
:10460000BB681A407B699A404FF0FF317B6901FA21
:1046100003F3D9437B680B40134318462437BD4648
:104620005DF8047B704780B582B000AF7860786831
:10463000FFF74CFF00BF0837BD4680BD80B586B090
:1046400000AF0346B9607A60FB81FFF763FF7861D2
:104650007A68B9687869FFF7B3FF0246B7F90E3098
:1046600011461846FFF782FF00BF1837BD4680BDD0
:1046700080B582B000AF0346FB80B7F9063018461C
:10468000FFF756FF00BF0837BD4680BD80B400AFBE
:10469000074B1B681B0903F00F03072B01D10323F2
:1046A00000E001231846BD465DF8047B704700BF5B
:1046B00000ED00E080B584B000AF78607B68002B2F
:1046C00001D10123E7E07B68D3F88430002B06D1C9
:1046D0007B682322C3F884207868FFF7DDFA704BEB
:1046E000D3F8F4306E4A43F00203C2F8F4306C4B56
:1046F000D3F8F43003F00203BB60BB687B681B7A1D
:10470000002B03D10020FFF7CDFE03E04FF40000A3
:10471000FFF7C8FE634B5B687B681B6803F580533B
:104720001B687A68126843F0010302F58052136037
:10473000FFF7ACFEF86011E0FFF7A8FE0246FB6849
:10474000D31AB3F5FA7F09D97B680422C3F888200D
:104750007B68E022C3F8842001239CE07B681B680F
:1047600003F580531B6803F00103002BE4D1786844
:1047700000F034FF02F032F903464B4AA2FB032358
:104780009A0C7B681B68013AC3F8DC20786801F05A
:1047900031F97B681B6803F58053D3F8003123F4AB
:1047A000E0137A68126843F4002302F58052C2F8DD
:1047B00000317B685B6903F00303002B09D07B6841
:1047C0000122C3F888207B68E022C3F884200123FB
:1047D00061E07B681B6803F58053D3F8083123F44C
:1047E000FF4323F07E037A68526951007A681268A9
:1047F0000B4302F58052C2F80831786801F097F94E
:10480000786801F0DDF97B685B6805331B781A0274
:104810007B685B6804331B7819467B681B680A4316
:10482000C3F800237B685B6803331B781A067B6838
:104830005B6802331B781B041A437B685B68013397
:104840001B781B021A437B685B681B7819467B68E0
:104850001B680A43C3F804237B681B68D3F80C1752
:104860007B681A68114B0B43C2F80C377B681B68D6
:10487000D3F810377A68126843F0426343F4404338
:10488000C2F810377B680022C3F888207B681022AA
:10489000C3F88420002318461037BD4680BD00BFF2
:1048A000004402580004005883DE1B436000020CE1
:1048B00080B582B000AF78607B68D3F88430102B6D
:1048C00066D17B682322C3F884207B6801229A6525
:1048D0007B680422DA66786800F0E5F97B681B687B
:1048E00003F58053D3F804317A68126843F001036A
:1048F00002F58052C2F804317B681B6803F58053CF
:10490000D3F808317A68126843F0010302F5805247
:10491000C2F808317B681B6803F58053D3F8603117
:104920007A68126843F4817302F58052C2F86031EC
:104930007B681B68D3F8002D7B681B6842F001027E
:10494000C3F8002D7B681B681A687B681B6842F0FF
:1049500002021A607B681B681A687B681B6842F059
:1049600001021A607B681B6803F58053D3F8343169
:104970007A68126843F4504343F0C10302F5805251
:10498000C2F834317B682322C3F88420002300E07E
:10499000012318460837BD4680BD80B485B000AFFE
:1049A00078607B68D3F88430232B67D17B6823221F
:1049B000C3F884207B681B6803F58053D3F8343137
:1049C0007A68126823F4504323F0C10302F5805241
:1049D000C2F834317B681B6803F58053D3F8043187
:1049E0007A68126823F0010302F58052C2F804319C
:1049F0007B681B6803F58053D3F808317A68126826
:104A000023F0010302F58052C2F808317B681B686D
:104A10001A687B681B6822F001021A607B681B68B9
:104A2000D3F8002D7B681B6842F00102C3F8002D0B
:104A30007B681B681A687B681B6822F002021A6098
:104A40000023FB600EE07B68FA68123253F82230D4
:104A5000BB60BB68DB6823F08042BB68DA60FB6840
:104A60000133FB60FB68032BEDD97B6800229A655C
:104A70007B681022C3F88420002300E0012318463D
:104A80001437BD465DF8047B704780B582B000AF37
:104A9000786039603B68002B09D17B68D3F8883097
:104AA00043F001027B68C3F8882001233AE07B6869
:104AB000D3F88430232B34D13B685A6B7B68DA639C
:104AC00001223968786801F0D8F80346002B09D034
:104AD0007B68D3F8883043F002027B68C3F88820F3
:104AE00001231FE0BFF34F8F00BF7B689B6A5A1CF6
:104AF0007B689A627B689B6A032B04D97B689B6AFC
:104B00001A1F7B689A627B68996A7B681A687B685F
:104B1000063153F8213002F58052C2F820310023CB
:104B200000E0012318460837BD4680BD80B588B037
:104B300000AF7860396000237B610023FB743B6821
:104B4000002B09D17B68D3F8883043F001027B68E1
:104B5000C3F888200123A2E07B68D3F88430232B9C
:104B600001D001239BE07B68DB6DFB617B68FA6908
:104B7000123253F82230BB617B68DB6EC3F1040351
:104B8000FB6064E0BB69DB6803F08043002B07D067
:104B9000BB695A687B689A67BB691A687B685A6701
:104BA000BB69DB6803F00053002B03D17B68DB6F2C
:104BB000002B3AD0BB69DB6803F00053002B05D013
:104BC0007B6800221A667B6800225A66BB69DB6834
:104BD000C3F30E027B685B6ED31ABB60BB69DB68F4
:104BE00003F08053002B05D0BB69DA687B681A6735
:104BF0000123FB747B6803F17C007B6803F1800177
:104C0000BB691B691A46BB689BB2FFF735FA7B6824
:104C10001B6E5A1C7B681A667B685A6EBB681A4406
:104C20007B685A66BB6900221A61FB690133FB612C
:104C3000FB69032B02D9FB69043BFB617B68FA69C2
:104C4000123253F82230BB617B6901337B61BB694F
:104C5000DB68002B06DB7A69FB689A4202D2FB7C98
:104C6000002B8FD07B68DA6E7B691A447B68DA662A
:104C70007B68DB6E002B02D0786800F014F87B684C
:104C8000FA69DA65FB7C012B08D17B68DA6F3B6837
:104C90001A607B680022DA67002300E001231846CF
:104CA0002037BD4680BD80B588B000AF7860002356
:104CB000BB600123FB747B689B6EFB617B68FA69B8
:104CC000123253F822307B617B68DB6EBB6138E0C7
:104CD0007B691B69002B12D107F108031846FFF707
:104CE0009BF9BB68002B02D10023FB7407E0BB6873
:104CF0001A467B691A61BB681A467B691A60FB7C9D
:104D0000002B1ED07B689B6D002B04D07B694FF07D
:104D10004142DA6003E07B694FF00142DA60FB69EF
:104D20000133FB61FB69032B02D9FB69043BFB6187
:104D30007B68FA69123253F822307B61BB69013B10
:104D4000BB61BB69002B02D0FB7C002BC0D17B6810
:104D5000DB6EBA699A421BD0FB69013303F003038F
:104D6000FB60BFF35F8F00BF7B681969FA68134669
:104D70005B001344DB00CA187B681B6803F5805393
:104D8000C3F828217B68FA699A667B68BA69DA6693
:104D900000BF2037BD4680BD80B586B000AF7860CB
:104DA0007B681833BB60BB689B6A7B61BB68DB6A4E
:104DB0003B610123FB7347E00123BB737B69013B2C
:104DC0007B61BA683B6904339B0013445B68002B2A
:104DD0000AD13B6901333B613B69032B02D93B6933
:104DE000043B3B610023BB73BB7B002B2CD07B6857
:104DF000D9683A6913465B001344DB000B44DB6857
:104E0000002B1FDBBA683B6904339B0013445B68CB
:104E10001846FFF771F9BA683B6904339B001344E5
:104E200000225A603B6901333B613B69032B02D985
:104E30003B69043B3B61BB687A699A62BB683A692B
:104E4000DA6201E00023FB737B69002B02D0FB7B5D
:104E5000002BB1D1002318461837BD4680BD000095
:104E600080B588B000AF78607B681B68D3F8B0303D
:104E7000FB617B681B6803F58053D3F86031BB612D
:104E80007B681B6803F58053D3F834317B61774B23
:104E90009B6A3B61764B9B6AFB60BB6903F04003F6
:104EA000002B10D07B6903F04003002B0BD07B68F4
:104EB0001B6803F580531A4648F24003C2F860317C
:104EC0007868FEF729FCBB6903F00103002B10D0C2
:104ED0007B6903F00103002B0BD07B681B6803F593
:104EE00080531A4648F20103C2F860317868FEF731
:104EF00023FCBB6903F48043002B47D07B6903F498
:104F00008043002B42D07B68D3F8883043F00802FE
:104F10007B68C3F88820BB6903F48053002B1ED044
:104F20007B681B6803F58053D3F8602141F20213BC
:104F300013407A68C2F88C307B681B6803F5805395
:104F4000D3F834317A68126823F4404302F5805272
:104F5000C2F834317B68E022C3F8842013E07B6818
:104F60001B6803F58053D3F8603103F4CD427B68AE
:104F7000C3F88C207B681B6803F580531A464FF4F6
:104F8000CD43C2F860317868FEF7E6FBFB6903F4B5
:104F90008043002B04D1FB6903F40053002B19D08C
:104FA0007B68D3F8883043F010027B68C3F8882010
:104FB0007B681B68D3F8B8207B68C3F890207B68B7
:104FC000E022C3F884207868FEF7C6FB7B680022E5
:104FD000C3F89020FB6903F01003002B0FD07B680F
:104FE0001B68D3F8C03003F060027B68C3F89420DC
:104FF000786800F03FF87B680022C3F89420FB69D2
:1050000003F02003002B0FD07B681B68D3F8D0304F
:1050100003F00F027B68C3F89820786800F034F83A
:105020007B680022C3F89820FFF730FB0346032B70
:105030000CD13B6903F48003002B13D00B4B4FF4CE
:1050400080029A62786800F029F80BE0FB6803F4AC
:105050008003002B06D0064B4FF480029A627868DA
:1050600000F01CF800BF2037BD4680BD800000580E
:10507000C000005880B483B000AF786000BF0C3728
:10508000BD465DF8047B704780B483B000AF7860A4
:1050900000BF0C37BD465DF8047B704780B483B019
:1050A00000AF786000BF0C37BD465DF8047B7047E9
:1050B00080B586B000AFF860B9607A603B60FB688D
:1050C0001B68D3F8003203F00103002B01D0012349
:1050D0003EE0FB681B68D3F800327B617B6923F0FC
:1050E0007872BB685B0513437B617B6923F4F8121C
:1050F0007B681B0413437B617B6943F00C037B617A
:105100007B6943F001037B61FB681B687A69C3F824
:105110000022FFF7BBF9386109E0FFF7B7F9024653
:105120003B69D31AB3F57A7F01D9012310E0FB68FC
:105130001B68D3F8003203F00103002BEDD1FB68AC
:105140001B68D3F804329BB21A463B681A600023EE
:1051500018461837BD4680BD80B586B000AFF860F0
:10516000B9607A603B60FB681B68D3F8003203F0DB
:105170000103002B01D001233CE0FB681B68D3F83E
:1051800000327B617B6923F07872BB685B05134357
:105190007B617B6923F4F8127B681B0413437B61FA
:1051A0007B6923F00C0343F004037B617B6943F0CC
:1051B00001037B613B689AB2104BC3F804220F4A8B
:1051C0007B69C2F80032FFF761F9386109E0FFF747
:1051D0005DF902463B69D31AB3F57A7F01D9012301
:1051E00008E0FB681B68D3F8003203F00103002BD2
:1051F000EDD1002318461837BD4680BD008002401F
:1052000080B483B000AF786039603B68002B01D177
:105210000123C3E17B681B681B6803F00C023B6839
:10522000DA627B681B681B6803F01003002B14BF55
:1052300001230023DBB21A463B6883F828207B68F1
:105240001B681B6803F060023B685A627B681B683E
:105250001B6803F48073002B0CBF01230023DBB217
:105260001A463B6883F820207B681B681B6803F4A0
:105270000073002B14BF01230023DBB21A463B68E6
:10528000DA777B681B681B6803F48063002B0CBF14
:1052900001230023DBB21A463B689A777B681B68C0
:1052A0001B6803F40063002B14BF01230023DBB24F
:1052B0001A463B685A777B681B681B6803F4805367
:1052C000002B14BF01230023DBB21A463B681A7778
:1052D0007B681B681B6803F400523B689A617B681B
:1052E0001B681B6803F480423B685A617B681B683B
:1052F0001B6803F48033002B14BF01230023DBB2AF
:105300001A463B689A747B681B681B6803F4003379
:10531000002B0CBF01230023DBB21A463B685A74F2
:105320007B681B681B6803F40023002B0CBF012360
:105330000023DBB21A463B681A747B681B681B6843
:1053400003F48013002B14BF01230023DBB21A46A1
:105350003B68DA737B681B681B6803F40013002B3F
:1053600014BF01230023DBB21A463B689A737B68A3
:105370001B681B6803F48003002B14BF0123002368
:10538000DBB21A463B685A737B681B681B6803F4E0
:105390000003002B14BF01230023DBB21A463B6835
:1053A0001A737B681B681B6803F0E0623B689A60B5
:1053B0007B681B681B6803F00063002B14BF01238C
:1053C0000023DBB21A463B681A717B681B681B68B6
:1053D00003F0E0423B681A607B681B685B68C3F3BC
:1053E0000D023B685A637B681B685B6803F480337B
:1053F000002B0CBF01230023DBB21A463B6883F865
:1054000032207B681B685B6803F40033002B14BFF9
:1054100001230023DBB21A463B6883F831207B6806
:105420001B685B6803F48023002B14BF0123002357
:10543000DBB21A463B6883F830207B681B685B68E8
:1054400003F08073002B14BF01230023DBB21A4644
:105450003B6883F838207B681B685B685B0E03F051
:105460001F023B68DA637B681B68DB6803F48073A8
:10547000002B14BF01230023DBB21A463B6883F8DC
:1054800040207B681B68DB6803F00F023B685A64AE
:105490007B681B681B6F03F00203002B14BF012302
:1054A0000023DBB21A463B6883F854207B681B68F4
:1054B0001B6F03F08003002B0CBF01230023DBB222
:1054C0001A463B6883F84C207B681B681B6F03F00F
:1054D00070023B681A657B681B681B6F1B0C9AB2D5
:1054E0003B689A647B681B68D3F8903003F0010333
:1054F000002B14BF01230023DBB21A463B6883F85C
:1055000056207B681B68D3F8903003F00203002B11
:1055100014BF01230023DBB21A463B6883F85520F1
:105520007B681B68D3F8003D03F072023B689A6504
:105530007B681B68D3F8303D03F023023B68DA65D3
:105540007B681B68D3F8303D03F00803002B14BFC1
:1055500001230023DBB21A463B6883F862207B6894
:105560001B68D3F8303D03F01003002B14BF012358
:105570000023DBB21A463B6883F861207B681B6816
:10558000D3F8303D03F04003002B0CBF0123002370
:10559000DBB21A463B6883F86020002318460C37BC
:1055A000BD465DF8047B704780B582B000AF78607F
:1055B00039603B68002B01D101230BE07B68D3F8F5
:1055C0008430102B05D13968786800F071F8002319
:1055D00000E0012318460837BD4680BD80B584B081
:1055E00000AF78607B681B68D3F80032FB60FB6813
:1055F00023F47063FB6001F0F1F9B860BB681A4AEC
:10560000934204D8FB6843F40073FB6022E0BB685C
:10561000164A934204D2FB6843F44073FB6019E0DE
:10562000BB68134A934215D9BB68124A934204D807
:10563000FB6843F48073FB600CE0BB680E4A934246
:1056400004D8FB6843F48063FB6003E0FB6843F429
:10565000A063FB607B681B68FA68C3F8002200BF88
:105660001037BD4680BD00BFBF0E160200879303F2
:10567000FFE0F5057FD1F0087FB2E60E80B483B07D
:1056800000AF78607B68D3F8883018460C37BD4689
:105690005DF8047B704780B483B000AF78607B68AE
:1056A000D3F88C3018460C37BD465DF8047B704744
:1056B00080B485B000AF786039603B689A683B6819
:1056C0001B681A433B681B79DB061A433B681B7B4C
:1056D000DB051A433B685B7B9B051A433B689B7B5E
:1056E0005B051A433B68DB7B1B0513433A68127C5E
:1056F000002A02D14FF4002200E0002213433A684E
:10570000527C002A02D14FF4003200E000221A43FA
:105710003B689B7C1B041A433B685B691A433B68EC
:105720009B691A433B681B7F1B031A433B685B7FE3
:10573000DB0213433A68927F002A02D14FF4806261
:1057400000E000221A433B68DB7F5B0213433A68A8
:1057500092F82020002A02D14FF4807200E000224B
:105760001A433B685B6A1A433B6893F828301B0175
:105770001A433B68DB6A1343FB607B681B681A684B
:10578000574B13407A681268F9680B4313603B6803
:10579000DB6B5A063B6893F838301B061A433B68AC
:1057A00093F830309B041A433B6893F831305B0424
:1057B00013433A6892F83220002A02D14FF4803223
:1057C00000E000221A433B685B6B1343FB607B687D
:1057D0001B685A68434B13407A681268F9680B4398
:1057E00053603B6893F840301A023B685B6C13438C
:1057F000FB607B681B68DB6823F4877323F001037D
:105800007A681268F9680B43D3603B6893F85430A8
:105810005A003B681B6D13433A6892F84C20002AEB
:1058200001D1802200E000221A433B689B6C1B04DC
:105830001343FB607B681B681A6F4FF60D731340B0
:105840007A681268F9680B4313673B6893F856301F
:105850001A463B6893F855305B001343FB607B6846
:105860001B68D3F8903023F003017B681B68FA684B
:105870000A43C3F890207B681B68D3F8003D23F0EF
:1058800072013B689A6D7B681B680A43C3F8002D60
:105890003B68DB6D3A6892F86020002A01D1402213
:1058A00000E000221A433B6893F861301B011A4361
:1058B0003B6893F86230DB001343FB607B681B6836
:1058C000D3F8303D23F07B017B681B68FA680A43FC
:1058D000C3F8302D00BF1437BD465DF8047B704718
:1058E000838004000080F8C080B485B000AF786089
:1058F00039607B681B6803F580531B6823F4F04311
:1059000023F002033A6811687A6812680B4302F5C3
:10591000805213603B681B791A033B689B681A43EB
:105920003B681B7BDB031343FB607B681B6803F551
:1059300080535B6823F4504323F001037A681268B4
:10594000F9680B4302F5805253603B685B7B1A0495
:105950003B681B6A1343FB607B681B6803F580533D
:10596000D3F80021214B13407A681268F9680B4381
:1059700002F58052C2F800313B681A693B681B7D12
:105980001B011A433B685B7F1B031343FB607B686F
:105990001B6803F58053D3F80421154B13407A6834
:1059A0001268F9680B4302F58052C2F804313B6873
:1059B0001B7FDA073B689B691343FB607B681B68AE
:1059C00003F58053D3F8083123F0004323F47C130C
:1059D0007A681268F9680B4302F58052C2F8083100
:1059E00000BF1437BD465DF8047B704700C0FEFF62
:1059F000EFEFC0FF80B5A4B000AF7860012387F857
:105A00003B3000233B65002387F84930002387F8AB
:105A10004B30012387F83030012387F85E300123B3
:105A200087F83A30002387F85430012387F88C3008
:105A30004FF400537B64002387F864300023BB6677
:105A4000002387F88D30002387F88E304FF4C3632E
:105A50003B66002387F8383000237B63012387F8F7
:105A60003D30002387F83E30002387F8483000237C
:105A7000FB6700237B670023BB65002387F86C303E
:105A8000002387F88230012387F84A302023C7F8A3
:105A90008830012387F84C30002387F85D304FF0C1
:105AA0004053FB624FF480433B64002387F8393056
:105AB0000223C7F88430002387F88030002387F85A
:105AC0008130002387F85C30012387F83C300023C5
:105AD0003B67012387F8783007F12C031946786873
