:020000040810E2
:1000000000800410316A100811111008191110082D
:1000100021111008291110083111100800000000EA
:10002000000000000000000000000000B1091108FD
:100030003911100800000000010C110829FA1008FD
:10004000816A1008816A1008816A1008816A1008A4
:10005000816A1008816A1008816A1008816A100894
:10006000816A1008816A1008816A1008816A100884
:10007000816A1008816A1008816A1008816A100874
:10008000816A1008816A1008816A1008816A100864
:10009000816A1008816A1008816A1008816A100854
:1000A000816A1008816A1008816A1008816A100844
:1000B000816A1008816A1008816A1008816A100834
:1000C000816A1008816A1008816A1008816A100824
:1000D000816A1008816A1008816A1008816A100814
:1000E000816A1008816A100800000000816A100807
:1000F000816A1008816A1008816A1008816A1008F4
:10010000816A1008816A1008816A1008816A1008E3
:10011000816A1008816A100849111008816A100864
:10012000816A1008816A1008816A1008816A1008C3
:10013000816A10085D11100871111008816A100899
:10014000816A1008816A10080000000000000000A9
:10015000816A1008816A1008816A1008816A100893
:10016000816A1008816A1008816A1008816A100883
:10017000816A1008816A1008816A10080000000076
:10018000816A1008816A1008816A1008816A100863
:10019000816A1008816A1008816A1008816A100853
:1001A000816A1008816A1008816A1008816A100843
:1001B000816A1008816A1008816A1008816A100833
:1001C000816A1008816A1008816A1008816A100823
:1001D000816A1008816A1008816A1008816A100813
:1001E000816A1008816A1008816A1008816A100803
:1001F000816A1008816A1008816A1008816A1008F3
:10020000816A1008816A1008816A1008816A1008E2
:10021000816A1008816A1008816A1008816A1008D2
:10022000816A1008816A1008816A1008816A1008C2
:10023000816A1008816A100885111008816A100807
:10024000816A1008816A1008816A1008816A1008A2
:10025000816A1008816A1008816A1008816A100892
:10026000816A1008816A1008816A1008816A100882
:10027000816A1008816A1008816A1008816A100872
:10028000816A1008816A1008816A10080000000065
:08029000816A1008816A100860
:1002A00010B5054C237833B9044B13B10448AFF3B0
:1002B00000800123237010BD90000010000000009A
:1002C0003833120808B5034B1BB103490348AFF399
:1002D000008008BD000000009400001038331208B0
:1002E00001F0FF01102A2BDB10F0070F08D010F8E7
:1002F000013B013A8B422DD010F0070F42B3F6D1EB
:10030000F0B441EA012141EA014122F007047FF003
:1003100000070023F0E80256083C85EA010586EA5A
:10032000010685FA47F5A3FA87F586FA47F6A5FA96
:1003300087F68EB9EED1F0BC01F0FF0102F00702A2
:1003400032B110F8013B013A83EA010313B1F8D14D
:100350000020704701387047002D06BF354603382E
:10036000073815F0010F07D1013015F4807F02BF67
:10037000013015F4C03F0130F0BC0138704700BFB8
:10038000034613F8012B002AFBD1181A01387047D5
:1003900053B94AB9002908BF00281CBF4FF0FF31EC
:1003A0004FF0FF3000F06AB9ADF1080C6DE904CEF2
:1003B00000F006F8DDF804E0DDE9022304B0704740
:1003C0002DE9F047089D0C46002B4ED194468C45F4
:1003D0008646B2FA82F262D94AB1C2F12003914054
:1003E00020FA03F30CFA02FC194300FA02FE4FEA6A
:1003F0001C471FFA8CF6B1FBF7F44FEA1E4307FBCC
:10040000141143EA014304FB06F199420AD91CEB9B
:10041000030304F1FF3080F01281994240F20F8112
:10042000023C6344591A1FFA8EF3B1FBF7F007FB45
:10043000101143EA014300FB06F69E420AD91CEB69
:10044000030300F1FF3180F0FC809E4240F2F9800E
:10045000634402389B1B40EA044000211DB1D34095
:100460000022C5E90032BDE8F0878B4205D90DB105
:10047000C5E9000100210846F5E7B3FA83F1002938
:1004800046D1A34202D39042C0F0F080861A64EBBA
:1004900003030120002DE6D0C5E90063E3E7002A4D
:1004A00040F09080A1EB0C044FEA1C481FFA8CF737
:1004B0000121B4FBF8F64FEA1E4308FB164443EA59
:1004C000044307FB06F0984208D91CEB030306F12E
:1004D000FF3402D2984200F2CD8026461C1A1FFA41
:1004E0008EF3B4FBF8F008FB104443EA044300FB2E
:1004F00007F79F4208D91CEB030300F1FF3402D237
:100500009F4200F2B0802046DB1B40EA0640A5E790
:10051000C1F120068B4022FA06F71F4320FA06FCA1
:1005200004FA01F343EA0C03F44000FA01F8380C32
:100530004FEA1349B4FBF0FE1FFA87FC00FB1E4490
:1005400049EA04440EFB0CF9A14502FA01F20AD96A
:100550003C190EF1FF3A80F08480A14540F2818081
:10056000AEF1020E3C44A4EB09041FFA83F9B4FB7C
:10057000F0F300FB134449EA044403FB0CFCA445DC
:1005800007D93C1903F1FF3067D2A44565D9023B76
:100590003C4443EA0E40A0FB0293A4EB0C049C42B3
:1005A000CE469C4651D34ED055B1B8EB0E0364EB0A
:1005B0000C0404FA06F6CB401E43CC40C5E90064A7
:1005C000002150E7C2F1200320FA03F10CFA02FCEB
:1005D00024FA03F394400C434FEA1C4800FA02FE4D
:1005E0001FFA8CF7B3FBF8F008FB1031230C43EA39
:1005F000014300FB07F1994208D91CEB030300F10A
:10060000FF362CD299422AD9023863445B1AA4B22D
:10061000B3FBF8F108FB113344EA034401FB07F391
:10062000A34208D91CEB040401F1FF3613D2A34204
:1006300011D902396444E41A41EA004139E7044619
:10064000F0E6084606E7C845AED2B9EB020E63EB0A
:10065000070C0138A8E73146EDE7034699E7304635
:10066000D4E7D6467FE7634402384DE70646234683
:1006700008460FE7023E634430E700BF704700BF03
:1006800080B483B000AF7860054B1A687B681A604D
:100690007B6818460C37BD465DF8047B704700BF89
:1006A000AC01001080B500AF104B1B68BFF35B8F2F
:1006B00003F00103002B0CBF01230023DBB2002B4E
:1006C00010D00A4820F080FE0346002B14BF0123FF
:1006D0000023DBB2002B05D00548FFF7D1FF03480C
:1006E00020F07EFE024B184680BD00BFB000001017
:1006F000AC0000100EB480B585B000AF78607B68A8
:100700001B684FF0FF3118460FF03AFB07F120034A
:10071000FB60114B1B689B68FA68F969184621F069
:100720002DFA0D4B1B689B68022201210B4821F01A
:100730008BFD094B1B689B68184621F063FC7B68A6
:100740001B6818460FF067FB00BF1437BD46BDE8B5
:10075000804003B0704700BF4000001050331208C3
:1007600080B582B000AF78607B6803F08053002BC7
:1007700005D04FF080500AF0C7FE00F045F87B68C6
:10078000002B05DA4FF000400AF0BEFE00F060F8E2
:1007900000BF0837BD4680BD80B582B002AF0E4BAA
:1007A00000930E4B0122002140F6543011F0D2FB91
:1007B00003460B4A13600B4B00930B4B01220021A5
:1007C00040F6543011F0C6FB0346054A536000233F
:1007D0001846BD4680BD00BF0800003850000038F4
:1007E000000000382C000038A40B003880B500AFA2
:1007F0004FF080500AF088FE4FF000400AF084FE6F
:100800000023184680BD000080B582B000AF0023F1
:100810007B600D4B1B68002B12D00B4B1B683A1DE5
:100820001146184611F0F2FD7B68002B09D0074BEA
:100830004FF080521A60BFF34F8FBFF36F8F00E00D
:1008400000BF0837BD4680BD0000003804ED00E061
:1008500080B582B000AF00237B600D4B5B68002B3E
:1008600012D00B4B5B683A1D1146184611F012FE70
:100870007B68002B09D0074B4FF080521A60BFF302
:100880004F8FBFF36F8F00E000BF0837BD4680BDBC
:100890000000003804ED00E080B584B000AF78605F
:1008A0007B68FB60BFF34F8F00BF124B5B68FA6839
:1008B0009A420BD11B211D200AF0EEFD0346002BAE
:1008C00014D11B211D200AF00BFE0FE0094B1B6801
:1008D000FA689A420AD11B211E200AF0DDFD034668
:1008E000002B03D11B211E200AF0FAFD00BF103798
:1008F000BD4680BD0000003880B586B000AFF8600E
:10090000B9607A600F4B5B68002B01D1002315E0C2
:100910007B68002B09DA0B4B58684FF0FF33BA683D
:10092000F96811F0D1FB786107E0064B58687B68E5
:10093000BA68F96811F0C8FB78617B691846183706
:10094000BD4680BD0000003880B586B000AFF860BD
:10095000B9607A607B68002B09DA0B4B18684FF09E
:10096000FF33BA68F96811F096FC786107E0064B2E
:1009700018687B68BA68F96811F08DFC78617B694A
:1009800018461837BD4680BD0000003880B582B0DB
:1009900000AF344BD3F8E030324A43F00073C2F872
:1009A000E030304BD3F8E03003F000737B607B68BD
:1009B00001200AF0A9FD0BF043FB012202210020D7
:1009C0000BF0C4FA284B1B681B0903F00F03072B1D
:1009D00008D1264BD3F80431244A43F00103C2F86E
:1009E000043107E0214BD3F81431204A43F00103CE
:1009F000C2F8143108F092FB00F004F900F01CF981
:100A000000F052F800F09EF8FFF7C6FE0FF026F84F
:100A100017480FF02FF90346164A1360164A0021B3
:100A200016480FF07AF80346154A1360154A00215C
:100A300015480FF072F80346144A1360144A002157
:100A400014480FF06AF80346134A1360134A002152
:100A500013480FF062F80346124A13600FF022F8B1
:100A600000BFFDE70044025800ED00E000640258BA
:100A70004C891208AC010010BC881208FD57100800
:100A80009C010010E088120875321008A0010010C7
:100A900004891208E1131008A40100102889120823
:100AA000156B1008A801001080B500AF224B234A37
:100AB0001A60214B224A5A601F4B00229A601E4B3B
:100AC0000122DA601C4B00221A611B4B00225A6182
:100AD000194B00229A61184B0022DA61164B002252
:100AE0001A6215480AF03CFD0346002B14BF01238F
:100AF0000023DBB2002B01D000F036F900210E48B4
:100B00000BF08CF90346002B14BF01230023DBB24A
:100B1000002B01D000F028F9022107480BF0C9F999
:100B20000346002B14BF01230023DBB2002B01D0AE
:100B300000F01AF900BF80BDB4000010001C00587E
:100B4000FFECC01080B500AF2C4B2D4A1A602B4B28
:100B50004FF4E1325A60294B00229A60274B002261
:100B6000DA60264B00221A61244B0C225A61234B77
:100B700000229A61214B0022DA61204B00221A6286
:100B80001E4B00225A621D4B00229A621B480DF038
:100B9000B9FD0346002B14BF01230023DBB2002B59
:100BA00001D000F0E1F8002114480EF049FE0346A0
:100BB000002B14BF01230023DBB2002B01D000F077
:100BC000D3F800210D480EF079FE0346002B14BF28
:100BD00001230023DBB2002B01D000F0C5F8074849
:100BE0000EF0F5FD0346002B14BF01230023DBB2FA
:100BF000002B01D000F0B8F800BF80BD0801001044
:100C00000010014080B483B000AF0A4BD3F8D43059
:100C1000084A43F00103C2F8D430064BD3F8D4306D
:100C200003F001037B607B6800BF0C37BD465DF8B5
:100C3000047B70470044025880B489B000AF374B42
:100C4000D3F8E030354A43F04003C2F8E030334B8C
:100C5000D3F8E03003F04003FB61FB692F4BD3F87E
:100C6000E0302E4A43F01003C2F8E0302B4BD3F8AB
:100C7000E03003F01003BB61BB69284BD3F8E030D0
:100C8000264A43F00403C2F8E030244BD3F8E030A6
:100C900003F004037B617B69204BD3F8E0301F4AEB
:100CA00043F00103C2F8E0301C4BD3F8E03003F00E
:100CB00001033B613B69194BD3F8E030174A43F01D
:100CC0000203C2F8E030154BD3F8E03003F0020322
:100CD000FB60FB68114BD3F8E030104A43F080030F
:100CE000C2F8E0300D4BD3F8E03003F08003BB6076
:100CF000BB680A4BD3F8E030084A43F00803C2F857
:100D0000E030064BD3F8E03003F008037B607B68EB
:100D100000BF2437BD465DF8047B7047004402588D
:100D200080B582B000AF7860391D4FF6FF730122A5
:100D300003480DF037FD7B6818460837BD4680BD77
:100D40000801001080B582B000AF78607B681B6836
:100D5000044A934201D108F03FFA00BF0837BD466C
:100D600080BD00BF0010004080B400AF72B600BF6D
:100D700000BFFDE780B582B000AF786039607B6866
:100D8000012B24D13B684FF6FF7293421FD1002202
:100D90001C21402010F0E1F803460F4A13600022A6
:100DA0001C21102010F0D9F803460C4A13600022D1
:100DB0001C21102010F0D1F80346094A13600022CC
:100DC0001C21042010F0C9F80346064A136000BF36
:100DD0000837BD4680BD00BFB0010010B40100104F
:100DE000B8010010BC01001080B500AF4FF6FF71D4
:100DF0000120FFF7BFFF80BD80B582B000AF104B70
:100E0000D3F8F4300E4A43F00203C2F8F4300C4B2E
:100E1000D3F8F43003F002037B607B6800220F21DB
:100E20006FF0010008F0C4FA002207217E2008F0CC
:100E3000BFFA7E2008F0D6FA00BF0837BD4680BD55
:100E40000044025880B5BCB000AF786007F1DC0305
:100E500000221A605A609A60DA601A6107F1100382
:100E6000C8220021184621F0A3FB7B681B68274A93
:100E7000934246D14FF010024FF00003C7E904231C
:100E80000023C7F8AC3007F1100318460BF000FB45
:100E90000346002B01D0FFF767FF1D4BD3F8E0306E
:100EA0001B4A43F00803C2F8E030194BD3F8E03096
:100EB00003F00803FB60FB684FF44053C7F8DC30D5
:100EC0001223C7F8E0300023C7F8E4300023C7F846
:100ED000E8300423C7F8EC3007F1DC0319460D486D
:100EE0000AF020F80A4BD3F8F430094A43F08003A3
:100EF000C2F8F430064BD3F8F43003F08003BB6043
:100F0000BB6800BFF037BD4680BD00BF001C005865
:100F100000440258000C025880B582B000AF7860DF
:100F20007B681B680C4A934211D10C4BD3F8F43008
:100F30000A4A23F08003C2F8F4304FF48051084885
:100F40000AF0A0F94FF4005105480AF09BF900BFE0
:100F50000837BD4680BD00BF001C00580044025841
:100F6000000C025880B5BCB000AF786007F1DC031C
:100F700000221A605A609A60DA601A6107F1100361
:100F8000C8220021184621F013FB7B681B68274A02
:100F9000934246D14FF001024FF00003C7E904230A
:100FA0000023C7F8903007F1100318460BF070FAD1
:100FB0000346002B01D0FFF7D7FE1D4BD3F8F030CE
:100FC0001B4A43F01003C2F8F030194BD3F8F0304D
:100FD00003F01003FB60FB68154BD3F8E030144AB4
:100FE00043F00103C2F8E030114BD3F8E03003F0D6
:100FF0000103BB60BB684FF4C063C7F8DC30022359
:10100000C7F8E0300023C7F8E4300023C7F8E83021
:101010000723C7F8EC3007F1DC031946054809F04F
:1010200081FF00BFF037BD4680BD00BF001001400A
:10103000004402580000025880B590B000AF7860BC
:101040007B680F2B27D800227968362008F0B0F98A
:10105000362008F0C7F9294A7B681360284BD3F87B
:10106000E830274A43F01003C2F8E830244BD3F8A5
:10107000E83003F01003FB60FB6807F1100207F192
:101080001403114618460BF0C1F9BB6ABB63BB6B76
:10109000002B06D101E001232BE00BF08BF9F86364
:1010A00004E00BF087F903465B00FB63FB6B154A1A
:1010B000A2FB03239B0C013B7B63134B134A1A6077
:1010C000114B40F2E732DA600F4A7B6B53600E4BF4
:1010D00000221A610C4B00229A600B480DF044F874
:1010E0000346002B04D108480DF0A0F8034600E0A9
:1010F000012318464037BD4680BD00BF1C000010CC
:101100000044025883DE1B43C00100100010004061
:1011100080B400AF00BFFDE780B400AF00BFFDE7C3
:1011200080B400AF00BFFDE780B400AF00BFFDE7B3
:1011300080B400AF00BFFDE780B400AF00BFBD4684
:101140005DF8047B7047000080B500AF02480DF0E9
:10115000E5F800BF80BD00BFC001001080B500AF42
:10116000024808F037FD00BF80BD00BFCC02001070
:1011700080B500AF024808F02DFD00BF80BD00BF64
:10118000CC02001080B500AF0AF0D0F900BF80BDDE
:1011900080B400AF01231846BD465DF8047B70475C
:1011A00080B483B000AF78603960054B16221A60B6
:1011B0004FF0FF3318460C37BD465DF8047B70478F
:1011C0001420011080B582B000AF78604FF0FF317D
:1011D0007868FFF7E5FF00BFFDE780B586B000AF98
:1011E000F860B9607A6000237B610AE0AFF30080A9
:1011F0000146BB685A1CBA60CAB21A707B690133D7
:101200007B617A697B689A42F0DB7B681846183705
:10121000BD4680BD80B586B000AFF860B9607A6029
:1012200000237B6109E0BB685A1CBA601B78184632
:10123000FFF776FD7B6901337B617A697B689A42AF
:10124000F1DB7B6818461837BD4680BD80B483B09B
:1012500000AF78604FF0FF3318460C37BD465DF89D
:10126000047B704780B483B000AF786039603B681E
:101270004FF400525A60002318460C37BD465DF803
:10128000047B704780B483B000AF786001231846B8
:101290000C37BD465DF8047B704780B485B000AF65
:1012A000F860B9607A60002318461437BD465DF8CF
:1012B000047B704780B487B000AF7860144A154B48
:1012C000D31A7B617B693B61134B1B68002B02D1F6
:1012D000114B124A1A60104B1A687B6813443A6922
:1012E0009A4205D20E4B0C221A604FF0FF3309E0F0
:1012F000094B1B68FB60084B1A687B681344064A5D
:101300001360FB6818461C37BD465DF8047B7047C8
:1013100000800410001000000C02001020200110BA
:101320001420011080B483B000AF786039603B684E
:1013300018460C37BD465DF8047B704780B483B017
:1013400000AF78607B6818460C37BD465DF8047BBB
:10135000704780B483B000AF78607B6818460C3764
:10136000BD465DF8047B704780B582B000AF786001
:101370007B689B68002B05D07B689B6878687968E0
:10138000032298477B6818460837BD4680BD000099
:1013900080B500AF104B1B68BFF35B8F03F00103F8
:1013A000002B0CBF01230023DBB2002B10D00A4816
:1013B00020F00AF80346002B14BF01230023DBB200
:1013C000002B05D0054800F075F8034820F008F818
:1013D000024B184680BD00BF4802001010020010EA
:1013E00080B584B000AF7860FFF7D2FFF860F8688E
:1013F00000F0FAF901200EF022FC00BFF7E780B5FB
:1014000088B002AFF860B9607A60FB70FFF7C0FF88
:10141000786197F9033000937B68BA68F968786956
:1014200001F02AF8002318461837BD4680BD80B564
:1014300086B000AFF860B9601346FB71FFF7A8FFF4
:10144000786197F90730BA68F968786901F00AF9A4
:10145000002318461837BD4680BD80B584B000AF64
:1014600078600B46FB70FFF793FFF86097F9033045
:101470001A467968F86801F051F900BF1037BD4687
:1014800080BD80B588B002AFF860B9607A603B601B
:10149000FFF77EFF78613B8C01933B6800937B688C
:1014A000BA68F968786900F0DDFC00BF1837BD46FE
:1014B00080BD000080B582B000AF78607B68164ABE
:1014C00011680322184601F0C5FD7B6800221A74DA
:1014D0007B6800229A617B680022DA617B68203396
:1014E00000221A605A609A60DA607B68FF2283F8F3
:1014F00030207B68002283F8312004F047FC002272
:10150000012110200FF029FD02467B68DA607B681C
:1015100018460837BD4680BDB801001082B080B5BE
:1015200084B000AF786007F1180080E80C000B462B
:10153000FB70FB78832B06D0832B21DC812B13D00F
:10154000822B17D01CE03B7E002B01D0002300E053
:101550000123FB737B68D86807F10F01002342F277
:1015600010720FF07FFE0CE007F11801786800F0B0
:101570000FF806E007F11801786800F09BF800E02A
:1015800000BF00BF1037BD46BDE8804002B07047C5
:101590002DE9F04F89B000AF786139610123FB611B
:1015A00072E03A69FB6913441B783F2B34D97B699D
:1015B000D3E90AAB3A69FB6913441B78A3F14000F5
:1015C0004FF001024FF00003A0F12006C0F120010E
:1015D00003FA00F502FA06F6354322FA01F10D434B
:1015E00002FA00F44AEA0403BB604BEA0503FB601D
:1015F0007B69D7E90212C3E90A127B6993F930309B
:10160000B3F1FF3F3DD13A69FB6913441B785AB2ED
:101610007B6983F8302034E07B69D3E908AB3A6911
:10162000FB6913441B7818464FF001024FF000038A
:10163000A0F12006C0F1200103FA00F902FA06F633
:1016400049EA060922FA01F149EA010902FA00F819
:101650004AEA08033B604BEA09037B607B69D7E9F0
:101660000012C3E908127B6993F93030B3F1FF3FF0
:1016700007D13A69FB6913441B785AB27B6983F836
:101680003020FB690133FB613B691B781A46FB691B
:10169000934286DD0623FB767B69D86807F11B0140
:1016A000002342F210720FF0DDFD00BF2437BD466B
:1016B000BDE8F08F80B584B000AF78603960012359
:1016C000FB6017E03A68FB6813441B783F2B07D98F
:1016D00079684FF000024FF00003C1E90A2306E0E9
:1016E00079684FF000024FF00003C1E90823FB685E
:1016F0000133FB603B681B781A46FB689342E1DDCF
:101700007B68D3E90823134313D17B68D3E90A2309
:1017100013430ED17B68FF2283F830200723FB722E
:101720007B68D86807F10B01002342F210720FF0BA
:1017300099FD00BF1037BD4680BD000080B582B066
:1017400000AF78607B681B7C042B12D801A252F892
:1017500023F000BF711710086917100871171008DF
:101760007117100871171008786800F085F800E00C
:1017700000BF00BF0837BD4680BD00BF82B0F0B5D6
:1017800089B006AF786007F1200080E80C000B46B6
:10179000FB707B681D68FE7897F83830049397F8E3
:1017A000343003936C4607F1280393E8070084E87C
:1017B000070007F120030CCB31462846FFF7AEFEA9
:1017C00000BF0C37BD46BDE8F04002B0704780B5A1
:1017D00082B000AF78607B681846FFF7C5FD7B6874
:1017E00018460837BD4680BD90B58BB000AF786015
:1017F0007C687B68FB6107F11C0207F10C03114652
:10180000184601F00DFA07F10C031946204601F0C5
:1018100074FC07F10C031846FFF7D9FF7868FFF74F
:101820008DFF01237B627B68DB6807F10B010022DF
:1018300018460FF047FF78627B6A012B14D1FB7AC0
:101840001946786800F0CAF8034687F823307B68A9
:101850001B7C97F823209A4206D07B6897F82320B8
:101860001A747868FFF76AFF7B6A012BDBD000BF30
:1018700000BF2C37BD4690BD80B584B000AF786006
:101880000023BB730023FB73786800F0CBF9034699
:10189000BB73FB7B0133FB730A200EF0D0F9BB7BDB
:1018A000002B02D1FB7B032BEED90023FB7378685E
:1018B00000F00CFA0346BB73FB7B0133FB730A2079
:1018C0000EF0BDF9BB7B002B02D1FB7B032BEED9C5
:1018D0000023FB73786800F067FA0346BB73FB7B59
:1018E0000133FB730A200EF0AAF9BB7B002B02D157
:1018F000FB7B032BEED964200EF0A1F900BF10375B
:10190000BD4680BD2DE9F04F85B000AF78607968A5
:1019100091F930100131F96056E0F9687F2901DD55
:101920000021F960F9683F2923DC7968D1E90801D1
:10193000FE68C6F1200EA6F1200C20FA06F201FA8C
:101940000EFE42EA0E0221FA0CFC42EA0C0221FAD7
:1019500006F302F001084FF0000958EA090130D0FF
:10196000FB68BB7297F90A301946786801F01EF8D7
:101970002EE07968D1E90A01FE68403EC6F1200EEA
:10198000A6F1200C20FA06F401FA0EFE44EA0E0439
:1019900021FA0CFC44EA0C0421FA06F504F0010AD1
:1019A0004FF0000B5AEA0B010BD0FB68DBB2403B57
:1019B000DBB2FB7297F90B301946786800F0F6FF3E
:1019C00006E0F9680131F960F9688029A5DD00BFFA
:1019D00000BF1437BD46BDE8F08F000080B582B06F
:1019E00000AF78600B46FB707B681B7C042B30D803
:1019F00001A252F823F000BF0D1A10081B1A10089C
:101A0000291A1008371A1008451A1008FB781946C9
:101A1000786800F023F803461CE0FB7819467868E4
:101A200000F030F8034615E0FB781946786800F0BE
:101A300048F803460EE0FB781946786800F07BF81A
:101A4000034607E0FB781946786800F0A9F80346DA
:101A500000E0002318460837BD4680BD80B582B03F
:101A600000AF78600B46FB70FB78002B04D17868E0
:101A700000F0CEFB012301E07B681B7C1846083791
:101A8000BD4680BD80B582B000AF78600B46FB706C
:101A9000FB78012B02D0022B05D00CE0786800F017
:101AA000E5FB002309E0786800F0E0FB786800F0CF
:101AB0000BFC022301E07B681B7C18460837BD46FF
:101AC00080BD80B584B000AF78600B46FB70FB78BA
:101AD000042B0BD0042B28DC012B02D0032B0DD0C0
:101AE00023E0786800F086FC002320E0786800F0AE
:101AF00081FC786800F08CFB012318E07B68D3E957
:101B00000823134304D17B68D3E90A2313430AD083
:101B10000623FB737B68D86807F10F01002342F2AC
:101B200010720FF09FFB032301E07B681B7C1846BB
:101B30001037BD4680BD80B582B000AF78600B46DF
:101B4000FB70FB78062B13D0062B22DC012B02D076
:101B5000042B05D01DE0786800F04CFC00231AE04F
:101B6000786800F047FC786800F052FB012312E02F
:101B70007B68D3E90823134306D17B68D3E90A23A2
:101B8000134301D1032306E07868FFF7BBFE04236B
:101B900001E07B681B7C18460837BD4680BD00000D
:101BA00080B582B000AF78600B46FB70FB78013BDC
:101BB000072B30D801A252F823F000BFDD1B10081C
:101BC000171C1008171C1008E11B1008171C100820
:101BD000171C1008131C1008F11B100800231CE030
:101BE000786800F007FC786800F012FB012314E02D
:101BF0007B68D3E90823134306D17B68D3E90A2322
:101C0000134301D1032308E07868FFF77BFE042328
:101C100003E0032301E07B681B7C18460837BD46C0
:101C200080BD00BF80B586B000AF7860234B7B617C
:101C300007F10C031946224814F0F2FD4FF420720C
:101C40005E21362016F0B6FF38613B69002B08D1C3
:101C5000FEF728FD03461B491846FEF74BFD0023FF
:101C600027E03B695B685E221449184620F0EFFDCF
:101C70007B68986907F10C0240F26C7339691EF0B9
:101C80004DFF0346002B14BF01230023DBB2002BC2
:101C90000BD0FEF707FD03460B491846FEF72AFD59
:101CA000386917F06BFA002303E0386917F066FA19
:101CB000012318461837BD4680BD00BF9C3312086B
:101CC000FC3312080C34120830341208F0B58FB00F
:101CD00000AF7860304B07F110041D460FCD0FC4E4
:101CE0000FCD0FC42B68238000237B8607F10C03E4
:101CF00019462A4814F094FD4FF42072242136200E
:101D000016F058FF78637B6B002B08D1FEF7CAFCF6
:101D1000034623491846FEF7EDFC002337E07B6BB2
:101D20005B6807F110049C4604F1200E65462646C8
:101D30000FCE28606960AA60EB6010340CF1100CC3
:101D40007445F3D163462246106818607B68986931
:101D500007F10C0240F2AB13796B1EF0DFFE034675
:101D6000002B14BF01230023DBB2002B0BD0FEF7A6
:101D700099FC03460B491846FEF7BCFC786B17F03C
:101D8000FDF9002303E0786B17F0F8F901231846FA
:101D90003C37BD46F0BD00BFA034120850341208D5
:101DA000603412088434120880B586B000AF7860C1
:101DB000284A07F10C0392E80300186004331980E5
:101DC00002330A0C1A7007F108031946224814F06E
:101DD00027FD4FF420720621362016F0EBFE7861C5
:101DE0007B69002B08D1FEF75DFC03461B491846B2
:101DF000FEF780FC002328E07B695B6807F10C019B
:101E00000622184620F023FD7B68986907F1080236
:101E100041F69B2379691EF081FE0346002B14BF17
:101E200001230023DBB2002B0BD0FEF73BFC034663
:101E30000B491846FEF75EFC786917F09FF90023FE
:101E400003E0786917F09AF9012318461837BD4660
:101E500080BD00BF1035120850341208C434120877
:101E6000EC341208B0B5A4B004AFF860B9607A6081
:101E70003B603B68002B07D1FEF714FC03469249F8
:101E80001846FEF737FCB4E1FEF70CFC0446D7F821
:101E9000900014F0EFFD0246B7F894308B492046CD
:101EA000FEF728FC3B685B89052B0BD8FEF7FAFB95
:101EB0003B685B891A468649FEF71CFC386817F0B8
:101EC0005DF996E13B685B68BB67BB6F1B78002BD5
:101ED0000ED1BB6F01331B78002B09D1BB6F0233CE
:101EE0001B78002B04D1BB6F03331B78322B0AD035
:101EF000FEF7D8FB034677491846FEF7FBFB386828
:101F000017F03CF975E1BB6F1B781A06BB6F013304
:101F10001B781B041A43BB6F02331B781B0213434D
:101F2000BA6F0332127813437B677B6F06333A68CC
:101F3000528993420BD9FEF7B5FB3B685B897A6FF8
:101F40006549FEF7D7FB386817F018F951E1FEF73D
:101F5000A9FB03467A6F61491846FEF7CBFBBB6FBE
:101F600004331B781B021AB2BB6F05331B781BB2FC
:101F700013431BB2A7F87230FEF794FBB7F8723028
:101F80001A465749FEF7B6FB3B685B890E2B40F2B9
:101F90002581BB6F0E33FB663B685B890E3BBB66DE
:101FA0005049F86E20F01FFB78664F49F86E20F01C
:101FB0001AFB38667B6E002B00F008813B6E002B0D
:101FC00000F004817B6E03337B663B6E03333B661C
:101FD0007B6E03F10C02F96EBB6E0B449A4200F269
:101FE0008F8000233B6507F1540300221A605A607A
:101FF0001A7207F150030C22796E184620F0E0FAAD
:102000000023BB640023A7F84C300023FB6722E0C9
:10201000FB6F5B0007F15002D01807F14802FB6F1D
:1020200013441A46314920F095F90346012B14BF99
:1020300001230023DBB2002B0AD0FEF733FB03465B
:102040002B491846FEF756FB386817F097F8D0E092
:10205000FB6F0133FB67FB6F052BD9DDFEF722FB1E
:1020600007F150031A462349FEF744FB07F14003EA
:1020700007F1480292E8030018600433198007F161
:1020800040031946D7F8900012F074FD0346002B68
:102090000CBF01230023DBB2002B0CD0FEF702FBA8
:1020A000034615491846FEF725FBFB68D7F8902034
:1020B00012685A612BE0FEF7F5FA03460F491846FD
:1020C000FEF718FB23E000BF183512084835120848
:1020D000683512089C351208C8351208F835120800
:1020E000083612082036120824361208283612083C
:1020F00030361208503612086C3612089436120820
:10210000FEF7D0FA03463C491846FEF7F3FA3B6E59
:1021100003F11102F96EBB6E0B449A424ED80023B4
:10212000FB6207F1300300221A605A609A609A81BC
:1021300007F12C031122396E184620F041FAFEF700
:10214000B1FA07F12C031A462C49FEF7D3FA022301
:1021500087F82B30FB68D86807F12B01002342F287
:1021600010720FF07FF80346012B14BF01230023E8
:10217000DBB2002B09D0FEF795FA034697F82B2027
:102180001F491846FEF7B6FA33E007F1140311228F
:10219000396E184620F014FAFD68002303936C464C
:1021A00007F11C0393E8070084E8070007F1140314
:1021B0000CCB8021284600F067FF17E0FEF772FA8B
:1021C000034610491846FEF795FA0FE0FEF76AFA43
:1021D00003460D491846FEF78DFA07E0FEF762FA4E
:1021E0003B685B891A460949FEF784FA386816F09D
:1021F000C5FF8037BD46B0BDB8361208E8361208B4
:10220000FC36120838371208603712089437120863
:1022100080B582B000AF78601FF036F802467B6868
:102220009A617B689B69002B0ED07B689B690022BA
:102230000B4918461EF0C0FE7B689B6900220949C5
:1022400018461EF0BFFF06E0FEF72CFA03460649CB
:102250001846FEF74FFA00BF0837BD4680BD00BFE5
:10226000B889120883141008D837120880B582B0D4
:1022700000AF78607B689B69002B16D07B689B69F8
:102280000022002118461EF09DFF7B689B691846BE
:102290001EF0B8FF7B6800229A61FEF703FA03463E
:1022A00007491846FEF726FA06E0FEF7FBF9034653
:1022B00004491846FEF71EFA00BF0837BD4680BD28
:1022C000F43712082038120880B584B000AF786067
:1022D0003F4817F095FA18F0D3FF02467B68DA61A1
:1022E0007B68DB69002B0BD1FEF7DCF9034639492B
:1022F0001846FEF7FFF9364817F091FA002362E01E
:102300007B68DB6900223449184617F0E5FD034677
:10231000FB7397F90F30002B0FD0FEF7C3F997F935
:102320000F301A462D49FEF7E5F9786800F062F89B
:10233000274817F074FA002345E07B68DB69002129
:10234000184618F0A5FF7B68DB692549184618F088
:10235000B1FF7B68DB692349184618F0CDFF7B6825
:10236000DB695A8B7B68DB6942F0400292B25A8388
:102370007B68D8697B6803F114011B4B41F69122FD
:1023800017F058FF0346BB7397F90E30002B0FD0A0
:10239000FEF788F997F90E301A461449FEF7AAF9A4
:1023A000786800F027F80A4817F039FA00230AE0A5
:1023B000FEF778F903460E491846FEF79BF90448E4
:1023C00017F02DFA012318461037BD4680BD00BF17
:1023D000B81E01104C381208B88912086838120863
:1023E000FF1310085B1410082F141008843812080B
:1023F000A438120880B582B000AF78601B4817F08F
:10240000FFF97B68DB69002B21D07B68DB69002149
:10241000184618F03DFF7B68DB690021184618F06C
:1024200049FF7B68DB690021184618F065FF7B686F
:10243000DB69184617F04EFC7B680022DA61FEF774
:1024400031F903460A491846FEF754F906E0FEF74B
:1024500029F9034607491846FEF74CF9034817F0D7
:10246000DEF900BF0837BD4680BD00BFB81E0110B1
:10247000B8381208E438120880B588B000AFF860A8
:10248000B9607A603B603B68002B03D097F9283035
:10249000002B3CD0FB68DB690021184618F0F8FEE1
:1024A000FB68DB690021184618F004FFFB68DB6954
:1024B0000021184618F020FFFB68DB69184617F06A
:1024C00009FCFB680022DA61FEF7ECF8034660497C
:1024D0001846FEF70FF904233B75FB68D86807F12F
:1024E000140100235B4A0EF0BDFE0346012B14BF0E
:1024F00001230023DBB2002B00F0A680FEF7D2F808
:1025000003463A7D54491846FEF7F4F89CE0FEF77E
:10251000C9F83B685B891A465049FEF7EBF83B68FF
:102520005B68FB61FB691B781A06FB6901331B784A
:102530001B041A43FB6902331B781B021343FA691D
:10254000033212781343BB61BB6906333A68528980
:10255000934213D9FEF7A6F83B685B89BA694049F4
:10256000FEF7C8F8FB68DA693B685B8919461046D4
:1025700017F0AEFD386816F001FE65E0FB69063322
:102580001B78FB75FB6907331B78BB75BB7DF42B90
:102590000BD0FB68DA693B685B891946104617F077
:1025A00097FD386816F0EAFD4EE0FB6908331B78AA
:1025B0007B757B7D7F2B23D07B7D7F2B38D87B7DEC
:1025C000622B03D07B7D6C2B0ED031E0FB6903F1D5
:1025D0000B01BB69053B1A46F86800F01BF9FB6864
:1025E000002283F8312024E0FB690933FA7D194683
:1025F000F86800F08FF9FB68002283F8312018E0BA
:10260000FB6893F831300133DAB2FB6883F831208C
:10261000FB6893F83130132B0AD90423FB74FB6851
:10262000D86807F11301002342F210720EF01AFE6F
:1026300000BFFB68DA693B685B891946104617F0F2
:1026400047FD386816F09AFD2037BD4680BD00BFB3
:1026500018391208A0860100FC3612084039120809
:10266000C835120880B586B000AFF860B9607A60EE
:10267000FB7097F90330002B22D0FEF713F897F97F
:1026800003301A462149FEF735F80423FB75FB6831
:10269000D86807F1170100231D4A0EF0E3FD034639
:1026A000012B14BF01230023DBB2002B29D0FDF73F
:1026B000F9FF0346FA7D17491846FEF71BF820E09C
:1026C000FDF7F0FF034614491846FEF713F80323FD
:1026D000BB75FB68D86807F1160100230C4A0EF0A1
:1026E000C1FD0346012B14BF01230023DBB2002BE5
:1026F00007D0FDF7D7FF0346BA7D06491846FDF718
:10270000F9FF00BF1837BD4680BD00BF5C39120815
:10271000A0860100FC3612088039120880B586B008
:1027200000AFF860B9601346FB71FDF7BBFF97F986
:1027300007301A461049FDF7DDFF0423FB75FB68DF
:10274000D86807F1170100230C4A0EF08BFD0346F1
:10275000012B14BF01230023DBB2002B07D0FDF7B0
:10276000A1FF0346FA7D06491846FDF7C3FF00BFE7
:102770001837BD4680BD00BF94391208A0860100FD
:10278000FC36120880B586B000AFF860B9607A6098
:10279000FB70FB7883F00103DBB2002B02D01B48F7
:1027A00017F02EF8FB68D8697B689AB20123B968E4
:1027B0001BF0AEFD0346FB7597F91730002B12D0C6
:1027C000FDF770FF97F917301A461149FDF792FF90
:1027D000FB7883F00103DBB2002B02D00B4817F02B
:1027E0001EF800230EE0FB68DB6918461CF0D8FBDE
:1027F000FB7883F00103DBB2002B02D0034817F013
:102800000EF8012318461837BD4680BDB81E0110CA
:10281000B0391208B0B594B004AFF860B9607A600E
:10282000394BFB63FB6893F93030002B02D0152B3A
:1028300021D065E07B68012B07D0FDF733FF03460D
:10284000F96B1846FDF756FF3EE0BB681B7887F82A
:102850002430FD68002303936C4607F12C0393E8B2
:10286000070084E8070007F124030CCB0021284669
:1028700000F00AFC28E07B68022B07D0FDF712FF6E
:102880000346F96B1846FDF735FF1CE0BB681B7863
:102890001B021AB2BB6801331B781BB213431BB275
:1028A0009BB23B82FD68002303936C4607F118033B
:1028B00093E8070084E8070007F110030CCB15210B
:1028C000284600F0E1FB00BF082387F83B30FB6897
:1028D000D86807F13B0100230C4A0EF0C3FC034605
:1028E000012B14BF01230023DBB2002B08D0FDF71E
:1028F000D9FE034697F83B2005491846FDF7FAFE36
:102900004037BD46B0BD00BFD0391208A0860100D7
:10291000FC36120880B58EB000AFF860B96013467F
:10292000FB71BB681B7887F8373097F83730012B7D
:102930001AD0032B32D110233B630023FB6107F134
:10294000200300221A605A609A60FA7907F11C018C
:10295000154BF86800F0FCF807F11C010123102268
:10296000F868FFF70FFF1AE00B23FB6200233B61BF
:1029700007F1140300221A60C3F80320FA7907F163
:1029800010014FF47343F86800F066F807F1100186
:1029900001230B22F868FFF7F5FE00E000BF00BF3F
:1029A0003837BD4680BD00BF0101094680B58AB0F9
:1029B00000AF78600B46FB707B68FA7883F83020B4
:1029C00097F90330152B1ED0152B3EDCB3F1FF3FDA
:1029D00033D0002B39D10C233B6200237B6107F1FC
:1029E000180300221A605A6007F1140312221946D4
:1029F000786800F071F807F1140100230C22786860
:102A0000FFF7C0FE22E00B237B620023BB6007F1CF
:102A10000C0300221A60C3F8032007F108014DF2ED
:102A200006136022786800F017F807F10801002308
:102A30000B227868FFF7A6FE08E0FDF733FE034699
:102A400004491846FDF756FE00E000BF00BF2837D6
:102A5000BD4680BD143A120880B485B000AFF8605E
:102A6000B96011461A460B46FB711346BB80BB6822
:102A700000221A70BB68013300221A70BB6802334F
:102A800000221A70BB68033305221A70BB68043336
:102A900000221A70BB68053301221A70BB68063326
:102AA000F4221A70BB680733FA791A70BB680833CE
:102AB00022221A70BB881B0A9AB2BB680933D2B2B1
:102AC0001A70BB680A33BA88D2B21A7000BF1437C2
:102AD000BD465DF8047B704780B485B000AFF860F8
:102AE000B9601346FB71BB6800221A70BB680133E2
:102AF00000221A70BB68023300221A70BB680333CD
:102B000006221A70BB68043300221A70BB680533B2
:102B100001221A70BB680633F4221A70BB680733AF
:102B2000FA791A70BB6808332C221A70BB68093313
:102B300003221A70BB680A33F3221A70BB680B3386
:102B400000221A7000BF1437BD465DF8047B704741
:102B500080B485B000AFF860B9603B601346FB718C
:102B6000BB6800221A70BB68013300221A70BB6870
:102B7000023300221A70BB6803330A221A70BB6842
:102B8000043300221A70BB68053301221A70BB6837
:102B90000633F4221A70BB680733FA791A70BB68DF
:102BA00008332C221A70BB68093301221A70BB68E3
:102BB0000A33F3221A70BB680B3300221A703B6889
:102BC0001A0EBB680C33D2B21A703B681A0CBB6881
:102BD0000D33D2B21A703B681A0ABB680E33D2B2F8
:102BE0001A70BB680F333A68D2B21A7000BF14373C
:102BF000BD465DF8047B704780B483B000AF786059
:102C00007B681A460023136053607B6800229A6039
:102C10007B6818460C37BD465DF8047B70470000A2
:102C200090B583B000AF786039607B681A460023A6
:102C30001360536093607B681846FFF7DDFF7B6885
:102C40000022DA60386800F01BF80346002B0ED033
:102C50007C68386800F01FF803461946204600F0EB
:102C600025F87B68044ADA607B68044A9A607B68CE
:102C700018460C37BD4690BDD12C1008212D1008E8
:102C800080B483B000AF7860012318460C37BD468E
:102C90005DF8047B704780B483B000AF78607B68D8
:102CA00018460C37BD465DF8047B704790B583B07D
:102CB00000AF786039603868FFF7EDFF03462246C1
:102CC0001946786800F04BF800BF0C37BD4690BD40
:102CD0002DE9F04186B002AFF860B9607A603B60E0
:102CE000F86800F055F80446B86800F062F8054648
:102CF000786800F069F80646386800F070F8804699
:102D0000B86A00F06CF80346009343463246294601
:102D1000204600F06FF800BF1037BD46BDE8F081D7
:102D200090B585B000AFF860B9601346FB71FB79D0
:102D3000012B09D1F86800F086F80446B86800F065
:102D400027F80346236005E0FB791A46B968F8685E
:102D500000F086F8002318461437BD4690BD90B5A4
:102D600085B000AFF860B9603A71F868FEF7E6FA2E
:102D7000034619460420FEF7D5FA0446B868FFF763
:102D80008AFF03461B68236000BF1437BD4690BD11
:102D900080B584B000AF7860786800F09BF8F86088
:102DA000F86800F0A3F8034600BF18461037BD4688
:102DB00080BD80B483B000AF78607B6818460C3764
:102DC000BD465DF8047B704780B483B000AF786087
:102DD0007B6818460C37BD465DF8047B704780B4AD
:102DE00083B000AF78607B6818460C37BD465DF84D
:102DF000047B70472DE9F04387B002AFF860B960FB
:102E00007A603B60F86800F07CF80546B868FFF728
:102E1000D0FF06467868FFF7D7FF80463868FFF78F
:102E2000DEFF0446386BFFF7DAFF03460193009498
:102E3000434632462946484600F06EF800BF143734
:102E4000BD46BDE8F08380B582B000AF7860786899
:102E5000FEF774FA034618460837BD4680BD0000E9
:102E600090B585B000AFF860B9601346FB71FB798F
:102E7000032B2AD801A252F823F000BF8D2E100890
:102E80009B2E1008AF2E1008C12E1008F86800F015
:102E900076F8034600221A6017E0F868FFF7D3FFC0
:102EA0000446B868FFF774FF034623600DE0B86876
:102EB000FFF76EFF03461946F86800F06CF804E06F
:102EC0002146F86800F079F800BF0023184614374F
:102ED000BD4690BD80B582B000AF78607868FEF7DF
:102EE00038FA034618460837BD4680BD80B483B023
:102EF00000AF78607B6818460C37BD465DF8047BF0
:102F0000704780B483B000AF78607B6818460C3798
:102F1000BD465DF8047B70472DE9F0418AB006AFED
:102F20003873B9607A603B60B868FFF7EAFF8046A3
:102F30007868FFF73EFF03461E783868FFF744FFC6
:102F40000446B86AFFF74BFF03461D78F86AFFF79F
:102F500046FF03461B78049303956D4604F108036E
:102F600093E8070085E8070094E80C0031464046E6
:102F7000FEF704FC00BF1037BD46BDE8F08180B508
:102F800082B000AF78607868FEF7D8F9034618463B
:102F90000837BD4680BD90B583B000AF786039601A
:102FA000386800F016F8034622461946786800F0A3
:102FB0001BF800BF0C37BD4690BD80B582B000AF96
:102FC00078603970786800F028F800BF0837BD468F
:102FD00080BD80B483B000AF78607B6818460C3742
:102FE000BD465DF8047B704790B585B000AFF860D2
:102FF000B9603A71F868FEF7A1F903461946042052
:10300000FEF790F90446B868FFF7E3FF03461B6834
:10301000236000BF1437BD4690BD80B582B000AFBD
:1030200078607868FEF78AF9034618460837BD4687
:1030300080BD80B483B000AF78607B689B68002B54
:103040000CBF01230023DBB218460C37BD465DF8E8
:10305000047B704780B485B000AFF860B960134658
:10306000FB71FB68BA681A60FB68FA791A71054B44
:103070001A68FB689A60FB6818461437BD465DF80D
:10308000047B7047B001001082B0B0B58AB000AFC9
:10309000786007F1380080E80C000B46FB707B6815
:1030A0009B68002B21D0FB783B7207F10C0407F1E1
:1030B00038050FCD0FC42B6823607B681B7987F818
:1030C000203097F84C3087F821307B68986807F1FA
:1030D000080100230A220EF0C5F878627B6A012BF2
:1030E00001D0002302E0012300E000231846283726
:1030F000BD46BDE8B04002B07047B0B590B006AF75
:10310000786039607B681B68002B27D001237B62C5
:1031100014E03D7A97F8203097F821200492039329
:103120006C4607F1140393E8070084E8070007F1F1
:103130000C030CCB2946386800F014F87B681B6838
:1031400007F10801002218460EF0BCFA0346012BD5
:103150000CBF01230023DBB2002BDAD100BF2837DC
:10316000BD46B0BD82B02DE9F04385B002AF7860B6
:1031700007F1280080E80C000B46FB707B681846BE
:10318000FFF757FF0346002B01D01EF003FA7B68C0
:10319000DC687D68FB1C1846FFF70BFE064607F14E
:1031A0002800FFF711FE804607F13C031846FFF7A1
:1031B00016FE814607F140031846FFF710FE03464E
:1031C00000934B46424631462846A04700BF0C3785
:1031D000BD46BDE8F04302B0704780B582B000AF95
:1031E00078607B6800221A70786800F005F87B68C8
:1031F00018460837BD4680BD80B483B000AF786004
:103200007B6800225A607A687B689A607A687B687B
:10321000DA607B6800221A6100BF0C37BD465DF89A
:10322000047B704780B582B000AF78607B68184639
:1032300000F036F97B6818460837BD4680BD80B57A
:1032400082B000AF78607B681846FFF7EBFF7B68C1
:1032500018460837BD4680BD80B582B000AF7860A3
:103260007B681846FFF7EBFF7B6818460837BD46BA
:1032700080BD000080B588B000AF786007F108031A
:103280001846FFF7E9FF0D4B1A6807F108030721FD
:10329000184600F017F80A4B1A6807F108030321D3
:1032A000184600F00FF807F10803184600F01DF863
:1032B00001200CF0C4FC00BFF5E700BFB401001012
:1032C000B801001080B586B000AFF8600B467A6098
:1032D000FB72F96807F110003B1D07F10B0200F0CB
:1032E000F4F800BF1837BD4680BD80B586B000AF8A
:1032F000786007F10C037968184600F035F807F19B
:103300000C031946786800F055F807F10C031846CD
:1033100000F0F5F800BF1837BD4680BD80B582B01B
:1033200000AF7860786800F015F97B6818460837B8
:10333000BD4680BD80B582B000AF78607B6818461E
:1033400000F0F8F87B6818460837BD4680BD80B5A8
:1033500082B000AF78607B681846FFF7EBFF7B68B0
:1033600018460837BD4680BD80B58AB000AF78608A
:1033700039607868FFF7EBFF01237B620C4B1B6819
:1033800007F10801002218460EF09CF978627B6A6A
:10339000012B05D107F108031946786800F004F9FC
:1033A0007B6A012BEAD000BF78682837BD4680BD14
:1033B000B0010010B0B592B000AF786039603B68E2
:1033C0003B64386C00F016F90346BB61386C00F0C2
:1033D00021F903467B6153E007F11803184600F01A
:1033E00053F9034607F11C041D460FCD0FC495E8A1
:1033F000070084E8070097F83530FB747B6807F115
:1034000013021146184600F04BF90346FB607B6837
:10341000184600F054F90346BB6307F1380207F180
:103420000C031146184600F057F90346002B0AD04A
:103430007B6807F113021146184600F061F9034654
:103440001B687B640CE07B68072287F83F2007F14C
:103450003F021146184600F0AFF903461B687B6433
:103460007B6C002B07D007F11C0100234FF0FF32CB
:10347000786C0DF0F7FE07F11803184600F0F3F82A
:1034800007F1140207F118031146184600F0D3F8AB
:103490000346002BA0D100BF00BF4837BD46B0BDDA
:1034A00080B582B000AF7860786800F0E5F97B689D
:1034B000184600F0EDF97B6804331846FFF78DFEDF
:1034C0007B6818460837BD4680BDB0B584B000AFF4
:1034D000F860B9607A603B60BC68786800F0EFF92A
:1034E0000546386800F0F6F90346F8682A46214692
:1034F00000F0FBF900BFF8681037BD46B0BDB0B5AD
:1035000082B000AF78607B681C687B685D687B6810
:10351000184600F03FFA03461A462946204600F0B6
:1035200044FA7B68184600F021F87B681846083793
:10353000BD46B0BD80B582B000AF7860786800F05D
:1035400042FA7B68184600F04AFA7B68184608374A
:10355000BD4680BD80B582B000AF7860786800F06D
:1035600052FA7B6818460837BD4680BD80B582B0E8
:1035700000AF78607B6819687B689A687B681B6815
:10358000D31A9B10074A02FB03F31A46786800F02F
:1035900045FA7B681846FFF7C1FE7B681846083776
:1035A000BD4680BDB76DDBB680B582B000AF786038
:1035B00039607B685A687B689B689A420DD078684E
:1035C0007B685B683A68194600F03BFA7B685B6889
:1035D00003F11C027B685A6008E0786800F044FA46
:1035E00003463A681946786800F066FA00BF083763
:1035F000BD4680BD80B584B000AF78607A6807F1C1
:103600000C031146184600F01FFBFB6818461037E4
:10361000BD4680BD80B584B000AF78607B681A1D60
:1036200007F10C031146184600F00EFBFB68184624
:103630001037BD4680BD90B583B000AF786039606B
:10364000786800F011FB03461C68386800F00CFB3A
:1036500003461B689C4214BF01230023DBB21846BB
:103660000C37BD4690BD80B483B000AF78607B68F6
:103670001B6803F11C027B681A607B6818460C37D4
:10368000BD465DF8047B704780B483B000AF7860BE
:103690007B681B6818460C37BD465DF8047B704795
:1036A00080B582B000AF786039607B6839681846B1
:1036B00000F0E5FA034618460837BD4680BD80B5E0
:1036C00082B000AF78607B68184600F014FB0346B8
:1036D00018460837BD4680BD80B483B000AF78601F
:1036E00039607B681A683B681B689A4214BF0123E3
:1036F0000023DBB218460C37BD465DF8047B7047EB
:1037000090B58BB002AF786039603968786800F0A6
:1037100003FB0346BB607868FFF7D1FF0346FB60FD
:1037200007F10C0207F108031146184600F003FBED
:103730000346002B12D1786800F011FB07F1080353
:10374000184600F019FB03461A4607F110033968C2
:10375000184600F01FFB0346002B01D0012300E0B8
:103760000023002B1BD07C6807F1080207F114032B
:103770001146184600F032FB07F118033968184665
:1037800000F01DFB07F1180207F11C03009313461C
:10379000084A7969204600F031FB0346BB6007F117
:1037A0000803184600F0E8FA0346043318462437A5
:1037B000BD4690BD5C89120890B58BB002AF7860B1
:1037C00039603968786800F0A7FA0346BB6078680A
:1037D000FFF775FF0346FB6007F10C0207F10803D2
:1037E0001146184600F0A7FA0346002B12D178685C
:1037F00000F0B5FA07F10803184600F0BDFA0346D9
:103800001A4607F110033968184600F0C3FA034658
:10381000002B01D0012300E00023002B1FD07C6887
:1038200007F1080207F114031146184600F0D6FA12
:10383000386800F029FB024607F1180311461846C4
:1038400000F03DFB07F1180207F11C03009313463B
:10385000084A7969204600F043FB0346BB6007F144
:103860000803184600F088FA034604331846243744
:10387000BD4690BD5C89120880B582B000AF78600B
:10388000786800F073FB7B6818460837BD4680BD3A
:1038900080B483B000AF78607B6818460C37BD46B3
:1038A0005DF8047B704780B582B000AF78607868BF
:1038B00000F090FB034618460837BD4680BD80B433
:1038C00083B000AF78607B6818460C37BD465DF862
:1038D000047B704780B483B000AF78607B68184683
:1038E0000C37BD465DF8047B704790B58DB000AFD6
:1038F000F860B9607A603B607868FFF7E0FF0446E3
:103900003868FFF7E7FF034607F118002246B96859
:1039100000F06CFB07F11803184600F020FC02468B
:1039200007F11003B968184600F094FB7B69002B7F
:1039300015D007F1180007F1100393E8060000F016
:103940001CFC03463B62012387F8273007F127025E
:1039500007F120031946F86800F028FC11E03A69E5
:1039600007F128031146184600F039FC002387F8B8
:103970002F3007F12F0207F128031946F86800F0ED
:1039800015FC07F11803184600F04FFBF8683437B0
:10399000BD4690BD80B483B000AF78607B681846A8
:1039A0000C37BD465DF8047B704780B584B000AF2E
:1039B000F860B9607A60B968F86800F02BFC00BF65
:1039C0001037BD4680BD80B582B000AF78607868A2
:1039D00000F02DFC7B6818460837BD4680BD80B4DA
:1039E00083B000AF78607B6800221A607B68002299
:1039F0005A607B6800229A607B6818460C37BD4687
:103A00005DF8047B704780B483B000AF78607B685A
:103A100018460C37BD465DF8047B704780B584B00E
:103A200000AFF860B9607A60BB68002B05D0FB6816
:103A30007A68B968184600F005FC00BF1037BD462B
:103A400080BD80B584B000AFF860B9607A607868F6
:103A500000F007FC03461A46B968F86800F00CFC51
:103A600000BF1037BD4680BD80B584B000AF786020
:103A70007B681A1D07F10C031146184600F017FC6D
:103A8000FB6818461037BD4680BD80B582B000AFD8
:103A9000184600F005F8034618460837BD4680BDB5
:103AA00080B483B000AF3871012318460C37BD468F
:103AB0005DF8047B70470000B0B58CB000AFF860D3
:103AC000B9607A605E4A0121F86800F000FCB862D3
:103AD000FB681B687B62FB685B683B62F86800F010
:103AE0003DFC03467B6107F1140207F10803114610
:103AF000184600F043FC0346FB61FB68B96A1846B0
:103B000000F056FCB861BB69FB62FC68FA691346B9
:103B1000DB009B1A9B001A46BB699D18786800F071
:103B2000A0FB03461A4629462046FFF78AFF0023DA
:103B3000FB62FFF7AAFF0346002B27D007F108031B
:103B4000184600F05DFC03461C68FB681846FFF74A
:103B500021FF0346BA692146786A00F03DFCF8620D
:103B6000FB6A1C33FB6207F10803184600F048FCAF
:103B700003461C68FB681846FFF70CFF0346FA6A09
:103B8000396A204600F028FCF86226E007F10803B5
:103B9000184600F035FC03461C68FB681846FFF722
:103BA000F9FE0346BA692146786A00F034FCF862EF
:103BB000FB6A1C33FB6207F10803184600F020FC87
:103BC00003461C68FB681846FFF7E4FE0346FA6AE2
:103BD000396A204600F01FFCF862FFF756FF0346E3
:103BE00083F00103DBB2002B09D0FB681846FFF716
:103BF000D1FE03461A46396A786AFFF7D6FEF8689E
:103C0000FB689A687B6AD31A9B100E4A02FB03F387
:103C10001A46796AFFF702FFFB68BA691A60FB6807
:103C2000FA6A5A60BA6A1346DB009B1A9B001A466E
:103C3000BB691A44FB689A6000BF3037BD46B0BD0F
:103C4000443A1208B76DDBB680B483B000AF786039
:103C500039603B681A687B681A607B6818460C37C5
:103C6000BD465DF8047B704780B483B000AF7860D8
:103C70007B6818460C37BD465DF8047B704790B5ED
:103C800085B000AF786039607868FFF70CFE0446B5
:103C9000786800F0D9FB02463B682146786800F05E
:103CA000DFFB0346BB60786800F025F80346FB6045
:103CB00007F10C0207F108031146184600F03BF823
:103CC0000346002B0DD17C68BB68184600F0F9FB59
:103CD00003461A463968204600F05CF80346002B7C
:103CE00004D0786800F007F8034600E0BB68184687
:103CF0001437BD4690BD80B584B000AF78607B6856
:103D00001A1D07F10C031146184600F068FAFB680B
:103D100018461037BD4680BD80B582B000AF7860D0
:103D200039607B683968184600F0D7FB03461846AF
:103D30000837BD4680BD80B483B000AF786039607D
:103D40007B681A683B681B689A420CBF01230023FA
:103D5000DBB218460C37BD465DF8047B704790B562
:103D600083B000AF78607B68184600F0CDFB00BFE1
:103D700020460C37BD4690BD80B582B000AF78605C
:103D80007B681B68184600F0CAFB034618460837D4
:103D9000BD4680BD80B485B000AFF860B9607A6080
:103DA000BB681A787B681B789A4234BF01230023D2
:103DB000DBB218461437BD465DF8047B704780B50A
:103DC00082B000AF786039607B683968184600F0CF
:103DD000B4FB7B6818460837BD4680BD80B483B00D
:103DE00000AF786039603B681A687B681A607B684E
:103DF00018460C37BD465DF8047B7047B0B58CB0F3
:103E000002AFF860B9607A603B60786800F0A4FBAC
:103E10000446386800F0ABFB0546B86B00F0B2FB17
:103E2000034607F11C0000932B462246F96800F078
:103E3000B4FB07F11C03184600F091F9034607F1A3
:103E40001400BA68F96800F0CBFBBB69002B09D0FD
:103E500007F11C0007F1140393E8060000F08DF948
:103E6000044607E07A6907F124031146184600F07A
:103E7000B6F97C6A07F11C03184600F0D6F8234611
:103E800018462837BD46B0BD80B483B000AF786017
:103E90007B6818460C37BD465DF8047B704780B5DB
:103EA00082B000AF786039607B683A681146184686
:103EB00000F0D7FC7B6818460837BD4680BD80B54A
:103EC00082B000AF78603960386800F0ACFC03461F
:103ED0001946786800F0B2FC78680837BD4680BDA6
:103EE000B0B58CB002AFF860B9607A603B607868BA
:103EF00000F032FB0446386800F0C3FC0546B86B9E
:103F000000F040FB034607F11C0000932B462246BD
:103F1000F96800F0C1FC07F11C03184600F01FF916
:103F2000034607F11400BA68F96800F059FBBB6951
:103F3000002B09D007F11C0007F1140393E80600D9
:103F400000F01BF9044607E07A6907F124031146E3
:103F5000184600F044F97C6A07F11C03184600F08B
:103F600064F8234618462837BD46B0BD80B483B0F8
:103F700000AF78607B6818460C37BD465DF8047B5F
:103F8000704780B483B000AF78607B68DB68184608
:103F90000C37BD465DF8047B704780B483B000AF3A
:103FA00078607B689B6818460C37BD465DF8047BDB
:103FB000704780B582B000AF786039603968786842
:103FC00000F08DFC3968786800F09EFC00BF08376F
:103FD000BD4680BD80B483B000AF78607B689B68CD
:103FE00018460C37BD465DF8047B704790B585B028
:103FF00000AFF860B9607A603B60FB68BA681A602D
:104000007868FFF75CFC04463868FFF763FC0346FA
:104010001A462146B86800F089FC0246FB685A60DF
:10402000FB6818461437BD4690BD80B582B000AF1E
:1040300078607B685B68002B07D07B681A687B68B8
:104040005B6819461046FFF7B4FF7B6818460837CF
:10405000BD4680BD90B58BB000AFF860B9607A60A6
:10406000B868FFF720FC0346BB61B86800F0ECF9C4
:1040700003467B61012387F827301FE0BB697B6122
:10408000BC68BB69184600F06DFC03461A467968A7
:104090002046FFF77FFE034687F8273097F8273042
:1040A000002B05D0BB691846FFF777FF034604E0F5
:1040B000BB691846FFF765FF0346BB61BB69002B70
:1040C000DCD17A6907F110031146184600F087F831
:1040D00097F82730002B1DD0B86800F056FC034637
:1040E000FB6107F11C0207F1100311461846FFF7A8
:1040F00022FE0346002B08D007F1140207F1180333
:104100001946F86800F052FC25E007F11003184644
:1041100000F065FCBC683B69184600F0D2F9034624
:104120007A6819462046FFF735FE0346002B08D073
:1041300007F1140207F118031946F86800F036FC7D
:1041400009E000233B6207F1200207F11003194642
:10415000F86800F055FCF8682C37BD4690BD80B576
:1041600082B000AF78607B685B68184600F0FAFBAD
:10417000034618460837BD4680BD80B586B000AFFF
:10418000F8603B1D83E80600FB6818687968BA6828
:10419000FB685B6800F049FC03467B61FB6800221A
:1041A0005A607B6918461837BD4680BD80B584B01B
:1041B00000AFF860B9607A60B86800F073FC02463E
:1041C000FB6812681A60786800F077FC03461A787A
:1041D000FB681A71FB6818461037BD4680BD80B475
:1041E00083B000AF786039607B683A681A607B689A
:1041F00018460C37BD465DF8047B704780B483B029
:1042000000AF78607B685B6918460C37BD465DF887
:10421000047B704780B582B000AF78603960396840
:10422000786800F055FC00BF0837BD4680BD80B4FB
:1042300083B000AF78607B6818460C37BD465DF8E8
:10424000047B704780B584B000AFF860B9607A60D5
:104250007A68B968F86800F046FC00BF1037BD46C0
:1042600080BD80B483B000AF78607B6818460C379F
:10427000BD465DF8047B7047B0B584B000AFF86010
:10428000B9607A60BB6819461C20FDF74BF80446FC
:104290007868FFF7E6FF03461D460FCD0FC495E88B
:1042A000070084E8070000BF1037BD46B0BD80B4EA
:1042B00083B000AF786039603B681A687B681A6029
:1042C0007B6818460C37BD465DF8047B704790B597
:1042D00087B000AFF860B9607A60F86800F016FC4B
:1042E0000446F86800F024FC0346E21ABB689A42D0
:1042F00034BF01230023DBB2002B02D078681DF00D
:1043000046F9F86800F014FC0446F86800F010FC68
:1043100003463B6107F1080207F1100311461846F6
:1043200000F01CFC03461B6823447B61F86800F026
:10433000FFFB02467B69934206D3F86800F0E6FB78
:1043400002467B69934204D9F86800F0DFFB03461C
:1043500000E07B6918461C37BD4690BD80B584B02F
:1043600000AF78607A6807F10C0311461846FFF732
:104370009EFFFB6818461037BD4680BD90B583B0E0
:1043800000AF78603960786800F03AF803461C683E
:10439000386800F035F803461B68E31A9B10034A9F
:1043A00002FB03F318460C37BD4690BDB76DDBB674
:1043B00080B582B000AF786039603B68002B06D0D2
:1043C0007B683968184600F0DDFB034600E00023F7
:1043D00018460837BD4680BD90B587B002AFF8607B
:1043E000B9607A603B608DF800403B687A68B968D4
:1043F000F86800F0D6FB034618461437BD4690BD5A
:1044000080B483B000AF78607B6818460C37BD4637
:104410005DF8047B704790B585B000AFF860B96077
:104420007A603B60F86800F0CEFB0446B86800F0A4
:10443000CAFB01463B687A68204600F0D3FB03467E
:1044400018461437BD4690BD80B483B000AF786085
:104450007B68043318460C37BD465DF8047B704713
:1044600090B587B000AFF860B9607A603B601AE041
:10447000FC68B86800F076FA03463A6819462046A8
:10448000FFF788FC034683F00103DBB2002B06D064
:10449000BB687B60B868FFF780FDB86003E0B86870
:1044A000FFF76FFDB860BB68002BE1D107F1140383
:1044B00079681846FFF793FE7B6918461C37BD469E
:1044C00090BD80B582B000AF7860786800F04AFA9D
:1044D000034618460837BD4680BD90B583B000AF8F
:1044E000786039607868FFF7DEF904467868FFF78E
:1044F000ABFF02463B6821467868FFF7B1FF0346F1
:1045000018460C37BD4690BD80B483B000AF7860CC
:1045100000BF18460C37BD465DF8047B704780B578
:1045200082B000AF78607B681033184600F06BFBF8
:10453000034618460837BD4680BD80B582B000AF3F
:10454000786039607B683968184600F068FB7B68E2
:1045500018460837BD4680BD80B483B000AF786090
:104560007B6818460C37BD465DF8047B704780B405
:1045700083B000AF78607B6818460C37BD465DF8A5
:10458000047B704780B483B000AF78607B681846C6
:104590000C37BD465DF8047B7047B0B584B000AF02
:1045A000F860B9607A603B60FB68BA681A60786846
:1045B000FFF7D2FF04463868FFF7D9FF0546386A8F
:1045C000FFF7E0FF03462A462146B86800F036FBB5
:1045D0000246FB685A60FB6818461037BD46B0BDFE
:1045E00090B58DB000AFF860B9607A603B603B1D5C
:1045F000184600F046FB0346BB61BC69B868FFF78C
:1046000023FF03469C420CBF01230023DBB2002B97
:1046100030D0B868FFF7F2FD0346002B13D0BC681A
:10462000B86800F03FFB03461B681846FFF749FFD8
:1046300003463A6819462046FFF7ACFB0346002BB9
:1046400001D0012300E00023002B0CD00023FB61EC
:10465000B86800F027FB024607F11C031946F8680A
:1046600000F0CEF9DBE0FB683A68B9681846FFF75E
:10467000F1FCD4E0BC68BB691846FFF722FF034693
:104680001A4639682046FFF785FB0346002B57D0B2
:10469000BB697B61BC69B86800F010FB03461B680E
:1046A0009C420CBF01230023DBB2002B0DD0B86865
:1046B00000F004FB0446B86800F000FB03461A460D
:1046C0002146F86800F006FBA9E0BC6807F1140376
:1046D000184600F084F903461B681846FFF7F1FE00
:1046E00003463A6819462046FFF754FB0346002B61
:1046F0001FD07B691846FFF744FC0346002B0CBF14
:1047000001230023DBB2002B0AD000233B6207F118
:10471000140207F120031946F86800F071F97EE0F1
:1047200007F1180207F118031946F86800F0D2FAE9
:1047300075E0FB683A68B9681846FFF78BFC6EE0D5
:10474000BC68BB691846FFF7BCFE03463A681946C9
:104750002046FFF71FFB0346002B56D0BB693B6189
:10476000BC69B86800F09EFA03461B689C420CBF07
:1047700001230023DBB2002B0CD000237B62B8683E
:1047800000F090FA024607F124031946F86800F099
:1047900037F944E0BC6807F11003184600F0B3FA9B
:1047A00003461B681846FFF78CFE03461A46396815
:1047B0002046FFF7EFFA0346002B1FD0BB691846CF
:1047C000FFF7DFFB0346002B0CBF01230023DBB206
:1047D000002B0AD00023BB6207F1180207F128035F
:1047E0001946F86800F00CF919E007F1100207F11A
:1047F00010031946F86800F06DFA10E0FB683A689B
:10480000B9681846FFF726FC09E00023FB6207F1B0
:104810002C0207F118031946F86800F0F1F8F8685F
:104820003437BD4690BD80B483B000AF78607B68FC
:1048300018460C37BD465DF8047B704790B583B0D1
:1048400000AF786039607C683868FFF7ECFF03469A
:104850001946204600F068FA7B6818460C37BD46BA
:1048600090BD80B483B000AF786039607B683A68EF
:1048700012681A607B6818460C37BD465DF8047BE9
:10488000704780B483B000AF78607B6818460C37FF
:10489000BD465DF8047B7047B0B584B000AFF860EA
:1048A000B9607A603B60FB68BA681A607868FFF7A5
:1048B00053FE04463868FFF7E4FF0546386AFFF701
:1048C00061FE03462A462146B86800F040FA0246D7
:1048D000FB685A60FB6818461037BD46B0BD90B5FE
:1048E00083B000AF78603960786800F053FA04460E
:1048F0003868FFF714FE03461946204600F055FAC3
:1049000000BF0C37BD4690BD80B582B000AF786067
:104910003960786800F03EFA03460122396818468B
:1049200000F050FA00BF0837BD4680BD90B587B093
:1049300000AFF860B9607A60F86800F052FA786108
:10494000B868FEF7BCFF04467868FEF7C3FF03466D
:1049500022467969F86800F055FA7B6918461C37D9
:10496000BD4690BD80B584B000AF7860786800F037
:104970006EFA024607F10C031146184600F075FA6C
:10498000034618461037BD4680BD80B584B000AFE1
:1049900078607B68DA6807F10C0311461846FFF768
:1049A0001EFCFB6818461037BD4680BD80B584B03C
:1049B00000AFF860B9607A60B86800F062FA034648
:1049C0001A68FB681A60786800F066FA03461A688D
:1049D000FB685A60FB6818461037BD4680BD80B53D
:1049E00082B000AF78607B681B6818461CF063FDDE
:1049F00002467B681A607B6818460837BD4680BD52
:104A000080B485B000AFF860B9607A60BB681A689E
:104A1000FB681A607B681A68FB685A60FB68184676
:104A20001437BD465DF8047B7047B0B586B000AF63
:104A3000F860B9607A603B60BB68002B17D1F868FA
:104A4000FFF702FD02467B68934210D0FC6838688D
:104A5000FFF788FF05467868FFF733FD03461A46DF
:104A600029462046FFF796F90346002B01D0012383
:104A700000E00023FB75FB680433F87D7A68396831
:104A80001CF01BFDFB685B695A1CFB685A6107F14F
:104A9000100339681846FFF7A2FB3B691846183720
:104AA000BD46B0BD80B483B000AF78607B68184667
:104AB0000C37BD465DF8047B704780B483B000AF0F
:104AC00078607B6818460C37BD465DF8047B7047FC
:104AD00080B483B000AF7860396000BF0C37BD464A
:104AE0005DF8047B704780B584B000AFF860B960B2
:104AF0007A607A681346DB009B1A9B001946B868F7
:104B00001CF060FC00BF1037BD4680BD80B582B090
:104B100000AF78607B68184600F0E6F90346184657
:104B200000F0C6F9034618460837BD4680BD0000B0
:104B300080B483B000AF78607B685A687B681B687C
:104B4000D31A9B10044A02FB03F318460C37BD46E8
:104B50005DF8047B704700BFB76DDBB680B483B0EF
:104B600000AF786039607B681A683B681B689A42BE
:104B700001D23B6800E07B6818460C37BD465DF803
:104B8000047B704780B582B000AF78603960002246
:104B90003968786800F0B4F9034618460837BD460E
:104BA00080BD80B584B000AFF860B9607A603B60CA
:104BB0003B687A68B968F86800F0D0F9034618468F
:104BC0001037BD4680BD80B584B000AF786007F176
:104BD0000C037968184600F0DEF9FB6818461037B8
:104BE000BD4680BD80B584B000AFF860B9607A6022
:104BF0003B607A68B968F86800F0DFF90346184648
:104C00001037BD4680BD80B582B000AF786078684F
:104C100000F0E7F9034618460837BD4680BD80B46A
:104C200083B000AF786039607B683A681A607B684F
:104C300018460C37BD465DF8047B7047B0B588B0A8
:104C400002AFF860B9607A603B60F86800F0C9F8BC
:104C50007861B868FFF780FC04467868FFF787FC46
:104C600005463868FFF78EFC034600932B46224624
:104C70007969F86800F0C0F97B6918461837BD46B5
:104C8000B0BD80B584B000AF78607B681A6807F16A
:104C90000C0311461846FFF7A2FAFB6818461037B6
:104CA000BD4680BD80B483B000AF78607B681033B0
:104CB00018460C37BD465DF8047B704780B483B05E
:104CC00000AF78607B680C3318460C37BD465DF842
:104CD000047B704780B584B000AFF860B9607A603B
:104CE000B86800F0D9F803461A68FB681A6078685B
:104CF00000F0D2F803461A68FB685A60FB68184651
:104D00001037BD4680BD80B582B000AF78607B684B
:104D10001B6818461CF0CDFB02467B681A607B6856
:104D200018460837BD4680BD90B583B000AF7860A7
:104D300039607C683868FFF776FD034619462046DF
:104D400000F087F97B6818460C37BD4690BDB0B5BA
:104D500088B002AFF860B9607A603B60F86800F034
:104D600040F87861B868FFF7F7FB04467868FFF70A
:104D700088FD05463868FFF705FC034600932B467F
:104D800022467969F86800F074F97B69184618378B
:104D9000BD46B0BD80B483B000AF78607B68184674
:104DA0000C37BD465DF8047B704780B582B000AF1C
:104DB000786039603968786800F088F900BF083792
:104DC000BD4680BD80B584B000AFF860B9607A6040
:104DD0007A68B968F86800F084F900BF1037BD46FA
:104DE00080BD80B582B000AF78607868FFF7D2FFF1
:104DF00003460121184600F087F903461846083794
:104E0000BD4680BDF0B585B000AFF860B9607A608E
:104E10003B60BB6819461820FCF784FAF868FFF776
:104E2000B9FF0446B868FFF77AFB05467868FEF7D5
:104E300046FD06463868FEF74DFD034632462946D4
:104E4000204600F070F900BF1437BD46F0BD80B5B4
:104E500082B000AF78607B681033184600F07BF9B1
:104E6000034618460837BD4680BD80B483B000AF06
:104E7000786039603B6818460C37BD465DF8047BA6
:104E8000704780B483B000AF78607B6818460C37F9
:104E9000BD465DF8047B704780B483B000AF786096
:104EA0007B6818460C37BD465DF8047B70470000F0
:104EB00080B584B000AF78600A4BFB60786800F082
:104EC00056F90346BB6007F1080207F10C031146CF
:104ED000184600F058F903461B6818461037BD46BF
:104EE00080BD00BF2449920480B483B000AF7860D5
:104EF0007B6818460C37BD465DF8047B70470000A0
:104F000080B584B000AFF860B9607A60F86800F0EE
:104F10004FF90246BB6893428CBF01230023DBB2EA
:104F2000002B14BF01230023DBB2002B07D0BB688A
:104F3000094A934201D91CF027FB1CF022FBBA68F6
:104F40001346DB009B1A9B0018461CF04CFA0346E4
:104F500018461037BD4680BD49922409B0B584B0CB
:104F600000AFF860B9607A603B60F86800F02EF935
:104F70000446B86800F02AF90546786800F026F97A
:104F800002463B682946204600F02CF903461846A5
:104F90001037BD46B0BD80B582B000AF78603960D3
:104FA0003B46184600F048F903461A687B681A60C9
:104FB0007B6818460837BD4680BD80B586B000AF17
:104FC000F860B9607A600123FB750123BB757A68CC
:104FD000B968F86800F03BF9034618461837BD4633
:104FE00080BD80B483B000AF78607B6818460C3712
:104FF000BD465DF8047B70472DE9F04186B002AFF5
:10500000F860B9607A603B60BB6819461820FCF70D
:1050100089F9F868FFF7BEFE0446B868FFF77FFA23
:1050200005467868FFF798FA06463868FFF79FFA52
:105030008046B86AFFF7A6FA034600934346324615
:105040002946204600F013F900BF1037BD46BDE8E1
:10505000F08180B582B000AF786039603868FFF7C2
:10506000E2FB02467B681A607B6818460837BD463B
:1050700080BD2DE9F04186B002AFF860B9607A607A
:105080003B60BB6819461820FCF74CF9F868FFF73D
:1050900081FE0446B868FFF742FA05467868FFF7D4
:1050A0005BFA06463868FFF7ECFB8046B86AFFF704
:1050B00069FA03460093434632462946204600F0EB
:1050C000F4F800BF1037BD46BDE8F08180B483B06E
:1050D00000AF7860396000BF0C37BD465DF8047BD7
:1050E000704780B584B000AFF860B9607A607A68C4
:1050F00013465B001344DB001946B8681CF062F9E4
:1051000000BF1037BD4680BD80B582B000AF78606B
:10511000396000223968786800F0E6F803461846DE
:105120000837BD4680BD90B585B000AFF860B96066
:105130007A603B607868FEF7C2FB04463868FEF789
:10514000C9FB03462246B968F86800F0FBF800BFC7
:105150001437BD4690BD80B582B000AF78607868E6
:1051600000F00EF9034618460837BD4680BD80B5ED
:1051700082B000AF7860786800F00DF903461846F9
:105180000837BD4680BD80B483B000AF7860396019
:105190003B681A687B681B689A4201D23B6800E052
:1051A0007B6818460C37BD465DF8047B70470000ED
:1051B00080B483B000AF7860034B18460C37BD460F
:1051C0005DF8047B704700BF2449920480B483B02B
:1051D00000AF78607B6818460C37BD465DF8047BED
:1051E0007047000080B586B000AFF860B9607A60A3
:1051F0003B60BA68FB68D31A9B100E4A02FB03F3AC
:105200007B617B69002B09DD7A691346DB009B1A01
:105210009B001A46F96878681DF0B0F97A69134660
:10522000DB009B1A9B001A467B681344184618370C
:10523000BD4680BDB76DDBB680B483B000AF78608B
:105240007B6818460C37BD465DF8047B704780B517
:1052500084B000AFF860B9607A607A68B968F868BD
:1052600000F0A5F8034618461037BD4680BDB0B51E
:1052700086B002AFF860B9607A603B607868FFF78B
:105280006BF904463868FFF772F90546386AFFF78C
:1052900079F9034600932B462246B968F86800F076
:1052A000AEF800BF1037BD46B0BDB0B586B002AF96
:1052B000F860B9607A603B607868FFF74DF90446A2
:1052C0003868FFF7DEFA0546386AFFF75BF90346F0
:1052D00000932B462246B968F86800F0B8F800BF82
:1052E0001037BD46B0BD000080B584B000AFF86097
:1052F000B9607A60F86800F0D3F80246BB68934260
:105300008CBF01230023DBB2002B14BF0123002339
:10531000DBB2002B07D0BB68094A934201D91CF0CD
:1053200033F91CF02EF9BA6813465B001344DB0016
:1053300018461CF058F8034618461037BD4680BD85
:10534000AAAAAA0AB0B584B000AFF860B9607A60C2
:105350003B60BB6819460820FBF7E4FF0446786809
:10536000FEF7ADFA05463868FEF7B4FA03461A466A
:105370002946204600F0A2F800BF1037BD46B0BD58
:1053800080B483B000AF78607B6818460C37BD46A8
:105390005DF8047B704780B582B000AF78607868B4
:1053A000FFF706FF034618460837BD4680BD90B597
:1053B00085B000AFF860B9607A60F86800F097F8DF
:1053C0000446B86800F093F803467A681946204608
:1053D00000F09EF8034618461437BD4690BD80B5D0
:1053E00082B000AF786039607B683A681146184631
:1053F00000F0B1F87B6818460837BD4680BDF0B5AF
:1054000087B000AFF860B9607A603B60BB6819464E
:105410000820FBF787FF04467868FFF79DF8386897
:10542000FFF7A5F8024607F1140311461846FFF7E7
:10543000D6FF386BFFF7A6F807F11402334629466A
:10544000204600F098F800BF1C37BD46F0BDF0B50F
:1054500087B000AFF860B9607A603B60BB681946FE
:105460000820FBF75FFF04467868FFF775F8386897
:10547000FFF707FA024607F1140311461846FEF734
:105480000EFD386BFFF77EF807F11402334629460C
:10549000204600F084F800BF1C37BD46F0BD000078
:1054A00080B483B000AF7860034B18460C37BD461C
:1054B0005DF8047B704700BF5555550580B584B035
:1054C00000AFF860B9607A60B868FEF7F8F9034693
:1054D0001A78FB681A707868FEF7FCF903461A68B8
:1054E000FB685A60FB6818461037BD4680BD80B522
:1054F00082B000AF78603B1D184600F064F80346A8
:10550000184600F06CF8034618460837BD4680BDC3
:10551000B0B584B000AFF860B9607A60F868FFF7A2
:1055200055FE0446B868FFF751FE05467B681846ED
:10553000FFF74CFE03461A462946204600F05AF86B
:1055400002463B1D1146184600F064F80346184613
:105550001037BD46B0BD80B483B000AF786039600D
:105560007B683A6812681A607B6818460C37BD463B
:105570005DF8047B7047B0B586B002AFF860397251
:105580007A603B703A468DF800402B467968F8689F
:1055900000F04CF8FB6818461037BD46B0BDB0B5FA
:1055A00086B002AFF86039727A603B703A468DF887
:1055B00000402B467968F86800F052F8FB681846FE
:1055C0001037BD46B0BD80B483B000AF78607B6853
:1055D0001B6818460C37BD465DF8047B704780B4E5
:1055E00083B000AF78607B6818460C37BD465DF825
:1055F000047B704780B584B000AFF860B9607A6012
:105600007A68B968F86800F045F80346184610371C
:10561000BD4680BD80B483B000AF786039603B6820
:1056200018460C37BD465DF8047B704780B584B0E2
:1056300000AFF860B9607A603B70B86800F03AF883
:105640000346184600F043F803461A78FB681A70C0
:10565000FB6800225A60FB6818461037BD4680BDC3
:1056600080B584B000AFF860B9607A603B70B8680C
:1056700000F038F80346184600F041F803461A785F
:10568000FB681A70FB6800225A60FB6818461037E6
:10569000BD4680BD80B584B000AFF860B9607A6067
:1056A0007A68B968F86800F035F80346184610378C
:1056B000BD4680BD80B582B000AF78607B6818467B
:1056C00000F052F8034618460837BD4680BD80B446
:1056D00083B000AF78607B6818460C37BD465DF834
:1056E000047B704780B582B000AF78607B68184655
:1056F00000F046F8034618460837BD4680BD80B422
:1057000083B000AF78607B6818460C37BD465DF803
:10571000047B704780B586B000AFF860B9607A60EE
:10572000BA68FB68D31A9B100E4A02FB03F37B6135
:105730007B69002B09D07A691346DB009B1A9B001A
:105740001A46F96878681CF019FF7A691346DB007D
:105750009B1A9B001A467B68134418461837BD46AF
:1057600080BD00BFB76DDBB680B582B000AF78609A
:10577000786800F011F8034618460837BD4680BD2A
:1057800080B582B000AF7860786800F012F8034608
:1057900018460837BD4680BD80B582B000AF78603E
:1057A0007B68184600F012F8034618460837BD46D5
:1057B00080BD80B582B000AF78607B68184600F08D
:1057C00011F8034618460837BD4680BD80B483B043
:1057D00000AF78607B681B6818460C37BD465DF8E3
:1057E000047B704780B483B000AF78607B681B682F
:1057F00018460C37BD465DF8047B704780B586B00F
:1058000000AF7860FAF7F2FF07F10C03184600F0DA
:105810000BF807F10C03184600F0BAF801200AF063
:105820000EFA00BFF5E7000080B582B000AF7860E7
:105830007B68054A116807221846FDF70BFC7B6858
:1058400018460837BD4680BDB401001082B0F0B5DF
:1058500091B004AF786007F1480080E80C000B4677
:10586000FB7097F86030002B05D0002B34DB033B36
:10587000012B31D81DE0FB783B7307F1100407F1D1
:1058800048050FCD0FC42B68236097F85C3087F86C
:10589000243097F8603087F825301C23FB6207F12D
:1058A0000C034FF47A72F96A1846FBF725F8B862D0
:1058B00013E07D68FE7897F8603003936C4607F13B
:1058C000500393E8070084E8070007F148030CCB76
:1058D00031462846FDF7D8FB00BF00BF3437BD4630
:1058E000BDE8F04002B07047B0B592B006AF786046
:1058F0001C23FB6207F10C030022F96A1846FBF730
:1059000023F8B862BA6AFB6A9A4214D13D7B97F8D1
:10591000243097F82520049203936C4607F118036E
:1059200093E8070084E8070007F110030CCB294631
:105930007868FFF78BFF00BF3037BD46B0BD82B03F
:10594000F0B589B006AF786007F1200080E80C0060
:105950000B46FB707B681D68FE7897F8383004931F
:1059600097F8343003936C4607F1280393E8070057
:1059700084E8070007F120030CCB31462846FFF7E7
:1059800065FF00BF0C37BD46BDE8F04002B0704770
:1059900090B589B000AF78607868FFF7A5FF7C68A4
:1059A0007B68FB6107F11C0207F10C0311461846E6
:1059B00000F010F807F10C0319462046FDF79DFB97
:1059C00007F10C031846FBF702FF00BF2437BD4662
:1059D00090BD000090B583B000AF786039607B68FF
:1059E0001A4600231360536093607B681846FDF7E6
:1059F00003F97B680022DA60386800F01BF8034680
:105A0000002B0ED07C68386800F01FF8034619465A
:105A1000204600F025F87B68044ADA607B68044A77
:105A20009A607B6818460C37BD4690BD855A1008B1
:105A3000D55A100880B483B000AF786001231846AF
:105A40000C37BD465DF8047B704780B483B000AF6F
:105A500078607B6818460C37BD465DF8047B70475C
:105A600090B583B000AF786039603868FFF7EDFF1C
:105A7000034622461946786800F04BF800BF0C3701
:105A8000BD4690BD2DE9F04186B002AFF860B96027
:105A90007A603B60F86800F055F80446B868FDF796
:105AA00088F905467868FDF78FF906463868FDF7EE
:105AB00096F98046B86AFDF792F90346009343468B
:105AC00032462946204600F04EF800BF1037BD464A
:105AD000BDE8F08190B585B000AFF860B9601346BD
