:020000040810E2
:10000000008004104D5C1008890C1008910C100839
:10001000990C1008A10C1008A90C10080000000091
:1000200000000000000000000000000011E61008C1
:10003000B10C10080000000061E810088DD610080F
:100040009D5C10089D5C10089D5C10089D5C10086C
:100050009D5C10089D5C10089D5C10089D5C10085C
:100060009D5C10089D5C10089D5C10089D5C10084C
:100070009D5C10089D5C10089D5C10089D5C10083C
:100080009D5C10089D5C10089D5C10089D5C10082C
:100090009D5C10089D5C10089D5C10089D5C10081C
:1000A0009D5C10089D5C10089D5C10089D5C10080C
:1000B0009D5C10089D5C10089D5C10089D5C1008FC
:1000C0009D5C10089D5C10089D5C10089D5C1008EC
:1000D0009D5C10089D5C10089D5C10089D5C1008DC
:1000E0009D5C10089D5C1008000000009D5C1008DD
:1000F0009D5C10089D5C10089D5C10089D5C1008BC
:100100009D5C10089D5C10089D5C10089D5C1008AB
:100110009D5C10089D5C1008C10C10089D5C1008C7
:100120009D5C10089D5C10089D5C10089D5C10088B
:100130009D5C1008D50C1008E90C10089D5C100897
:100140009D5C10089D5C100800000000000000008D
:100150009D5C10089D5C10089D5C10089D5C10085B
:100160009D5C10089D5C10089D5C10089D5C10084B
:100170009D5C10089D5C10089D5C1008000000004C
:100180009D5C10089D5C10089D5C10089D5C10082B
:100190009D5C10089D5C10089D5C10089D5C10081B
:1001A0009D5C10089D5C10089D5C10089D5C10080B
:1001B0009D5C10089D5C10089D5C10089D5C1008FB
:1001C0009D5C10089D5C10089D5C10089D5C1008EB
:1001D0009D5C10089D5C10089D5C10089D5C1008DB
:1001E0009D5C10089D5C10089D5C10089D5C1008CB
:1001F0009D5C10089D5C10089D5C10089D5C1008BB
:100200009D5C10089D5C10089D5C10089D5C1008AA
:100210009D5C10089D5C10089D5C10089D5C10089A
:100220009D5C10089D5C10089D5C10089D5C10088A
:100230009D5C10089D5C1008FD0C10089D5C10086A
:100240009D5C10089D5C10089D5C10089D5C10086A
:100250009D5C10089D5C10089D5C10089D5C10085A
:100260009D5C10089D5C10089D5C10089D5C10084A
:100270009D5C10089D5C10089D5C10089D5C10083A
:100280009D5C10089D5C10089D5C1008000000003B
:080290009D5C10089D5C100844
:1002A00010B5054C237833B9044B13B10448AFF3B0
:1002B00000800123237010BD90000010000000009A
:1002C0007CED110808B5034B1BB103490348AFF39C
:1002D000008008BD00000000940000107CED1108B3
:1002E00001F0FF01102A2BDB10F0070F08D010F8E7
:1002F000013B013A8B422DD010F0070F42B3F6D1EB
:10030000F0B441EA012141EA014122F007047FF003
:1003100000070023F0E80256083C85EA010586EA5A
:10032000010685FA47F5A3FA87F586FA47F6A5FA96
:1003300087F68EB9EED1F0BC01F0FF0102F00702A2
:1003400032B110F8013B013A83EA010313B1F8D14D
:100350000020704701387047002D06BF354603382E
:10036000073815F0010F07D1013015F4807F02BF67
:10037000013015F4C03F0130F0BC0138704700BFB8
:10038000034613F8012B002AFBD1181A01387047D5
:1003900080B483B000AF7860054B1A687B681A6040
:1003A0007B6818460C37BD465DF8047B704700BF7C
:1003B000AC01001080B500AF104B1B68BFF35B8F22
:1003C00003F00103002B0CBF01230023DBB2002B41
:1003D00010D00A481CF0B4FD0346002B14BF0123C3
:1003E0000023DBB2002B05D00548FFF7D1FF0348FF
:1003F0001CF0B2FD024B184680BD00BFB0000010DB
:10040000AC0000100EB480B585B000AF78607B689A
:100410001B684FF0FF3118460DF0E4FA07F1200396
:10042000FB60114B1B689B68FA68F96918461DF060
:1004300061F90D4B1B689B68022201210B481DF0DE
:10044000BFFC094B1B689B6818461DF097FB7B6837
:100450001B6818460DF011FB00BF1437BD46BDE800
:10046000804003B0704700BF4000001094ED1108B9
:1004700080B582B000AF78607B6803F08053002BBA
:1004800005D04FF080500AF04BF900F045F87B683A
:10049000002B05DA4FF000400AF042F900F060F856
:1004A00000BF0837BD4680BD80B582B002AF0E4B9D
:1004B00000930E4B0122002140F654300FF07AFBDE
:1004C00003460B4A13600B4B00930B4B0122002198
:1004D00040F654300FF06EFB0346054A536000238C
:1004E0001846BD4680BD00BF0800003850000038E7
:1004F000000000382C000038A40B003880B500AF95
:100500004FF080500AF00CF94FF000400AF008F963
:100510000023184680BD000080B582B000AF0023E4
:100520007B600D4B1B68002B12D00B4B1B683A1DD8
:10053000114618460FF09AFD7B68002B09D0074B37
:100540004FF080521A60BFF34F8FBFF36F8F00E000
:1005500000BF0837BD4680BD0000003804ED00E054
:1005600080B582B000AF00237B600D4B5B68002B31
:1005700012D00B4B5B683A1D114618460FF0BAFDBE
:100580007B68002B09D0074B4FF080521A60BFF3F5
:100590004F8FBFF36F8F00E000BF0837BD4680BDAF
:1005A0000000003804ED00E080B584B000AF786052
:1005B0007B68FB60BFF34F8F00BF124B5B68FA682C
:1005C0009A420BD11B211D200AF072F80346002B22
:1005D00014D11B211D200AF08FF80FE0094B1B6876
:1005E000FA689A420AD11B211E200AF061F80346DC
:1005F000002B03D11B211E200AF07EF800BF10370C
:10060000BD4680BD0000003880B586B000AFF86000
:10061000B9607A600F4B5B68002B01D1002315E0B5
:100620007B68002B09DA0B4B58684FF0FF33BA6830
:10063000F9680FF079FB786107E0064B58687B6832
:10064000BA68F9680FF070FB78617B691846183753
:10065000BD4680BD0000003880B586B000AFF860B0
:10066000B9607A607B68002B09DA0B4B18684FF091
:10067000FF33BA68F9680FF03EFC786107E0064B7B
:1006800018687B68BA68F9680FF035FC78617B6997
:1006900018461837BD4680BD0000003880B582B0CE
:1006A00000AF334BD3F8E030314A43F00073C2F867
:1006B000E0302F4BD3F8E03003F000737B607B68B1
:1006C00001200AF02DF80AF0C7FD012202210020C6
:1006D0000AF048FD274B1B681B0903F00F03072B8B
:1006E00008D1254BD3F80431234A43F00103C2F863
:1006F000043107E0204BD3F814311F4A43F00103C3
:10070000C2F8143107F016FE00F0A2F800F0BAF8B3
:1007100000F050F8FFF7C8FE0CF0D2FF17480DF0BC
:10072000DBF80346164A1360164A002116480DF0FE
:1007300026F80346154A1360154A002115480DF0A6
:100740001EF80346144A1360144A002114480DF0A1
:1007500016F80346134A1360134A002113480DF09C
:100760000EF80346124A13600CF0CEFF00BFFDE7FF
:100770000044025800ED00E000640258982412087A
:10078000AC01001008241208194A10089C0100103E
:100790002C24120891241008A001001050241208E3
:1007A000590F1008A401001074241208315D1008BC
:1007B000A801001080B500AF224B234A1A60214BDC
:1007C000224A5A601F4B00229A601E4B0122DA60B7
:1007D0001C4B00221A611B4B00225A61194B00224C
:1007E0009A61184B0022DA61164B00221A621548F2
:1007F00009F0C2FF0346002B14BF01230023DBB224
:10080000002B01D000F0D6F800210E480AF012FCAF
:100810000346002B14BF01230023DBB2002B01D0C1
:1008200000F0C8F8022107480AF04FFC0346002BED
:1008300014BF01230023DBB2002B01D000F0BAF873
:1008400000BF80BDB4000010001C0058FFECC010B9
:1008500080B483B000AF0A4BD3F8D430084A43F0D9
:100860000103C2F8D430064BD3F8D43003F00103AF
:100870007B607B6800BF0C37BD465DF8047B70472A
:100880000044025880B489B000AF374BD3F8E03051
:10089000354A43F04003C2F8E030334BD3F8E03040
:1008A00003F04003FB61FB692F4BD3F8E0302E4A85
:1008B00043F01003C2F8E0302B4BD3F8E03003F0E4
:1008C0001003BB61BB69284BD3F8E030264A43F0E4
:1008D0000403C2F8E030244BD3F8E03003F0040303
:1008E0007B617B69204BD3F8E0301F4A43F0010362
:1008F000C2F8E0301C4BD3F8E03003F001033B6159
:100900003B69194BD3F8E030174A43F00203C2F8B1
:10091000E030154BD3F8E03003F00203FB60FB68D6
:10092000114BD3F8E030104A43F08003C2F8E030B6
:100930000D4BD3F8E03003F08003BB60BB680A4B7B
:10094000D3F8E030084A43F00803C2F8E030064B21
:10095000D3F8E03003F008037B607B6800BF2437E6
:10096000BD465DF8047B70470044025880B582B0F4
:1009700000AF7860391D4FF6FF73012203480CF079
:10098000F9FC7B6818460837BD4680BD0801001099
:1009900080B582B000AF78607B681B68044A9342E0
:1009A00001D107F025FD00BF0837BD4680BD00BF5F
:1009B0000010004080B400AF72B600BF00BFFDE77A
:1009C00080B582B000AF786039607B68012B24D19C
:1009D0003B684FF6FF7293421FD100221C2140203A
:1009E0000EF0EBF803460F4A136000221C21102082
:1009F0000EF0E3F803460C4A136000221C2110207D
:100A00000EF0DBF80346094A136000221C21042083
:100A10000EF0D3F80346064A136000BF0837BD4600
:100A200080BD00BFB0010010B4010010B80100107B
:100A3000BC01001080B500AF4FF6FF710120FFF739
:100A4000BFFF80BD80B582B000AF104BD3F8F4304B
:100A50000E4A43F00203C2F8F4300C4BD3F8F430E2
:100A600003F002037B607B6800220F216FF001001E
:100A700007F0AAFD002207217E2007F0A5FD7E20B9
:100A800007F0BCFD00BF0837BD4680BD00440258DA
:100A900080B5BCB000AF786007F1DC0300221A60BB
:100AA0005A609A60DA601A6107F11003C8220021C7
:100AB00018461DF0D3FA7B681B68274A934246D13B
:100AC0004FF010024FF00003C7E904230023C7F8DA
:100AD000AC3007F1100318460AF0D0FD0346002B96
:100AE00001D0FFF767FF1D4BD3F8E0301B4A43F0FE
:100AF0000803C2F8E030194BD3F8E03003F00803E4
:100B0000FB60FB684FF44053C7F8DC301223C7F892
:100B1000E0300023C7F8E4300023C7F8E8300423AE
:100B2000C7F8EC3007F1DC0319460D4809F006FB65
:100B30000A4BD3F8F430094A43F08003C2F8F4308A
:100B4000064BD3F8F43003F08003BB60BB6800BFF2
:100B5000F037BD4680BD00BF001C0058004402585D
:100B6000000C025880B582B000AF78607B681B68CB
:100B70000C4A934211D10C4BD3F8F4300A4A23F0BB
:100B80008003C2F8F4304FF48051084809F086FC25
:100B90004FF40051054809F081FC00BF0837BD46FD
:100BA00080BD00BF001C005800440258000C0258D1
:100BB00080B590B000AF78607B680F2B27D80022FB
:100BC0007968362007F000FD362007F017FD294A26
:100BD0007B681360284BD3F8E830274A43F01003B2
:100BE000C2F8E830244BD3F8E83003F01003FB6080
:100BF000FB6807F1100207F11403114618460AF0CA
:100C0000FBFCBB6ABB63BB6B002B06D101E001237D
:100C10002BE00AF0DBFCF86304E00AF0D7FC0346A3
:100C20005B00FB63FB6B154AA2FB03239B0C013BA0
:100C30007B63134B134A1A60114B40F2E732DA60C0
:100C40000F4A7B6B53600E4B00221A610C4B002243
:100C50009A600B480CF0C0F80346002B04D10848FA
:100C60000CF01CF9034600E0012318464037BD464E
:100C700080BD00BF1C0000100044025883DE1B43EF
:100C8000C00100100010004080B400AF00BFFDE7BD
:100C900080B400AF00BFFDE780B400AF00BFFDE748
:100CA00080B400AF00BFFDE780B400AF00BFFDE738
:100CB00080B400AF00BFBD465DF8047B7047000004
:100CC00080B500AF02480CF061F900BF80BD00BFE5
:100CD000C001001080B500AF024808F087F800BFDF
:100CE00080BD00BFB402001080B500AF024808F01C
:100CF0007DF800BF80BD00BFB402001080B500AF1A
:100D000009F020FD00BF80BD80B400AF012318466C
:100D1000BD465DF8047B704780B483B000AF786057
:100D20003960054B16221A604FF0FF3318460C3716
:100D3000BD465DF8047B7047E022011080B582B0AB
:100D400000AF78604FF0FF317868FFF7E5FF00BF34
:100D5000FDE780B586B000AFF860B9607A60002327
:100D60007B610AE0AFF300800146BB685A1CBA60A1
:100D7000CAB21A707B6901337B617A697B689A42D7
:100D8000F0DB7B6818461837BD4680BD80B586B05D
:100D900000AFF860B9607A6000237B6109E0BB684E
:100DA0005A1CBA601B781846FFF7E0FD7B690133D7
:100DB0007B617A697B689A42F1DB7B681846183759
:100DC000BD4680BD80B483B000AF78604FF0FF3384
:100DD00018460C37BD465DF8047B704780B483B07D
:100DE00000AF786039603B684FF400525A600023CE
:100DF00018460C37BD465DF8047B704780B483B05D
:100E000000AF7860012318460C37BD465DF8047BBF
:100E1000704780B485B000AFF860B9607A60002395
:100E200018461437BD465DF8047B704780B487B020
:100E300000AF7860144A154BD31A7B617B693B6124
:100E4000134B1B68002B02D1114B124A1A60104B36
:100E50001A687B6813443A699A4205D20E4B0C22F9
:100E60001A604FF0FF3309E0094B1B68FB60084B29
:100E70001A687B681344064A1360FB6818461C37DF
:100E8000BD465DF8047B7047008004100010000030
:100E90000C020010E8220110E022011080B483B09F
:100EA00000AF786039603B6818460C37BD465DF886
:100EB000047B704780B483B000AF78607B681846CD
:100EC0000C37BD465DF8047B704780B483B000AF3B
:100ED00078607B6818460C37BD465DF8047B704728
:100EE00080B582B000AF78607B689B68002B05D02E
:100EF0007B689B6878687968032298477B68184606
:100F00000837BD4680BD000080B500AF104B1B68A0
:100F1000BFF35B8F03F00103002B0CBF0123002301
:100F2000DBB2002B10D00A481CF00AF80346002B55
:100F300014BF01230023DBB2002B05D0054800F0CD
:100F400075F803481CF008F8024B184680BD00BF36
:100F5000300200101002001080B584B000AF78603D
:100F6000FFF7D2FFF860F86800F016F901200CF0E6
:100F700098FC00BFF7E780B588B002AFF860B960B1
:100F80007A60FB70FFF7C0FF786197F90330009338
:100F90007B68BA68F968786900F06EFE002318462D
:100FA0001837BD4680BD80B586B000AFF860B96027
:100FB0001346FB71FFF7A8FF786197F90730BA680D
:100FC000F968786900F09EFE002318461837BD4680
:100FD00080BD80B584B000AF78600B46FB70FFF732
:100FE00093FFF86097F903301A467968F86800F0C3
:100FF000FBFE00BF1037BD4680BD80B588B002AF94
:10100000F860B9607A603B60FFF77EFF78613B8CE7
:1010100001933B6800937B68BA68F968786900F0CF
:1010200049FB00BF1837BD4680BD000080B582B0C7
:1010300000AF78607B680C4A11680322184601F003
:1010400017F903F0B1FF7B6800221A740022012116
:1010500010200DF0B2FD02467B68DA607B6818460E
:101060000837BD4680BD00BFB801001082B080B512
:1010700084B000AF786007F1180080E80C000B46E0
:101080007B807B8840F2031293420AD0B3F5827FC3
:1010900018DA40F20112934216D0B3F5817F15D0D1
:1010A00010E03B7E002B01D0002300E00123FB7306
:1010B0007B68D86807F10F01002342F210720DF02F
:1010C00001FF04E000BF02E000BF00E000BF00BF7E
:1010D0001037BD46BDE8804002B0704780B582B091
:1010E00000AF78607B681B7C042B1AD801A252F8F1
:1010F00023F000BF21111008091110082111100858
:101100001111100819111008786800F08DF808E026
:10111000786800F0CFF804E0786800F0D5F800E0D7
:1011200000BF00BF0837BD4680BD00BF82B0F0B52C
:1011300089B006AF786007F1200080E80C000B460C
:101140007B807B681D687E8897F83830049397F819
:10115000343003936C4607F1280393E8070084E8D2
:10116000070007F120030CCB31462846FFF77EFF2E
:1011700000BF0C37BD46BDE8F04002B0704780B5F7
:1011800082B000AF78607B681846FFF7A9FE7B68E5
:1011900018460837BD4680BD90B58BB000AF78606B
:1011A0007C687B68FB6107F11C0207F10C031146A8
:1011B000184600F043FE07F10C031946204601F0E3
:1011C000AAF807F10C031846FFF7D9FF7868FFF774
:1011D00085FF01237B627B68DB6807F10B0100223E
:1011E00018460EF09FF878627B6A012B14D1FB7AC7
:1011F0001946786800F072F8034687F823307B6858
:101200001B7C97F823209A4206D07B6897F823200E
:101210001A747868FFF762FF7B6A012BDBD000BF8E
:1012200000BF2C37BD4690BD80B584B000AF78605C
:101230000023BB730023FB73786800F01BF903469F
:10124000BB73FB7B0133FB730A200CF02AFBBB7BD7
:10125000002B02D1FB7B032BEED90023FB737868B4
:1012600000F05CF90346BB73FB7B0133FB730A2080
:101270000CF017FBBB7B002B02D1FB7B032BEED9C1
:101280000023FB73786800F0B7F90346BB73FB7B60
:101290000133FB730A200CF004FBBB7B002B02D153
:1012A000FB7B032BEED964200CF0FBFA00BF103758
:1012B000BD4680BD80B483B000AF786000BF0C37FE
:1012C000BD465DF8047B704780B483B000AF7860A2
:1012D00000BF0C37BD465DF8047B704780B582B017
:1012E00000AF78600B46FB707B681B7C042B30D80A
:1012F00001A252F823F000BF0D1310081B131008B1
:10130000291310083713100845131008FB781946E5
:10131000786800F023F803461CE0FB7819467868EB
:1013200000F030F8034615E0FB781946786800F0C5
:1013300050F803460EE0FB781946786800F073F821
:10134000034607E0FB781946786800F07FF803460B
:1013500000E0002318460837BD4680BD80B582B046
:1013600000AF78600B46FB70FB78002B04D17868E7
:1013700000F078FB012301E07B681B7C18460837EE
:10138000BD4680BD80B582B000AF78600B46FB7073
:10139000FB78012B02D0022B05D014E0786800F016
:1013A0008FFB002311E0786800F08AFB786800F07A
:1013B000B5FB034683F00103DBB2002B01D0012310
:1013C00003E0022301E07B681B7C18460837BD461A
:1013D00080BD80B582B000AF78600B46FB70FB78B3
:1013E000042B0BD0042B18DC012B02D0032B12D0C2
:1013F00013E0786800F0FEFB002310E0786800F04E
:101400008DFB034683F00103DBB2002B01D00123E7
:1014100005E0022303E0032301E07B681B7C184600
:101420000837BD4680BD80B483B000AF78600B46FE
:10143000FB70FB78012B01D1002301E07B681B7C52
:1014400018460C37BD465DF8047B704780B483B006
:1014500000AF78600B46FB70FB78012B01D10023B5
:1014600001E07B681B7C18460C37BD465DF8047BA9
:101470007047000080B586B000AF7860234B7B6179
:1014800007F10C031946224812F082FB4FF4207238
:101490005E21362014F028FC38613B69002B08D10E
:1014A000FEF788FF03461B491846FEF7ABFF0023F3
:1014B00027E03B695B685E22144918461CF01DFF5B
:1014C0007B68986907F10C0240F26C7339691BF074
:1014D0004DFA0346002B14BF01230023DBB2002B7F
:1014E0000BD0FEF767FF03460B491846FEF78AFF4D
:1014F000386914F0DDFE002303E0386914F0D8FEEB
:10150000012318461837BD4680BD00BFE0ED110825
:1015100040EE110850EE110874EE1108F0B58FB0CE
:1015200000AF7860304B07F110041D460FCD0FC49B
:101530000FCD0FC42B68238000237B8607F10C039B
:1015400019462A4812F024FB4FF420722421362039
:1015500014F0CAFB78637B6B002B08D1FEF72AFFDF
:10156000034623491846FEF74DFF002337E07B6B07
:101570005B6807F110049C4604F1200E6546264680
:101580000FCE28606960AA60EB6010340CF1100C7B
:101590007445F3D163462246106818607B689869E9
:1015A00007F10C0240F2AB13796B1BF0DFF9034635
:1015B000002B14BF01230023DBB2002B0BD0FEF75E
:1015C000F9FE03460B491846FEF71CFF786B14F032
:1015D0006FFE002303E0786B14F06AFE01231846C7
:1015E0003C37BD46F0BD00BFE4EE110894EE110893
:1015F000A4EE1108C8EE110880B586B000AF78607F
:10160000284A07F10C0392E803001860043319809C
:1016100002330A0C1A7007F108031946224812F027
:10162000B7FA4FF420720621362014F05DFB786182
:101630007B69002B08D1FEF7BDFE03461B49184607
:10164000FEF7E0FE002328E07B695B6807F10C01F0
:10165000062218461CF051FE7B68986907F10802C3
:1016600041F69B2379691BF081F90346002B14BFD7
:1016700001230023DBB2002B0BD0FEF79BFE0346B9
:101680000B491846FEF7BEFE786914F011FE0023E0
:1016900003E0786914F00CFE012318461837BD46A4
:1016A00080BD00BF54EF110894EE110808EF110837
:1016B00030EF1108B0B5A4B004AFF860B9607A603B
:1016C0003B603B68002B07D1FEF774FE034692494E
:1016D0001846FEF797FEB5E1FEF76CFE0446D7F814
:1016E000900012F07FFB0246B7F894308B492046F9
:1016F000FEF788FE3B685B89052B0BD8FEF75AFE88
:101700003B685B891A468649FEF77CFE386814F010
:10171000CFFD97E13B685B68BB67BB6F1B78002B15
:101720000ED1BB6F01331B78002B09D1BB6F023385
:101730001B78002B04D1BB6F03331B78322B0AD0EC
:10174000FEF738FE034677491846FEF75BFE386819
:1017500014F0AEFD76E1BB6F1B781A06BB6F013348
:101760001B781B041A43BB6F02331B781B02134305
:10177000BA6F0332127813437B677B6F06333A6884
:10178000528993420BD9FEF715FE3B685B897A6F4D
:101790006549FEF737FE386814F08AFD52E1FEF71E
:1017A00009FE03467A6F61491846FEF72BFEBB6FB0
:1017B00004331B781B021AB2BB6F05331B781BB2B4
:1017C00013431BB2A7F87230FEF7F4FDB7F872307E
:1017D0001A465749FEF716FE3B685B890E2B40F20E
:1017E0002681BB6F0E33FB663B685B890E3BBB6695
:1017F0005049F86E1CF04DFC78664F49F86E1CF0AD
:1018000048FC38667B6E002B00F009813B6E002B94
:1018100000F005817B6E03337B663B6E03333B66D2
:101820007B6E03F10C02F96EBB6E0B449A4200F220
:101830008F8000233B6507F1540300221A605A6031
:101840001A7207F150030C22796E18461CF00EFC38
:101850000023BB640023A7F84C300023FB6722E081
:10186000FB6F5B0007F15002D01807F14802FB6FD5
:1018700013441A4631491CF0C3FA0346012B14BF26
:1018800001230023DBB2002B0AD0FEF793FD0346B1
:101890002B491846FEF7B6FD386814F009FDD1E073
:1018A000FB6F0133FB67FB6F052BD9DDFEF782FD74
:1018B00007F150031A462349FEF7A4FD07F1400340
:1018C00007F1480292E8030018600433198007F119
:1018D00040031946D7F8900010F06AFE0346002B2B
:1018E0000CBF01230023DBB2002B0CD0FEF762FDFE
:1018F000034615491846FEF785FDFB68D7F890208A
:1019000012685A612BE0FEF755FD03460F49184651
:10191000FEF778FD23E000BF5CEF11088CEF1108A3
:10192000ACEF1108E0EF11080CF011083CF01108C1
:101930004CF0110864F0110868F011086CF01108FF
:1019400074F0110894F01108B0F01108D8F01108E3
:10195000FEF730FD03463D491846FEF753FD3B6E4A
:1019600003F11102F96EBB6E0B449A424FD800236B
:10197000FB6207F1300300221A605A609A609A8174
:1019800007F12C031122396E18461CF06FFBFEF78D
:1019900011FD07F12C031A462D49FEF733FD0223F2
:1019A00087F82B30FB68D86807F12B01002342F23F
:1019B00010720DF087FA0346012B14BF0123002398
:1019C000DBB2002B09D0FEF7F5FC034697F82B207D
:1019D00020491846FEF716FD34E007F114031122E2
:1019E000396E18461CF042FBFD68002303936C46D9
:1019F00007F11C0393E8070084E8070007F11403CC
:101A00000CCB4FF48071284600F04CFC17E0FEF739
:101A1000D1FC034610491846FEF7F4FC0FE0FEF730
:101A2000C9FC03460D491846FEF7ECFC07E0FEF73B
:101A3000C1FC3B685B891A460949FEF7E3FC38683C
:101A400014F036FC8037BD46B0BD00BFFCF0110875
:101A50002CF1110840F111087CF11108A4F11108D2
:101A6000D8F1110880B582B000AF78601BF01EFA83
:101A700002467B689A617B689B69002B0ED07B686D
:101A80009B6900220B4918461BF026F97B689B696D
:101A90000022094918461BF0A7F906E0FEF78AFC68
:101AA000034606491846FEF7ADFC00BF0837BD46A1
:101AB00080BD00BFD8241208FB0F10081CF21108CB
:101AC00080B582B000AF78607B689B69002B16D030
:101AD0007B689B690022002118461BF085F97B6812
:101AE0009B6918461BF0A0F97B6800229A61FEF7FB
:101AF00061FC034607491846FEF784FC06E0FEF742
:101B000059FC034604491846FEF77CFC00BF083721
:101B1000BD4680BD38F2110864F2110880B584B06A
:101B200000AF786016F0A4FA02467B68DA612A48B2
:101B300014F000FF7B68DB69002B0BD1FEF73AFC49
:101B4000034626491846FEF75DFC234814F001FFC2
:101B500000233CE07B68DB690021184616F090FA10
:101B60007B68DB691E49184616F09CFA7B68DB69C6
:101B70001C49184616F0B8FA7B68D8697B6803F1EF
:101B80001401194B41F6912215F026FB0346FB7315
:101B900097F90F30002B0FD0FEF70CFC97F90F30A0
:101BA0001A461249FEF72EFC786800F023F80A481E
:101BB00014F0CFFE00230AE0FEF7FCFB03460C49BD
:101BC0001846FEF71FFC044814F0C3FE0123184614
:101BD0001037BD4680BD00BF8421011090F211086E
:101BE000770F1008D30F1008A70F1008ACF21108D8
:101BF000CCF2110880B582B000AF78601B4814F0B9
:101C000099FE7B68DB69002B21D07B68DB690021B2
:101C1000184616F035FA7B68DB690021184616F085
:101C200041FA7B68DB690021184616F05DFA7B6893
:101C3000DB69184615F0E8F87B680022DA61FEF7E8
:101C4000B9FB03460A491846FEF7DCFB06E0FEF73F
:101C5000B1FB034607491846FEF7D4FB034814F0CE
:101C600078FE00BF0837BD4680BD00BF842101104B
:101C7000E0F211080CF3110880B586B000AFF860EF
:101C8000B9607A603B603B68002B03D097F9203045
:101C9000002B0AD0786815F0B7F8FEF78BFB0346E7
:101CA00015491846FEF7AEFB23E0FEF783FB3B68C1
:101CB0005B891A461149FEF7A5FB3B685B683B61EF
:101CC00000237B610CE0FEF775FB7B693A691344E6
:101CD0001B781A460A49FEF795FB7B6901337B6145
:101CE0003B685B891A467B699342ECDB386814F0E9
:101CF000DFFA1837BD4680BD40F3110868F31108BC
:101D000084F3110880B588B000AFF860B9607A60DC
:101D1000FB7097F90330002B2DD0FEF74BFB97F9A2
:101D200003301A462C49FEF76DFB0423FB75FB6854
:101D3000D86807F117010023284A0DF0C3F80346BD
:101D4000012B14BF01230023DBB2002B40D0FEF790
:101D500031FB0346FA7D22491846FEF753FB4FF04C
:101D6000500383F31188BFF36F8FBFF34F8FFB6175
:101D700000BF00BFFDE7FEF71DFB034619491846EB
:101D8000FEF740FB0323BB75FB68D86807F116011B
:101D90000023124A0DF096F80346012B14BF0123CD
:101DA0000023DBB2002B13D0FEF704FB0346BA7D01
:101DB0000B491846FEF726FB4FF0500383F31188BA
:101DC000BFF36F8FBFF34F8FBB6100BF00BFFDE755
:101DD00000BF2037BD4680BD8CF31108A0860100EE
:101DE00040F11108B0F3110880B584B000AFF8607D
:101DF000B9601346FB71FEF7DDFA97F907301A4612
:101E00000349FEF7FFFA00BF1037BD4680BD00BF93
:101E1000C4F3110880B483B000AF78607B681A46C1
:101E20000023136053607B6800229A607B68184629
:101E30000C37BD465DF8047B7047000090B583B059
:101E400000AF786039607B681A46002313605360E6
:101E500093607B681846FFF7DDFF7B680022DA603D
:101E6000386800F01BF80346002B0ED07C683868F9
:101E700000F01FF803461946204600F025F87B685D
:101E8000044ADA607B68044A9A607B6818460C371B
:101E9000BD4690BDED1E10083D1F100880B483B0F4
:101EA00000AF7860012318460C37BD465DF8047B0F
:101EB000704780B483B000AF78607B6818460C37F9
:101EC000BD465DF8047B704790B583B000AF786085
:101ED00039603868FFF7EDFF0346224619467868F7
:101EE00000F04BF800BF0C37BD4690BD2DE9F04126
:101EF00086B002AFF860B9607A603B60F86800F0C5
:101F000055F80446B86800F062F80546786800F0B5
:101F100069F80646386800F070F88046B86A00F044
:101F20006CF803460093434632462946204600F0AB
:101F30006FF800BF1037BD46BDE8F08190B585B0A1
:101F400000AFF860B9601346FB71FB79012B09D132
:101F5000F86800F086F80446B86800F027F80346F1
:101F6000236005E0FB791A46B968F86800F086F846
:101F7000002318461437BD4690BD90B585B000AF1C
:101F8000F860B9603A71F868FEF794FF03461946A5
:101F90000420FEF783FF0446B868FFF78AFF034674
:101FA0001B68236000BF1437BD4690BD80B584B068
:101FB00000AF7860786800F09BF8F860F86800F08F
:101FC000A3F8034600BF18461037BD4680BD80B455
:101FD00083B000AF78607B6818460C37BD465DF86B
:101FE000047B704780B483B000AF78607B6818468C
:101FF0000C37BD465DF8047B704780B483B000AFFA
:1020000078607B6818460C37BD465DF8047B7047E6
:102010002DE9F04387B002AFF860B9607A603B60A9
:10202000F86800F07CF80546B868FFF7D0FF064670
:102030007868FFF7D7FF80463868FFF7DEFF044671
:10204000386BFFF7DAFF03460193009443463246AC
:102050002946484600F06EF800BF1437BD46BDE87B
:10206000F08380B582B000AF78607868FEF722FF19
:10207000034618460837BD4680BD000090B585B0C0
:1020800000AFF860B9601346FB71FB79032B2AD8C7
:1020900001A252F823F000BFA9201008B7201008B1
:1020A000CB201008DD201008F86800F076F8034611
:1020B00000221A6017E0F868FFF7D3FF0446B868FB
:1020C000FFF774FF034623600DE0B868FFF76EFF6B
:1020D00003461946F86800F06CF804E02146F868F9
:1020E00000F079F800BF002318461437BD4690BDB4
:1020F00080B582B000AF78607868FEF7E6FE0346F0
:1021000018460837BD4680BD80B483B000AF786004
:102110007B6818460C37BD465DF8047B704780B479
:1021200083B000AF78607B6818460C37BD465DF819
:10213000047B70472DE9F0418AB006AF3873B9606F
:102140007A603B60B868FFF7EAFF80467868FFF77F
:102150003EFF03461E883868FFF744FF0446B86A0E
:10216000FFF74BFF03461D78F86AFFF746FF03466B
:102170001B78049303956D4604F1080393E8070068
:1021800085E8070094E80C0031464046FEF7CEFF94
:1021900000BF1037BD46BDE8F08180B582B000AF0A
:1021A00078607868FEF786FE034618460837BD4615
:1021B00080BD90B583B000AF78603960386800F0BA
:1021C00016F8034622461946786800F01BF800BF4F
:1021D0000C37BD4690BD80B582B000AF78603970D5
:1021E000786800F028F800BF0837BD4680BD80B48D
:1021F00083B000AF78607B6818460C37BD465DF849
:10220000047B704790B585B000AFF860B9603A7153
:10221000F868FEF74FFE034619460420FEF73EFE1F
:102220000446B868FFF7E3FF03461B68236000BF5E
:102230001437BD4690BD80B582B000AF7860786835
:10224000FEF738FE034618460837BD4680BD80B409
:1022500083B000AF78607B689B68002B0CBF0123C4
:102260000023DBB218460C37BD465DF8047B70478F
:1022700080B485B000AFF860B9601346FB71FB68AD
:10228000BA681A60FB68FA791A71054B1A68FB681C
:102290009A60FB6818461437BD465DF8047B7047AA
:1022A000B001001082B0B0B58AB000AF786007F11D
:1022B000380080E80C000B467B807B689B68002B15
:1022C00021D07B883B8107F10C0407F138050FCD45
:1022D0000FC42B6823607B681B7987F8203097F840
:1022E0004C3087F821307B68986807F1080100239B
:1022F0000A220CF0E7FD78627B6A012B01D00023F3
:1023000002E0012300E0002318462837BD46BDE85F
:10231000B04002B07047B0B590B006AF7860396099
:102320007B681B68002B27D001237B6214E03D896A
:1023300097F8203097F82120049203936C4607F118
:10234000140393E8070084E8070007F10C030CCBA3
:102350002946386800F014F87B681B6807F108010B
:10236000002218460CF0DEFF0346012B0CBF0123B0
:102370000023DBB2002BDAD100BF2837BD46B0BD49
:1023800082B02DE9F04385B002AF786007F12800F4
:1023900080E80C000B467B807B681846FFF757FFF0
:1023A0000346002B01D01AF0B1FE7B68DC687D6823
:1023B000BB1C1846FFF70BFE064607F12800FFF787
:1023C00011FE804607F13C031846FFF716FE8146D2
:1023D00007F140031846FFF710FE034600934B46F3
:1023E000424631462846A04700BF0C37BD46BDE8EF
:1023F000F04302B0704780B582B000AF78607B6870
:1024000000221A70786800F005F87B6818460837D3
:10241000BD4680BD80B483B000AF78607B68002289
:102420005A607A687B689A607A687B68DA607B6851
:1024300000221A6100BF0C37BD465DF8047B70476F
:1024400080B582B000AF78607B68184600F036F93E
:102450007B6818460837BD4680BD80B582B000AFA6
:1024600078607B681846FFF7EBFF7B6818460837F3
:10247000BD4680BD80B582B000AF78607B681846ED
:10248000FFF7EBFF7B6818460837BD4680BD0000AC
:1024900080B588B000AF786007F108031846FFF7F1
:1024A000E9FF0D4B1A6807F108030721184600F0F1
:1024B00017F80A4B1A6807F108030321184600F0C1
:1024C0000FF807F10803184600F01DF801200BF083
:1024D000E8F900BFF5E700BFB4010010B801001033
:1024E00080B586B000AFF8600B467A60FB72F96881
:1024F00007F110003B1D07F10B0200F0F4F800BFDC
:102500001837BD4680BD80B586B000AF786007F152
:102510000C037968184600F035F807F10C031946EA
:10252000786800F055F807F10C03184600F0F5F84C
:1025300000BF1837BD4680BD80B582B000AF78605F
:10254000786800F015F97B6818460837BD4680BDED
:1025500080B582B000AF78607B68184600F0F8F86C
:102560007B6818460837BD4680BD80B582B000AF95
:1025700078607B681846FFF7EBFF7B6818460837E2
:10258000BD4680BD80B58AB000AF7860396078689C
:10259000FFF7EBFF01237B620C4B1B6807F108017F
:1025A000002218460CF0BEFE78627B6A012B05D132
:1025B00007F108031946786800F004F97B6A012BDB
:1025C000EAD000BF78682837BD4680BDB001001052
:1025D000B0B592B000AF786039603B683B64386C4E
:1025E00000F016F90346BB61386C00F021F9034690
:1025F0007B6153E007F11803184600F053F90346D6
:1026000007F11C041D460FCD0FC495E8070084E8B0
:10261000070097F83530FB747B6807F11302114609
:10262000184600F04BF90346FB607B68184600F043
:1026300054F90346BB6307F1380207F10C03114656
:10264000184600F057F90346002B0AD07B6807F1C3
:1026500013021146184600F061F903461B687B64BB
:102660000CE07B68072287F83F2007F13F02114604
:10267000184600F0AFF903461B687B647B6C002BA7
:1026800007D007F11C0100234FF0FF32786C0CF0EB
:1026900019FC07F11803184600F0F3F807F11402CB
:1026A00007F118031146184600F0D3F80346002B33
:1026B000A0D100BF00BF4837BD46B0BD80B582B0D5
:1026C00000AF7860786800F0E5F97B68184600F0A4
:1026D000EDF97B6804331846FFF78DFE7B681846DA
:1026E0000837BD4680BDB0B584B000AFF860B960B2
:1026F0007A603B60BC68786800F0EFF9054638689E
:1027000000F0F6F90346F8682A46214600F0FBF986
:1027100000BFF8681037BD46B0BDB0B582B000AF9D
:1027200078607B681C687B685D687B68184600F091
:102730003FFA03461A462946204600F044FA7B68D1
:10274000184600F021F87B6818460837BD46B0BD32
:1027500080B582B000AF7860786800F042FA7B689C
:10276000184600F04AFA7B6818460837BD4680BD17
:1027700080B582B000AF7860786800F052FA7B686C
:1027800018460837BD4680BD80B582B000AF78607E
:102790007B6819687B689A687B681B68D31A9B10F2
:1027A000074A02FB03F31A46786800F045FA7B6893
:1027B0001846FFF7C1FE7B6818460837BD4680BD46
:1027C000B76DDBB680B582B000AF786039607B68EA
:1027D0005A687B689B689A420DD078687B685B6812
:1027E0003A68194600F03BFA7B685B6803F11C020B
:1027F0007B685A6008E0786800F044FA03463A685B
:102800001946786800F066FA00BF0837BD4680BDFB
:1028100080B584B000AF78607A6807F10C03114688
:10282000184600F01FFBFB6818461037BD4680BDF8
:1028300080B584B000AF78607B681A1D07F10C0387
:102840001146184600F00EFBFB6818461037BD46CF
:1028500080BD90B583B000AF78603960786800F0D3
:1028600011FB03461C68386800F00CFB03461B682C
:102870009C4214BF01230023DBB218460C37BD462F
:1028800090BD80B483B000AF78607B681B6803F1B3
:102890001C027B681A607B6818460C37BD465DF8E1
:1028A000047B704780B483B000AF78607B681B689E
:1028B00018460C37BD465DF8047B704780B582B082
:1028C00000AF786039607B683968184600F0E5FA37
:1028D000034618460837BD4680BD80B582B000AFBC
:1028E00078607B68184600F014FB034618460837EA
:1028F000BD4680BD80B483B000AF786039607B682E
:102900001A683B681B689A4214BF01230023DBB29C
:1029100018460C37BD465DF8047B704790B58BB008
:1029200002AF786039603968786800F003FB0346CD
:10293000BB607868FFF7D1FF0346FB6007F10C022C
:1029400007F108031146184600F003FB0346002B6D
:1029500012D1786800F011FB07F10803184600F067
:1029600019FB03461A4607F110033968184600F0B0
:102970001FFB0346002B01D0012300E00023002BA6
:102980001BD07C6807F1080207F1140311461846B2
:1029900000F032FB07F118033968184600F01DFB00
:1029A00007F1180207F11C0300931346084A7969DE
:1029B000204600F031FB0346BB6007F108031846D0
:1029C00000F0E8FA0346043318462437BD4690BDAC
:1029D000A824120890B58BB002AF786039603968CE
:1029E000786800F0A7FA0346BB607868FFF775FFC8
:1029F0000346FB6007F10C0207F108031146184675
:102A000000F0A7FA0346002B12D1786800F0B5FA5F
:102A100007F10803184600F0BDFA03461A4607F10D
:102A200010033968184600F0C3FA0346002B01D0A2
:102A3000012300E00023002B1FD07C6807F108026F
:102A400007F114031146184600F0D6FA386800F072
:102A500029FB024607F118031146184600F03DFB1A
:102A600007F1180207F11C0300931346084A79691D
:102A7000204600F043FB0346BB6007F108031846FD
:102A800000F088FA0346043318462437BD4690BD4B
:102A9000A824120880B582B000AF7860786800F092
:102AA00073FB7B6818460837BD4680BD80B483B091
:102AB00000AF78607B6818460C37BD465DF8047B34
:102AC000704780B582B000AF7860786800F090FB06
:102AD000034618460837BD4680BD80B483B000AFBA
:102AE00078607B6818460C37BD465DF8047B7047FC
:102AF00080B483B000AF78607B6818460C37BD4661
:102B00005DF8047B704790B58DB000AFF860B96098
:102B10007A603B607868FFF7E0FF04463868FFF7AB
:102B2000E7FF034607F118002246B96800F06CFB86
:102B300007F11803184600F020FC024607F11003C5
:102B4000B968184600F094FB7B69002B15D007F19B
:102B5000180007F1100393E8060000F01CFC034680
:102B60003B62012387F8273007F1270207F1200392
:102B70001946F86800F028FC11E03A6907F12803CB
:102B80001146184600F039FC002387F82F3007F172
:102B90002F0207F128031946F86800F015FC07F129
:102BA0001803184600F04FFBF8683437BD4690BD57
:102BB00080B483B000AF78607B6818460C37BD46A0
:102BC0005DF8047B704780B584B000AFF860B960F1
:102BD0007A60B968F86800F02BFC00BF1037BD467A
:102BE00080BD80B582B000AF7860786800F02DFCC1
:102BF0007B6818460837BD4680BD80B483B000AFFF
:102C000078607B6800221A607B6800225A607B68CB
:102C100000229A607B6818460C37BD465DF8047B3D
:102C2000704780B483B000AF78607B6818460C377B
:102C3000BD465DF8047B704780B584B000AFF86096
:102C4000B9607A60BB68002B05D0FB687A68B96808
:102C5000184600F005FC00BF1037BD4680BD80B5AA
:102C600084B000AFF860B9607A60786800F007FC63
:102C700003461A46B968F86800F00CFC00BF10372C
:102C8000BD4680BD80B584B000AF78607B681A1DFA
:102C900007F10C031146184600F017FCFB681846B4
:102CA0001037BD4680BD80B582B000AF184600F039
:102CB00005F8034618460837BD4680BD80B483B08A
:102CC00000AF3871012318460C37BD465DF8047B10
:102CD00070470000B0B58CB000AFF860B9607A60A2
:102CE0005E4A0121F86800F000FCB862FB681B68CE
:102CF0007B62FB685B683B62F86800F03DFC034662
:102D00007B6107F1140207F108031146184600F031
:102D100043FC0346FB61FB68B96A184600F056FCA9
:102D2000B861BB69FB62FC68FA691346DB009B1A59
:102D30009B001A46BB699D18786800F0A0FB03460B
:102D40001A4629462046FFF78AFF0023FB62FFF759
:102D5000AAFF0346002B27D007F10803184600F00E
:102D60005DFC03461C68FB681846FFF721FF03461D
:102D7000BA692146786A00F03DFCF862FB6A1C33B0
:102D8000FB6207F10803184600F048FC03461C6884
:102D9000FB681846FFF70CFF0346FA6A396A2046BB
:102DA00000F028FCF86226E007F10803184600F05E
:102DB00035FC03461C68FB681846FFF7F9FE03461E
:102DC000BA692146786A00F034FCF862FB6A1C3369
:102DD000FB6207F10803184600F020FC03461C685C
:102DE000FB681846FFF7E4FE0346FA6A396A204694
:102DF00000F01FFCF862FFF756FF034683F0010363
:102E0000DBB2002B09D0FB681846FFF7D1FE034662
:102E10001A46396A786AFFF7D6FEF868FB689A683E
:102E20007B6AD31A9B100E4A02FB03F31A46796A97
:102E3000FFF702FFFB68BA691A60FB68FA6A5A601A
:102E4000BA6A1346DB009B1A9B001A46BB691A44F8
:102E5000FB689A6000BF3037BD46B0BD00F4110872
:102E6000B76DDBB680B483B000AF786039603B6883
:102E70001A687B681A607B6818460C37BD465DF897
:102E8000047B704780B483B000AF78607B681846DD
:102E90000C37BD465DF8047B704790B585B000AF38
:102EA000786039607868FFF70CFE0446786800F0B7
:102EB000D9FB02463B682146786800F0DFFB0346F9
:102EC000BB60786800F025F80346FB6007F10C0250
:102ED00007F108031146184600F03BF80346002BA3
:102EE0000DD17C68BB68184600F0F9FB03461A4612
:102EF0003968204600F05CF80346002B04D078685F
:102F000000F007F8034600E0BB6818461437BD46DA
:102F100090BD80B584B000AF78607B681A1D07F162
:102F20000C031146184600F068FAFB681846103783
:102F3000BD4680BD80B582B000AF786039607B68E7
:102F40003968184600F0D7FB034618460837BD46D7
:102F500080BD80B483B000AF786039607B681A6848
:102F60003B681B689A420CBF01230023DBB2184662
:102F70000C37BD465DF8047B704790B583B000AF59
:102F800078607B68184600F0CDFB00BF20460C3708
:102F9000BD4690BD80B582B000AF78607B681B688D
:102FA000184600F0CAFB034618460837BD4680BDE8
:102FB00080B485B000AFF860B9607A60BB681A78F9
:102FC0007B681B789A4234BF01230023DBB218468A
:102FD0001437BD465DF8047B704780B582B000AF02
:102FE000786039607B683968184600F0B4FB7B680C
:102FF00018460837BD4680BD80B483B000AF786006
:1030000039603B681A687B681A607B6818460C3721
:10301000BD465DF8047B7047B0B58CB002AFF86078
:10302000B9607A603B60786800F0A4FB04463868B9
:1030300000F0ABFB0546B86B00F0B2FB034607F1AE
:103040001C0000932B462246F96800F0B4FB07F100
:103050001C03184600F091F9034607F11400BA6802
:10306000F96800F0CBFBBB69002B09D007F11C000D
:1030700007F1140393E8060000F08DF9044607E019
:103080007A6907F124031146184600F0B6F97C6A04
:1030900007F11C03184600F0D6F8234618462837D7
:1030A000BD46B0BD80B483B000AF78607B68184681
:1030B0000C37BD465DF8047B704780B582B000AF29
:1030C000786039607B683A681146184600F0D7FC92
:1030D0007B6818460837BD4680BD80B582B000AF1A
:1030E00078603960386800F0ACFC034619467868AF
:1030F00000F0B2FC78680837BD4680BDB0B58CB032
:1031000002AFF860B9607A603B60786800F032FB2B
:103110000446386800F0C3FC0546B86B00F040FB7D
:10312000034607F11C0000932B462246F96800F085
:10313000C1FC07F11C03184600F01FF9034607F114
:103140001400BA68F96800F059FBBB69002B09D07C
:1031500007F11C0007F1140393E8060000F01BF9C7
:10316000044607E07A6907F124031146184600F087
:1031700044F97C6A07F11C03184600F064F8234602
:1031800018462837BD46B0BD80B483B000AF786024
:103190007B6818460C37BD465DF8047B704780B4E9
:1031A00083B000AF78607B68DB6818460C37BD469B
:1031B0005DF8047B704780B483B000AF78607B68B3
:1031C0009B6818460C37BD465DF8047B704780B598
:1031D00082B000AF786039603968786800F08DFCA3
:1031E0003968786800F09EFC00BF0837BD4680BD96
:1031F00080B483B000AF78607B689B6818460C375A
:10320000BD465DF8047B704790B585B000AFF860AF
:10321000B9607A603B60FB68BA681A607868FFF74B
:103220005CFC04463868FFF763FC03461A462146F7
:10323000B86800F089FC0246FB685A60FB681846D3
:103240001437BD4690BD80B582B000AF78607B6812
:103250005B68002B07D07B681A687B685B6819463F
:103260001046FFF7B4FF7B6818460837BD4680BD9F
:1032700090B58BB000AFF860B9607A60B868FFF7BE
:1032800020FC0346BB61B86800F0ECF903467B61A3
:10329000012387F827301FE0BB697B61BC68BB69ED
:1032A000184600F06DFC03461A4679682046FFF781
:1032B0007FFE034687F8273097F82730002B05D08C
:1032C000BB691846FFF777FF034604E0BB69184661
:1032D000FFF765FF0346BB61BB69002BDCD17A6950
:1032E00007F110031146184600F087F897F82730C9
:1032F000002B1DD0B86800F056FC0346FB6107F1B7
:103300001C0207F1100311461846FFF722FE034680
:10331000002B08D007F1140207F118031946F868CA
:1033200000F052FC25E007F11003184600F065FCA0
:10333000BC683B69184600F0D2F903467A68194622
:103340002046FFF735FE0346002B08D007F1140294
:1033500007F118031946F86800F036FC09E000236D
:103360003B6207F1200207F110031946F86800F0EC
:1033700055FCF8682C37BD4690BD80B582B000AFD3
:1033800078607B685B68184600F0FAFB03461846D5
:103390000837BD4680BD80B586B000AFF8603B1DE4
:1033A00083E80600FB6818687968BA68FB685B68A0
:1033B00000F049FC03467B61FB6800225A607B6990
:1033C00018461837BD4680BD80B584B000AFF860A0
:1033D000B9607A60B86800F073FC0246FB68126856
:1033E0001A60786800F077FC03461A78FB681A7157
:1033F000FB6818461037BD4680BD80B483B000AF6F
:10340000786039607B683A681A607B6818460C37C8
:10341000BD465DF8047B704780B483B000AF786030
:103420007B685B6918460C37BD465DF8047B7047C6
:1034300080B582B000AF786039603968786800F094
:1034400055FC00BF0837BD4680BD80B483B000AFD7
:1034500078607B6818460C37BD465DF8047B704782
:1034600080B584B000AFF860B9607A607A68B968F6
:10347000F86800F046FC00BF1037BD4680BD80B440
:1034800083B000AF78607B6818460C37BD465DF8A6
:10349000047B7047B0B584B000AFF860B9607A6063
:1034A000BB6819461C20FDF7F9FC04467868FFF755
:1034B000E6FF03461D460FCD0FC495E8070084E8DC
:1034C000070000BF1037BD46B0BD80B483B000AF69
:1034D000786039603B681A687B681A607B681846B8
:1034E0000C37BD465DF8047B704790B587B000AFE0
:1034F000F860B9607A60F86800F016FC0446F86875
:1035000000F024FC0346E21ABB689A4234BF012350
:103510000023DBB2002B02D0786819F0F4FDF868C4
:1035200000F014FC0446F86800F010FC03463B6110
:1035300007F1080207F110031146184600F01CFCC1
:1035400003461B6823447B61F86800F0FFFB0246DA
:103550007B69934206D3F86800F0E6FB02467B697C
:10356000934204D9F86800F0DFFB034600E07B6972
:1035700018461C37BD4690BD80B584B000AF78605A
:103580007A6807F10C0311461846FFF79EFFFB68A7
:1035900018461037BD4680BD90B583B000AF786047
:1035A0003960786800F03AF803461C68386800F023
:1035B00035F803461B68E31A9B10034A02FB03F32A
:1035C00018460C37BD4690BDB76DDBB680B582B0EE
:1035D00000AF786039603B68002B06D07B683968A3
:1035E000184600F0DDFB034600E0002318460837CC
:1035F000BD4680BD90B587B002AFF860B9607A6013
:103600003B608DF800403B687A68B968F86800F064
:10361000D6FB034618461437BD4690BD80B483B030
:1036200000AF78607B6818460C37BD465DF8047BB8
:10363000704790B585B000AFF860B9607A603B60C4
:10364000F86800F0CEFB0446B86800F0CAFB0146FB
:103650003B687A68204600F0D3FB034618461437CF
:10366000BD4690BD80B483B000AF78607B68043302
:1036700018460C37BD465DF8047B704790B587B09F
:1036800000AFF860B9607A603B601AE0FC68B86827
:1036900000F076FA03463A6819462046FFF788FCA0
:1036A000034683F00103DBB2002B06D0BB687B60CE
:1036B000B868FFF780FDB86003E0B868FFF76FFDFA
:1036C000B860BB68002BE1D107F114037968184694
:1036D000FFF793FE7B6918461C37BD4690BD80B549
:1036E00082B000AF7860786800F04AFA0346184666
:1036F0000837BD4680BD90B583B000AF78603960B3
:103700007868FFF7DEF904467868FFF7ABFF0246FA
:103710003B6821467868FFF7B1FF034618460C372F
:10372000BD4690BD80B483B000AF786000BF18463E
:103730000C37BD465DF8047B704780B582B000AFA2
:1037400078607B681033184600F06BFB0346184620
:103750000837BD4680BD80B582B000AF7860396063
:103760007B683968184600F068FB7B6818460837A4
:10377000BD4680BD80B483B000AF78607B681846DA
:103780000C37BD465DF8047B704780B483B000AF52
:1037900078607B6818460C37BD465DF8047B70473F
:1037A00080B483B000AF78607B6818460C37BD46A4
:1037B0005DF8047B7047B0B584B000AFF860B960C5
:1037C0007A603B60FB68BA681A607868FFF7D2FFDE
:1037D00004463868FFF7D9FF0546386AFFF7E0FF6F
:1037E00003462A462146B86800F036FB0246FB68CD
:1037F0005A60FB6818461037BD46B0BD90B58DB015
:1038000000AFF860B9607A603B603B1D184600F07D
:1038100046FB0346BB61BC69B868FFF723FF03465C
:103820009C420CBF01230023DBB2002B30D0B868D0
:10383000FFF7F2FD0346002B13D0BC68B86800F018
:103840003FFB03461B681846FFF749FF03463A68EB
:1038500019462046FFF7ACFB0346002B01D001239D
:1038600000E00023002B0CD00023FB61B86800F0BF
:1038700027FB024607F11C031946F86800F0CEF951
:10388000DBE0FB683A68B9681846FFF7F1FCD4E062
:10389000BC68BB691846FFF722FF03461A46396821
:1038A0002046FFF785FB0346002B57D0BB697B61A1
:1038B000BC69B86800F010FB03461B689C420CBF53
:1038C00001230023DBB2002B0DD0B86800F004FB0D
:1038D0000446B86800F000FB03461A462146F86823
:1038E00000F006FBA9E0BC6807F11403184600F0DD
:1038F00084F903461B681846FFF7F1FE03463A6851
:1039000019462046FFF754FB0346002B1FD07B6966
:103910001846FFF744FC0346002B0CBF012300238D
:10392000DBB2002B0AD000233B6207F1140207F13F
:1039300020031946F86800F071F97EE007F11802DB
:1039400007F118031946F86800F0D2FA75E0FB6831
:103950003A68B9681846FFF78BFC6EE0BC68BB6933
:103960001846FFF7BCFE03463A6819462046FFF7A3
:103970001FFB0346002B56D0BB693B61BC69B8688E
:1039800000F09EFA03461B689C420CBF01230023F3
:10399000DBB2002B0CD000237B62B86800F090FAF9
:1039A000024607F124031946F86800F037F944E0AD
:1039B000BC6807F11003184600F0B3FA03461B6811
:1039C0001846FFF78CFE03461A4639682046FFF773
:1039D000EFFA0346002B1FD0BB691846FFF7DFFB49
:1039E0000346002B0CBF01230023DBB2002B0AD0BF
:1039F0000023BB6207F1180207F128031946F86893
:103A000000F00CF919E007F1100207F11003194654
:103A1000F86800F06DFA10E0FB683A68B96818467B
:103A2000FFF726FC09E00023FB6207F12C0207F1F7
:103A300018031946F86800F0F1F8F8683437BD4605
:103A400090BD80B483B000AF78607B6818460C37B7
:103A5000BD465DF8047B704790B583B000AF7860D9
:103A600039607C683868FFF7ECFF0346194620464A
:103A700000F068FA7B6818460C37BD4690BD80B4EC
:103A800083B000AF786039607B683A6812681A606A
:103A90007B6818460C37BD465DF8047B704780B4E0
:103AA00083B000AF78607B6818460C37BD465DF880
:103AB000047B7047B0B584B000AFF860B9607A603D
:103AC0003B60FB68BA681A607868FFF753FE0446EB
:103AD0003868FFF7E4FF0546386AFFF761FE0346E2
:103AE0002A462146B86800F040FA0246FB685A6050
:103AF000FB6818461037BD46B0BD90B583B000AF27
:103B000078603960786800F053FA04463868FFF747
:103B100014FE03461946204600F055FA00BF0C3744
:103B2000BD4690BD80B582B000AF786039607868DE
:103B300000F03EFA034601223968184600F050FAB8
:103B400000BF0837BD4680BD90B587B000AFF860B4
:103B5000B9607A60F86800F052FA7861B868FEF7E8
:103B6000BCFF04467868FEF7C3FF03462246796926
:103B7000F86800F055FA7B6918461C37BD4690BDC1
:103B800080B584B000AF7860786800F06EFA0246C5
:103B900007F10C031146184600F075FA0346184663
:103BA0001037BD4680BD80B584B000AF78607B68BB
:103BB000DA6807F10C0311461846FFF71EFCFB6894
:103BC00018461037BD4680BD80B584B000AFF860A0
:103BD000B9607A60B86800F062FA03461A68FB6858
:103BE0001A60786800F066FA03461A68FB685A6043
:103BF000FB6818461037BD4680BD80B582B000AF67
:103C000078607B681B68184619F011FA02467B68D9
:103C10001A607B6818460837BD4680BD80B485B001
:103C200000AFF860B9607A60BB681A68FB681A6018
:103C30007B681A68FB685A60FB6818461437BD46F3
:103C40005DF8047B7047B0B586B000AFF860B9602E
:103C50007A603B60BB68002B17D1F868FFF702FD64
:103C600002467B68934210D0FC683868FFF788FFF3
:103C700005467868FFF733FD03461A462946204675
:103C8000FFF796F90346002B01D0012300E0002343
:103C9000FB75FB680433F87D7A68396819F0C9F957
:103CA000FB685B695A1CFB685A6107F110033968AD
:103CB0001846FFF7A2FB3B6918461837BD46B0BD52
:103CC00080B483B000AF78607B6818460C37BD467F
:103CD0005DF8047B704780B483B000AF78607B6888
:103CE00018460C37BD465DF8047B704780B483B03E
:103CF00000AF7860396000BF0C37BD465DF8047BCB
:103D0000704780B584B000AFF860B9607A607A68B7
:103D10001346DB009B1A9B001946B86819F00EF990
:103D200000BF1037BD4680BD80B582B000AF78605F
:103D30007B68184600F0E6F90346184600F0C6F91D
:103D4000034618460837BD4680BD000080B483B0E6
:103D500000AF78607B685A687B681B68D31A9B1039
:103D6000044A02FB03F318460C37BD465DF8047B9A
:103D7000704700BFB76DDBB680B483B000AF78602A
:103D800039607B681A683B681B689A4201D23B68BD
:103D900000E07B6818460C37BD465DF8047B704731
:103DA00080B582B000AF78603960002239687868E9
:103DB00000F0B4F9034618460837BD4680BD80B50B
:103DC00084B000AFF860B9607A603B603B687A68A5
:103DD000B968F86800F0D0F9034618461037BD46B8
:103DE00080BD80B584B000AF786007F10C037968BE
:103DF000184600F0DEF9FB6818461037BD4680BD56
:103E000080B584B000AFF860B9607A603B607A68D2
:103E1000B968F86800F0DFF9034618461037BD4668
:103E200080BD80B582B000AF7860786800F0E7F9B7
:103E3000034618460837BD4680BD80B483B000AF46
:103E4000786039607B683A681A607B6818460C377E
:103E5000BD465DF8047B7047B0B588B002AFF8602E
:103E6000B9607A603B60F86800F0C9F87861B868BA
:103E7000FFF780FC04467868FFF787FC0546386842
:103E8000FFF78EFC034600932B4622467969F868BB
:103E900000F0C0F97B6918461837BD46B0BD80B543
:103EA00084B000AF78607B681A6807F10C03114694
:103EB0001846FFF7A2FAFB6818461037BD4680BDCA
:103EC00080B483B000AF78607B68103318460C373D
:103ED000BD465DF8047B704780B483B000AF786066
:103EE0007B680C3318460C37BD465DF8047B704781
:103EF00080B584B000AFF860B9607A60B86800F04F
:103F0000D9F803461A68FB681A60786800F0D2F89E
:103F100003461A68FB685A60FB6818461037BD46AE
:103F200080BD80B582B000AF78607B681B681846A2
:103F300019F07BF802467B681A607B6818460837E0
:103F4000BD4680BD90B583B000AF786039607C68B5
:103F50003868FFF776FD03461946204600F087F9DA
:103F60007B6818460C37BD4690BDB0B588B002AF2F
:103F7000F860B9607A603B60F86800F040F87861FA
:103F8000B868FFF7F7FB04467868FFF788FD054639
:103F90003868FFF705FC034600932B4622467969F3
:103FA000F86800F074F97B6918461837BD46B0BD53
:103FB00080B483B000AF78607B6818460C37BD468C
:103FC0005DF8047B704780B582B000AF78603960DF
:103FD0003968786800F088F900BF0837BD4680BDB1
:103FE00080B584B000AFF860B9607A607A68B9686B
:103FF000F86800F084F900BF1037BD4680BD80B579
:1040000082B000AF78607868FFF7D2FF03460121E5
:10401000184600F087F9034618460837BD4680BDAC
:10402000F0B585B000AFF860B9607A603B60BB68FE
:1040300019461820FCF732FFF868FFF7B9FF04466D
:10404000B868FFF77AFB05467868FEF746FD064636
:104050003868FEF74DFD034632462946204600F0FB
:1040600070F900BF1437BD46F0BD80B582B000AF17
:1040700078607B681033184600F07BF903461846D9
:104080000837BD4680BD80B483B000AF786039602A
:104090003B6818460C37BD465DF8047B704780B41A
:1040A00083B000AF78607B6818460C37BD465DF87A
:1040B000047B704780B483B000AF78607B6818469B
:1040C0000C37BD465DF8047B7047000080B584B0B6
:1040D00000AF78600A4BFB60786800F056F9034641
:1040E000BB6007F1080207F10C031146184600F007
:1040F00058F903461B6818461037BD4680BD00BFFF
:104100002449920480B483B000AF78607B6818467D
:104110000C37BD465DF8047B7047000080B584B065
:1041200000AFF860B9607A60F86800F04FF90246B5
:10413000BB6893428CBF01230023DBB2002B14BF6A
:1041400001230023DBB2002B07D0BB68094A93424E
:1041500001D918F0D5FF18F0D0FFBA681346DB007C
:104160009B1A9B00184618F0FAFE034618461037B3
:10417000BD4680BD49922409B0B584B000AFF86057
:10418000B9607A603B60F86800F02EF90446B868C0
:1041900000F02AF90546786800F026F902463B68E7
:1041A0002946204600F02CF9034618461037BD4634
:1041B000B0BD80B582B000AF786039603B4618462C
:1041C00000F048F903461A687B681A607B68184655
:1041D0000837BD4680BD80B586B000AFF860B960D5
:1041E0007A600123FB750123BB757A68B968F868AA
:1041F00000F03BF9034618461837BD4680BD80B431
:1042000083B000AF78607B6818460C37BD465DF818
:10421000047B70472DE9F04186B002AFF860B960C9
:104220007A603B60BB6819461820FCF737FEF868D7
:10423000FFF7BEFE0446B868FFF77FFA05467868C8
:10424000FFF798FA06463868FFF79FFA8046B86A83
:10425000FFF7A6FA03460093434632462946204616
:1042600000F013F900BF1037BD46BDE8F08180B5FE
:1042700082B000AF786039603868FFF7E2FB024631
:104280007B681A607B6818460837BD4680BD2DE9FB
:10429000F04186B002AFF860B9607A603B60BB68FD
:1042A00019461820FCF7FAFDF868FFF781FE04466E
:1042B000B868FFF742FA05467868FFF75BFA0646EA
:1042C0003868FFF7ECFB8046B86AFFF769FA0346E7
:1042D0000093434632462946204600F0F4F800BFDA
:1042E0001037BD46BDE8F08180B483B000AF786080
:1042F000396000BF0C37BD465DF8047B704780B560
:1043000084B000AFF860B9607A607A6813465B00E9
:104310001344DB001946B86818F010FE00BF1037D0
:10432000BD4680BD80B582B000AF786039600022A4
:104330003968786800F0E6F8034618460837BD4645
:1043400080BD90B585B000AFF860B9607A603B6021
:104350007868FEF7C2FB04463868FEF7C9FB0346DF
:104360002246B968F86800F0FBF800BF1437BD4674
:1043700090BD80B582B000AF7860786800F00EF92B
:10438000034618460837BD4680BD80B582B000AFF1
:104390007860786800F00DF9034618460837BD4686
:1043A00080BD80B483B000AF786039603B681A6824
:1043B0007B681B689A4201D23B6800E07B68184624
:1043C0000C37BD465DF8047B7047000080B483B0B5
:1043D00000AF7860034B18460C37BD465DF8047B90
:1043E000704700BF2449920480B483B000AF786066
:1043F0007B6818460C37BD465DF8047B70470000AB
:1044000080B586B000AFF860B9607A603B60BA688A
:10441000FB68D31A9B100E4A02FB03F37B617B6996
:10442000002B09DD7A691346DB009B1A9B001A46B4
:10443000F968786819F0F8FD7A691346DB009B1A71
:104440009B001A467B68134418461837BD4680BD4A
:10445000B76DDBB680B483B000AF78607B68184678
:104460000C37BD465DF8047B704780B584B000AF63
:10447000F860B9607A607A68B968F86800F0A5F801
:10448000034618461037BD4680BDB0B586B002AFB2
:10449000F860B9607A603B607868FFF76BF90446B2
:1044A0003868FFF772F90546386AFFF779F903466D
:1044B00000932B462246B968F86800F0AEF800BFBA
:1044C0001037BD46B0BDB0B586B002AFF860B96078
:1044D0007A603B607868FFF74DF904463868FFF76B
:1044E000DEFA0546386AFFF75BF9034600932B4670
:1044F0002246B968F86800F0B8F800BF1037BD462A
:10450000B0BD000080B584B000AFF860B9607A60DB
:10451000F86800F0D3F80246BB6893428CBF0123D1
:104520000023DBB2002B14BF01230023DBB2002BDE
:1045300007D0BB68094A934201D918F0E1FD18F091
:10454000DCFDBA6813465B001344DB00184618F024
:1045500006FD034618461037BD4680BDAAAAAA0A22
:10456000B0B584B000AFF860B9607A603B60BB68FA
:1045700019460820FCF792FC04467868FEF7ADFA6D
:1045800005463868FEF7B4FA03461A46294620461F
:1045900000F0A2F800BF1037BD46B0BD80B483B0B4
:1045A00000AF78607B6818460C37BD465DF8047B29
:1045B000704780B582B000AF78607868FFF706FF7B
:1045C000034618460837BD4680BD90B585B000AF9C
:1045D000F860B9607A60F86800F097F80446B86847
:1045E00000F093F803467A681946204600F09EF8DA
:1045F000034618461437BD4690BD80B582B000AF63
:10460000786039607B683A681146184600F0B1F866
:104610007B6818460837BD4680BDF0B587B000AF4F
:10462000F860B9607A603B60BB6819460820FCF707
:1046300035FC04467868FFF79DF83868FFF7A5F861
:10464000024607F1140311461846FFF7D6FF386BF0
:10465000FFF7A6F807F1140233462946204600F07A
:1046600098F800BF1C37BD46F0BDF0B587B000AF6D
:10467000F860B9607A603B60BB6819460820FCF7B7
:104680000DFC04467868FFF775F83868FFF707FAFD
:10469000024607F1140311461846FEF70EFD386B6B
:1046A000FFF77EF807F1140233462946204600F052
:1046B00084F800BF1C37BD46F0BD000080B483B055
:1046C00000AF7860034B18460C37BD465DF8047B9D
:1046D000704700BF5555550580B584B000AFF860F0
:1046E000B9607A60B868FEF7F8F903461A78FB6893
:1046F0001A707868FEF7FCF903461A68FB685A607E
:10470000FB6818461037BD4680BD80B582B000AF4B
:1047100078603B1D184600F064F80346184600F028
:104720006CF8034618460837BD4680BDB0B584B066
:1047300000AFF860B9607A60F868FFF755FE04468C
:10474000B868FFF751FE05467B681846FFF74CFE38
:1047500003461A462946204600F05AF802463B1DF9
:104760001146184600F064F8034618461037BD4657
:10477000B0BD80B483B000AF786039607B683A68C0
:1047800012681A607B6818460C37BD465DF8047BDA
:104790007047B0B586B002AFF86039727A603B708E
:1047A0003A468DF800402B467968F86800F04CF8DE
:1047B000FB6818461037BD46B0BDB0B586B002AF35
:1047C000F86039727A603B703A468DF800402B46AB
:1047D0007968F86800F052F8FB6818461037BD4653
:1047E000B0BD80B483B000AF78607B681B681846AA
:1047F0000C37BD465DF8047B704780B483B000AFD2
:1048000078607B6818460C37BD465DF8047B7047BE
:1048100080B584B000AFF860B9607A607A68B96832
:10482000F86800F045F8034618461037BD4680BDCD
:1048300080B483B000AF786039603B6818460C37AD
:10484000BD465DF8047B704780B584B000AFF8606A
:10485000B9607A603B70B86800F03AF803461846D1
:1048600000F043F803461A78FB681A70FB680022D0
:104870005A60FB6818461037BD4680BD80B584B0CD
:1048800000AFF860B9607A603B70B86800F038F843
:104890000346184600F041F803461A78FB681A7080
:1048A000FB6800225A60FB6818461037BD4680BD81
:1048B00080B584B000AFF860B9607A607A68B96892
:1048C000F86800F035F8034618461037BD4680BD3D
:1048D00080B582B000AF78607B68184600F052F86F
:1048E000034618460837BD4680BD80B483B000AF8C
:1048F00078607B6818460C37BD465DF8047B7047CE
:1049000080B582B000AF78607B68184600F046F84A
:10491000034618460837BD4680BD80B483B000AF5B
:1049200078607B6818460C37BD465DF8047B70479D
:1049300080B586B000AFF860B9607A60BA68FB688D
:10494000D31A9B100E4A02FB03F37B617B69002B99
:1049500009D07A691346DB009B1A9B001A46F96856
:10496000786819F061FB7A691346DB009B1A9B009B
:104970001A467B68134418461837BD4680BD00BFF1
:10498000B76DDBB680B582B000AF7860786800F0B4
:1049900011F8034618460837BD4680BD80B582B081
:1049A00000AF7860786800F012F8034618460837C0
:1049B000BD4680BD80B582B000AF78607B68184688
:1049C00000F012F8034618460837BD4680BD80B592
:1049D00082B000AF78607B68184600F011F803469B
:1049E00018460837BD4680BD80B483B000AF7860FC
:1049F0007B681B6818460C37BD465DF8047B704722
:104A000080B483B000AF78607B681B6818460C37B1
:104A1000BD465DF8047B704780B586B000AF786016
:104A2000FBF76CFD07F10C03184600F00BF807F1DB
:104A30000C03184600F0BAF8012008F032FF00BF5E
:104A4000F5E7000080B582B000AF78607B68054A6A
:104A5000116807221846FDF70BFC7B6818460837DB
:104A6000BD4680BDB401001082B0F0B591B004AF76
:104A7000786007F1480080E80C000B467B8097F8CF
:104A80006030002B05D0002B34DB033B012B31D8E9
:104A90001DE07B88BB8107F1100407F148050FCDAD
:104AA0000FC42B68236097F85C3087F8243097F8A0
:104AB000603087F825301C23FB6207F10C034FF4AC
:104AC0007A72F96A1846FBF79FFDB86213E07D68B9
:104AD0007E8897F8603003936C4607F1500393E8A3
:104AE000070084E8070007F148030CCB314628464D
:104AF000FDF7D8FB00BF00BF3437BD46BDE8F0402E
:104B000002B07047B0B592B006AF78601C23FB626C
:104B100007F10C030022F96A1846FBF79DFDB86205
:104B2000BA6AFB6A9A4214D1BD8997F8243097F883
:104B30002520049203936C4607F1180393E80700BD
:104B400084E8070007F110030CCB29467868FFF7CB
:104B50008BFF00BF3037BD46B0BD82B0F0B589B025
:104B600006AF786007F1200080E80C000B467B80E0
:104B70007B681D687E8897F83830049397F8343046
:104B800003936C4607F1280393E8070084E80700C5
:104B900007F120030CCB31462846FFF765FF00BF25
:104BA0000C37BD46BDE8F04002B0704790B589B003
:104BB00000AF78607868FFF7A5FF7C687B68FB61D1
:104BC00007F11C0207F10C031146184600F010F81B
:104BD00007F10C0319462046FDF79DFB07F10C0376
:104BE0001846FCF7CCFA00BF2437BD4690BD000044
:104BF00090B583B000AF786039607B681A460023B7
:104C00001360536093607B681846FDF703F97B6877
:104C10000022DA60386800F01BF80346002B0ED043
:104C20007C68386800F01FF803461946204600F0FB
:104C300025F87B68044ADA607B68044A9A607B68DE
:104C400018460C37BD4690BDA14C1008F14C100819
:104C500080B483B000AF7860012318460C37BD469E
:104C60005DF8047B704780B483B000AF78607B68E8
:104C700018460C37BD465DF8047B704790B583B08D
:104C800000AF786039603868FFF7EDFF03462246D1
:104C90001946786800F04BF800BF0C37BD4690BD50
:104CA0002DE9F04186B002AFF860B9607A603B60F0
:104CB000F86800F055F80446B868FDF788F905462D
:104CC0007868FDF78FF906463868FDF796F9804653
:104CD000B86AFDF792F903460093434632462946E7
:104CE000204600F04EF800BF1037BD46BDE8F08109
:104CF00090B585B000AFF860B9601346FB71FB79E1
:104D0000012B09D1F86800F065F80446B86800F096
:104D100027F80346236005E0FB791A46B968F8686E
:104D200000F064F8002318461437BD4690BD90B5D6
:104D300085B000AFF860B9603A71F868FCF7BAF86E
:104D4000034619460420FCF7A9F80446B868FFF7A3
:104D50008AFF03461B68236000BF1437BD4690BD21
:104D600080B584B000AF7860786800F079F8F860BA
:104D7000F86800F081F8034600BF18461037BD46BA
:104D800080BD2DE9F04387B002AFF860B9607A606A
:104D90003B60F86800F07BF80546B868FDF717F946
:104DA00006467868FDF71EF980463868FDF725F954
:104DB0000446386BFDF721F90346019300944346FE
:104DC00032462946484600F06DF800BF1437BD460C
:104DD000BDE8F08380B582B000AF78607868FCF7FA
:104DE00069F8034618460837BD4680BD90B585B0C2
:104DF00000AFF860B9601346FB71FB79032B2AD82A
:104E000001A252F823F000BF194E1008274E1008D7
:104E10003B4E10084D4E1008F868FDF7BEF90346EA
:104E200000221A6017E0F868FFF7D4FF0446B8685C
:104E3000FFF796FF034623600DE0B868FFF790FF89
:104E400003461946F86800F060F804E02146F86867
:104E500000F06DF800BF002318461437BD4690BD22
:104E600080B582B000AF78607868FCF72EF8034612
:104E700018460837BD4680BD80B483B000AF786067
:104E80007B6818460C37BD465DF8047B704780B4DC
:104E900083B000AF78607B6818460C37BD465DF87C
:104EA000047B70472DE9F0418AB006AF3873B960D2
:104EB0007A603B60B868FFF7EAFF80467868FDF7E4
:104EC00086F803461E883868FDF78CF80446B86AF1
:104ED000FDF793F803461D78F86AFDF78EF8034650
:104EE0001B78049303956D4604F1080393E80700CB
:104EF00085E8070094E80C0031464046FFF72DFE98
:104F000000BF1037BD46BDE8F08190B583B000AF5B
:104F100078603960386800F016F803462246194672
:104F2000786800F01BF800BF0C37BD4690BD80B517
:104F300082B000AF78603970786800F028F800BF60
:104F40000837BD4680BD80B483B000AF78607B6811
:104F500018460C37BD465DF8047B704790B585B0A8
:104F600000AFF860B9603A71F868FBF7A3FF034639
:104F700019460420FBF792FF0446B868FFF7E3FFE9
:104F800003461B68236000BF1437BD4690BD80B543
:104F900082B000AF78607868FBF78CFF0346184654
:104FA0000837BD4680BD000080B584B004AF924B89
:104FB000A9221A70904BFE225A708F4B01229A70D0
:104FC0008D4B0122DA708D4BFF221A708B4BFF2222
:104FD0005A708A4B00229A70884B0022DA70884BF4
:104FE00000221A70864B00225A70854B00229A705C
:104FF000834B0022DA700021002017F00DF97E4B60
:105000001B781A067C4B5B781B041A437A4B9B78FF
:105010001B021343784AD27813431A06764B1B7847
:105020001906754B5B781B041943734B9B781B0265
:105030000B437149C9780B431B0203F47F031A43E6
:105040006D4B1B7819066C4B5B781B0419436A4B3C
:105050009B781B020B436849C9780B431B0A03F476
:105060007F431A43644B1B781906634B5B781B0420
:105070001943614B9B781B020B435F49C9780B4373
:105080001B0E13435F4A13605C4B1B781A065B4B85
:105090005B781B041A43594B9B781B021343574AF6
:1050A000D27813431A06554B1B781906534B5B787D
:1050B0001B041943514B9B781B020B434F49C97882
:1050C0000B431B0203F47F031A434C4B1B78190656
:1050D0004A4B5B781B041943484B9B781B020B43DC
:1050E0004649C9780B431B0A03F47F431A43434BD9
:1050F0001B781906414B5B781B0419433F4B9B7887
:105100001B020B433D49C9780B431B0E13433E4A18
:1051100013603B4B1B781A06394B5B781B041A4310
:10512000374B9B781B021343354AD27813431A0638
:10513000334B1B781906324B5B781B041943304BF9
:105140009B781B020B432E49C9780B431B0203F4C7
:105150007F031A432A4B1B781906294B5B781B04E3
:105160001943274B9B781B020B432549C9780B43F6
:105170001B0A03F47F431A43214B1B781906204B6B
:105180005B781B0419431E4B9B781B020B431C4985
:10519000C9780B431B0E13431C4A13601C4B02932C
:1051A0001C4B019300230093184B174A15491A48CA
:1051B00010F00CFA184810F0BBFB174810F0C8FBB1
:1051C0001649154810F0C6FC24220021144818F096
:1051D00045FF134B134A1A60114B4FF480625A611A
:1051E0000F4B10229A610E4A0B490F4808F0C7FA7C
:1051F00000BFBD4680BD00BF7402001078020010E1
:105200007C020010680200106C0200107002001096
:1052100055C1110879571008340200102D5210089A
:10522000800200101CF41108395A100880B590B0A3
:1052300000AF78607B6893F82D3003F00103DBB298
:10524000002B15D040F20313BB84012387F82830CC
:10525000052387F83C30032387F83D30104B18684E
:1052600007F1240100234FF0FF3209F02BFE13E079
:1052700040F203133B8100233B73052387F8203062
:10528000032387F82130064B186807F10801002333
:105290004FF0FF3209F016FE00BF4037BD4680BD1B
:1052A000B001001080B582B000AF7860044B1B687D
:1052B000184608F0FBFC00BF0837BD4680BD00BFA4
:1052C000AC02001080B582B000AF7860044B1B6860
:1052D000184608F0EBFC00BF0837BD4680BD00BF94
:1052E000B002001080B582B000AF7860786804F03A
:1052F00098F9034603F08003802B04D1044B1B680C
:10530000184608F0D3FC00BF0837BD4680BD00BF7B
:10531000AC02001080B5AAB000AF7860002387F817
:105320009F300023C7F8A0300023C7F8983007F15A
:10533000100364220021184618F090FE894B8A4A17
:105340001A6000233B7280237B72E123BB7200232F
:10535000FB7200233B7300237B73824A07F108032F
:105360005360804B01221A727E4B804ADA607D4B7B
:105370007F4A1A617B4B4FF4C0625A61794803F04F
:105380005FF9034687F89F3038220021794818F0EA
:1053900065FE784B21221A60764B4FF440325A61F9
:1053A000744B00221A6174480FF0CAFF7B68062212
:1053B00083F82C206B4B5B681A787B6883F8262077
:1053C000684B5B685A787B6883F82720654B5B687D
:1053D0009A787B6883F82820624B5B68DA787B6870
:1053E00083F829205F4B5B681A797B6883F82A2051
:1053F0005C4B5B685A797B6883F82B207B6840F2B2
:10540000DC529A847B6893F82D3043F00A03DAB2B9
:105410007B6883F82D2000220021012008F06AFB20
:105420000346564A136000220021012008F062FB67
:105430000346534A136007F17403242200211846DF
:1054400018F00CFE4F4B7B6740F20443C7F88830DE
:105450003023C7F88C3007F174031A4679684A483C
:1054600008F08DF949494A4802F041FE484802F0E7
:1054700070FE0346002B06D0786810F03BFB78687E
:1054800010F0D2FA6BE097F89F30002B65D14048BE
:1054900002F0ACFEC7F89800D7F89830012B06DC74
:1054A000786810F027FB786810F0BEFA57E0D7F85C
:1054B0009830023B032B2BD801A252F823F000BFF7
:1054C000D1541008E3541008F35410080355100881
:1054D0004FF40053C7F8A4304FF48043C7F8A0300E
:1054E0001FE00023C7F8A4304FF48043C7F8A03072
:1054F00017E04FF40053C7F8A4300023C7F8A030DA
:105500000FE00023C7F8A4300023C7F8A03008E05C
:105510004FF40053C7F8A4304FF48043C7F8A030CD
:1055200000BF07F1100319460E4803F02FFED7F80D
:10553000A430BB62D7F8A0307B6207F11003194694
:10554000084803F0F7FF074803F078F9786810F08F
:10555000FFF9786810F09AFA01E0FBF72BFAA83708
:10556000BD4680BDB402001000800240000104105E
:105570000000041064030010AC241208AC020010F8
:10558000B002001024F41108255710080000001084
:105590009C03001080B592B000AF786039600023A2
:1055A0007B6400233B64002387F83F3007F10C0342
:1055B00030220021184618F051FD07F10C0330226B
:1055C0000021184618F04AFD3B683B6445E07B6CBF
:1055D000032B02D96FF00B037FE03B6C59687A6CA8
:1055E00013465B0013449B0048333B443C3B19602B
:1055F0003B6C5B8919467A6C13465B0013449B0035
:1056000048333B44383B19607B6C002B11D07B6CDA
:105610005A1E07F10C00796C0B465B000B449B0093
:10562000C11813465B0013449B0048333B44343B92
:1056300019603B6C1B68002B09D17A6C13465B0028
:1056400013449B0048333B44343B00221A607B6C7C
:1056500001337B643B6C1B683B643B6C002BB6D115
:105660003B681B891A461F4B5A601E4A07F10C0300
:1056700093601C4A3B685363386810F0BFFE1949B9
:10568000194803F0C8F90346002B03D1002387F81B
:105690003F301BE0144803F0B7FF034603F002035A
:1056A000002B0DD0114B1B684FF4FA61184608F01F
:1056B000ABFA0D4803F036FBFE2387F83F3005E0D8
:1056C000386810F0F5FDF42387F83F3097F93F3044
:1056D00013F1020FD3D097F93F3018464837BD4633
:1056E00080BD00BF64030010B4020010B0020010BF
:1056F00080B584B000AF78600023FB60074B1B7857
:10570000002B05D107F10C031946054803F0D4F925
:10571000FB6818461037BD4680BD00BFA8020010C8
:10572000B402001080B584B000AF78600023FB6045
:105730007B68BB600F4B1B684FF0FF31184608F0C9
:1057400063FA0346002BF5D1B868FFF7D1FFF86084
:10575000FB68002B0AD0BB681B69B968F8689847DA
:105760000346002B02D0F86810F0A2FDFB68002B66
:10577000EAD1DFE7AC02001080B582B000AF7860FC
:105780007B68002B06D10E4B4FF406720D490E4874
:1057900018F024FB7B68732283F82E207B68742228
:1057A00083F82F207B68094A5A617B68084A9A610E
:1057B0007868FFF7AFFD002318460837BD4680BD67
:1057C0002CF411088CF411089CF411088D28110890
:1057D0009555100880B584B000AF78607B68FB6099
:1057E000F96809480FF09CFE084B1B78012B07D184
:1057F000064B00221A70064B1B68184608F056FA32
:1058000000BF1037BD4680BDAC241208A8020010AE
:10581000AC02001080B500AF02F0FEFD0346184652
:1058200080BD000080B58EB000AF786007F1240322
:1058300000221A605A609A60DA601A617B681B68FD
:10584000514A934240F09B80504BD3F8D8304F4A96
:1058500043F40043C2F8D8304C4BD3F8D83003F4AB
:1058600000433B623B6A494BD3F8D830474A43F484
:105870008033C2F8D830454BD3F8D83003F48033A6
:10588000FB61FB69414BD3F8D830404A43F4003305
:10589000C2F8D8303D4BD3F8D83003F40033BB61A5
:1058A000BB693A4BD3F8E030384A43F04003C2F8C2
:1058B000E030364BD3F8E03003F040037B617B6986
:1058C000324BD3F8E030314A43F00403C2F8E03001
:1058D0002E4BD3F8E03003F004033B613B692B4BC4
:1058E000D3F8E030294A43F00103C2F8E030274BF7
:1058F000D3F8E03003F00103FB60FB684FF4605322
:105900007B620223BB620023FB6203233B630B2306
:105910007B6307F1240319461D4804F00FFC322372
:105920007B620223BB620023FB6203233B630B23E6
:105930007B6307F124031946164804F0FFFB862316
:105940007B620223BB620023FB6203233B630B23C6
:105950007B6307F1240319460F4804F0EFFB002294
:1059600005213D2002F030FE3D2002F047FE0022DE
:1059700006213E2002F028FE3E2002F03FFE00BF3E
:105980003837BD4680BD00BF008002400044025849
:1059900000180258000802580000025880B500AFF5
:1059A000024803F0E1FD0023184680BDB402001058
:1059B00080B400AF00231846BD465DF8047B7047F5
:1059C00080B584B000AFF860B9607A607B68BA686F
:1059D000F968074803F032FB0346002B02D04FF072
:1059E000FF3300E0002318461037BD4680BD00BFDE
:1059F000B402001080B584B000AFF860B9607A607E
:105A00007B68BA68F968074803F06CFB0346002B13
:105A100002D04FF0FF3300E0002318461037BD4698
:105A200080BD00BFB402001080B500AF02F0F4FCEE
:105A30000346184680BD000080B5A0B000AF786076
:105A400007F1080364220021184618F007FB002321
:105A50003B670023FB670023BB6700237B677B68F2
:105A6000FB663A4802F0C2FB3867FB6E93F82D30B4
:105A70009B0803F00103DBB2002B0CD03B6F012B22
:105A800009DC334802F04FFFF86E0FF0CDFFF86EDF
:105A900010F030F855E0FB6E93F82D3003F004035E
:105AA000002B4ED13B6F012B4BDD3B6F023B032B99
:105AB0002AD801A252F823F0C95A1008DB5A10085C
:105AC000EB5A1008FB5A10084FF400537B674FF451
:105AD0008043BB670123FB6717E000237B674FF41C
